{
	"contracts/AaveGhoster.sol": {
		"AaveGhoster": {
			"abi": [
				{
					"inputs": [
						{
							"internalType": "address",
							"name": "_owner",
							"type": "address"
						}
					],
					"stateMutability": "nonpayable",
					"type": "constructor"
				},
				{
					"inputs": [],
					"name": "AlreadyExists",
					"type": "error"
				},
				{
					"inputs": [],
					"name": "InvalidOwner",
					"type": "error"
				},
				{
					"inputs": [],
					"name": "InvalidRecipient",
					"type": "error"
				},
				{
					"inputs": [],
					"name": "InvalidSender",
					"type": "error"
				},
				{
					"inputs": [],
					"name": "NotFound",
					"type": "error"
				},
				{
					"inputs": [],
					"name": "Unauthorized",
					"type": "error"
				},
				{
					"inputs": [],
					"name": "UnsafeRecipient",
					"type": "error"
				},
				{
					"anonymous": false,
					"inputs": [
						{
							"indexed": true,
							"internalType": "address",
							"name": "owner",
							"type": "address"
						},
						{
							"indexed": true,
							"internalType": "address",
							"name": "spender",
							"type": "address"
						},
						{
							"indexed": false,
							"internalType": "uint256",
							"name": "amount",
							"type": "uint256"
						}
					],
					"name": "Approval",
					"type": "event"
				},
				{
					"anonymous": false,
					"inputs": [
						{
							"indexed": true,
							"internalType": "address",
							"name": "owner",
							"type": "address"
						},
						{
							"indexed": true,
							"internalType": "address",
							"name": "operator",
							"type": "address"
						},
						{
							"indexed": false,
							"internalType": "bool",
							"name": "approved",
							"type": "bool"
						}
					],
					"name": "ApprovalForAll",
					"type": "event"
				},
				{
					"anonymous": false,
					"inputs": [
						{
							"indexed": true,
							"internalType": "address",
							"name": "from",
							"type": "address"
						},
						{
							"indexed": true,
							"internalType": "address",
							"name": "to",
							"type": "address"
						},
						{
							"indexed": false,
							"internalType": "uint256",
							"name": "amount",
							"type": "uint256"
						}
					],
					"name": "ERC20Transfer",
					"type": "event"
				},
				{
					"anonymous": false,
					"inputs": [
						{
							"indexed": true,
							"internalType": "address",
							"name": "owner",
							"type": "address"
						},
						{
							"indexed": true,
							"internalType": "address",
							"name": "spender",
							"type": "address"
						},
						{
							"indexed": true,
							"internalType": "uint256",
							"name": "id",
							"type": "uint256"
						}
					],
					"name": "ERC721Approval",
					"type": "event"
				},
				{
					"anonymous": false,
					"inputs": [
						{
							"indexed": true,
							"internalType": "address",
							"name": "user",
							"type": "address"
						},
						{
							"indexed": true,
							"internalType": "address",
							"name": "newOwner",
							"type": "address"
						}
					],
					"name": "OwnershipTransferred",
					"type": "event"
				},
				{
					"anonymous": false,
					"inputs": [
						{
							"indexed": true,
							"internalType": "address",
							"name": "from",
							"type": "address"
						},
						{
							"indexed": true,
							"internalType": "address",
							"name": "to",
							"type": "address"
						},
						{
							"indexed": true,
							"internalType": "uint256",
							"name": "id",
							"type": "uint256"
						}
					],
					"name": "Transfer",
					"type": "event"
				},
				{
					"inputs": [
						{
							"internalType": "address",
							"name": "",
							"type": "address"
						},
						{
							"internalType": "address",
							"name": "",
							"type": "address"
						}
					],
					"name": "allowance",
					"outputs": [
						{
							"internalType": "uint256",
							"name": "",
							"type": "uint256"
						}
					],
					"stateMutability": "view",
					"type": "function"
				},
				{
					"inputs": [
						{
							"internalType": "address",
							"name": "spender",
							"type": "address"
						},
						{
							"internalType": "uint256",
							"name": "amountOrId",
							"type": "uint256"
						}
					],
					"name": "approve",
					"outputs": [
						{
							"internalType": "bool",
							"name": "",
							"type": "bool"
						}
					],
					"stateMutability": "nonpayable",
					"type": "function"
				},
				{
					"inputs": [
						{
							"internalType": "address",
							"name": "",
							"type": "address"
						}
					],
					"name": "balanceOf",
					"outputs": [
						{
							"internalType": "uint256",
							"name": "",
							"type": "uint256"
						}
					],
					"stateMutability": "view",
					"type": "function"
				},
				{
					"inputs": [],
					"name": "baseTokenURI",
					"outputs": [
						{
							"internalType": "string",
							"name": "",
							"type": "string"
						}
					],
					"stateMutability": "view",
					"type": "function"
				},
				{
					"inputs": [],
					"name": "dataURI",
					"outputs": [
						{
							"internalType": "string",
							"name": "",
							"type": "string"
						}
					],
					"stateMutability": "view",
					"type": "function"
				},
				{
					"inputs": [],
					"name": "decimals",
					"outputs": [
						{
							"internalType": "uint8",
							"name": "",
							"type": "uint8"
						}
					],
					"stateMutability": "view",
					"type": "function"
				},
				{
					"inputs": [
						{
							"internalType": "uint256",
							"name": "",
							"type": "uint256"
						}
					],
					"name": "getApproved",
					"outputs": [
						{
							"internalType": "address",
							"name": "",
							"type": "address"
						}
					],
					"stateMutability": "view",
					"type": "function"
				},
				{
					"inputs": [
						{
							"internalType": "address",
							"name": "",
							"type": "address"
						},
						{
							"internalType": "address",
							"name": "",
							"type": "address"
						}
					],
					"name": "isApprovedForAll",
					"outputs": [
						{
							"internalType": "bool",
							"name": "",
							"type": "bool"
						}
					],
					"stateMutability": "view",
					"type": "function"
				},
				{
					"inputs": [],
					"name": "minted",
					"outputs": [
						{
							"internalType": "uint256",
							"name": "",
							"type": "uint256"
						}
					],
					"stateMutability": "view",
					"type": "function"
				},
				{
					"inputs": [],
					"name": "name",
					"outputs": [
						{
							"internalType": "string",
							"name": "",
							"type": "string"
						}
					],
					"stateMutability": "view",
					"type": "function"
				},
				{
					"inputs": [],
					"name": "owner",
					"outputs": [
						{
							"internalType": "address",
							"name": "",
							"type": "address"
						}
					],
					"stateMutability": "view",
					"type": "function"
				},
				{
					"inputs": [
						{
							"internalType": "uint256",
							"name": "id",
							"type": "uint256"
						}
					],
					"name": "ownerOf",
					"outputs": [
						{
							"internalType": "address",
							"name": "owner",
							"type": "address"
						}
					],
					"stateMutability": "view",
					"type": "function"
				},
				{
					"inputs": [],
					"name": "revokeOwnership",
					"outputs": [],
					"stateMutability": "nonpayable",
					"type": "function"
				},
				{
					"inputs": [
						{
							"internalType": "address",
							"name": "from",
							"type": "address"
						},
						{
							"internalType": "address",
							"name": "to",
							"type": "address"
						},
						{
							"internalType": "uint256",
							"name": "id",
							"type": "uint256"
						}
					],
					"name": "safeTransferFrom",
					"outputs": [],
					"stateMutability": "nonpayable",
					"type": "function"
				},
				{
					"inputs": [
						{
							"internalType": "address",
							"name": "from",
							"type": "address"
						},
						{
							"internalType": "address",
							"name": "to",
							"type": "address"
						},
						{
							"internalType": "uint256",
							"name": "id",
							"type": "uint256"
						},
						{
							"internalType": "bytes",
							"name": "data",
							"type": "bytes"
						}
					],
					"name": "safeTransferFrom",
					"outputs": [],
					"stateMutability": "nonpayable",
					"type": "function"
				},
				{
					"inputs": [
						{
							"internalType": "address",
							"name": "operator",
							"type": "address"
						},
						{
							"internalType": "bool",
							"name": "approved",
							"type": "bool"
						}
					],
					"name": "setApprovalForAll",
					"outputs": [],
					"stateMutability": "nonpayable",
					"type": "function"
				},
				{
					"inputs": [
						{
							"internalType": "string",
							"name": "_dataURI",
							"type": "string"
						}
					],
					"name": "setDataURI",
					"outputs": [],
					"stateMutability": "nonpayable",
					"type": "function"
				},
				{
					"inputs": [
						{
							"internalType": "string",
							"name": "_name",
							"type": "string"
						},
						{
							"internalType": "string",
							"name": "_symbol",
							"type": "string"
						}
					],
					"name": "setNameSymbol",
					"outputs": [],
					"stateMutability": "nonpayable",
					"type": "function"
				},
				{
					"inputs": [
						{
							"internalType": "string",
							"name": "_tokenURI",
							"type": "string"
						}
					],
					"name": "setTokenURI",
					"outputs": [],
					"stateMutability": "nonpayable",
					"type": "function"
				},
				{
					"inputs": [
						{
							"internalType": "address",
							"name": "target",
							"type": "address"
						},
						{
							"internalType": "bool",
							"name": "state",
							"type": "bool"
						}
					],
					"name": "setWhitelist",
					"outputs": [],
					"stateMutability": "nonpayable",
					"type": "function"
				},
				{
					"inputs": [],
					"name": "symbol",
					"outputs": [
						{
							"internalType": "string",
							"name": "",
							"type": "string"
						}
					],
					"stateMutability": "view",
					"type": "function"
				},
				{
					"inputs": [
						{
							"internalType": "uint256",
							"name": "id",
							"type": "uint256"
						}
					],
					"name": "tokenURI",
					"outputs": [
						{
							"internalType": "string",
							"name": "",
							"type": "string"
						}
					],
					"stateMutability": "view",
					"type": "function"
				},
				{
					"inputs": [],
					"name": "totalSupply",
					"outputs": [
						{
							"internalType": "uint256",
							"name": "",
							"type": "uint256"
						}
					],
					"stateMutability": "view",
					"type": "function"
				},
				{
					"inputs": [
						{
							"internalType": "address",
							"name": "to",
							"type": "address"
						},
						{
							"internalType": "uint256",
							"name": "amount",
							"type": "uint256"
						}
					],
					"name": "transfer",
					"outputs": [
						{
							"internalType": "bool",
							"name": "",
							"type": "bool"
						}
					],
					"stateMutability": "nonpayable",
					"type": "function"
				},
				{
					"inputs": [
						{
							"internalType": "address",
							"name": "from",
							"type": "address"
						},
						{
							"internalType": "address",
							"name": "to",
							"type": "address"
						},
						{
							"internalType": "uint256",
							"name": "amountOrId",
							"type": "uint256"
						}
					],
					"name": "transferFrom",
					"outputs": [],
					"stateMutability": "nonpayable",
					"type": "function"
				},
				{
					"inputs": [
						{
							"internalType": "address",
							"name": "_owner",
							"type": "address"
						}
					],
					"name": "transferOwnership",
					"outputs": [],
					"stateMutability": "nonpayable",
					"type": "function"
				},
				{
					"inputs": [
						{
							"internalType": "address",
							"name": "",
							"type": "address"
						}
					],
					"name": "whitelist",
					"outputs": [
						{
							"internalType": "bool",
							"name": "",
							"type": "bool"
						}
					],
					"stateMutability": "view",
					"type": "function"
				}
			],
			"devdoc": {
				"kind": "dev",
				"methods": {
					"approve(address,uint256)": {
						"details": "This function assumes id / native if amount less than or equal to current max id"
					},
					"transferFrom(address,address,uint256)": {
						"details": "This function assumes id / native if amount less than or equal to current max id"
					}
				},
				"version": 1
			},
			"evm": {
				"assembly": "    /* \"contracts/AaveGhoster.sol\":145:3230  contract AaveGhoster is ERC404 {... */\n  mstore(0x40, 0xc0)\n    /* \"contracts/AaveGhoster.sol\":246:401  constructor(... */\n  callvalue\n  dup1\n  iszero\n  tag_1\n  jumpi\n  0x00\n  dup1\n  revert\ntag_1:\n  pop\n  mload(0x40)\n  sub(codesize, bytecodeSize)\n  dup1\n  bytecodeSize\n  dup4\n  codecopy\n  dup2\n  add\n  0x40\n  dup2\n  swap1\n  mstore\n  tag_2\n  swap2\n  tag_3\n  jump\t// in\ntag_2:\n    /* \"contracts/ERC404.sol\":4192:4528  constructor(... */\n  mload(0x40)\n  dup1\n  0x40\n  add\n  0x40\n  mstore\n  dup1\n  0x0b\n  dup2\n  mstore\n  0x20\n  add\n  shl(0xa9, 0x20b0bb32a3b437b9ba32b9)\n  dup2\n  mstore\n  pop\n  mload(0x40)\n  dup1\n  0x40\n  add\n  0x40\n  mstore\n  dup1\n  0x0b\n  dup2\n  mstore\n  0x20\n  add\n  shl(0xa9, 0x20a0ab22a3a427a9aa22a9)\n  dup2\n  mstore\n  pop\n    /* \"contracts/AaveGhoster.sol\":327:329  18 */\n  0x12\n    /* \"contracts/AaveGhoster.sol\":331:336  15000 */\n  0x3a98\n    /* \"contracts/AaveGhoster.sol\":338:344  _owner */\n  dup5\n    /* \"contracts/ERC404.sol\":4369:4375  _owner */\n  dup1\n    /* \"contracts/ERC404.sol\":444:445  0 */\n  0x00\n  sub(shl(0xa0, 0x01), 0x01)\n    /* \"contracts/ERC404.sol\":426:446  _owner == address(0) */\n  and\n    /* \"contracts/ERC404.sol\":426:432  _owner */\n  dup2\n  sub(shl(0xa0, 0x01), 0x01)\n    /* \"contracts/ERC404.sol\":426:446  _owner == address(0) */\n  and\n  sub\n    /* \"contracts/ERC404.sol\":422:469  if (_owner == address(0)) revert InvalidOwner() */\n  tag_8\n  jumpi\n    /* \"contracts/ERC404.sol\":455:469  InvalidOwner() */\n  mload(0x40)\n  shl(0xe0, 0x49e27cff)\n  dup2\n  mstore\n  0x04\n  add\n  mload(0x40)\n  dup1\n  swap2\n  sub\n  swap1\n  revert\n    /* \"contracts/ERC404.sol\":422:469  if (_owner == address(0)) revert InvalidOwner() */\ntag_8:\n    /* \"contracts/ERC404.sol\":482:487  owner */\n  0x00\n    /* \"contracts/ERC404.sol\":482:496  owner = _owner */\n  dup1\n  sload\n  not(sub(shl(0xa0, 0x01), 0x01))\n  and\n  sub(shl(0xa0, 0x01), 0x01)\n  dup4\n  and\n  swap1\n  dup2\n  or\n  dup3\n  sstore\n    /* \"contracts/ERC404.sol\":514:554  OwnershipTransferred(address(0), _owner) */\n  mload(0x40)\n    /* \"contracts/ERC404.sol\":482:496  owner = _owner */\n  swap1\n  swap2\n    /* \"contracts/ERC404.sol\":482:487  owner */\n  swap1\n    /* \"contracts/ERC404.sol\":514:554  OwnershipTransferred(address(0), _owner) */\n  0x8be0079c531659141344cd1fd0a4f28419497f9722a3daafe3b4186f6b6457e0\n  swap1\n    /* \"contracts/ERC404.sol\":482:487  owner */\n  dup3\n  swap1\n    /* \"contracts/ERC404.sol\":514:554  OwnershipTransferred(address(0), _owner) */\n  log3\n  pop\n    /* \"contracts/ERC404.sol\":4388:4392  name */\n  0x01\n    /* \"contracts/ERC404.sol\":4388:4400  name = _name */\n  tag_10\n    /* \"contracts/ERC404.sol\":4395:4400  _name */\n  dup7\n    /* \"contracts/ERC404.sol\":4388:4392  name */\n  dup3\n    /* \"contracts/ERC404.sol\":4388:4400  name = _name */\n  tag_11\n  jump\t// in\ntag_10:\n  pop\n    /* \"contracts/ERC404.sol\":4411:4417  symbol */\n  0x02\n    /* \"contracts/ERC404.sol\":4411:4427  symbol = _symbol */\n  tag_12\n    /* \"contracts/ERC404.sol\":4420:4427  _symbol */\n  dup6\n    /* \"contracts/ERC404.sol\":4411:4417  symbol */\n  dup3\n    /* \"contracts/ERC404.sol\":4411:4427  symbol = _symbol */\n  tag_11\n  jump\t// in\ntag_12:\n  pop\n    /* \"contracts/ERC404.sol\":4438:4458  decimals = _decimals */\n  0xff\n  dup4\n  and\n  0x80\n  dup2\n  swap1\n  mstore\n    /* \"contracts/ERC404.sol\":4505:4519  10 ** decimals */\n  tag_13\n  swap1\n    /* \"contracts/ERC404.sol\":4505:4507  10 */\n  0x0a\n    /* \"contracts/ERC404.sol\":4505:4519  10 ** decimals */\n  tag_14\n  jump\t// in\ntag_13:\n    /* \"contracts/ERC404.sol\":4483:4520  _totalNativeSupply * (10 ** decimals) */\n  tag_15\n  swap1\n    /* \"contracts/ERC404.sol\":4483:4501  _totalNativeSupply */\n  dup4\n    /* \"contracts/ERC404.sol\":4483:4520  _totalNativeSupply * (10 ** decimals) */\n  tag_16\n  jump\t// in\ntag_15:\n    /* \"contracts/ERC404.sol\":4469:4520  totalSupply = _totalNativeSupply * (10 ** decimals) */\n  0xa0\n  mstore\n  pop\n  pop\n  pop\n  sub(shl(0xa0, 0x01), 0x01)\n    /* \"contracts/AaveGhoster.sol\":357:374  balanceOf[_owner] */\n  swap1\n  swap3\n  and\n  0x00\n  swap1\n  dup2\n  mstore\n    /* \"contracts/AaveGhoster.sol\":357:366  balanceOf */\n  0x04\n    /* \"contracts/AaveGhoster.sol\":357:374  balanceOf[_owner] */\n  0x20\n  mstore\n  0x40\n  swap1\n  keccak256\n    /* \"contracts/AaveGhoster.sol\":377:393  15000 * 10 ** 18 */\n  0x032d26d12e980b600000\n    /* \"contracts/AaveGhoster.sol\":357:393  balanceOf[_owner] = 15000 * 10 ** 18 */\n  swap1\n  sstore\n  pop\n    /* \"contracts/AaveGhoster.sol\":145:3230  contract AaveGhoster is ERC404 {... */\n  tag_27\n  swap1\n  pop\n  jump\n    /* \"#utility.yul\":14:304   */\ntag_3:\n    /* \"#utility.yul\":84:90   */\n  0x00\n    /* \"#utility.yul\":137:139   */\n  0x20\n    /* \"#utility.yul\":125:134   */\n  dup3\n    /* \"#utility.yul\":116:123   */\n  dup5\n    /* \"#utility.yul\":112:135   */\n  sub\n    /* \"#utility.yul\":108:140   */\n  slt\n    /* \"#utility.yul\":105:157   */\n  iszero\n  tag_29\n  jumpi\n    /* \"#utility.yul\":153:154   */\n  0x00\n    /* \"#utility.yul\":150:151   */\n  dup1\n    /* \"#utility.yul\":143:155   */\n  revert\n    /* \"#utility.yul\":105:157   */\ntag_29:\n    /* \"#utility.yul\":179:195   */\n  dup2\n  mload\n  sub(shl(0xa0, 0x01), 0x01)\n    /* \"#utility.yul\":224:255   */\n  dup2\n  and\n    /* \"#utility.yul\":214:256   */\n  dup2\n  eq\n    /* \"#utility.yul\":204:274   */\n  tag_30\n  jumpi\n    /* \"#utility.yul\":270:271   */\n  0x00\n    /* \"#utility.yul\":267:268   */\n  dup1\n    /* \"#utility.yul\":260:272   */\n  revert\n    /* \"#utility.yul\":204:274   */\ntag_30:\n    /* \"#utility.yul\":293:298   */\n  swap4\n    /* \"#utility.yul\":14:304   */\n  swap3\n  pop\n  pop\n  pop\n  jump\t// out\n    /* \"#utility.yul\":309:436   */\ntag_19:\n    /* \"#utility.yul\":370:380   */\n  0x4e487b71\n    /* \"#utility.yul\":365:368   */\n  0xe0\n    /* \"#utility.yul\":361:381   */\n  shl\n    /* \"#utility.yul\":358:359   */\n  0x00\n    /* \"#utility.yul\":351:382   */\n  mstore\n    /* \"#utility.yul\":401:405   */\n  0x41\n    /* \"#utility.yul\":398:399   */\n  0x04\n    /* \"#utility.yul\":391:406   */\n  mstore\n    /* \"#utility.yul\":425:429   */\n  0x24\n    /* \"#utility.yul\":422:423   */\n  0x00\n    /* \"#utility.yul\":415:430   */\n  revert\n    /* \"#utility.yul\":441:821   */\ntag_20:\n    /* \"#utility.yul\":520:521   */\n  0x01\n    /* \"#utility.yul\":516:528   */\n  dup2\n  dup2\n  shr\n  swap1\n    /* \"#utility.yul\":563:575   */\n  dup3\n  and\n  dup1\n    /* \"#utility.yul\":584:645   */\n  tag_33\n  jumpi\n    /* \"#utility.yul\":638:642   */\n  0x7f\n    /* \"#utility.yul\":630:636   */\n  dup3\n    /* \"#utility.yul\":626:643   */\n  and\n    /* \"#utility.yul\":616:643   */\n  swap2\n  pop\n    /* \"#utility.yul\":584:645   */\ntag_33:\n    /* \"#utility.yul\":691:693   */\n  0x20\n    /* \"#utility.yul\":683:689   */\n  dup3\n    /* \"#utility.yul\":680:694   */\n  lt\n    /* \"#utility.yul\":660:678   */\n  dup2\n    /* \"#utility.yul\":657:695   */\n  sub\n    /* \"#utility.yul\":654:815   */\n  tag_34\n  jumpi\n    /* \"#utility.yul\":737:747   */\n  0x4e487b71\n    /* \"#utility.yul\":732:735   */\n  0xe0\n    /* \"#utility.yul\":728:748   */\n  shl\n    /* \"#utility.yul\":725:726   */\n  0x00\n    /* \"#utility.yul\":718:749   */\n  mstore\n    /* \"#utility.yul\":772:776   */\n  0x22\n    /* \"#utility.yul\":769:770   */\n  0x04\n    /* \"#utility.yul\":762:777   */\n  mstore\n    /* \"#utility.yul\":800:804   */\n  0x24\n    /* \"#utility.yul\":797:798   */\n  0x00\n    /* \"#utility.yul\":790:805   */\n  revert\n    /* \"#utility.yul\":654:815   */\ntag_34:\n  pop\n    /* \"#utility.yul\":441:821   */\n  swap2\n  swap1\n  pop\n  jump\t// out\n    /* \"#utility.yul\":952:1495   */\ntag_22:\n    /* \"#utility.yul\":1054:1056   */\n  0x1f\n    /* \"#utility.yul\":1049:1052   */\n  dup3\n    /* \"#utility.yul\":1046:1057   */\n  gt\n    /* \"#utility.yul\":1043:1489   */\n  iszero\n  tag_37\n  jumpi\n    /* \"#utility.yul\":1090:1091   */\n  0x00\n    /* \"#utility.yul\":1114:1119   */\n  dup2\n    /* \"#utility.yul\":1111:1112   */\n  0x00\n    /* \"#utility.yul\":1104:1120   */\n  mstore\n    /* \"#utility.yul\":1158:1162   */\n  0x20\n    /* \"#utility.yul\":1155:1156   */\n  0x00\n    /* \"#utility.yul\":1145:1163   */\n  keccak256\n    /* \"#utility.yul\":1228:1230   */\n  0x1f\n    /* \"#utility.yul\":1216:1226   */\n  dup6\n    /* \"#utility.yul\":1212:1231   */\n  add\n    /* \"#utility.yul\":1209:1210   */\n  0x05\n    /* \"#utility.yul\":1205:1232   */\n  shr\n    /* \"#utility.yul\":1199:1203   */\n  dup2\n    /* \"#utility.yul\":1195:1233   */\n  add\n    /* \"#utility.yul\":1264:1268   */\n  0x20\n    /* \"#utility.yul\":1252:1262   */\n  dup7\n    /* \"#utility.yul\":1249:1269   */\n  lt\n    /* \"#utility.yul\":1246:1293   */\n  iszero\n  tag_38\n  jumpi\n  pop\n    /* \"#utility.yul\":1287:1291   */\n  dup1\n    /* \"#utility.yul\":1246:1293   */\ntag_38:\n    /* \"#utility.yul\":1342:1344   */\n  0x1f\n    /* \"#utility.yul\":1337:1340   */\n  dup6\n    /* \"#utility.yul\":1333:1345   */\n  add\n    /* \"#utility.yul\":1330:1331   */\n  0x05\n    /* \"#utility.yul\":1326:1346   */\n  shr\n    /* \"#utility.yul\":1320:1324   */\n  dup3\n    /* \"#utility.yul\":1316:1347   */\n  add\n    /* \"#utility.yul\":1306:1347   */\n  swap2\n  pop\n    /* \"#utility.yul\":1397:1479   */\ntag_39:\n    /* \"#utility.yul\":1415:1417   */\n  dup2\n    /* \"#utility.yul\":1408:1413   */\n  dup2\n    /* \"#utility.yul\":1405:1418   */\n  lt\n    /* \"#utility.yul\":1397:1479   */\n  iszero\n  tag_41\n  jumpi\n    /* \"#utility.yul\":1460:1477   */\n  dup3\n  dup2\n  sstore\n    /* \"#utility.yul\":1441:1442   */\n  0x01\n    /* \"#utility.yul\":1430:1443   */\n  add\n    /* \"#utility.yul\":1397:1479   */\n  jump(tag_39)\ntag_41:\n    /* \"#utility.yul\":1401:1404   */\n  pop\n  pop\n  pop\n    /* \"#utility.yul\":1043:1489   */\ntag_37:\n    /* \"#utility.yul\":952:1495   */\n  pop\n  pop\n  pop\n  jump\t// out\n    /* \"#utility.yul\":1671:3016   */\ntag_11:\n    /* \"#utility.yul\":1791:1801   */\n  dup2\n  mload\n  sub(shl(0x40, 0x01), 0x01)\n    /* \"#utility.yul\":1813:1843   */\n  dup2\n  gt\n    /* \"#utility.yul\":1810:1866   */\n  iszero\n  tag_45\n  jumpi\n    /* \"#utility.yul\":1846:1864   */\n  tag_45\n  tag_19\n  jump\t// in\ntag_45:\n    /* \"#utility.yul\":1875:1972   */\n  tag_46\n    /* \"#utility.yul\":1965:1971   */\n  dup2\n    /* \"#utility.yul\":1925:1963   */\n  tag_47\n    /* \"#utility.yul\":1957:1961   */\n  dup5\n    /* \"#utility.yul\":1951:1962   */\n  sload\n    /* \"#utility.yul\":1925:1963   */\n  tag_20\n  jump\t// in\ntag_47:\n    /* \"#utility.yul\":1919:1923   */\n  dup5\n    /* \"#utility.yul\":1875:1972   */\n  tag_22\n  jump\t// in\ntag_46:\n    /* \"#utility.yul\":2027:2031   */\n  0x20\n  dup1\n    /* \"#utility.yul\":2084:2086   */\n  0x1f\n    /* \"#utility.yul\":2073:2087   */\n  dup4\n  gt\n    /* \"#utility.yul\":2101:2102   */\n  0x01\n    /* \"#utility.yul\":2096:2759   */\n  dup2\n  eq\n  tag_49\n  jumpi\n    /* \"#utility.yul\":2803:2804   */\n  0x00\n    /* \"#utility.yul\":2820:2826   */\n  dup5\n    /* \"#utility.yul\":2817:2906   */\n  iszero\n  tag_50\n  jumpi\n  pop\n    /* \"#utility.yul\":2872:2891   */\n  dup6\n  dup4\n  add\n    /* \"#utility.yul\":2866:2892   */\n  mload\n    /* \"#utility.yul\":2817:2906   */\ntag_50:\n  not(0x00)\n    /* \"#utility.yul\":1628:1629   */\n  0x03\n    /* \"#utility.yul\":1624:1635   */\n  dup7\n  swap1\n  shl\n    /* \"#utility.yul\":1620:1644   */\n  shr\n    /* \"#utility.yul\":1616:1645   */\n  not\n    /* \"#utility.yul\":1606:1646   */\n  and\n    /* \"#utility.yul\":1652:1653   */\n  0x01\n    /* \"#utility.yul\":1648:1659   */\n  dup6\n  swap1\n  shl\n    /* \"#utility.yul\":1603:1660   */\n  or\n    /* \"#utility.yul\":2919:3000   */\n  dup6\n  sstore\n    /* \"#utility.yul\":2066:3010   */\n  jump(tag_41)\n    /* \"#utility.yul\":2096:2759   */\ntag_49:\n    /* \"#utility.yul\":899:900   */\n  0x00\n    /* \"#utility.yul\":892:906   */\n  dup6\n  dup2\n  mstore\n    /* \"#utility.yul\":936:940   */\n  0x20\n    /* \"#utility.yul\":923:941   */\n  dup2\n  keccak256\n  not(0x1f)\n    /* \"#utility.yul\":2132:2152   */\n  dup7\n  and\n  swap2\n    /* \"#utility.yul\":2250:2486   */\ntag_53:\n    /* \"#utility.yul\":2264:2271   */\n  dup3\n    /* \"#utility.yul\":2261:2262   */\n  dup2\n    /* \"#utility.yul\":2258:2272   */\n  lt\n    /* \"#utility.yul\":2250:2486   */\n  iszero\n  tag_55\n  jumpi\n    /* \"#utility.yul\":2353:2372   */\n  dup9\n  dup7\n  add\n    /* \"#utility.yul\":2347:2373   */\n  mload\n    /* \"#utility.yul\":2332:2374   */\n  dup3\n  sstore\n    /* \"#utility.yul\":2445:2472   */\n  swap5\n  dup5\n  add\n  swap5\n    /* \"#utility.yul\":2413:2414   */\n  0x01\n    /* \"#utility.yul\":2401:2415   */\n  swap1\n  swap2\n  add\n  swap1\n    /* \"#utility.yul\":2280:2299   */\n  dup5\n  add\n    /* \"#utility.yul\":2250:2486   */\n  jump(tag_53)\ntag_55:\n    /* \"#utility.yul\":2254:2257   */\n  pop\n    /* \"#utility.yul\":2514:2520   */\n  dup6\n    /* \"#utility.yul\":2505:2512   */\n  dup3\n    /* \"#utility.yul\":2502:2521   */\n  lt\n    /* \"#utility.yul\":2499:2700   */\n  iszero\n  tag_56\n  jumpi\n    /* \"#utility.yul\":2575:2594   */\n  dup8\n  dup6\n  add\n    /* \"#utility.yul\":2569:2595   */\n  mload\n  not(0x00)\n    /* \"#utility.yul\":2658:2659   */\n  0x03\n    /* \"#utility.yul\":2654:2668   */\n  dup9\n  swap1\n  shl\n    /* \"#utility.yul\":2670:2673   */\n  0xf8\n    /* \"#utility.yul\":2650:2674   */\n  and\n    /* \"#utility.yul\":2646:2683   */\n  shr\n    /* \"#utility.yul\":2642:2684   */\n  not\n    /* \"#utility.yul\":2627:2685   */\n  and\n    /* \"#utility.yul\":2612:2686   */\n  dup2\n  sstore\n    /* \"#utility.yul\":2499:2700   */\ntag_56:\n  pop\n  pop\n  pop\n  pop\n  pop\n    /* \"#utility.yul\":2746:2747   */\n  0x01\n    /* \"#utility.yul\":2730:2744   */\n  swap1\n  dup2\n  shl\n    /* \"#utility.yul\":2726:2748   */\n  add\n    /* \"#utility.yul\":2713:2749   */\n  swap1\n  sstore\n  pop\n    /* \"#utility.yul\":1671:3016   */\n  jump\t// out\n    /* \"#utility.yul\":3021:3148   */\ntag_24:\n    /* \"#utility.yul\":3082:3092   */\n  0x4e487b71\n    /* \"#utility.yul\":3077:3080   */\n  0xe0\n    /* \"#utility.yul\":3073:3093   */\n  shl\n    /* \"#utility.yul\":3070:3071   */\n  0x00\n    /* \"#utility.yul\":3063:3094   */\n  mstore\n    /* \"#utility.yul\":3113:3117   */\n  0x11\n    /* \"#utility.yul\":3110:3111   */\n  0x04\n    /* \"#utility.yul\":3103:3118   */\n  mstore\n    /* \"#utility.yul\":3137:3141   */\n  0x24\n    /* \"#utility.yul\":3134:3135   */\n  0x00\n    /* \"#utility.yul\":3127:3142   */\n  revert\n    /* \"#utility.yul\":3153:3569   */\ntag_25:\n    /* \"#utility.yul\":3242:3243   */\n  0x01\n    /* \"#utility.yul\":3279:3284   */\n  dup2\n    /* \"#utility.yul\":3242:3243   */\n  dup2\n    /* \"#utility.yul\":3293:3563   */\ntag_59:\n    /* \"#utility.yul\":3314:3321   */\n  dup1\n    /* \"#utility.yul\":3304:3312   */\n  dup6\n    /* \"#utility.yul\":3301:3322   */\n  gt\n    /* \"#utility.yul\":3293:3563   */\n  iszero\n  tag_61\n  jumpi\n    /* \"#utility.yul\":3373:3377   */\n  dup2\n    /* \"#utility.yul\":3369:3370   */\n  0x00\n    /* \"#utility.yul\":3365:3371   */\n  not\n    /* \"#utility.yul\":3361:3378   */\n  div\n    /* \"#utility.yul\":3355:3359   */\n  dup3\n    /* \"#utility.yul\":3352:3379   */\n  gt\n    /* \"#utility.yul\":3349:3402   */\n  iszero\n  tag_63\n  jumpi\n    /* \"#utility.yul\":3382:3400   */\n  tag_63\n  tag_24\n  jump\t// in\ntag_63:\n    /* \"#utility.yul\":3432:3439   */\n  dup1\n    /* \"#utility.yul\":3422:3430   */\n  dup6\n    /* \"#utility.yul\":3418:3440   */\n  and\n    /* \"#utility.yul\":3415:3470   */\n  iszero\n  tag_64\n  jumpi\n    /* \"#utility.yul\":3452:3468   */\n  swap2\n  dup2\n  mul\n  swap2\n    /* \"#utility.yul\":3415:3470   */\ntag_64:\n    /* \"#utility.yul\":3531:3553   */\n  swap4\n  dup5\n  shr\n  swap4\n    /* \"#utility.yul\":3491:3506   */\n  swap1\n  dup1\n  mul\n  swap1\n    /* \"#utility.yul\":3293:3563   */\n  jump(tag_59)\ntag_61:\n    /* \"#utility.yul\":3297:3300   */\n  pop\n    /* \"#utility.yul\":3153:3569   */\n  swap3\n  pop\n  swap3\n  swap1\n  pop\n  jump\t// out\n    /* \"#utility.yul\":3574:4380   */\ntag_26:\n    /* \"#utility.yul\":3623:3628   */\n  0x00\n    /* \"#utility.yul\":3653:3661   */\n  dup3\n    /* \"#utility.yul\":3643:3723   */\n  tag_66\n  jumpi\n  pop\n    /* \"#utility.yul\":3694:3695   */\n  0x01\n    /* \"#utility.yul\":3708:3713   */\n  jump(tag_65)\n    /* \"#utility.yul\":3643:3723   */\ntag_66:\n    /* \"#utility.yul\":3742:3746   */\n  dup2\n    /* \"#utility.yul\":3732:3808   */\n  tag_67\n  jumpi\n  pop\n    /* \"#utility.yul\":3779:3780   */\n  0x00\n    /* \"#utility.yul\":3793:3798   */\n  jump(tag_65)\n    /* \"#utility.yul\":3732:3808   */\ntag_67:\n    /* \"#utility.yul\":3824:3828   */\n  dup2\n    /* \"#utility.yul\":3842:3843   */\n  0x01\n    /* \"#utility.yul\":3837:3896   */\n  dup2\n  eq\n  tag_69\n  jumpi\n    /* \"#utility.yul\":3910:3911   */\n  0x02\n    /* \"#utility.yul\":3905:4035   */\n  dup2\n  eq\n  tag_70\n  jumpi\n    /* \"#utility.yul\":3817:4035   */\n  jump(tag_68)\n    /* \"#utility.yul\":3837:3896   */\ntag_69:\n    /* \"#utility.yul\":3867:3868   */\n  0x01\n    /* \"#utility.yul\":3858:3868   */\n  swap2\n  pop\n    /* \"#utility.yul\":3881:3886   */\n  pop\n  jump(tag_65)\n    /* \"#utility.yul\":3905:4035   */\ntag_70:\n    /* \"#utility.yul\":3942:3945   */\n  0xff\n    /* \"#utility.yul\":3932:3940   */\n  dup5\n    /* \"#utility.yul\":3929:3946   */\n  gt\n    /* \"#utility.yul\":3926:3969   */\n  iszero\n  tag_72\n  jumpi\n    /* \"#utility.yul\":3949:3967   */\n  tag_72\n  tag_24\n  jump\t// in\ntag_72:\n  pop\n  pop\n    /* \"#utility.yul\":4005:4006   */\n  0x01\n    /* \"#utility.yul\":3991:4007   */\n  dup3\n  shl\n    /* \"#utility.yul\":4020:4025   */\n  jump(tag_65)\n    /* \"#utility.yul\":3817:4035   */\ntag_68:\n  pop\n    /* \"#utility.yul\":4119:4121   */\n  0x20\n    /* \"#utility.yul\":4109:4117   */\n  dup4\n    /* \"#utility.yul\":4106:4122   */\n  lt\n    /* \"#utility.yul\":4100:4103   */\n  0x0133\n    /* \"#utility.yul\":4094:4098   */\n  dup4\n    /* \"#utility.yul\":4091:4104   */\n  lt\n    /* \"#utility.yul\":4087:4123   */\n  and\n    /* \"#utility.yul\":4081:4083   */\n  0x4e\n    /* \"#utility.yul\":4071:4079   */\n  dup5\n    /* \"#utility.yul\":4068:4084   */\n  lt\n    /* \"#utility.yul\":4063:4065   */\n  0x0b\n    /* \"#utility.yul\":4057:4061   */\n  dup5\n    /* \"#utility.yul\":4054:4066   */\n  lt\n    /* \"#utility.yul\":4050:4085   */\n  and\n    /* \"#utility.yul\":4047:4124   */\n  or\n    /* \"#utility.yul\":4044:4203   */\n  iszero\n  tag_73\n  jumpi\n  pop\n    /* \"#utility.yul\":4156:4175   */\n  dup2\n  dup2\n  exp\n    /* \"#utility.yul\":4188:4193   */\n  jump(tag_65)\n    /* \"#utility.yul\":4044:4203   */\ntag_73:\n    /* \"#utility.yul\":4235:4269   */\n  tag_74\n    /* \"#utility.yul\":4260:4268   */\n  dup4\n    /* \"#utility.yul\":4254:4258   */\n  dup4\n    /* \"#utility.yul\":4235:4269   */\n  tag_25\n  jump\t// in\ntag_74:\n    /* \"#utility.yul\":4305:4311   */\n  dup1\n    /* \"#utility.yul\":4301:4302   */\n  0x00\n    /* \"#utility.yul\":4297:4303   */\n  not\n    /* \"#utility.yul\":4293:4312   */\n  div\n    /* \"#utility.yul\":4284:4291   */\n  dup3\n    /* \"#utility.yul\":4281:4313   */\n  gt\n    /* \"#utility.yul\":4278:4336   */\n  iszero\n  tag_76\n  jumpi\n    /* \"#utility.yul\":4316:4334   */\n  tag_76\n  tag_24\n  jump\t// in\ntag_76:\n    /* \"#utility.yul\":4354:4374   */\n  mul\n  swap1\n  pop\n    /* \"#utility.yul\":3574:4380   */\ntag_65:\n  swap3\n  swap2\n  pop\n  pop\n  jump\t// out\n    /* \"#utility.yul\":4385:4525   */\ntag_14:\n    /* \"#utility.yul\":4443:4448   */\n  0x00\n    /* \"#utility.yul\":4472:4519   */\n  tag_30\n    /* \"#utility.yul\":4513:4517   */\n  0xff\n    /* \"#utility.yul\":4503:4511   */\n  dup5\n    /* \"#utility.yul\":4499:4518   */\n  and\n    /* \"#utility.yul\":4493:4497   */\n  dup4\n    /* \"#utility.yul\":4472:4519   */\n  tag_26\n  jump\t// in\n    /* \"#utility.yul\":4530:4698   */\ntag_16:\n    /* \"#utility.yul\":4603:4612   */\n  dup1\n  dup3\n  mul\n    /* \"#utility.yul\":4634:4643   */\n  dup2\n  iszero\n    /* \"#utility.yul\":4651:4666   */\n  dup3\n  dup3\n  div\n    /* \"#utility.yul\":4645:4667   */\n  dup5\n  eq\n    /* \"#utility.yul\":4631:4668   */\n  or\n    /* \"#utility.yul\":4621:4692   */\n  tag_65\n  jumpi\n    /* \"#utility.yul\":4672:4690   */\n  tag_65\n  tag_24\n  jump\t// in\n    /* \"#utility.yul\":4530:4698   */\ntag_27:\n    /* \"contracts/AaveGhoster.sol\":145:3230  contract AaveGhoster is ERC404 {... */\n  mload(0x80)\n  mload(0xa0)\n  codecopy(0x00, dataOffset(sub_0), dataSize(sub_0))\n  0x00\n  assignImmutable(\"0x39e0141cfa02fdbe6dfe36b58aeb79b8b1e06ed955c6eb62416243533e42d84a\")\n  0x00\n  assignImmutable(\"0xf2aed5d52b85e7b229d9a0bb201e12bdcbbc5fc133feb54c1cb531c3f7cf58ed\")\n  return(0x00, dataSize(sub_0))\nstop\n\nsub_0: assembly {\n        /* \"contracts/AaveGhoster.sol\":145:3230  contract AaveGhoster is ERC404 {... */\n      mstore(0x40, 0x80)\n      callvalue\n      dup1\n      iszero\n      tag_1\n      jumpi\n      0x00\n      dup1\n      revert\n    tag_1:\n      pop\n      jumpi(tag_2, lt(calldatasize, 0x04))\n      shr(0xe0, calldataload(0x00))\n      dup1\n      0x70a08231\n      gt\n      tag_30\n      jumpi\n      dup1\n      0xc87b56dd\n      gt\n      tag_31\n      jumpi\n      dup1\n      0xe0df5b6f\n      gt\n      tag_32\n      jumpi\n      dup1\n      0xe0df5b6f\n      eq\n      tag_26\n      jumpi\n      dup1\n      0xe985e9c5\n      eq\n      tag_27\n      jumpi\n      dup1\n      0xf28ca1dd\n      eq\n      tag_28\n      jumpi\n      dup1\n      0xf2fde38b\n      eq\n      tag_29\n      jumpi\n      0x00\n      dup1\n      revert\n    tag_32:\n      dup1\n      0xc87b56dd\n      eq\n      tag_23\n      jumpi\n      dup1\n      0xd547cfb7\n      eq\n      tag_24\n      jumpi\n      dup1\n      0xdd62ed3e\n      eq\n      tag_25\n      jumpi\n      0x00\n      dup1\n      revert\n    tag_31:\n      dup1\n      0x9b19251a\n      gt\n      tag_33\n      jumpi\n      dup1\n      0x9b19251a\n      eq\n      tag_19\n      jumpi\n      dup1\n      0xa22cb465\n      eq\n      tag_20\n      jumpi\n      dup1\n      0xa9059cbb\n      eq\n      tag_21\n      jumpi\n      dup1\n      0xb88d4fde\n      eq\n      tag_22\n      jumpi\n      0x00\n      dup1\n      revert\n    tag_33:\n      dup1\n      0x70a08231\n      eq\n      tag_16\n      jumpi\n      dup1\n      0x8da5cb5b\n      eq\n      tag_17\n      jumpi\n      dup1\n      0x95d89b41\n      eq\n      tag_18\n      jumpi\n      0x00\n      dup1\n      revert\n    tag_30:\n      dup1\n      0x2b968958\n      gt\n      tag_34\n      jumpi\n      dup1\n      0x4f02c420\n      gt\n      tag_35\n      jumpi\n      dup1\n      0x4f02c420\n      eq\n      tag_12\n      jumpi\n      dup1\n      0x504334c2\n      eq\n      tag_13\n      jumpi\n      dup1\n      0x53d6fd59\n      eq\n      tag_14\n      jumpi\n      dup1\n      0x6352211e\n      eq\n      tag_15\n      jumpi\n      0x00\n      dup1\n      revert\n    tag_35:\n      dup1\n      0x2b968958\n      eq\n      tag_9\n      jumpi\n      dup1\n      0x313ce567\n      eq\n      tag_10\n      jumpi\n      dup1\n      0x42842e0e\n      eq\n      tag_11\n      jumpi\n      0x00\n      dup1\n      revert\n    tag_34:\n      dup1\n      0x06fdde03\n      eq\n      tag_3\n      jumpi\n      dup1\n      0x081812fc\n      eq\n      tag_4\n      jumpi\n      dup1\n      0x095ea7b3\n      eq\n      tag_5\n      jumpi\n      dup1\n      0x18160ddd\n      eq\n      tag_6\n      jumpi\n      dup1\n      0x18d217c3\n      eq\n      tag_7\n      jumpi\n      dup1\n      0x23b872dd\n      eq\n      tag_8\n      jumpi\n    tag_2:\n      0x00\n      dup1\n      revert\n        /* \"contracts/ERC404.sol\":2800:2818  string public name */\n    tag_3:\n      tag_36\n      tag_37\n      jump\t// in\n    tag_36:\n      mload(0x40)\n      tag_38\n      swap2\n      swap1\n      tag_39\n      jump\t// in\n    tag_38:\n      mload(0x40)\n      dup1\n      swap2\n      sub\n      swap1\n      return\n        /* \"contracts/ERC404.sol\":3511:3557  mapping(uint256 => address) public getApproved */\n    tag_4:\n      tag_40\n      tag_41\n      calldatasize\n      0x04\n      tag_42\n      jump\t// in\n    tag_41:\n      mstore(0x20, 0x06)\n      0x00\n      swap1\n      dup2\n      mstore\n      0x40\n      swap1\n      keccak256\n      sload\n      sub(shl(0xa0, 0x01), 0x01)\n      and\n      dup2\n      jump\n    tag_40:\n      mload(0x40)\n      sub(shl(0xa0, 0x01), 0x01)\n        /* \"#utility.yul\":1019:1051   */\n      swap1\n      swap2\n      and\n        /* \"#utility.yul\":1001:1052   */\n      dup2\n      mstore\n        /* \"#utility.yul\":989:991   */\n      0x20\n        /* \"#utility.yul\":974:992   */\n      add\n        /* \"contracts/ERC404.sol\":3511:3557  mapping(uint256 => address) public getApproved */\n      tag_38\n        /* \"#utility.yul\":855:1058   */\n      jump\n        /* \"contracts/ERC404.sol\":5342:5984  function approve(... */\n    tag_5:\n      tag_46\n      tag_47\n      calldatasize\n      0x04\n      tag_48\n      jump\t// in\n    tag_47:\n      tag_49\n      jump\t// in\n    tag_46:\n      mload(0x40)\n        /* \"#utility.yul\":1665:1679   */\n      swap1\n      iszero\n        /* \"#utility.yul\":1658:1680   */\n      iszero\n        /* \"#utility.yul\":1640:1681   */\n      dup2\n      mstore\n        /* \"#utility.yul\":1628:1630   */\n      0x20\n        /* \"#utility.yul\":1613:1631   */\n      add\n        /* \"contracts/ERC404.sol\":5342:5984  function approve(... */\n      tag_38\n        /* \"#utility.yul\":1500:1687   */\n      jump\n        /* \"contracts/ERC404.sol\":3036:3072  uint256 public immutable totalSupply */\n    tag_6:\n      tag_52\n      immutable(\"0x39e0141cfa02fdbe6dfe36b58aeb79b8b1e06ed955c6eb62416243533e42d84a\")\n      dup2\n      jump\n    tag_52:\n      mload(0x40)\n        /* \"#utility.yul\":1838:1863   */\n      swap1\n      dup2\n      mstore\n        /* \"#utility.yul\":1826:1828   */\n      0x20\n        /* \"#utility.yul\":1811:1829   */\n      add\n        /* \"contracts/ERC404.sol\":3036:3072  uint256 public immutable totalSupply */\n      tag_38\n        /* \"#utility.yul\":1692:1869   */\n      jump\n        /* \"contracts/AaveGhoster.sol\":409:507  function setDataURI(string memory _dataURI) public onlyOwner {... */\n    tag_7:\n      tag_56\n      tag_57\n      calldatasize\n      0x04\n      tag_58\n      jump\t// in\n    tag_57:\n      tag_59\n      jump\t// in\n    tag_56:\n      stop\n        /* \"contracts/ERC404.sol\":6391:8107  function transferFrom(... */\n    tag_8:\n      tag_56\n      tag_61\n      calldatasize\n      0x04\n      tag_62\n      jump\t// in\n    tag_61:\n      tag_63\n      jump\t// in\n        /* \"contracts/ERC404.sol\":797:948  function revokeOwnership() public virtual onlyOwner {... */\n    tag_9:\n      tag_56\n      tag_65\n      jump\t// in\n        /* \"contracts/ERC404.sol\":2936:2967  uint8 public immutable decimals */\n    tag_10:\n      tag_66\n      immutable(\"0xf2aed5d52b85e7b229d9a0bb201e12bdcbbc5fc133feb54c1cb531c3f7cf58ed\")\n      dup2\n      jump\n    tag_66:\n      mload(0x40)\n        /* \"#utility.yul\":3562:3566   */\n      0xff\n        /* \"#utility.yul\":3550:3567   */\n      swap1\n      swap2\n      and\n        /* \"#utility.yul\":3532:3568   */\n      dup2\n      mstore\n        /* \"#utility.yul\":3520:3522   */\n      0x20\n        /* \"#utility.yul\":3505:3523   */\n      add\n        /* \"contracts/ERC404.sol\":2936:2967  uint8 public immutable decimals */\n      tag_38\n        /* \"#utility.yul\":3390:3574   */\n      jump\n        /* \"contracts/ERC404.sol\":8403:8808  function safeTransferFrom(... */\n    tag_11:\n      tag_56\n      tag_71\n      calldatasize\n      0x04\n      tag_62\n      jump\t// in\n    tag_71:\n      tag_72\n      jump\t// in\n        /* \"contracts/ERC404.sol\":3171:3192  uint256 public minted */\n    tag_12:\n      tag_52\n      sload(0x03)\n      dup2\n      jump\n        /* \"contracts/AaveGhoster.sol\":629:787  function setNameSymbol(... */\n    tag_13:\n      tag_56\n      tag_77\n      calldatasize\n      0x04\n      tag_78\n      jump\t// in\n    tag_77:\n      tag_79\n      jump\t// in\n        /* \"contracts/ERC404.sol\":4671:4782  function setWhitelist(address target, bool state) public onlyOwner {... */\n    tag_14:\n      tag_56\n      tag_81\n      calldatasize\n      0x04\n      tag_82\n      jump\t// in\n    tag_81:\n      tag_83\n      jump\t// in\n        /* \"contracts/ERC404.sol\":4854:5047  function ownerOf(uint256 id) public view virtual returns (address owner) {... */\n    tag_15:\n      tag_40\n      tag_85\n      calldatasize\n      0x04\n      tag_42\n      jump\t// in\n    tag_85:\n      tag_86\n      jump\t// in\n        /* \"contracts/ERC404.sol\":3277:3321  mapping(address => uint256) public balanceOf */\n    tag_16:\n      tag_52\n      tag_89\n      calldatasize\n      0x04\n      tag_90\n      jump\t// in\n    tag_89:\n      mstore(0x20, 0x04)\n      0x00\n      swap1\n      dup2\n      mstore\n      0x40\n      swap1\n      keccak256\n      sload\n      dup2\n      jump\n        /* \"contracts/ERC404.sol\":238:258  address public owner */\n    tag_17:\n      sload(0x00)\n      tag_40\n      swap1\n      sub(shl(0xa0, 0x01), 0x01)\n      and\n      dup2\n      jump\n        /* \"contracts/ERC404.sol\":2854:2874  string public symbol */\n    tag_18:\n      tag_36\n      tag_97\n      jump\t// in\n        /* \"contracts/ERC404.sol\":4122:4163  mapping(address => bool) public whitelist */\n    tag_19:\n      tag_46\n      tag_100\n      calldatasize\n      0x04\n      tag_90\n      jump\t// in\n    tag_100:\n      mstore(0x20, 0x0b)\n      0x00\n      swap1\n      dup2\n      mstore\n      0x40\n      swap1\n      keccak256\n      sload\n      0xff\n      and\n      dup2\n      jump\n        /* \"contracts/ERC404.sol\":6035:6242  function setApprovalForAll(address operator, bool approved) public virtual {... */\n    tag_20:\n      tag_56\n      tag_104\n      calldatasize\n      0x04\n      tag_82\n      jump\t// in\n    tag_104:\n      tag_105\n      jump\t// in\n        /* \"contracts/ERC404.sol\":8166:8326  function transfer(... */\n    tag_21:\n      tag_46\n      tag_107\n      calldatasize\n      0x04\n      tag_48\n      jump\t// in\n    tag_107:\n      tag_108\n      jump\t// in\n        /* \"contracts/ERC404.sol\":8903:9340  function safeTransferFrom(... */\n    tag_22:\n      tag_56\n      tag_111\n      calldatasize\n      0x04\n      tag_112\n      jump\t// in\n    tag_111:\n      tag_113\n      jump\t// in\n        /* \"contracts/AaveGhoster.sol\":795:3227  function tokenURI(uint256 id) public view override returns (string memory) {... */\n    tag_23:\n      tag_36\n      tag_115\n      calldatasize\n      0x04\n      tag_42\n      jump\t// in\n    tag_115:\n      tag_116\n      jump\t// in\n        /* \"contracts/AaveGhoster.sol\":211:237  string public baseTokenURI */\n    tag_24:\n      tag_36\n      tag_119\n      jump\t// in\n        /* \"contracts/ERC404.sol\":3391:3455  mapping(address => mapping(address => uint256)) public allowance */\n    tag_25:\n      tag_52\n      tag_122\n      calldatasize\n      0x04\n      tag_123\n      jump\t// in\n    tag_122:\n      0x05\n      0x20\n      swap1\n      dup2\n      mstore\n      0x00\n      swap3\n      dup4\n      mstore\n      0x40\n      dup1\n      dup5\n      keccak256\n      swap1\n      swap2\n      mstore\n      swap1\n      dup3\n      mstore\n      swap1\n      keccak256\n      sload\n      dup2\n      jump\n        /* \"contracts/AaveGhoster.sol\":515:621  function setTokenURI(string memory _tokenURI) public onlyOwner {... */\n    tag_26:\n      tag_56\n      tag_127\n      calldatasize\n      0x04\n      tag_58\n      jump\t// in\n    tag_127:\n      tag_128\n      jump\t// in\n        /* \"contracts/ERC404.sol\":3622:3690  mapping(address => mapping(address => bool)) public isApprovedForAll */\n    tag_27:\n      tag_46\n      tag_130\n      calldatasize\n      0x04\n      tag_123\n      jump\t// in\n    tag_130:\n      0x07\n      0x20\n      swap1\n      dup2\n      mstore\n      0x00\n      swap3\n      dup4\n      mstore\n      0x40\n      dup1\n      dup5\n      keccak256\n      swap1\n      swap2\n      mstore\n      swap1\n      dup3\n      mstore\n      swap1\n      keccak256\n      sload\n      0xff\n      and\n      dup2\n      jump\n        /* \"contracts/AaveGhoster.sol\":183:204  string public dataURI */\n    tag_28:\n      tag_36\n      tag_134\n      jump\t// in\n        /* \"contracts/ERC404.sol\":570:789  function transferOwnership(address _owner) public virtual onlyOwner {... */\n    tag_29:\n      tag_56\n      tag_137\n      calldatasize\n      0x04\n      tag_90\n      jump\t// in\n    tag_137:\n      tag_138\n      jump\t// in\n        /* \"contracts/ERC404.sol\":2800:2818  string public name */\n    tag_37:\n      0x01\n      dup1\n      sload\n      tag_139\n      swap1\n      tag_140\n      jump\t// in\n    tag_139:\n      dup1\n      0x1f\n      add\n      0x20\n      dup1\n      swap2\n      div\n      mul\n      0x20\n      add\n      mload(0x40)\n      swap1\n      dup2\n      add\n      0x40\n      mstore\n      dup1\n      swap3\n      swap2\n      swap1\n      dup2\n      dup2\n      mstore\n      0x20\n      add\n      dup3\n      dup1\n      sload\n      tag_141\n      swap1\n      tag_140\n      jump\t// in\n    tag_141:\n      dup1\n      iszero\n      tag_142\n      jumpi\n      dup1\n      0x1f\n      lt\n      tag_143\n      jumpi\n      0x0100\n      dup1\n      dup4\n      sload\n      div\n      mul\n      dup4\n      mstore\n      swap2\n      0x20\n      add\n      swap2\n      jump(tag_142)\n    tag_143:\n      dup3\n      add\n      swap2\n      swap1\n      0x00\n      mstore\n      keccak256(0x00, 0x20)\n      swap1\n    tag_144:\n      dup2\n      sload\n      dup2\n      mstore\n      swap1\n      0x01\n      add\n      swap1\n      0x20\n      add\n      dup1\n      dup4\n      gt\n      tag_144\n      jumpi\n      dup3\n      swap1\n      sub\n      0x1f\n      and\n      dup3\n      add\n      swap2\n    tag_142:\n      pop\n      pop\n      pop\n      pop\n      pop\n      dup2\n      jump\t// out\n        /* \"contracts/ERC404.sol\":5342:5984  function approve(... */\n    tag_49:\n        /* \"contracts/ERC404.sol\":5445:5449  bool */\n      0x00\n        /* \"contracts/ERC404.sol\":5480:5486  minted */\n      sload(0x03)\n        /* \"contracts/ERC404.sol\":5466:5476  amountOrId */\n      dup3\n        /* \"contracts/ERC404.sol\":5466:5486  amountOrId <= minted */\n      gt\n      iszero\n        /* \"contracts/ERC404.sol\":5466:5504  amountOrId <= minted && amountOrId > 0 */\n      dup1\n      iszero\n      tag_146\n      jumpi\n      pop\n        /* \"contracts/ERC404.sol\":5503:5504  0 */\n      0x00\n        /* \"contracts/ERC404.sol\":5490:5500  amountOrId */\n      dup3\n        /* \"contracts/ERC404.sol\":5490:5504  amountOrId > 0 */\n      gt\n        /* \"contracts/ERC404.sol\":5466:5504  amountOrId <= minted && amountOrId > 0 */\n    tag_146:\n        /* \"contracts/ERC404.sol\":5462:5953  if (amountOrId <= minted && amountOrId > 0) {... */\n      iszero\n      tag_147\n      jumpi\n        /* \"contracts/ERC404.sol\":5521:5534  address owner */\n      0x00\n        /* \"contracts/ERC404.sol\":5537:5557  _ownerOf[amountOrId] */\n      dup3\n      dup2\n      mstore\n        /* \"contracts/ERC404.sol\":5537:5545  _ownerOf */\n      0x08\n        /* \"contracts/ERC404.sol\":5537:5557  _ownerOf[amountOrId] */\n      0x20\n      mstore\n      0x40\n      swap1\n      keccak256\n      sload\n      sub(shl(0xa0, 0x01), 0x01)\n      and\n        /* \"contracts/ERC404.sol\":5578:5588  msg.sender */\n      caller\n        /* \"contracts/ERC404.sol\":5578:5597  msg.sender != owner */\n      dup2\n      eq\n      dup1\n      iszero\n      swap1\n        /* \"contracts/ERC404.sol\":5578:5637  msg.sender != owner && !isApprovedForAll[owner][msg.sender] */\n      tag_148\n      jumpi\n      pop\n      sub(shl(0xa0, 0x01), 0x01)\n        /* \"contracts/ERC404.sol\":5602:5625  isApprovedForAll[owner] */\n      dup2\n      and\n      0x00\n      swap1\n      dup2\n      mstore\n        /* \"contracts/ERC404.sol\":5602:5618  isApprovedForAll */\n      0x07\n        /* \"contracts/ERC404.sol\":5602:5625  isApprovedForAll[owner] */\n      0x20\n      swap1\n      dup2\n      mstore\n      0x40\n      dup1\n      dup4\n      keccak256\n        /* \"contracts/ERC404.sol\":5626:5636  msg.sender */\n      caller\n        /* \"contracts/ERC404.sol\":5602:5637  isApprovedForAll[owner][msg.sender] */\n      dup5\n      mstore\n      swap1\n      swap2\n      mstore\n      swap1\n      keccak256\n      sload\n      0xff\n      and\n        /* \"contracts/ERC404.sol\":5601:5637  !isApprovedForAll[owner][msg.sender] */\n      iszero\n        /* \"contracts/ERC404.sol\":5578:5637  msg.sender != owner && !isApprovedForAll[owner][msg.sender] */\n    tag_148:\n        /* \"contracts/ERC404.sol\":5574:5695  if (msg.sender != owner && !isApprovedForAll[owner][msg.sender]) {... */\n      iszero\n      tag_149\n      jumpi\n        /* \"contracts/ERC404.sol\":5665:5679  Unauthorized() */\n      mload(0x40)\n      shl(0xe8, 0x82b429)\n      dup2\n      mstore\n      0x04\n      add\n      mload(0x40)\n      dup1\n      swap2\n      sub\n      swap1\n      revert\n        /* \"contracts/ERC404.sol\":5574:5695  if (msg.sender != owner && !isApprovedForAll[owner][msg.sender]) {... */\n    tag_149:\n        /* \"contracts/ERC404.sol\":5711:5734  getApproved[amountOrId] */\n      0x00\n      dup4\n      dup2\n      mstore\n        /* \"contracts/ERC404.sol\":5711:5722  getApproved */\n      0x06\n        /* \"contracts/ERC404.sol\":5711:5734  getApproved[amountOrId] */\n      0x20\n      swap1\n      dup2\n      mstore\n      0x40\n      swap2\n      dup3\n      swap1\n      keccak256\n        /* \"contracts/ERC404.sol\":5711:5744  getApproved[amountOrId] = spender */\n      dup1\n      sload\n      not(sub(shl(0xa0, 0x01), 0x01))\n      and\n      sub(shl(0xa0, 0x01), 0x01)\n      dup9\n      dup2\n      and\n      swap2\n      dup3\n      or\n      swap1\n      swap3\n      sstore\n        /* \"contracts/ERC404.sol\":5766:5802  Approval(owner, spender, amountOrId) */\n      swap3\n      mload\n        /* \"#utility.yul\":1838:1863   */\n      dup7\n      dup2\n      mstore\n        /* \"contracts/ERC404.sol\":5766:5802  Approval(owner, spender, amountOrId) */\n      swap1\n      dup5\n      and\n      swap2\n      0x8c5be1e5ebec7d5bd14f71427d1e84f3dd0314c0f7b2291e5b200ac8c7c3b925\n      swap2\n        /* \"#utility.yul\":1811:1829   */\n      add\n        /* \"contracts/ERC404.sol\":5766:5802  Approval(owner, spender, amountOrId) */\n      mload(0x40)\n      dup1\n      swap2\n      sub\n      swap1\n      log3\n        /* \"contracts/ERC404.sol\":5506:5814  {... */\n      pop\n        /* \"contracts/ERC404.sol\":5462:5953  if (amountOrId <= minted && amountOrId > 0) {... */\n      jump(tag_151)\n    tag_147:\n        /* \"contracts/ERC404.sol\":5845:5855  msg.sender */\n      caller\n        /* \"contracts/ERC404.sol\":5835:5856  allowance[msg.sender] */\n      0x00\n      dup2\n      dup2\n      mstore\n        /* \"contracts/ERC404.sol\":5835:5844  allowance */\n      0x05\n        /* \"contracts/ERC404.sol\":5835:5856  allowance[msg.sender] */\n      0x20\n      swap1\n      dup2\n      mstore\n      0x40\n      dup1\n      dup4\n      keccak256\n      sub(shl(0xa0, 0x01), 0x01)\n        /* \"contracts/ERC404.sol\":5835:5865  allowance[msg.sender][spender] */\n      dup9\n      and\n      dup1\n      dup6\n      mstore\n      swap1\n      dup4\n      mstore\n      swap3\n      dup2\n      swap1\n      keccak256\n        /* \"contracts/ERC404.sol\":5835:5878  allowance[msg.sender][spender] = amountOrId */\n      dup7\n      swap1\n      sstore\n        /* \"contracts/ERC404.sol\":5900:5941  Approval(msg.sender, spender, amountOrId) */\n      mload\n        /* \"#utility.yul\":1838:1863   */\n      dup6\n      dup2\n      mstore\n        /* \"contracts/ERC404.sol\":5835:5865  allowance[msg.sender][spender] */\n      swap2\n      swap3\n        /* \"contracts/ERC404.sol\":5845:5855  msg.sender */\n      swap2\n        /* \"contracts/ERC404.sol\":5900:5941  Approval(msg.sender, spender, amountOrId) */\n      0x8c5be1e5ebec7d5bd14f71427d1e84f3dd0314c0f7b2291e5b200ac8c7c3b925\n      swap2\n        /* \"#utility.yul\":1811:1829   */\n      add\n        /* \"contracts/ERC404.sol\":5900:5941  Approval(msg.sender, spender, amountOrId) */\n      mload(0x40)\n      dup1\n      swap2\n      sub\n      swap1\n      log3\n        /* \"contracts/ERC404.sol\":5462:5953  if (amountOrId <= minted && amountOrId > 0) {... */\n    tag_151:\n      pop\n        /* \"contracts/ERC404.sol\":5972:5976  true */\n      0x01\n        /* \"contracts/ERC404.sol\":5342:5984  function approve(... */\n    tag_145:\n      swap3\n      swap2\n      pop\n      pop\n      jump\t// out\n        /* \"contracts/AaveGhoster.sol\":409:507  function setDataURI(string memory _dataURI) public onlyOwner {... */\n    tag_59:\n        /* \"contracts/ERC404.sol\":325:330  owner */\n      and(sub(shl(0xa0, 0x01), 0x01), sload(0x00))\n        /* \"contracts/ERC404.sol\":311:321  msg.sender */\n      caller\n        /* \"contracts/ERC404.sol\":311:330  msg.sender != owner */\n      eq\n        /* \"contracts/ERC404.sol\":307:353  if (msg.sender != owner) revert Unauthorized() */\n      tag_154\n      jumpi\n        /* \"contracts/ERC404.sol\":339:353  Unauthorized() */\n      mload(0x40)\n      shl(0xe8, 0x82b429)\n      dup2\n      mstore\n      0x04\n      add\n      mload(0x40)\n      dup1\n      swap2\n      sub\n      swap1\n      revert\n        /* \"contracts/ERC404.sol\":307:353  if (msg.sender != owner) revert Unauthorized() */\n    tag_154:\n        /* \"contracts/AaveGhoster.sol\":481:488  dataURI */\n      0x0c\n        /* \"contracts/AaveGhoster.sol\":481:499  dataURI = _dataURI */\n      tag_156\n        /* \"contracts/AaveGhoster.sol\":491:499  _dataURI */\n      dup3\n        /* \"contracts/AaveGhoster.sol\":481:488  dataURI */\n      dup3\n        /* \"contracts/AaveGhoster.sol\":481:499  dataURI = _dataURI */\n      tag_157\n      jump\t// in\n    tag_156:\n      pop\n        /* \"contracts/AaveGhoster.sol\":409:507  function setDataURI(string memory _dataURI) public onlyOwner {... */\n      pop\n      jump\t// out\n        /* \"contracts/ERC404.sol\":6391:8107  function transferFrom(... */\n    tag_63:\n        /* \"contracts/ERC404.sol\":6537:6543  minted */\n      sload(0x03)\n        /* \"contracts/ERC404.sol\":6523:6533  amountOrId */\n      dup2\n        /* \"contracts/ERC404.sol\":6523:6543  amountOrId <= minted */\n      gt\n        /* \"contracts/ERC404.sol\":6519:8100  if (amountOrId <= minted) {... */\n      tag_159\n      jumpi\n        /* \"contracts/ERC404.sol\":6572:6592  _ownerOf[amountOrId] */\n      0x00\n      dup2\n      dup2\n      mstore\n        /* \"contracts/ERC404.sol\":6572:6580  _ownerOf */\n      0x08\n        /* \"contracts/ERC404.sol\":6572:6592  _ownerOf[amountOrId] */\n      0x20\n      mstore\n      0x40\n      swap1\n      keccak256\n      sload\n      sub(shl(0xa0, 0x01), 0x01)\n        /* \"contracts/ERC404.sol\":6564:6592  from != _ownerOf[amountOrId] */\n      dup5\n      dup2\n      and\n        /* \"contracts/ERC404.sol\":6572:6592  _ownerOf[amountOrId] */\n      swap2\n      and\n        /* \"contracts/ERC404.sol\":6564:6592  from != _ownerOf[amountOrId] */\n      eq\n        /* \"contracts/ERC404.sol\":6560:6651  if (from != _ownerOf[amountOrId]) {... */\n      tag_160\n      jumpi\n        /* \"contracts/ERC404.sol\":6620:6635  InvalidSender() */\n      mload(0x40)\n      shl(0xe1, 0x6edaef2f)\n      dup2\n      mstore\n      0x04\n      add\n      mload(0x40)\n      dup1\n      swap2\n      sub\n      swap1\n      revert\n        /* \"contracts/ERC404.sol\":6560:6651  if (from != _ownerOf[amountOrId]) {... */\n    tag_160:\n      sub(shl(0xa0, 0x01), 0x01)\n        /* \"contracts/ERC404.sol\":6671:6687  to == address(0) */\n      dup3\n      and\n        /* \"contracts/ERC404.sol\":6667:6749  if (to == address(0)) {... */\n      tag_161\n      jumpi\n        /* \"contracts/ERC404.sol\":6715:6733  InvalidRecipient() */\n      mload(0x40)\n      shl(0xe1, 0x4e469669)\n      dup2\n      mstore\n      0x04\n      add\n      mload(0x40)\n      dup1\n      swap2\n      sub\n      swap1\n      revert\n        /* \"contracts/ERC404.sol\":6667:6749  if (to == address(0)) {... */\n    tag_161:\n        /* \"contracts/ERC404.sol\":6787:6797  msg.sender */\n      caller\n      sub(shl(0xa0, 0x01), 0x01)\n        /* \"contracts/ERC404.sol\":6787:6805  msg.sender != from */\n      dup5\n      and\n      eq\n      dup1\n      iszero\n      swap1\n        /* \"contracts/ERC404.sol\":6787:6861  msg.sender != from &&... */\n      tag_162\n      jumpi\n      pop\n      sub(shl(0xa0, 0x01), 0x01)\n        /* \"contracts/ERC404.sol\":6827:6849  isApprovedForAll[from] */\n      dup4\n      and\n      0x00\n      swap1\n      dup2\n      mstore\n        /* \"contracts/ERC404.sol\":6827:6843  isApprovedForAll */\n      0x07\n        /* \"contracts/ERC404.sol\":6827:6849  isApprovedForAll[from] */\n      0x20\n      swap1\n      dup2\n      mstore\n      0x40\n      dup1\n      dup4\n      keccak256\n        /* \"contracts/ERC404.sol\":6850:6860  msg.sender */\n      caller\n        /* \"contracts/ERC404.sol\":6827:6861  isApprovedForAll[from][msg.sender] */\n      dup5\n      mstore\n      swap1\n      swap2\n      mstore\n      swap1\n      keccak256\n      sload\n      0xff\n      and\n        /* \"contracts/ERC404.sol\":6826:6861  !isApprovedForAll[from][msg.sender] */\n      iszero\n        /* \"contracts/ERC404.sol\":6787:6861  msg.sender != from &&... */\n    tag_162:\n        /* \"contracts/ERC404.sol\":6787:6919  msg.sender != from &&... */\n      dup1\n      iszero\n      tag_163\n      jumpi\n      pop\n        /* \"contracts/ERC404.sol\":6896:6919  getApproved[amountOrId] */\n      0x00\n      dup2\n      dup2\n      mstore\n        /* \"contracts/ERC404.sol\":6896:6907  getApproved */\n      0x06\n        /* \"contracts/ERC404.sol\":6896:6919  getApproved[amountOrId] */\n      0x20\n      mstore\n      0x40\n      swap1\n      keccak256\n      sload\n      sub(shl(0xa0, 0x01), 0x01)\n      and\n        /* \"contracts/ERC404.sol\":6882:6892  msg.sender */\n      caller\n        /* \"contracts/ERC404.sol\":6882:6919  msg.sender != getApproved[amountOrId] */\n      eq\n      iszero\n        /* \"contracts/ERC404.sol\":6787:6919  msg.sender != from &&... */\n    tag_163:\n        /* \"contracts/ERC404.sol\":6765:6991  if (... */\n      iszero\n      tag_164\n      jumpi\n        /* \"contracts/ERC404.sol\":6961:6975  Unauthorized() */\n      mload(0x40)\n      shl(0xe8, 0x82b429)\n      dup2\n      mstore\n      0x04\n      add\n      mload(0x40)\n      dup1\n      swap2\n      sub\n      swap1\n      revert\n        /* \"contracts/ERC404.sol\":6765:6991  if (... */\n    tag_164:\n        /* \"contracts/ERC404.sol\":7026:7036  _getUnit() */\n      tag_165\n        /* \"contracts/ERC404.sol\":7026:7034  _getUnit */\n      tag_166\n        /* \"contracts/ERC404.sol\":7026:7036  _getUnit() */\n      jump\t// in\n    tag_165:\n      sub(shl(0xa0, 0x01), 0x01)\n        /* \"contracts/ERC404.sol\":7007:7022  balanceOf[from] */\n      dup5\n      and\n      0x00\n      swap1\n      dup2\n      mstore\n        /* \"contracts/ERC404.sol\":7007:7016  balanceOf */\n      0x04\n        /* \"contracts/ERC404.sol\":7007:7022  balanceOf[from] */\n      0x20\n      mstore\n      0x40\n      dup2\n      keccak256\n        /* \"contracts/ERC404.sol\":7007:7036  balanceOf[from] -= _getUnit() */\n      dup1\n      sload\n        /* \"contracts/ERC404.sol\":7007:7022  balanceOf[from] */\n      swap1\n      swap2\n      swap1\n        /* \"contracts/ERC404.sol\":7007:7036  balanceOf[from] -= _getUnit() */\n      tag_167\n      swap1\n      dup5\n      swap1\n      tag_168\n      jump\t// in\n    tag_167:\n      swap1\n      swap2\n      sstore\n      pop\n        /* \"contracts/ERC404.sol\":7099:7109  _getUnit() */\n      tag_169\n      swap1\n      pop\n        /* \"contracts/ERC404.sol\":7099:7107  _getUnit */\n      tag_166\n        /* \"contracts/ERC404.sol\":7099:7109  _getUnit() */\n      jump\t// in\n    tag_169:\n      sub(shl(0xa0, 0x01), 0x01)\n        /* \"contracts/ERC404.sol\":7082:7095  balanceOf[to] */\n      dup1\n      dup5\n      and\n      0x00\n      dup2\n      dup2\n      mstore\n        /* \"contracts/ERC404.sol\":7082:7091  balanceOf */\n      0x04\n        /* \"contracts/ERC404.sol\":7082:7095  balanceOf[to] */\n      0x20\n      swap1\n      dup2\n      mstore\n      0x40\n      dup1\n      dup4\n      keccak256\n        /* \"contracts/ERC404.sol\":7082:7109  balanceOf[to] += _getUnit() */\n      dup1\n      sload\n      swap1\n      swap7\n      add\n      swap1\n      swap6\n      sstore\n        /* \"contracts/ERC404.sol\":7141:7161  _ownerOf[amountOrId] */\n      dup6\n      dup3\n      mstore\n        /* \"contracts/ERC404.sol\":7141:7149  _ownerOf */\n      0x08\n        /* \"contracts/ERC404.sol\":7141:7161  _ownerOf[amountOrId] */\n      dup2\n      mstore\n      dup5\n      dup3\n      keccak256\n        /* \"contracts/ERC404.sol\":7141:7166  _ownerOf[amountOrId] = to */\n      dup1\n      sload\n      not(sub(shl(0xa0, 0x01), 0x01))\n      swap1\n      dup2\n      and\n      swap1\n      swap5\n      or\n      swap1\n      sstore\n        /* \"contracts/ERC404.sol\":7188:7199  getApproved */\n      0x06\n        /* \"contracts/ERC404.sol\":7188:7211  getApproved[amountOrId] */\n      dup2\n      mstore\n      dup5\n      dup3\n      keccak256\n        /* \"contracts/ERC404.sol\":7181:7211  delete getApproved[amountOrId] */\n      dup1\n      sload\n      swap1\n      swap4\n      and\n      swap1\n      swap3\n      sstore\n        /* \"contracts/ERC404.sol\":7289:7301  _owned[from] */\n      swap2\n      dup7\n      and\n      dup3\n      mstore\n        /* \"contracts/ERC404.sol\":7289:7295  _owned */\n      0x09\n        /* \"contracts/ERC404.sol\":7289:7301  _owned[from] */\n      swap1\n      mstore\n      swap1\n      dup2\n      keccak256\n        /* \"contracts/ERC404.sol\":7302:7321  _owned[from].length */\n      dup1\n      sload\n        /* \"contracts/ERC404.sol\":7302:7325  _owned[from].length - 1 */\n      tag_170\n      swap1\n      0x01\n      swap1\n      tag_168\n      jump\t// in\n    tag_170:\n        /* \"contracts/ERC404.sol\":7289:7326  _owned[from][_owned[from].length - 1] */\n      dup2\n      sload\n      dup2\n      lt\n      tag_172\n      jumpi\n      tag_172\n      tag_173\n      jump\t// in\n    tag_172:\n      0x00\n      swap2\n      dup3\n      mstore\n      0x20\n      dup1\n      dup4\n      keccak256\n      swap1\n      swap2\n      add\n      sload\n      sub(shl(0xa0, 0x01), 0x01)\n        /* \"contracts/ERC404.sol\":7341:7353  _owned[from] */\n      dup8\n      and\n      dup4\n      mstore\n        /* \"contracts/ERC404.sol\":7341:7347  _owned */\n      0x09\n        /* \"contracts/ERC404.sol\":7341:7353  _owned[from] */\n      dup3\n      mstore\n      0x40\n      dup1\n      dup5\n      keccak256\n        /* \"contracts/ERC404.sol\":7354:7377  _ownedIndex[amountOrId] */\n      dup7\n      dup6\n      mstore\n        /* \"contracts/ERC404.sol\":7354:7365  _ownedIndex */\n      0x0a\n        /* \"contracts/ERC404.sol\":7354:7377  _ownedIndex[amountOrId] */\n      swap1\n      swap4\n      mstore\n      swap1\n      swap3\n      keccak256\n      sload\n        /* \"contracts/ERC404.sol\":7341:7378  _owned[from][_ownedIndex[amountOrId]] */\n      dup2\n      sload\n        /* \"contracts/ERC404.sol\":7289:7326  _owned[from][_owned[from].length - 1] */\n      swap3\n      swap4\n      pop\n      dup4\n      swap3\n        /* \"contracts/ERC404.sol\":7341:7378  _owned[from][_ownedIndex[amountOrId]] */\n      dup2\n      lt\n      tag_176\n      jumpi\n      tag_176\n      tag_173\n      jump\t// in\n    tag_176:\n      0x00\n      swap2\n      dup3\n      mstore\n      0x20\n      dup1\n      dup4\n      keccak256\n      swap1\n      swap2\n      add\n        /* \"contracts/ERC404.sol\":7341:7390  _owned[from][_ownedIndex[amountOrId]] = updatedId */\n      swap3\n      swap1\n      swap3\n      sstore\n      sub(shl(0xa0, 0x01), 0x01)\n        /* \"contracts/ERC404.sol\":7425:7437  _owned[from] */\n      dup7\n      and\n      dup2\n      mstore\n        /* \"contracts/ERC404.sol\":7425:7431  _owned */\n      0x09\n        /* \"contracts/ERC404.sol\":7425:7437  _owned[from] */\n      swap1\n      swap2\n      mstore\n      0x40\n      swap1\n      keccak256\n        /* \"contracts/ERC404.sol\":7425:7443  _owned[from].pop() */\n      dup1\n      sload\n      dup1\n      tag_179\n      jumpi\n      tag_179\n      tag_180\n      jump\t// in\n    tag_179:\n      0x00\n      dup3\n      dup2\n      mstore\n      0x20\n      dup1\n      dup3\n      keccak256\n      dup4\n      add\n      not(0x00)\n      swap1\n      dup2\n      add\n      dup4\n      swap1\n      sstore\n      swap1\n      swap3\n      add\n      swap1\n      swap3\n      sstore\n        /* \"contracts/ERC404.sol\":7529:7552  _ownedIndex[amountOrId] */\n      dup4\n      dup3\n      mstore\n        /* \"contracts/ERC404.sol\":7529:7540  _ownedIndex */\n      0x0a\n        /* \"contracts/ERC404.sol\":7529:7552  _ownedIndex[amountOrId] */\n      dup2\n      mstore\n      0x40\n      dup1\n      dup4\n      keccak256\n      sload\n        /* \"contracts/ERC404.sol\":7504:7526  _ownedIndex[updatedId] */\n      dup5\n      dup5\n      mstore\n      dup2\n      dup5\n      keccak256\n        /* \"contracts/ERC404.sol\":7504:7552  _ownedIndex[updatedId] = _ownedIndex[amountOrId] */\n      sstore\n      sub(shl(0xa0, 0x01), 0x01)\n        /* \"contracts/ERC404.sol\":7606:7616  _owned[to] */\n      dup7\n      and\n      dup1\n      dup5\n      mstore\n        /* \"contracts/ERC404.sol\":7606:7612  _owned */\n      0x09\n        /* \"contracts/ERC404.sol\":7606:7616  _owned[to] */\n      dup4\n      mstore\n      swap1\n      dup4\n      keccak256\n        /* \"contracts/ERC404.sol\":7606:7633  _owned[to].push(amountOrId) */\n      dup1\n      sload\n        /* \"contracts/ERC404.sol\":7425:7443  _owned[from].pop() */\n      0x01\n        /* \"contracts/ERC404.sol\":7606:7633  _owned[to].push(amountOrId) */\n      dup2\n      dup2\n      add\n      dup4\n      sstore\n      dup3\n      dup7\n      mstore\n      swap4\n      dup6\n      keccak256\n      add\n      dup7\n      swap1\n      sstore\n        /* \"contracts/ERC404.sol\":7716:7726  _owned[to] */\n      swap3\n      mstore\n        /* \"contracts/ERC404.sol\":7716:7733  _owned[to].length */\n      swap1\n      sload\n        /* \"contracts/ERC404.sol\":7716:7737  _owned[to].length - 1 */\n      tag_183\n      swap2\n        /* \"contracts/ERC404.sol\":7425:7443  _owned[from].pop() */\n      swap1\n        /* \"contracts/ERC404.sol\":7716:7737  _owned[to].length - 1 */\n      tag_168\n      jump\t// in\n    tag_183:\n        /* \"contracts/ERC404.sol\":7690:7713  _ownedIndex[amountOrId] */\n      0x00\n      dup4\n      dup2\n      mstore\n        /* \"contracts/ERC404.sol\":7690:7701  _ownedIndex */\n      0x0a\n        /* \"contracts/ERC404.sol\":7690:7713  _ownedIndex[amountOrId] */\n      0x20\n      mstore\n      0x40\n      dup1\n      dup3\n      keccak256\n        /* \"contracts/ERC404.sol\":7690:7737  _ownedIndex[amountOrId] = _owned[to].length - 1 */\n      swap3\n      swap1\n      swap3\n      sstore\n        /* \"contracts/ERC404.sol\":7759:7789  Transfer(from, to, amountOrId) */\n      swap1\n      mload\n        /* \"contracts/ERC404.sol\":7702:7712  amountOrId */\n      dup4\n      swap2\n      sub(shl(0xa0, 0x01), 0x01)\n        /* \"contracts/ERC404.sol\":7759:7789  Transfer(from, to, amountOrId) */\n      dup1\n      dup8\n      and\n      swap3\n      swap1\n      dup9\n      and\n      swap2\n      0xddf252ad1be2c89b69c2b068fc378daa952ba7f163c4a11628f55a4df523b3ef\n      swap2\n      log4\n        /* \"contracts/ERC404.sol\":7829:7831  to */\n      dup3\n      sub(shl(0xa0, 0x01), 0x01)\n        /* \"contracts/ERC404.sol\":7809:7844  ERC20Transfer(from, to, _getUnit()) */\n      and\n        /* \"contracts/ERC404.sol\":7823:7827  from */\n      dup5\n      sub(shl(0xa0, 0x01), 0x01)\n        /* \"contracts/ERC404.sol\":7809:7844  ERC20Transfer(from, to, _getUnit()) */\n      and\n      0xe59fdd36d0d223c0c7d996db7ad796880f45e1936cb0bb7ac102e7082e031487\n        /* \"contracts/ERC404.sol\":7833:7843  _getUnit() */\n      tag_184\n        /* \"contracts/ERC404.sol\":7833:7841  _getUnit */\n      tag_166\n        /* \"contracts/ERC404.sol\":7833:7843  _getUnit() */\n      jump\t// in\n    tag_184:\n        /* \"contracts/ERC404.sol\":7809:7844  ERC20Transfer(from, to, _getUnit()) */\n      mload(0x40)\n        /* \"#utility.yul\":1838:1863   */\n      swap1\n      dup2\n      mstore\n        /* \"#utility.yul\":1826:1828   */\n      0x20\n        /* \"#utility.yul\":1811:1829   */\n      add\n        /* \"contracts/ERC404.sol\":7809:7844  ERC20Transfer(from, to, _getUnit()) */\n      mload(0x40)\n      dup1\n      swap2\n      sub\n      swap1\n      log3\n        /* \"contracts/ERC404.sol\":6545:7856  {... */\n      pop\n        /* \"contracts/ERC404.sol\":6391:8107  function transferFrom(... */\n      pop\n      pop\n      pop\n      jump\t// out\n        /* \"contracts/ERC404.sol\":6519:8100  if (amountOrId <= minted) {... */\n    tag_159:\n      sub(shl(0xa0, 0x01), 0x01)\n        /* \"contracts/ERC404.sol\":7895:7910  allowance[from] */\n      dup4\n      and\n        /* \"contracts/ERC404.sol\":7877:7892  uint256 allowed */\n      0x00\n        /* \"contracts/ERC404.sol\":7895:7910  allowance[from] */\n      swap1\n      dup2\n      mstore\n        /* \"contracts/ERC404.sol\":7895:7904  allowance */\n      0x05\n        /* \"contracts/ERC404.sol\":7895:7910  allowance[from] */\n      0x20\n      swap1\n      dup2\n      mstore\n      0x40\n      dup1\n      dup4\n      keccak256\n        /* \"contracts/ERC404.sol\":7911:7921  msg.sender */\n      caller\n        /* \"contracts/ERC404.sol\":7895:7922  allowance[from][msg.sender] */\n      dup5\n      mstore\n      swap1\n      swap2\n      mstore\n      swap1\n      keccak256\n      sload\n      not(0x00)\n        /* \"contracts/ERC404.sol\":7943:7971  allowed != type(uint256).max */\n      dup2\n      eq\n        /* \"contracts/ERC404.sol\":7939:8040  if (allowed != type(uint256).max)... */\n      tag_187\n      jumpi\n        /* \"contracts/ERC404.sol\":8020:8040  allowed - amountOrId */\n      tag_188\n        /* \"contracts/ERC404.sol\":8030:8040  amountOrId */\n      dup3\n        /* \"contracts/ERC404.sol\":8020:8027  allowed */\n      dup3\n        /* \"contracts/ERC404.sol\":8020:8040  allowed - amountOrId */\n      tag_168\n      jump\t// in\n    tag_188:\n      sub(shl(0xa0, 0x01), 0x01)\n        /* \"contracts/ERC404.sol\":7990:8005  allowance[from] */\n      dup6\n      and\n      0x00\n      swap1\n      dup2\n      mstore\n        /* \"contracts/ERC404.sol\":7990:7999  allowance */\n      0x05\n        /* \"contracts/ERC404.sol\":7990:8005  allowance[from] */\n      0x20\n      swap1\n      dup2\n      mstore\n      0x40\n      dup1\n      dup4\n      keccak256\n        /* \"contracts/ERC404.sol\":8006:8016  msg.sender */\n      caller\n        /* \"contracts/ERC404.sol\":7990:8017  allowance[from][msg.sender] */\n      dup5\n      mstore\n      swap1\n      swap2\n      mstore\n      swap1\n      keccak256\n        /* \"contracts/ERC404.sol\":7990:8040  allowance[from][msg.sender] = allowed - amountOrId */\n      sstore\n        /* \"contracts/ERC404.sol\":7939:8040  if (allowed != type(uint256).max)... */\n    tag_187:\n        /* \"contracts/ERC404.sol\":8057:8088  _transfer(from, to, amountOrId) */\n      tag_189\n        /* \"contracts/ERC404.sol\":8067:8071  from */\n      dup5\n        /* \"contracts/ERC404.sol\":8073:8075  to */\n      dup5\n        /* \"contracts/ERC404.sol\":8077:8087  amountOrId */\n      dup5\n        /* \"contracts/ERC404.sol\":8057:8066  _transfer */\n      tag_190\n        /* \"contracts/ERC404.sol\":8057:8088  _transfer(from, to, amountOrId) */\n      jump\t// in\n    tag_189:\n      pop\n        /* \"contracts/ERC404.sol\":7862:8100  {... */\n      pop\n        /* \"contracts/ERC404.sol\":6519:8100  if (amountOrId <= minted) {... */\n    tag_186:\n        /* \"contracts/ERC404.sol\":6391:8107  function transferFrom(... */\n      pop\n      pop\n      pop\n      jump\t// out\n        /* \"contracts/ERC404.sol\":797:948  function revokeOwnership() public virtual onlyOwner {... */\n    tag_65:\n        /* \"contracts/ERC404.sol\":325:330  owner */\n      and(sub(shl(0xa0, 0x01), 0x01), sload(0x00))\n        /* \"contracts/ERC404.sol\":311:321  msg.sender */\n      caller\n        /* \"contracts/ERC404.sol\":311:330  msg.sender != owner */\n      eq\n        /* \"contracts/ERC404.sol\":307:353  if (msg.sender != owner) revert Unauthorized() */\n      tag_192\n      jumpi\n        /* \"contracts/ERC404.sol\":339:353  Unauthorized() */\n      mload(0x40)\n      shl(0xe8, 0x82b429)\n      dup2\n      mstore\n      0x04\n      add\n      mload(0x40)\n      dup1\n      swap2\n      sub\n      swap1\n      revert\n        /* \"contracts/ERC404.sol\":307:353  if (msg.sender != owner) revert Unauthorized() */\n    tag_192:\n        /* \"contracts/ERC404.sol\":876:877  0 */\n      0x00\n        /* \"contracts/ERC404.sol\":860:878  owner = address(0) */\n      dup1\n      sload\n      not(sub(shl(0xa0, 0x01), 0x01))\n      and\n      dup2\n      sstore\n        /* \"contracts/ERC404.sol\":896:940  OwnershipTransferred(msg.sender, address(0)) */\n      mload(0x40)\n        /* \"contracts/ERC404.sol\":917:927  msg.sender */\n      caller\n      swap1\n        /* \"contracts/ERC404.sol\":896:940  OwnershipTransferred(msg.sender, address(0)) */\n      0x8be0079c531659141344cd1fd0a4f28419497f9722a3daafe3b4186f6b6457e0\n      swap1\n        /* \"contracts/ERC404.sol\":876:877  0 */\n      dup4\n      swap1\n        /* \"contracts/ERC404.sol\":896:940  OwnershipTransferred(msg.sender, address(0)) */\n      log3\n        /* \"contracts/ERC404.sol\":797:948  function revokeOwnership() public virtual onlyOwner {... */\n      jump\t// out\n        /* \"contracts/ERC404.sol\":8403:8808  function safeTransferFrom(... */\n    tag_72:\n        /* \"contracts/ERC404.sol\":8527:8553  transferFrom(from, to, id) */\n      tag_195\n        /* \"contracts/ERC404.sol\":8540:8544  from */\n      dup4\n        /* \"contracts/ERC404.sol\":8546:8548  to */\n      dup4\n        /* \"contracts/ERC404.sol\":8550:8552  id */\n      dup4\n        /* \"contracts/ERC404.sol\":8527:8539  transferFrom */\n      tag_63\n        /* \"contracts/ERC404.sol\":8527:8553  transferFrom(from, to, id) */\n      jump\t// in\n    tag_195:\n      sub(shl(0xa0, 0x01), 0x01)\n        /* \"contracts/ERC404.sol\":8584:8598  to.code.length */\n      dup3\n      and\n      extcodesize\n        /* \"contracts/ERC404.sol\":8584:8603  to.code.length != 0 */\n      iszero\n      dup1\n      iszero\n      swap1\n        /* \"contracts/ERC404.sol\":8584:8738  to.code.length != 0 &&... */\n      tag_196\n      jumpi\n      pop\n        /* \"contracts/ERC404.sol\":8620:8681  ERC721Receiver(to).onERC721Received(msg.sender, from, id, \"\") */\n      mload(0x40)\n      shl(0xe1, 0x0a85bd01)\n      dup1\n      dup3\n      mstore\n        /* \"contracts/ERC404.sol\":8656:8666  msg.sender */\n      caller\n        /* \"contracts/ERC404.sol\":8620:8681  ERC721Receiver(to).onERC721Received(msg.sender, from, id, \"\") */\n      0x04\n      dup4\n      add\n        /* \"#utility.yul\":9162:9196   */\n      mstore\n      sub(shl(0xa0, 0x01), 0x01)\n        /* \"#utility.yul\":9232:9247   */\n      dup6\n      dup2\n      and\n        /* \"#utility.yul\":9212:9230   */\n      0x24\n      dup5\n      add\n        /* \"#utility.yul\":9205:9248   */\n      mstore\n        /* \"#utility.yul\":9264:9282   */\n      0x44\n      dup4\n      add\n        /* \"#utility.yul\":9257:9291   */\n      dup5\n      swap1\n      mstore\n        /* \"#utility.yul\":9327:9330   */\n      0x80\n        /* \"#utility.yul\":9307:9325   */\n      0x64\n      dup5\n      add\n        /* \"#utility.yul\":9300:9331   */\n      mstore\n      0x00\n        /* \"#utility.yul\":9347:9366   */\n      0x84\n      dup5\n      add\n        /* \"#utility.yul\":9340:9370   */\n      mstore\n        /* \"contracts/ERC404.sol\":8698:8738  ERC721Receiver.onERC721Received.selector */\n      swap1\n      swap2\n        /* \"contracts/ERC404.sol\":8620:8655  ERC721Receiver(to).onERC721Received */\n      swap1\n      dup5\n      and\n      swap1\n        /* \"contracts/ERC404.sol\":8698:8738  ERC721Receiver.onERC721Received.selector */\n      0x150b7a02\n      swap1\n        /* \"#utility.yul\":9387:9406   */\n      0xa4\n      add\n        /* \"contracts/ERC404.sol\":8620:8681  ERC721Receiver(to).onERC721Received(msg.sender, from, id, \"\") */\n      0x20\n      mload(0x40)\n      dup1\n      dup4\n      sub\n      dup2\n      0x00\n      dup8\n      gas\n      call\n      iszero\n      dup1\n      iszero\n      tag_200\n      jumpi\n      returndatasize\n      0x00\n      dup1\n      returndatacopy\n      revert(0x00, returndatasize)\n    tag_200:\n      pop\n      pop\n      pop\n      pop\n      mload(0x40)\n      returndatasize\n      not(0x1f)\n      0x1f\n      dup3\n      add\n      and\n      dup3\n      add\n      dup1\n      0x40\n      mstore\n      pop\n      dup2\n      add\n      swap1\n      tag_201\n      swap2\n      swap1\n      tag_202\n      jump\t// in\n    tag_201:\n      not(sub(shl(0xe0, 0x01), 0x01))\n        /* \"contracts/ERC404.sol\":8620:8738  ERC721Receiver(to).onERC721Received(msg.sender, from, id, \"\") !=... */\n      and\n      eq\n      iszero\n        /* \"contracts/ERC404.sol\":8584:8738  to.code.length != 0 &&... */\n    tag_196:\n        /* \"contracts/ERC404.sol\":8566:8801  if (... */\n      iszero\n      tag_186\n      jumpi\n        /* \"contracts/ERC404.sol\":8772:8789  UnsafeRecipient() */\n      mload(0x40)\n      shl(0xe0, 0x3da63931)\n      dup2\n      mstore\n      0x04\n      add\n      mload(0x40)\n      dup1\n      swap2\n      sub\n      swap1\n      revert\n        /* \"contracts/AaveGhoster.sol\":629:787  function setNameSymbol(... */\n    tag_79:\n        /* \"contracts/ERC404.sol\":325:330  owner */\n      and(sub(shl(0xa0, 0x01), 0x01), sload(0x00))\n        /* \"contracts/ERC404.sol\":311:321  msg.sender */\n      caller\n        /* \"contracts/ERC404.sol\":311:330  msg.sender != owner */\n      eq\n        /* \"contracts/ERC404.sol\":307:353  if (msg.sender != owner) revert Unauthorized() */\n      tag_205\n      jumpi\n        /* \"contracts/ERC404.sol\":339:353  Unauthorized() */\n      mload(0x40)\n      shl(0xe8, 0x82b429)\n      dup2\n      mstore\n      0x04\n      add\n      mload(0x40)\n      dup1\n      swap2\n      sub\n      swap1\n      revert\n        /* \"contracts/ERC404.sol\":307:353  if (msg.sender != owner) revert Unauthorized() */\n    tag_205:\n        /* \"contracts/AaveGhoster.sol\":749:779  _setNameSymbol(_name, _symbol) */\n      tag_156\n        /* \"contracts/AaveGhoster.sol\":764:769  _name */\n      dup3\n        /* \"contracts/AaveGhoster.sol\":771:778  _symbol */\n      dup3\n        /* \"contracts/AaveGhoster.sol\":749:763  _setNameSymbol */\n      tag_208\n        /* \"contracts/AaveGhoster.sol\":749:779  _setNameSymbol(_name, _symbol) */\n      jump\t// in\n        /* \"contracts/ERC404.sol\":4671:4782  function setWhitelist(address target, bool state) public onlyOwner {... */\n    tag_83:\n        /* \"contracts/ERC404.sol\":325:330  owner */\n      and(sub(shl(0xa0, 0x01), 0x01), sload(0x00))\n        /* \"contracts/ERC404.sol\":311:321  msg.sender */\n      caller\n        /* \"contracts/ERC404.sol\":311:330  msg.sender != owner */\n      eq\n        /* \"contracts/ERC404.sol\":307:353  if (msg.sender != owner) revert Unauthorized() */\n      tag_210\n      jumpi\n        /* \"contracts/ERC404.sol\":339:353  Unauthorized() */\n      mload(0x40)\n      shl(0xe8, 0x82b429)\n      dup2\n      mstore\n      0x04\n      add\n      mload(0x40)\n      dup1\n      swap2\n      sub\n      swap1\n      revert\n        /* \"contracts/ERC404.sol\":307:353  if (msg.sender != owner) revert Unauthorized() */\n    tag_210:\n      sub(shl(0xa0, 0x01), 0x01)\n        /* \"contracts/ERC404.sol\":4749:4766  whitelist[target] */\n      swap2\n      swap1\n      swap2\n      and\n      0x00\n      swap1\n      dup2\n      mstore\n        /* \"contracts/ERC404.sol\":4749:4758  whitelist */\n      0x0b\n        /* \"contracts/ERC404.sol\":4749:4766  whitelist[target] */\n      0x20\n      mstore\n      0x40\n      swap1\n      keccak256\n        /* \"contracts/ERC404.sol\":4749:4774  whitelist[target] = state */\n      dup1\n      sload\n      not(0xff)\n      and\n      swap2\n      iszero\n      iszero\n      swap2\n      swap1\n      swap2\n      or\n      swap1\n      sstore\n        /* \"contracts/ERC404.sol\":4671:4782  function setWhitelist(address target, bool state) public onlyOwner {... */\n      jump\t// out\n        /* \"contracts/ERC404.sol\":4854:5047  function ownerOf(uint256 id) public view virtual returns (address owner) {... */\n    tag_86:\n        /* \"contracts/ERC404.sol\":4912:4925  address owner */\n      0x00\n        /* \"contracts/ERC404.sol\":4946:4958  _ownerOf[id] */\n      dup2\n      dup2\n      mstore\n        /* \"contracts/ERC404.sol\":4946:4954  _ownerOf */\n      0x08\n        /* \"contracts/ERC404.sol\":4946:4958  _ownerOf[id] */\n      0x20\n      mstore\n      0x40\n      swap1\n      keccak256\n      sload\n      sub(shl(0xa0, 0x01), 0x01)\n      and\n      dup1\n        /* \"contracts/ERC404.sol\":4971:5040  if (owner == address(0)) {... */\n      tag_213\n      jumpi\n        /* \"contracts/ERC404.sol\":5018:5028  NotFound() */\n      mload(0x40)\n      shl(0xe0, 0xc5723b51)\n      dup2\n      mstore\n      0x04\n      add\n      mload(0x40)\n      dup1\n      swap2\n      sub\n      swap1\n      revert\n        /* \"contracts/ERC404.sol\":4971:5040  if (owner == address(0)) {... */\n    tag_213:\n        /* \"contracts/ERC404.sol\":4854:5047  function ownerOf(uint256 id) public view virtual returns (address owner) {... */\n      swap2\n      swap1\n      pop\n      jump\t// out\n        /* \"contracts/ERC404.sol\":2854:2874  string public symbol */\n    tag_97:\n      0x02\n      dup1\n      sload\n      tag_139\n      swap1\n      tag_140\n      jump\t// in\n        /* \"contracts/ERC404.sol\":6035:6242  function setApprovalForAll(address operator, bool approved) public virtual {... */\n    tag_105:\n        /* \"contracts/ERC404.sol\":6138:6148  msg.sender */\n      caller\n        /* \"contracts/ERC404.sol\":6121:6149  isApprovedForAll[msg.sender] */\n      0x00\n      dup2\n      dup2\n      mstore\n        /* \"contracts/ERC404.sol\":6121:6137  isApprovedForAll */\n      0x07\n        /* \"contracts/ERC404.sol\":6121:6149  isApprovedForAll[msg.sender] */\n      0x20\n      swap1\n      dup2\n      mstore\n      0x40\n      dup1\n      dup4\n      keccak256\n      sub(shl(0xa0, 0x01), 0x01)\n        /* \"contracts/ERC404.sol\":6121:6159  isApprovedForAll[msg.sender][operator] */\n      dup8\n      and\n      dup1\n      dup6\n      mstore\n      swap1\n      dup4\n      mstore\n      swap3\n      dup2\n      swap1\n      keccak256\n        /* \"contracts/ERC404.sol\":6121:6170  isApprovedForAll[msg.sender][operator] = approved */\n      dup1\n      sload\n      not(0xff)\n      and\n      dup7\n      iszero\n      iszero\n      swap1\n      dup2\n      or\n      swap1\n      swap2\n      sstore\n        /* \"contracts/ERC404.sol\":6188:6234  ApprovalForAll(msg.sender, operator, approved) */\n      swap1\n      mload\n        /* \"#utility.yul\":1640:1681   */\n      swap1\n      dup2\n      mstore\n        /* \"contracts/ERC404.sol\":6121:6159  isApprovedForAll[msg.sender][operator] */\n      swap2\n      swap3\n        /* \"contracts/ERC404.sol\":6138:6148  msg.sender */\n      swap2\n        /* \"contracts/ERC404.sol\":6188:6234  ApprovalForAll(msg.sender, operator, approved) */\n      0x17307eab39ab6107e8899845ad3d59bd9653f200f220920489ca2b5937696c31\n      swap2\n        /* \"#utility.yul\":1613:1631   */\n      add\n        /* \"contracts/ERC404.sol\":6188:6234  ApprovalForAll(msg.sender, operator, approved) */\n      mload(0x40)\n      dup1\n      swap2\n      sub\n      swap1\n      log3\n        /* \"contracts/ERC404.sol\":6035:6242  function setApprovalForAll(address operator, bool approved) public virtual {... */\n      pop\n      pop\n      jump\t// out\n        /* \"contracts/ERC404.sol\":8166:8326  function transfer(... */\n    tag_108:\n        /* \"contracts/ERC404.sol\":8261:8265  bool */\n      0x00\n        /* \"contracts/ERC404.sol\":8285:8318  _transfer(msg.sender, to, amount) */\n      tag_222\n        /* \"contracts/ERC404.sol\":8295:8305  msg.sender */\n      caller\n        /* \"contracts/ERC404.sol\":8307:8309  to */\n      dup5\n        /* \"contracts/ERC404.sol\":8311:8317  amount */\n      dup5\n        /* \"contracts/ERC404.sol\":8285:8294  _transfer */\n      tag_190\n        /* \"contracts/ERC404.sol\":8285:8318  _transfer(msg.sender, to, amount) */\n      jump\t// in\n    tag_222:\n        /* \"contracts/ERC404.sol\":8278:8318  return _transfer(msg.sender, to, amount) */\n      swap4\n        /* \"contracts/ERC404.sol\":8166:8326  function transfer(... */\n      swap3\n      pop\n      pop\n      pop\n      jump\t// out\n        /* \"contracts/ERC404.sol\":8903:9340  function safeTransferFrom(... */\n    tag_113:\n        /* \"contracts/ERC404.sol\":9057:9083  transferFrom(from, to, id) */\n      tag_224\n        /* \"contracts/ERC404.sol\":9070:9074  from */\n      dup6\n        /* \"contracts/ERC404.sol\":9076:9078  to */\n      dup6\n        /* \"contracts/ERC404.sol\":9080:9082  id */\n      dup6\n        /* \"contracts/ERC404.sol\":9057:9069  transferFrom */\n      tag_63\n        /* \"contracts/ERC404.sol\":9057:9083  transferFrom(from, to, id) */\n      jump\t// in\n    tag_224:\n      sub(shl(0xa0, 0x01), 0x01)\n        /* \"contracts/ERC404.sol\":9114:9128  to.code.length */\n      dup5\n      and\n      extcodesize\n        /* \"contracts/ERC404.sol\":9114:9133  to.code.length != 0 */\n      iszero\n      dup1\n      iszero\n      swap1\n        /* \"contracts/ERC404.sol\":9114:9270  to.code.length != 0 &&... */\n      tag_225\n      jumpi\n      pop\n        /* \"contracts/ERC404.sol\":9150:9213  ERC721Receiver(to).onERC721Received(msg.sender, from, id, data) */\n      mload(0x40)\n      shl(0xe1, 0x0a85bd01)\n      dup1\n      dup3\n      mstore\n        /* \"contracts/ERC404.sol\":9230:9270  ERC721Receiver.onERC721Received.selector */\n      swap1\n      sub(shl(0xa0, 0x01), 0x01)\n        /* \"contracts/ERC404.sol\":9150:9185  ERC721Receiver(to).onERC721Received */\n      dup7\n      and\n      swap1\n        /* \"contracts/ERC404.sol\":9230:9270  ERC721Receiver.onERC721Received.selector */\n      0x150b7a02\n      swap1\n        /* \"contracts/ERC404.sol\":9150:9213  ERC721Receiver(to).onERC721Received(msg.sender, from, id, data) */\n      tag_226\n      swap1\n        /* \"contracts/ERC404.sol\":9186:9196  msg.sender */\n      caller\n      swap1\n        /* \"contracts/ERC404.sol\":9198:9202  from */\n      dup11\n      swap1\n        /* \"contracts/ERC404.sol\":9204:9206  id */\n      dup10\n      swap1\n        /* \"contracts/ERC404.sol\":9208:9212  data */\n      dup10\n      swap1\n      dup10\n      swap1\n        /* \"contracts/ERC404.sol\":9150:9213  ERC721Receiver(to).onERC721Received(msg.sender, from, id, data) */\n      0x04\n      add\n      tag_227\n      jump\t// in\n    tag_226:\n      0x20\n      mload(0x40)\n      dup1\n      dup4\n      sub\n      dup2\n      0x00\n      dup8\n      gas\n      call\n      iszero\n      dup1\n      iszero\n      tag_229\n      jumpi\n      returndatasize\n      0x00\n      dup1\n      returndatacopy\n      revert(0x00, returndatasize)\n    tag_229:\n      pop\n      pop\n      pop\n      pop\n      mload(0x40)\n      returndatasize\n      not(0x1f)\n      0x1f\n      dup3\n      add\n      and\n      dup3\n      add\n      dup1\n      0x40\n      mstore\n      pop\n      dup2\n      add\n      swap1\n      tag_230\n      swap2\n      swap1\n      tag_202\n      jump\t// in\n    tag_230:\n      not(sub(shl(0xe0, 0x01), 0x01))\n        /* \"contracts/ERC404.sol\":9150:9270  ERC721Receiver(to).onERC721Received(msg.sender, from, id, data) !=... */\n      and\n      eq\n      iszero\n        /* \"contracts/ERC404.sol\":9114:9270  to.code.length != 0 &&... */\n    tag_225:\n        /* \"contracts/ERC404.sol\":9096:9333  if (... */\n      iszero\n      tag_189\n      jumpi\n        /* \"contracts/ERC404.sol\":9304:9321  UnsafeRecipient() */\n      mload(0x40)\n      shl(0xe0, 0x3da63931)\n      dup2\n      mstore\n      0x04\n      add\n      mload(0x40)\n      dup1\n      swap2\n      sub\n      swap1\n      revert\n        /* \"contracts/AaveGhoster.sol\":795:3227  function tokenURI(uint256 id) public view override returns (string memory) {... */\n    tag_116:\n        /* \"contracts/AaveGhoster.sol\":855:868  string memory */\n      0x60\n        /* \"contracts/AaveGhoster.sol\":914:915  0 */\n      0x00\n        /* \"contracts/AaveGhoster.sol\":891:903  baseTokenURI */\n      0x0d\n        /* \"contracts/AaveGhoster.sol\":885:911  bytes(baseTokenURI).length */\n      dup1\n      sload\n      tag_233\n      swap1\n      tag_140\n      jump\t// in\n    tag_233:\n      swap1\n      pop\n        /* \"contracts/AaveGhoster.sol\":885:915  bytes(baseTokenURI).length > 0 */\n      gt\n        /* \"contracts/AaveGhoster.sol\":881:3220  if (bytes(baseTokenURI).length > 0) {... */\n      iszero\n      tag_234\n      jumpi\n        /* \"contracts/AaveGhoster.sol\":953:965  baseTokenURI */\n      0x0d\n        /* \"contracts/AaveGhoster.sol\":967:987  Strings.toString(id) */\n      tag_235\n        /* \"contracts/AaveGhoster.sol\":984:986  id */\n      dup4\n        /* \"contracts/AaveGhoster.sol\":967:983  Strings.toString */\n      tag_236\n        /* \"contracts/AaveGhoster.sol\":967:987  Strings.toString(id) */\n      jump\t// in\n    tag_235:\n        /* \"contracts/AaveGhoster.sol\":939:988  string.concat(baseTokenURI, Strings.toString(id)) */\n      add(0x20, mload(0x40))\n      tag_237\n      swap3\n      swap2\n      swap1\n      tag_238\n      jump\t// in\n    tag_237:\n      mload(0x40)\n      0x20\n      dup2\n      dup4\n      sub\n      sub\n      dup2\n      mstore\n      swap1\n      0x40\n      mstore\n        /* \"contracts/AaveGhoster.sol\":932:988  return string.concat(baseTokenURI, Strings.toString(id)) */\n      swap1\n      pop\n        /* \"contracts/AaveGhoster.sol\":795:3227  function tokenURI(uint256 id) public view override returns (string memory) {... */\n      swap2\n      swap1\n      pop\n      jump\t// out\n        /* \"contracts/AaveGhoster.sol\":881:3220  if (bytes(baseTokenURI).length > 0) {... */\n    tag_234:\n        /* \"contracts/AaveGhoster.sol\":1021:1031  uint8 seed */\n      0x00\n        /* \"contracts/AaveGhoster.sol\":1074:1076  id */\n      dup3\n        /* \"contracts/AaveGhoster.sol\":1057:1077  abi.encodePacked(id) */\n      add(0x20, mload(0x40))\n      tag_240\n      swap2\n        /* \"#utility.yul\":11534:11553   */\n      dup2\n      mstore\n        /* \"#utility.yul\":11578:11580   */\n      0x20\n        /* \"#utility.yul\":11569:11581   */\n      add\n      swap1\n        /* \"#utility.yul\":11405:11587   */\n      jump\n        /* \"contracts/AaveGhoster.sol\":1057:1077  abi.encodePacked(id) */\n    tag_240:\n      mload(0x40)\n      0x20\n      dup2\n      dup4\n      sub\n      sub\n      dup2\n      mstore\n      swap1\n      0x40\n      mstore\n        /* \"contracts/AaveGhoster.sol\":1047:1078  keccak256(abi.encodePacked(id)) */\n      dup1\n      mload\n      swap1\n      0x20\n      add\n      keccak256\n        /* \"contracts/AaveGhoster.sol\":1034:1080  uint8(bytes1(keccak256(abi.encodePacked(id)))) */\n      0xf8\n      shr\n        /* \"contracts/AaveGhoster.sol\":1021:1080  uint8 seed = uint8(bytes1(keccak256(abi.encodePacked(id)))) */\n      swap1\n      pop\n        /* \"contracts/AaveGhoster.sol\":1095:1114  string memory image */\n      0x60\n        /* \"contracts/AaveGhoster.sol\":1129:1148  string memory color */\n      dup1\n        /* \"contracts/AaveGhoster.sol\":1177:1180  100 */\n      0x64\n        /* \"contracts/AaveGhoster.sol\":1169:1173  seed */\n      dup4\n        /* \"contracts/AaveGhoster.sol\":1169:1180  seed <= 100 */\n      0xff\n      and\n      gt\n        /* \"contracts/AaveGhoster.sol\":1165:2225  if (seed <= 100) {... */\n      tag_242\n      jumpi\n        /* \"contracts/AaveGhoster.sol\":1201:1216  image = \"1.png\" */\n      mload(0x40)\n      dup1\n      0x40\n      add\n      0x40\n      mstore\n      dup1\n      0x05\n      dup2\n      mstore\n      0x20\n      add\n      shl(0xd8, 0x312e706e67)\n      dup2\n      mstore\n      pop\n      swap2\n      pop\n        /* \"contracts/AaveGhoster.sol\":1235:1250  color = \"Green\" */\n      mload(0x40)\n      dup1\n      0x40\n      add\n      0x40\n      mstore\n      dup1\n      0x05\n      dup2\n      mstore\n      0x20\n      add\n      shl(0xd9, 0x23b932b2b7)\n      dup2\n      mstore\n      pop\n      swap1\n      pop\n        /* \"contracts/AaveGhoster.sol\":1165:2225  if (seed <= 100) {... */\n      jump(tag_260)\n    tag_242:\n        /* \"contracts/AaveGhoster.sol\":1284:1287  160 */\n      0xa0\n        /* \"contracts/AaveGhoster.sol\":1276:1280  seed */\n      dup4\n        /* \"contracts/AaveGhoster.sol\":1276:1287  seed <= 160 */\n      0xff\n      and\n      gt\n        /* \"contracts/AaveGhoster.sol\":1272:2225  if (seed <= 160) {... */\n      tag_244\n      jumpi\n        /* \"contracts/AaveGhoster.sol\":1308:1323  image = \"2.png\" */\n      mload(0x40)\n      dup1\n      0x40\n      add\n      0x40\n      mstore\n      dup1\n      0x05\n      dup2\n      mstore\n      0x20\n      add\n      shl(0xd8, 0x322e706e67)\n      dup2\n      mstore\n      pop\n      swap2\n      pop\n        /* \"contracts/AaveGhoster.sol\":1342:1356  color = \"Blue\" */\n      mload(0x40)\n      dup1\n      0x40\n      add\n      0x40\n      mstore\n      dup1\n      0x04\n      dup2\n      mstore\n      0x20\n      add\n      shl(0xe0, 0x426c7565)\n      dup2\n      mstore\n      pop\n      swap1\n      pop\n        /* \"contracts/AaveGhoster.sol\":1272:2225  if (seed <= 160) {... */\n      jump(tag_260)\n    tag_244:\n        /* \"contracts/AaveGhoster.sol\":1390:1393  210 */\n      0xd2\n        /* \"contracts/AaveGhoster.sol\":1382:1386  seed */\n      dup4\n        /* \"contracts/AaveGhoster.sol\":1382:1393  seed <= 210 */\n      0xff\n      and\n      gt\n        /* \"contracts/AaveGhoster.sol\":1378:2225  if (seed <= 210) {... */\n      tag_246\n      jumpi\n        /* \"contracts/AaveGhoster.sol\":1414:1429  image = \"3.png\" */\n      mload(0x40)\n      dup1\n      0x40\n      add\n      0x40\n      mstore\n      dup1\n      0x05\n      dup2\n      mstore\n      0x20\n      add\n      shl(0xd8, 0x332e706e67)\n      dup2\n      mstore\n      pop\n      swap2\n      pop\n        /* \"contracts/AaveGhoster.sol\":1448:1464  color = \"Purple\" */\n      mload(0x40)\n      dup1\n      0x40\n      add\n      0x40\n      mstore\n      dup1\n      0x06\n      dup2\n      mstore\n      0x20\n      add\n      shl(0xd0, 0x507572706c65)\n      dup2\n      mstore\n      pop\n      swap1\n      pop\n        /* \"contracts/AaveGhoster.sol\":1378:2225  if (seed <= 210) {... */\n      jump(tag_260)\n    tag_246:\n        /* \"contracts/AaveGhoster.sol\":1498:1501  240 */\n      0xf0\n        /* \"contracts/AaveGhoster.sol\":1490:1494  seed */\n      dup4\n        /* \"contracts/AaveGhoster.sol\":1490:1501  seed <= 240 */\n      0xff\n      and\n      gt\n        /* \"contracts/AaveGhoster.sol\":1486:2225  if (seed <= 240) {... */\n      tag_248\n      jumpi\n        /* \"contracts/AaveGhoster.sol\":1522:1537  image = \"4.png\" */\n      mload(0x40)\n      dup1\n      0x40\n      add\n      0x40\n      mstore\n      dup1\n      0x05\n      dup2\n      mstore\n      0x20\n      add\n      shl(0xd8, 0x342e706e67)\n      dup2\n      mstore\n      pop\n      swap2\n      pop\n        /* \"contracts/AaveGhoster.sol\":1556:1572  color = \"Orange\" */\n      mload(0x40)\n      dup1\n      0x40\n      add\n      0x40\n      mstore\n      dup1\n      0x06\n      dup2\n      mstore\n      0x20\n      add\n      shl(0xd0, 0x4f72616e6765)\n      dup2\n      mstore\n      pop\n      swap1\n      pop\n        /* \"contracts/AaveGhoster.sol\":1486:2225  if (seed <= 240) {... */\n      jump(tag_260)\n    tag_248:\n        /* \"contracts/AaveGhoster.sol\":1606:1609  255 */\n      0xff\n        /* \"contracts/AaveGhoster.sol\":1598:1602  seed */\n      dup4\n        /* \"contracts/AaveGhoster.sol\":1598:1609  seed <= 255 */\n      0xff\n      and\n      gt\n        /* \"contracts/AaveGhoster.sol\":1594:2225  if (seed <= 255) {... */\n      tag_250\n      jumpi\n        /* \"contracts/AaveGhoster.sol\":1630:1645  image = \"5.png\" */\n      mload(0x40)\n      dup1\n      0x40\n      add\n      0x40\n      mstore\n      dup1\n      0x05\n      dup2\n      mstore\n      0x20\n      add\n      shl(0xd8, 0x352e706e67)\n      dup2\n      mstore\n      pop\n      swap2\n      pop\n        /* \"contracts/AaveGhoster.sol\":1664:1677  color = \"Red\" */\n      mload(0x40)\n      dup1\n      0x40\n      add\n      0x40\n      mstore\n      dup1\n      0x03\n      dup2\n      mstore\n      0x20\n      add\n      shl(0xea, 0x149959)\n      dup2\n      mstore\n      pop\n      swap1\n      pop\n        /* \"contracts/AaveGhoster.sol\":1594:2225  if (seed <= 255) {... */\n      jump(tag_260)\n    tag_250:\n        /* \"contracts/AaveGhoster.sol\":1710:1713  300 */\n      0x012c\n        /* \"contracts/AaveGhoster.sol\":1702:1706  seed */\n      dup4\n        /* \"contracts/AaveGhoster.sol\":1702:1713  seed <= 300 */\n      0xff\n      and\n      gt\n        /* \"contracts/AaveGhoster.sol\":1698:2225  if (seed <= 300) {... */\n      tag_252\n      jumpi\n        /* \"contracts/AaveGhoster.sol\":1734:1749  image = \"6.png\" */\n      mload(0x40)\n      dup1\n      0x40\n      add\n      0x40\n      mstore\n      dup1\n      0x05\n      dup2\n      mstore\n      0x20\n      add\n      shl(0xd8, 0x362e706e67)\n      dup2\n      mstore\n      pop\n      swap2\n      pop\n        /* \"contracts/AaveGhoster.sol\":1768:1783  color = \"White\" */\n      mload(0x40)\n      dup1\n      0x40\n      add\n      0x40\n      mstore\n      dup1\n      0x05\n      dup2\n      mstore\n      0x20\n      add\n      shl(0xd8, 0x5768697465)\n      dup2\n      mstore\n      pop\n      swap1\n      pop\n        /* \"contracts/AaveGhoster.sol\":1698:2225  if (seed <= 300) {... */\n      jump(tag_260)\n    tag_252:\n        /* \"contracts/AaveGhoster.sol\":1816:1819  360 */\n      0x0168\n        /* \"contracts/AaveGhoster.sol\":1808:1812  seed */\n      dup4\n        /* \"contracts/AaveGhoster.sol\":1808:1819  seed <= 360 */\n      0xff\n      and\n      gt\n        /* \"contracts/AaveGhoster.sol\":1804:2225  if (seed <= 360) {... */\n      tag_254\n      jumpi\n        /* \"contracts/AaveGhoster.sol\":1840:1855  image = \"7.png\" */\n      mload(0x40)\n      dup1\n      0x40\n      add\n      0x40\n      mstore\n      dup1\n      0x05\n      dup2\n      mstore\n      0x20\n      add\n      shl(0xd8, 0x372e706e67)\n      dup2\n      mstore\n      pop\n      swap2\n      pop\n        /* \"contracts/AaveGhoster.sol\":1874:1889  color = \"Black\" */\n      mload(0x40)\n      dup1\n      0x40\n      add\n      0x40\n      mstore\n      dup1\n      0x05\n      dup2\n      mstore\n      0x20\n      add\n      shl(0xd8, 0x426c61636b)\n      dup2\n      mstore\n      pop\n      swap1\n      pop\n        /* \"contracts/AaveGhoster.sol\":1804:2225  if (seed <= 360) {... */\n      jump(tag_260)\n    tag_254:\n        /* \"contracts/AaveGhoster.sol\":1922:1925  410 */\n      0x019a\n        /* \"contracts/AaveGhoster.sol\":1914:1918  seed */\n      dup4\n        /* \"contracts/AaveGhoster.sol\":1914:1925  seed <= 410 */\n      0xff\n      and\n      gt\n        /* \"contracts/AaveGhoster.sol\":1910:2225  if (seed <= 410) {... */\n      tag_256\n      jumpi\n        /* \"contracts/AaveGhoster.sol\":1946:1961  image = \"8.png\" */\n      mload(0x40)\n      dup1\n      0x40\n      add\n      0x40\n      mstore\n      dup1\n      0x05\n      dup2\n      mstore\n      0x20\n      add\n      shl(0xd8, 0x382e706e67)\n      dup2\n      mstore\n      pop\n      swap2\n      pop\n        /* \"contracts/AaveGhoster.sol\":1980:1994  color = \"Pink\" */\n      mload(0x40)\n      dup1\n      0x40\n      add\n      0x40\n      mstore\n      dup1\n      0x04\n      dup2\n      mstore\n      0x20\n      add\n      shl(0xe0, 0x50696e6b)\n      dup2\n      mstore\n      pop\n      swap1\n      pop\n        /* \"contracts/AaveGhoster.sol\":1910:2225  if (seed <= 410) {... */\n      jump(tag_260)\n    tag_256:\n        /* \"contracts/AaveGhoster.sol\":2027:2030  450 */\n      0x01c2\n        /* \"contracts/AaveGhoster.sol\":2019:2023  seed */\n      dup4\n        /* \"contracts/AaveGhoster.sol\":2019:2030  seed <= 450 */\n      0xff\n      and\n      gt\n        /* \"contracts/AaveGhoster.sol\":2015:2225  if (seed <= 450) {... */\n      tag_258\n      jumpi\n        /* \"contracts/AaveGhoster.sol\":2051:2066  image = \"9.png\" */\n      mload(0x40)\n      dup1\n      0x40\n      add\n      0x40\n      mstore\n      dup1\n      0x05\n      dup2\n      mstore\n      0x20\n      add\n      shl(0xd8, 0x392e706e67)\n      dup2\n      mstore\n      pop\n      swap2\n      pop\n        /* \"contracts/AaveGhoster.sol\":2085:2101  color = \"Yellow\" */\n      mload(0x40)\n      dup1\n      0x40\n      add\n      0x40\n      mstore\n      dup1\n      0x06\n      dup2\n      mstore\n      0x20\n      add\n      shl(0xd0, 0x59656c6c6f77)\n      dup2\n      mstore\n      pop\n      swap1\n      pop\n        /* \"contracts/AaveGhoster.sol\":2015:2225  if (seed <= 450) {... */\n      jump(tag_260)\n    tag_258:\n        /* \"contracts/AaveGhoster.sol\":2134:2137  510 */\n      0x01fe\n        /* \"contracts/AaveGhoster.sol\":2126:2130  seed */\n      dup4\n        /* \"contracts/AaveGhoster.sol\":2126:2137  seed <= 510 */\n      0xff\n      and\n      gt\n        /* \"contracts/AaveGhoster.sol\":2122:2225  if (seed <= 510) {... */\n      tag_260\n      jumpi\n        /* \"contracts/AaveGhoster.sol\":2158:2174  image = \"10.png\" */\n      mload(0x40)\n      dup1\n      0x40\n      add\n      0x40\n      mstore\n      dup1\n      0x06\n      dup2\n      mstore\n      0x20\n      add\n      shl(0xd0, 0x31302e706e67)\n      dup2\n      mstore\n      pop\n      swap2\n      pop\n        /* \"contracts/AaveGhoster.sol\":2193:2209  color = \"Violet\" */\n      mload(0x40)\n      dup1\n      0x40\n      add\n      0x40\n      mstore\n      dup1\n      0x06\n      dup2\n      mstore\n      0x20\n      add\n      shl(0xd2, 0x159a5bdb195d)\n      dup2\n      mstore\n      pop\n      swap1\n      pop\n        /* \"contracts/AaveGhoster.sol\":2122:2225  if (seed <= 510) {... */\n    tag_260:\n        /* \"contracts/AaveGhoster.sol\":2255:2281  string memory jsonPreImage */\n      0x00\n        /* \"contracts/AaveGhoster.sol\":2393:2413  Strings.toString(id) */\n      tag_261\n        /* \"contracts/AaveGhoster.sol\":2410:2412  id */\n      dup7\n        /* \"contracts/AaveGhoster.sol\":2393:2409  Strings.toString */\n      tag_236\n        /* \"contracts/AaveGhoster.sol\":2393:2413  Strings.toString(id) */\n      jump\t// in\n    tag_261:\n        /* \"contracts/AaveGhoster.sol\":2352:2414  string.concat('{\"name\": \"AaveGhoster #', Strings.toString(id)) */\n      add(0x20, mload(0x40))\n      tag_262\n      swap2\n      swap1\n      tag_263\n      jump\t// in\n    tag_262:\n      0x40\n      dup1\n      mload\n      not(0x1f)\n      dup2\n      dup5\n      sub\n      add\n      dup2\n      mstore\n      swap1\n      dup3\n      swap1\n      mstore\n        /* \"contracts/AaveGhoster.sol\":2316:2634  string.concat(... */\n      tag_264\n      swap2\n        /* \"contracts/AaveGhoster.sol\":2352:2414  string.concat('{\"name\": \"AaveGhoster #', Strings.toString(id)) */\n      0x20\n        /* \"contracts/AaveGhoster.sol\":2316:2634  string.concat(... */\n      add\n      tag_265\n      jump\t// in\n    tag_264:\n      mload(0x40)\n      0x20\n      dup2\n      dup4\n      sub\n      sub\n      dup2\n      mstore\n      swap1\n      0x40\n      mstore\n        /* \"contracts/AaveGhoster.sol\":2667:2674  dataURI */\n      0x0c\n        /* \"contracts/AaveGhoster.sol\":2676:2681  image */\n      dup5\n        /* \"contracts/AaveGhoster.sol\":2653:2682  string.concat(dataURI, image) */\n      add(0x20, mload(0x40))\n      tag_266\n      swap3\n      swap2\n      swap1\n      tag_238\n      jump\t// in\n    tag_266:\n      0x40\n      dup1\n      mload\n      not(0x1f)\n      dup2\n      dup5\n      sub\n      add\n      dup2\n      mstore\n      swap1\n      dup3\n      swap1\n      mstore\n        /* \"contracts/AaveGhoster.sol\":2284:2697  string.concat(... */\n      tag_267\n      swap3\n      swap2\n        /* \"contracts/AaveGhoster.sol\":2653:2682  string.concat(dataURI, image) */\n      0x20\n        /* \"contracts/AaveGhoster.sol\":2284:2697  string.concat(... */\n      add\n      tag_268\n      jump\t// in\n    tag_267:\n      mload(0x40)\n      0x20\n      dup2\n      dup4\n      sub\n      sub\n      dup2\n      mstore\n      swap1\n      0x40\n      mstore\n        /* \"contracts/AaveGhoster.sol\":2255:2697  string memory jsonPreImage = string.concat(... */\n      swap1\n      pop\n        /* \"contracts/AaveGhoster.sol\":2712:2739  string memory jsonPostImage */\n      0x00\n        /* \"contracts/AaveGhoster.sol\":2842:2847  color */\n      dup3\n        /* \"contracts/AaveGhoster.sol\":2742:2862  string.concat(... */\n      add(0x20, mload(0x40))\n      tag_269\n      swap2\n      swap1\n      tag_270\n      jump\t// in\n    tag_269:\n      0x40\n      dup1\n      mload\n      not(0x1f)\n      dup2\n      dup5\n      sub\n      add\n      dup2\n      mstore\n        /* \"contracts/AaveGhoster.sol\":2877:2914  string memory jsonPostTraits = '\"}]}' */\n      dup3\n      dup3\n      add\n      dup3\n      mstore\n      0x04\n      dup4\n      mstore\n      shl(0xe0, 0x227d5d7d)\n        /* \"contracts/AaveGhoster.sol\":2742:2862  string.concat(... */\n      0x20\n        /* \"contracts/AaveGhoster.sol\":2877:2914  string memory jsonPostTraits = '\"}]}' */\n      dup5\n      dup2\n      add\n      swap2\n      swap1\n      swap2\n      mstore\n        /* \"contracts/AaveGhoster.sol\":3083:3125  string.concat(jsonPreImage, jsonPostImage) */\n      swap2\n      mload\n        /* \"contracts/AaveGhoster.sol\":2742:2862  string.concat(... */\n      swap1\n      swap4\n      pop\n        /* \"contracts/AaveGhoster.sol\":3083:3125  string.concat(jsonPreImage, jsonPostImage) */\n      tag_271\n      swap2\n        /* \"contracts/AaveGhoster.sol\":3097:3109  jsonPreImage */\n      dup6\n      swap2\n        /* \"contracts/AaveGhoster.sol\":2742:2862  string.concat(... */\n      dup6\n      swap2\n        /* \"contracts/AaveGhoster.sol\":3083:3125  string.concat(jsonPreImage, jsonPostImage) */\n      add\n      tag_268\n      jump\t// in\n    tag_271:\n      0x40\n      dup1\n      mload\n      not(0x1f)\n      dup2\n      dup5\n      sub\n      add\n      dup2\n      mstore\n      swap1\n      dup3\n      swap1\n      mstore\n        /* \"contracts/AaveGhoster.sol\":3043:3189  string.concat(... */\n      tag_272\n      swap2\n        /* \"contracts/AaveGhoster.sol\":3152:3166  jsonPostTraits */\n      dup4\n      swap1\n        /* \"contracts/AaveGhoster.sol\":3083:3125  string.concat(jsonPreImage, jsonPostImage) */\n      0x20\n        /* \"contracts/AaveGhoster.sol\":3043:3189  string.concat(... */\n      add\n      tag_268\n      jump\t// in\n    tag_272:\n      0x40\n      dup1\n      mload\n      not(0x1f)\n      dup2\n      dup5\n      sub\n      add\n      dup2\n      mstore\n      swap1\n      dup3\n      swap1\n      mstore\n        /* \"contracts/AaveGhoster.sol\":2955:3208  string.concat(... */\n      tag_273\n      swap2\n        /* \"contracts/AaveGhoster.sol\":3043:3189  string.concat(... */\n      0x20\n        /* \"contracts/AaveGhoster.sol\":2955:3208  string.concat(... */\n      add\n      tag_274\n      jump\t// in\n    tag_273:\n      mload(0x40)\n      0x20\n      dup2\n      dup4\n      sub\n      sub\n      dup2\n      mstore\n      swap1\n      0x40\n      mstore\n        /* \"contracts/AaveGhoster.sol\":2931:3208  return... */\n      swap7\n      pop\n      pop\n      pop\n      pop\n      pop\n      pop\n      pop\n        /* \"contracts/AaveGhoster.sol\":795:3227  function tokenURI(uint256 id) public view override returns (string memory) {... */\n      swap2\n      swap1\n      pop\n      jump\t// out\n        /* \"contracts/AaveGhoster.sol\":211:237  string public baseTokenURI */\n    tag_119:\n      0x0d\n      dup1\n      sload\n      tag_139\n      swap1\n      tag_140\n      jump\t// in\n        /* \"contracts/AaveGhoster.sol\":515:621  function setTokenURI(string memory _tokenURI) public onlyOwner {... */\n    tag_128:\n        /* \"contracts/ERC404.sol\":325:330  owner */\n      and(sub(shl(0xa0, 0x01), 0x01), sload(0x00))\n        /* \"contracts/ERC404.sol\":311:321  msg.sender */\n      caller\n        /* \"contracts/ERC404.sol\":311:330  msg.sender != owner */\n      eq\n        /* \"contracts/ERC404.sol\":307:353  if (msg.sender != owner) revert Unauthorized() */\n      tag_281\n      jumpi\n        /* \"contracts/ERC404.sol\":339:353  Unauthorized() */\n      mload(0x40)\n      shl(0xe8, 0x82b429)\n      dup2\n      mstore\n      0x04\n      add\n      mload(0x40)\n      dup1\n      swap2\n      sub\n      swap1\n      revert\n        /* \"contracts/ERC404.sol\":307:353  if (msg.sender != owner) revert Unauthorized() */\n    tag_281:\n        /* \"contracts/AaveGhoster.sol\":589:601  baseTokenURI */\n      0x0d\n        /* \"contracts/AaveGhoster.sol\":589:613  baseTokenURI = _tokenURI */\n      tag_156\n        /* \"contracts/AaveGhoster.sol\":604:613  _tokenURI */\n      dup3\n        /* \"contracts/AaveGhoster.sol\":589:601  baseTokenURI */\n      dup3\n        /* \"contracts/AaveGhoster.sol\":589:613  baseTokenURI = _tokenURI */\n      tag_157\n      jump\t// in\n        /* \"contracts/AaveGhoster.sol\":183:204  string public dataURI */\n    tag_134:\n      0x0c\n      dup1\n      sload\n      tag_139\n      swap1\n      tag_140\n      jump\t// in\n        /* \"contracts/ERC404.sol\":570:789  function transferOwnership(address _owner) public virtual onlyOwner {... */\n    tag_138:\n        /* \"contracts/ERC404.sol\":325:330  owner */\n      and(sub(shl(0xa0, 0x01), 0x01), sload(0x00))\n        /* \"contracts/ERC404.sol\":311:321  msg.sender */\n      caller\n        /* \"contracts/ERC404.sol\":311:330  msg.sender != owner */\n      eq\n        /* \"contracts/ERC404.sol\":307:353  if (msg.sender != owner) revert Unauthorized() */\n      tag_290\n      jumpi\n        /* \"contracts/ERC404.sol\":339:353  Unauthorized() */\n      mload(0x40)\n      shl(0xe8, 0x82b429)\n      dup2\n      mstore\n      0x04\n      add\n      mload(0x40)\n      dup1\n      swap2\n      sub\n      swap1\n      revert\n        /* \"contracts/ERC404.sol\":307:353  if (msg.sender != owner) revert Unauthorized() */\n    tag_290:\n      sub(shl(0xa0, 0x01), 0x01)\n        /* \"contracts/ERC404.sol\":653:673  _owner == address(0) */\n      dup2\n      and\n        /* \"contracts/ERC404.sol\":649:696  if (_owner == address(0)) revert InvalidOwner() */\n      tag_292\n      jumpi\n        /* \"contracts/ERC404.sol\":682:696  InvalidOwner() */\n      mload(0x40)\n      shl(0xe0, 0x49e27cff)\n      dup2\n      mstore\n      0x04\n      add\n      mload(0x40)\n      dup1\n      swap2\n      sub\n      swap1\n      revert\n        /* \"contracts/ERC404.sol\":649:696  if (_owner == address(0)) revert InvalidOwner() */\n    tag_292:\n        /* \"contracts/ERC404.sol\":709:714  owner */\n      0x00\n        /* \"contracts/ERC404.sol\":709:723  owner = _owner */\n      dup1\n      sload\n      not(sub(shl(0xa0, 0x01), 0x01))\n      and\n      sub(shl(0xa0, 0x01), 0x01)\n      dup4\n      and\n      swap1\n      dup2\n      or\n      dup3\n      sstore\n        /* \"contracts/ERC404.sol\":741:781  OwnershipTransferred(msg.sender, _owner) */\n      mload(0x40)\n        /* \"contracts/ERC404.sol\":709:723  owner = _owner */\n      swap1\n      swap2\n        /* \"contracts/ERC404.sol\":762:772  msg.sender */\n      caller\n      swap2\n        /* \"contracts/ERC404.sol\":741:781  OwnershipTransferred(msg.sender, _owner) */\n      0x8be0079c531659141344cd1fd0a4f28419497f9722a3daafe3b4186f6b6457e0\n      swap2\n        /* \"contracts/ERC404.sol\":709:714  owner */\n      swap1\n        /* \"contracts/ERC404.sol\":741:781  OwnershipTransferred(msg.sender, _owner) */\n      log3\n        /* \"contracts/ERC404.sol\":570:789  function transferOwnership(address _owner) public virtual onlyOwner {... */\n      pop\n      jump\t// out\n        /* \"contracts/ERC404.sol\":10540:10632  function _getUnit() internal view returns (uint256) {... */\n    tag_166:\n        /* \"contracts/ERC404.sol\":10583:10590  uint256 */\n      0x00\n        /* \"contracts/ERC404.sol\":10610:10624  10 ** decimals */\n      tag_294\n        /* \"contracts/ERC404.sol\":10616:10624  decimals */\n      immutable(\"0xf2aed5d52b85e7b229d9a0bb201e12bdcbbc5fc133feb54c1cb531c3f7cf58ed\")\n        /* \"contracts/ERC404.sol\":10610:10612  10 */\n      0x0a\n        /* \"contracts/ERC404.sol\":10610:10624  10 ** decimals */\n      tag_295\n      jump\t// in\n    tag_294:\n        /* \"contracts/ERC404.sol\":10603:10624  return 10 ** decimals */\n      swap1\n      pop\n        /* \"contracts/ERC404.sol\":10540:10632  function _getUnit() internal view returns (uint256) {... */\n      swap1\n      jump\t// out\n        /* \"contracts/ERC404.sol\":9408:10501  function _transfer(... */\n    tag_190:\n        /* \"contracts/ERC404.sol\":9521:9525  bool */\n      0x00\n        /* \"contracts/ERC404.sol\":9538:9550  uint256 unit */\n      dup1\n        /* \"contracts/ERC404.sol\":9553:9563  _getUnit() */\n      tag_297\n        /* \"contracts/ERC404.sol\":9553:9561  _getUnit */\n      tag_166\n        /* \"contracts/ERC404.sol\":9553:9563  _getUnit() */\n      jump\t// in\n    tag_297:\n      sub(shl(0xa0, 0x01), 0x01)\n        /* \"contracts/ERC404.sol\":9604:9619  balanceOf[from] */\n      dup1\n      dup8\n      and\n        /* \"contracts/ERC404.sol\":9574:9601  uint256 balanceBeforeSender */\n      0x00\n        /* \"contracts/ERC404.sol\":9604:9619  balanceOf[from] */\n      dup2\n      dup2\n      mstore\n        /* \"contracts/ERC404.sol\":9604:9613  balanceOf */\n      0x04\n        /* \"contracts/ERC404.sol\":9604:9619  balanceOf[from] */\n      0x20\n      mstore\n      0x40\n      dup1\n      dup3\n      keccak256\n      dup1\n      sload\n        /* \"contracts/ERC404.sol\":9662:9675  balanceOf[to] */\n      swap5\n      dup11\n      and\n      dup4\n      mstore\n      swap1\n      dup3\n      keccak256\n      sload\n        /* \"contracts/ERC404.sol\":9688:9703  balanceOf[from] */\n      swap3\n      dup3\n      mstore\n        /* \"contracts/ERC404.sol\":9538:9563  uint256 unit = _getUnit() */\n      swap4\n      swap5\n      pop\n        /* \"contracts/ERC404.sol\":9604:9619  balanceOf[from] */\n      swap2\n      swap3\n        /* \"contracts/ERC404.sol\":9662:9675  balanceOf[to] */\n      swap1\n      swap2\n        /* \"contracts/ERC404.sol\":9707:9713  amount */\n      dup7\n      swap2\n        /* \"contracts/ERC404.sol\":9604:9619  balanceOf[from] */\n      swap1\n        /* \"contracts/ERC404.sol\":9688:9713  balanceOf[from] -= amount */\n      tag_298\n        /* \"contracts/ERC404.sol\":9707:9713  amount */\n      dup4\n        /* \"contracts/ERC404.sol\":9604:9619  balanceOf[from] */\n      dup7\n        /* \"contracts/ERC404.sol\":9688:9713  balanceOf[from] -= amount */\n      tag_168\n      jump\t// in\n    tag_298:\n      swap1\n      swap2\n      sstore\n      pop\n      pop\n      sub(shl(0xa0, 0x01), 0x01)\n        /* \"contracts/ERC404.sol\":9751:9764  balanceOf[to] */\n      dup1\n      dup8\n      and\n      0x00\n      swap1\n      dup2\n      mstore\n        /* \"contracts/ERC404.sol\":9751:9760  balanceOf */\n      0x04\n        /* \"contracts/ERC404.sol\":9751:9764  balanceOf[to] */\n      0x20\n      swap1\n      dup2\n      mstore\n      0x40\n      dup1\n      dup4\n      keccak256\n        /* \"contracts/ERC404.sol\":9751:9774  balanceOf[to] += amount */\n      dup1\n      sload\n      dup11\n      add\n      swap1\n      sstore\n        /* \"contracts/ERC404.sol\":9859:9874  whitelist[from] */\n      swap3\n      dup11\n      and\n      dup3\n      mstore\n        /* \"contracts/ERC404.sol\":9859:9868  whitelist */\n      0x0b\n        /* \"contracts/ERC404.sol\":9859:9874  whitelist[from] */\n      swap1\n      mstore\n      keccak256\n      sload\n      0xff\n      and\n        /* \"contracts/ERC404.sol\":9854:10105  if (!whitelist[from]) {... */\n      tag_299\n      jumpi\n      sub(shl(0xa0, 0x01), 0x01)\n        /* \"contracts/ERC404.sol\":9965:9980  balanceOf[from] */\n      dup8\n      and\n        /* \"contracts/ERC404.sol\":9891:9913  uint256 tokens_to_burn */\n      0x00\n        /* \"contracts/ERC404.sol\":9965:9980  balanceOf[from] */\n      swap1\n      dup2\n      mstore\n        /* \"contracts/ERC404.sol\":9965:9974  balanceOf */\n      0x04\n        /* \"contracts/ERC404.sol\":9965:9980  balanceOf[from] */\n      0x20\n      mstore\n      0x40\n      dup2\n      keccak256\n      sload\n        /* \"contracts/ERC404.sol\":9965:9987  balanceOf[from] / unit */\n      tag_300\n      swap1\n        /* \"contracts/ERC404.sol\":9983:9987  unit */\n      dup6\n      swap1\n        /* \"contracts/ERC404.sol\":9965:9987  balanceOf[from] / unit */\n      tag_301\n      jump\t// in\n    tag_300:\n        /* \"contracts/ERC404.sol\":9917:9943  balanceBeforeSender / unit */\n      tag_302\n        /* \"contracts/ERC404.sol\":9939:9943  unit */\n      dup6\n        /* \"contracts/ERC404.sol\":9917:9936  balanceBeforeSender */\n      dup6\n        /* \"contracts/ERC404.sol\":9917:9943  balanceBeforeSender / unit */\n      tag_301\n      jump\t// in\n    tag_302:\n        /* \"contracts/ERC404.sol\":9916:9988  (balanceBeforeSender / unit) -... */\n      tag_303\n      swap2\n      swap1\n      tag_168\n      jump\t// in\n    tag_303:\n        /* \"contracts/ERC404.sol\":9891:9988  uint256 tokens_to_burn = (balanceBeforeSender / unit) -... */\n      swap1\n      pop\n        /* \"contracts/ERC404.sol\":10008:10017  uint256 i */\n      0x00\n        /* \"contracts/ERC404.sol\":10003:10094  for (uint256 i = 0; i < tokens_to_burn; i++) {... */\n    tag_304:\n        /* \"contracts/ERC404.sol\":10027:10041  tokens_to_burn */\n      dup2\n        /* \"contracts/ERC404.sol\":10023:10024  i */\n      dup2\n        /* \"contracts/ERC404.sol\":10023:10041  i < tokens_to_burn */\n      lt\n        /* \"contracts/ERC404.sol\":10003:10094  for (uint256 i = 0; i < tokens_to_burn; i++) {... */\n      iszero\n      tag_305\n      jumpi\n        /* \"contracts/ERC404.sol\":10067:10078  _burn(from) */\n      tag_307\n        /* \"contracts/ERC404.sol\":10073:10077  from */\n      dup10\n        /* \"contracts/ERC404.sol\":10067:10072  _burn */\n      tag_308\n        /* \"contracts/ERC404.sol\":10067:10078  _burn(from) */\n      jump\t// in\n    tag_307:\n        /* \"contracts/ERC404.sol\":10043:10046  i++ */\n      0x01\n      add\n        /* \"contracts/ERC404.sol\":10003:10094  for (uint256 i = 0; i < tokens_to_burn; i++) {... */\n      jump(tag_304)\n    tag_305:\n      pop\n        /* \"contracts/ERC404.sol\":9876:10105  {... */\n      pop\n        /* \"contracts/ERC404.sol\":9854:10105  if (!whitelist[from]) {... */\n    tag_299:\n      sub(shl(0xa0, 0x01), 0x01)\n        /* \"contracts/ERC404.sol\":10181:10194  whitelist[to] */\n      dup7\n      and\n      0x00\n      swap1\n      dup2\n      mstore\n        /* \"contracts/ERC404.sol\":10181:10190  whitelist */\n      0x0b\n        /* \"contracts/ERC404.sol\":10181:10194  whitelist[to] */\n      0x20\n      mstore\n      0x40\n      swap1\n      keccak256\n      sload\n      0xff\n      and\n        /* \"contracts/ERC404.sol\":10176:10423  if (!whitelist[to]) {... */\n      tag_309\n      jumpi\n        /* \"contracts/ERC404.sol\":10211:10233  uint256 tokens_to_mint */\n      0x00\n        /* \"contracts/ERC404.sol\":10279:10307  balanceBeforeReceiver / unit */\n      tag_310\n        /* \"contracts/ERC404.sol\":10303:10307  unit */\n      dup5\n        /* \"contracts/ERC404.sol\":10279:10300  balanceBeforeReceiver */\n      dup4\n        /* \"contracts/ERC404.sol\":10279:10307  balanceBeforeReceiver / unit */\n      tag_301\n      jump\t// in\n    tag_310:\n      sub(shl(0xa0, 0x01), 0x01)\n        /* \"contracts/ERC404.sol\":10237:10250  balanceOf[to] */\n      dup9\n      and\n      0x00\n      swap1\n      dup2\n      mstore\n        /* \"contracts/ERC404.sol\":10237:10246  balanceOf */\n      0x04\n        /* \"contracts/ERC404.sol\":10237:10250  balanceOf[to] */\n      0x20\n      mstore\n      0x40\n      swap1\n      keccak256\n      sload\n        /* \"contracts/ERC404.sol\":10237:10257  balanceOf[to] / unit */\n      tag_311\n      swap1\n        /* \"contracts/ERC404.sol\":10253:10257  unit */\n      dup7\n      swap1\n        /* \"contracts/ERC404.sol\":10237:10257  balanceOf[to] / unit */\n      tag_301\n      jump\t// in\n    tag_311:\n        /* \"contracts/ERC404.sol\":10236:10308  (balanceOf[to] / unit) -... */\n      tag_312\n      swap2\n      swap1\n      tag_168\n      jump\t// in\n    tag_312:\n        /* \"contracts/ERC404.sol\":10211:10308  uint256 tokens_to_mint = (balanceOf[to] / unit) -... */\n      swap1\n      pop\n        /* \"contracts/ERC404.sol\":10328:10337  uint256 i */\n      0x00\n        /* \"contracts/ERC404.sol\":10323:10412  for (uint256 i = 0; i < tokens_to_mint; i++) {... */\n    tag_313:\n        /* \"contracts/ERC404.sol\":10347:10361  tokens_to_mint */\n      dup2\n        /* \"contracts/ERC404.sol\":10343:10344  i */\n      dup2\n        /* \"contracts/ERC404.sol\":10343:10361  i < tokens_to_mint */\n      lt\n        /* \"contracts/ERC404.sol\":10323:10412  for (uint256 i = 0; i < tokens_to_mint; i++) {... */\n      iszero\n      tag_314\n      jumpi\n        /* \"contracts/ERC404.sol\":10387:10396  _mint(to) */\n      tag_316\n        /* \"contracts/ERC404.sol\":10393:10395  to */\n      dup9\n        /* \"contracts/ERC404.sol\":10387:10392  _mint */\n      tag_317\n        /* \"contracts/ERC404.sol\":10387:10396  _mint(to) */\n      jump\t// in\n    tag_316:\n        /* \"contracts/ERC404.sol\":10363:10366  i++ */\n      0x01\n      add\n        /* \"contracts/ERC404.sol\":10323:10412  for (uint256 i = 0; i < tokens_to_mint; i++) {... */\n      jump(tag_313)\n    tag_314:\n      pop\n        /* \"contracts/ERC404.sol\":10196:10423  {... */\n      pop\n        /* \"contracts/ERC404.sol\":10176:10423  if (!whitelist[to]) {... */\n    tag_309:\n        /* \"contracts/ERC404.sol\":10460:10462  to */\n      dup6\n      sub(shl(0xa0, 0x01), 0x01)\n        /* \"contracts/ERC404.sol\":10440:10471  ERC20Transfer(from, to, amount) */\n      and\n        /* \"contracts/ERC404.sol\":10454:10458  from */\n      dup8\n      sub(shl(0xa0, 0x01), 0x01)\n        /* \"contracts/ERC404.sol\":10440:10471  ERC20Transfer(from, to, amount) */\n      and\n      0xe59fdd36d0d223c0c7d996db7ad796880f45e1936cb0bb7ac102e7082e031487\n        /* \"contracts/ERC404.sol\":10464:10470  amount */\n      dup8\n        /* \"contracts/ERC404.sol\":10440:10471  ERC20Transfer(from, to, amount) */\n      mload(0x40)\n      tag_318\n      swap2\n        /* \"#utility.yul\":1838:1863   */\n      dup2\n      mstore\n        /* \"#utility.yul\":1826:1828   */\n      0x20\n        /* \"#utility.yul\":1811:1829   */\n      add\n      swap1\n        /* \"#utility.yul\":1692:1869   */\n      jump\n        /* \"contracts/ERC404.sol\":10440:10471  ERC20Transfer(from, to, amount) */\n    tag_318:\n      mload(0x40)\n      dup1\n      swap2\n      sub\n      swap1\n      log3\n      pop\n        /* \"contracts/ERC404.sol\":10489:10493  true */\n      0x01\n      swap7\n        /* \"contracts/ERC404.sol\":9408:10501  function _transfer(... */\n      swap6\n      pop\n      pop\n      pop\n      pop\n      pop\n      pop\n      jump\t// out\n        /* \"contracts/ERC404.sol\":11503:11663  function _setNameSymbol(... */\n    tag_208:\n        /* \"contracts/ERC404.sol\":11616:11620  name */\n      0x01\n        /* \"contracts/ERC404.sol\":11616:11628  name = _name */\n      tag_320\n        /* \"contracts/ERC404.sol\":11623:11628  _name */\n      dup4\n        /* \"contracts/ERC404.sol\":11616:11620  name */\n      dup3\n        /* \"contracts/ERC404.sol\":11616:11628  name = _name */\n      tag_157\n      jump\t// in\n    tag_320:\n      pop\n        /* \"contracts/ERC404.sol\":11639:11645  symbol */\n      0x02\n        /* \"contracts/ERC404.sol\":11639:11655  symbol = _symbol */\n      tag_186\n        /* \"contracts/ERC404.sol\":11648:11655  _symbol */\n      dup3\n        /* \"contracts/ERC404.sol\":11639:11645  symbol */\n      dup3\n        /* \"contracts/ERC404.sol\":11639:11655  symbol = _symbol */\n      tag_157\n      jump\t// in\n        /* \"@openzeppelin/contracts/utils/Strings.sol\":637:1335  function toString(uint256 value) internal pure returns (string memory) {... */\n    tag_236:\n        /* \"@openzeppelin/contracts/utils/Strings.sol\":693:706  string memory */\n      0x60\n        /* \"@openzeppelin/contracts/utils/Strings.sol\":742:756  uint256 length */\n      0x00\n        /* \"@openzeppelin/contracts/utils/Strings.sol\":759:776  Math.log10(value) */\n      tag_323\n        /* \"@openzeppelin/contracts/utils/Strings.sol\":770:775  value */\n      dup4\n        /* \"@openzeppelin/contracts/utils/Strings.sol\":759:769  Math.log10 */\n      tag_324\n        /* \"@openzeppelin/contracts/utils/Strings.sol\":759:776  Math.log10(value) */\n      jump\t// in\n    tag_323:\n        /* \"@openzeppelin/contracts/utils/Strings.sol\":779:780  1 */\n      0x01\n        /* \"@openzeppelin/contracts/utils/Strings.sol\":759:780  Math.log10(value) + 1 */\n      add\n        /* \"@openzeppelin/contracts/utils/Strings.sol\":742:780  uint256 length = Math.log10(value) + 1 */\n      swap1\n      pop\n        /* \"@openzeppelin/contracts/utils/Strings.sol\":794:814  string memory buffer */\n      0x00\n        /* \"@openzeppelin/contracts/utils/Strings.sol\":828:834  length */\n      dup2\n        /* \"@openzeppelin/contracts/utils/Strings.sol\":817:835  new string(length) */\n      0xffffffffffffffff\n      dup2\n      gt\n      iszero\n      tag_326\n      jumpi\n      tag_326\n      tag_327\n      jump\t// in\n    tag_326:\n      mload(0x40)\n      swap1\n      dup1\n      dup3\n      mstore\n      dup1\n      0x1f\n      add\n      not(0x1f)\n      and\n      0x20\n      add\n      dup3\n      add\n      0x40\n      mstore\n      dup1\n      iszero\n      tag_328\n      jumpi\n      0x20\n      dup3\n      add\n      dup2\n      dup1\n      calldatasize\n      dup4\n      calldatacopy\n      add\n      swap1\n      pop\n    tag_328:\n      pop\n        /* \"@openzeppelin/contracts/utils/Strings.sol\":794:835  string memory buffer = new string(length) */\n      swap1\n      pop\n        /* \"@openzeppelin/contracts/utils/Strings.sol\":955:983  add(buffer, add(32, length)) */\n      dup2\n      dup2\n      add\n        /* \"@openzeppelin/contracts/utils/Strings.sol\":971:973  32 */\n      0x20\n        /* \"@openzeppelin/contracts/utils/Strings.sol\":955:983  add(buffer, add(32, length)) */\n      add\n        /* \"@openzeppelin/contracts/utils/Strings.sol\":1010:1292  while (true) {... */\n    tag_329:\n      not(0x00)\n        /* \"@openzeppelin/contracts/utils/Strings.sol\":1041:1046  ptr-- */\n      add\n      shl(0x81, 0x181899199a1a9b1b9c1cb0b131b232b3)\n        /* \"@openzeppelin/contracts/utils/Strings.sol\":1175:1177  10 */\n      0x0a\n        /* \"@openzeppelin/contracts/utils/Strings.sol\":1164:1178  mod(value, 10) */\n      dup7\n      mod\n        /* \"@openzeppelin/contracts/utils/Strings.sol\":1159:1191  byte(mod(value, 10), HEX_DIGITS) */\n      byte\n        /* \"@openzeppelin/contracts/utils/Strings.sol\":1041:1046  ptr-- */\n      dup2\n        /* \"@openzeppelin/contracts/utils/Strings.sol\":1146:1192  mstore8(ptr, byte(mod(value, 10), HEX_DIGITS)) */\n      mstore8\n        /* \"@openzeppelin/contracts/utils/Strings.sol\":1236:1238  10 */\n      0x0a\n        /* \"@openzeppelin/contracts/utils/Strings.sol\":1227:1238  value /= 10 */\n      dup6\n      div\n      swap5\n      pop\n        /* \"@openzeppelin/contracts/utils/Strings.sol\":1256:1277  if (value == 0) break */\n      dup5\n        /* \"@openzeppelin/contracts/utils/Strings.sol\":1010:1292  while (true) {... */\n      tag_329\n        /* \"@openzeppelin/contracts/utils/Strings.sol\":1256:1277  if (value == 0) break */\n      jumpi\n      pop\n        /* \"@openzeppelin/contracts/utils/Strings.sol\":1312:1318  buffer */\n      swap4\n        /* \"@openzeppelin/contracts/utils/Strings.sol\":637:1335  function toString(uint256 value) internal pure returns (string memory) {... */\n      swap3\n      pop\n      pop\n      pop\n      jump\t// out\n        /* \"contracts/ERC404.sol\":11122:11495  function _burn(address from) internal virtual {... */\n    tag_308:\n      sub(shl(0xa0, 0x01), 0x01)\n        /* \"contracts/ERC404.sol\":11183:11201  from == address(0) */\n      dup2\n      and\n        /* \"contracts/ERC404.sol\":11179:11252  if (from == address(0)) {... */\n      tag_336\n      jumpi\n        /* \"contracts/ERC404.sol\":11225:11240  InvalidSender() */\n      mload(0x40)\n      shl(0xe1, 0x6edaef2f)\n      dup2\n      mstore\n      0x04\n      add\n      mload(0x40)\n      dup1\n      swap2\n      sub\n      swap1\n      revert\n        /* \"contracts/ERC404.sol\":11179:11252  if (from == address(0)) {... */\n    tag_336:\n      sub(shl(0xa0, 0x01), 0x01)\n        /* \"contracts/ERC404.sol\":11277:11289  _owned[from] */\n      dup2\n      and\n        /* \"contracts/ERC404.sol\":11264:11274  uint256 id */\n      0x00\n        /* \"contracts/ERC404.sol\":11277:11289  _owned[from] */\n      swap1\n      dup2\n      mstore\n        /* \"contracts/ERC404.sol\":11277:11283  _owned */\n      0x09\n        /* \"contracts/ERC404.sol\":11277:11289  _owned[from] */\n      0x20\n      mstore\n      0x40\n      dup2\n      keccak256\n        /* \"contracts/ERC404.sol\":11290:11309  _owned[from].length */\n      dup1\n      sload\n        /* \"contracts/ERC404.sol\":11290:11313  _owned[from].length - 1 */\n      tag_337\n      swap1\n        /* \"contracts/ERC404.sol\":11312:11313  1 */\n      0x01\n      swap1\n        /* \"contracts/ERC404.sol\":11290:11313  _owned[from].length - 1 */\n      tag_168\n      jump\t// in\n    tag_337:\n        /* \"contracts/ERC404.sol\":11277:11314  _owned[from][_owned[from].length - 1] */\n      dup2\n      sload\n      dup2\n      lt\n      tag_339\n      jumpi\n      tag_339\n      tag_173\n      jump\t// in\n    tag_339:\n      swap1\n      0x00\n      mstore\n      keccak256(0x00, 0x20)\n      add\n      sload\n        /* \"contracts/ERC404.sol\":11264:11314  uint256 id = _owned[from][_owned[from].length - 1] */\n      swap1\n      pop\n        /* \"contracts/ERC404.sol\":11325:11331  _owned */\n      0x09\n        /* \"contracts/ERC404.sol\":11325:11337  _owned[from] */\n      0x00\n        /* \"contracts/ERC404.sol\":11332:11336  from */\n      dup4\n      sub(shl(0xa0, 0x01), 0x01)\n        /* \"contracts/ERC404.sol\":11325:11337  _owned[from] */\n      and\n      sub(shl(0xa0, 0x01), 0x01)\n      and\n      dup2\n      mstore\n      0x20\n      add\n      swap1\n      dup2\n      mstore\n      0x20\n      add\n      0x00\n      keccak256\n        /* \"contracts/ERC404.sol\":11325:11343  _owned[from].pop() */\n      dup1\n      sload\n      dup1\n      tag_342\n      jumpi\n      tag_342\n      tag_180\n      jump\t// in\n    tag_342:\n      0x00\n      dup3\n      dup2\n      mstore\n      0x20\n      dup1\n      dup3\n      keccak256\n      dup4\n      add\n      not(0x00)\n      swap1\n      dup2\n      add\n      dup4\n      swap1\n      sstore\n      swap1\n      swap3\n      add\n      swap1\n      swap3\n      sstore\n        /* \"contracts/ERC404.sol\":11361:11376  _ownedIndex[id] */\n      dup3\n      dup3\n      mstore\n        /* \"contracts/ERC404.sol\":11361:11372  _ownedIndex */\n      0x0a\n        /* \"contracts/ERC404.sol\":11361:11376  _ownedIndex[id] */\n      dup2\n      mstore\n      0x40\n      dup1\n      dup4\n      keccak256\n        /* \"contracts/ERC404.sol\":11354:11376  delete _ownedIndex[id] */\n      dup4\n      swap1\n      sstore\n        /* \"contracts/ERC404.sol\":11394:11402  _ownerOf */\n      0x08\n        /* \"contracts/ERC404.sol\":11394:11406  _ownerOf[id] */\n      dup3\n      mstore\n      dup1\n      dup4\n      keccak256\n        /* \"contracts/ERC404.sol\":11387:11406  delete _ownerOf[id] */\n      dup1\n      sload\n      not(sub(shl(0xa0, 0x01), 0x01))\n      swap1\n      dup2\n      and\n      swap1\n      swap2\n      sstore\n        /* \"contracts/ERC404.sol\":11424:11435  getApproved */\n      0x06\n        /* \"contracts/ERC404.sol\":11424:11439  getApproved[id] */\n      swap1\n      swap3\n      mstore\n      dup1\n      dup4\n      keccak256\n        /* \"contracts/ERC404.sol\":11417:11439  delete getApproved[id] */\n      dup1\n      sload\n      swap1\n      swap3\n      and\n      swap1\n      swap2\n      sstore\n        /* \"contracts/ERC404.sol\":11457:11487  Transfer(from, address(0), id) */\n      mload\n        /* \"contracts/ERC404.sol\":11373:11375  id */\n      dup3\n      swap2\n        /* \"contracts/ERC404.sol\":11325:11343  _owned[from].pop() */\n      swap1\n      sub(shl(0xa0, 0x01), 0x01)\n        /* \"contracts/ERC404.sol\":11457:11487  Transfer(from, address(0), id) */\n      dup6\n      and\n      swap1\n      0xddf252ad1be2c89b69c2b068fc378daa952ba7f163c4a11628f55a4df523b3ef\n      swap1\n        /* \"contracts/ERC404.sol\":11325:11343  _owned[from].pop() */\n      dup4\n      swap1\n        /* \"contracts/ERC404.sol\":11457:11487  Transfer(from, address(0), id) */\n      log4\n        /* \"contracts/ERC404.sol\":11168:11495  {... */\n      pop\n        /* \"contracts/ERC404.sol\":11122:11495  function _burn(address from) internal virtual {... */\n      pop\n      jump\t// out\n        /* \"contracts/ERC404.sol\":10640:11114  function _mint(address to) internal virtual {... */\n    tag_317:\n      sub(shl(0xa0, 0x01), 0x01)\n        /* \"contracts/ERC404.sol\":10699:10715  to == address(0) */\n      dup2\n      and\n        /* \"contracts/ERC404.sol\":10695:10769  if (to == address(0)) {... */\n      tag_345\n      jumpi\n        /* \"contracts/ERC404.sol\":10739:10757  InvalidRecipient() */\n      mload(0x40)\n      shl(0xe1, 0x4e469669)\n      dup2\n      mstore\n      0x04\n      add\n      mload(0x40)\n      dup1\n      swap2\n      sub\n      swap1\n      revert\n        /* \"contracts/ERC404.sol\":10695:10769  if (to == address(0)) {... */\n    tag_345:\n        /* \"contracts/ERC404.sol\":10806:10812  minted */\n      0x03\n        /* \"contracts/ERC404.sol\":10806:10814  minted++ */\n      dup1\n      sload\n      0x01\n      add\n      swap1\n      dup2\n      swap1\n      sstore\n        /* \"contracts/ERC404.sol\":10806:10812  minted */\n      0x00\n        /* \"contracts/ERC404.sol\":10874:10886  _ownerOf[id] */\n      dup2\n      dup2\n      mstore\n        /* \"contracts/ERC404.sol\":10874:10882  _ownerOf */\n      0x08\n        /* \"contracts/ERC404.sol\":10874:10886  _ownerOf[id] */\n      0x20\n      mstore\n      0x40\n      swap1\n      keccak256\n      sload\n      sub(shl(0xa0, 0x01), 0x01)\n      and\n        /* \"contracts/ERC404.sol\":10874:10900  _ownerOf[id] != address(0) */\n      iszero\n        /* \"contracts/ERC404.sol\":10870:10951  if (_ownerOf[id] != address(0)) {... */\n      tag_346\n      jumpi\n        /* \"contracts/ERC404.sol\":10924:10939  AlreadyExists() */\n      mload(0x40)\n      shl(0xe1, 0x119b4fd3)\n      dup2\n      mstore\n      0x04\n      add\n      mload(0x40)\n      dup1\n      swap2\n      sub\n      swap1\n      revert\n        /* \"contracts/ERC404.sol\":10870:10951  if (_ownerOf[id] != address(0)) {... */\n    tag_346:\n        /* \"contracts/ERC404.sol\":10963:10975  _ownerOf[id] */\n      0x00\n      dup2\n      dup2\n      mstore\n        /* \"contracts/ERC404.sol\":10963:10971  _ownerOf */\n      0x08\n        /* \"contracts/ERC404.sol\":10963:10975  _ownerOf[id] */\n      0x20\n      swap1\n      dup2\n      mstore\n      0x40\n      dup1\n      dup4\n      keccak256\n        /* \"contracts/ERC404.sol\":10963:10980  _ownerOf[id] = to */\n      dup1\n      sload\n      not(sub(shl(0xa0, 0x01), 0x01))\n      and\n      sub(shl(0xa0, 0x01), 0x01)\n      dup8\n      and\n      swap1\n      dup2\n      or\n      swap1\n      swap2\n      sstore\n        /* \"contracts/ERC404.sol\":10991:11001  _owned[to] */\n      dup1\n      dup5\n      mstore\n        /* \"contracts/ERC404.sol\":10991:10997  _owned */\n      0x09\n        /* \"contracts/ERC404.sol\":10991:11001  _owned[to] */\n      dup4\n      mstore\n      swap1\n      dup4\n      keccak256\n        /* \"contracts/ERC404.sol\":10991:11010  _owned[to].push(id) */\n      dup1\n      sload\n      0x01\n      dup2\n      dup2\n      add\n      dup4\n      sstore\n      dup3\n      dup7\n      mstore\n      swap4\n      dup6\n      keccak256\n      add\n      dup6\n      swap1\n      sstore\n        /* \"contracts/ERC404.sol\":11039:11049  _owned[to] */\n      swap3\n      mstore\n        /* \"contracts/ERC404.sol\":11039:11056  _owned[to].length */\n      swap1\n      sload\n        /* \"contracts/ERC404.sol\":11039:11060  _owned[to].length - 1 */\n      tag_348\n      swap2\n      swap1\n      tag_168\n      jump\t// in\n    tag_348:\n        /* \"contracts/ERC404.sol\":11021:11036  _ownedIndex[id] */\n      0x00\n      dup3\n      dup2\n      mstore\n        /* \"contracts/ERC404.sol\":11021:11032  _ownedIndex */\n      0x0a\n        /* \"contracts/ERC404.sol\":11021:11036  _ownedIndex[id] */\n      0x20\n      mstore\n      0x40\n      dup1\n      dup3\n      keccak256\n        /* \"contracts/ERC404.sol\":11021:11060  _ownedIndex[id] = _owned[to].length - 1 */\n      swap3\n      swap1\n      swap3\n      sstore\n        /* \"contracts/ERC404.sol\":11078:11106  Transfer(address(0), to, id) */\n      swap1\n      mload\n        /* \"contracts/ERC404.sol\":11033:11035  id */\n      dup3\n      swap2\n      sub(shl(0xa0, 0x01), 0x01)\n        /* \"contracts/ERC404.sol\":11078:11106  Transfer(address(0), to, id) */\n      dup6\n      and\n      swap2\n      0xddf252ad1be2c89b69c2b068fc378daa952ba7f163c4a11628f55a4df523b3ef\n      swap1\n        /* \"contracts/ERC404.sol\":11021:11036  _ownedIndex[id] */\n      dup3\n      swap1\n        /* \"contracts/ERC404.sol\":11078:11106  Transfer(address(0), to, id) */\n      log4\n        /* \"contracts/ERC404.sol\":10684:11114  {... */\n      pop\n        /* \"contracts/ERC404.sol\":10640:11114  function _mint(address to) internal virtual {... */\n      pop\n      jump\t// out\n        /* \"@openzeppelin/contracts/utils/math/Math.sol\":12214:13130  function log10(uint256 value) internal pure returns (uint256) {... */\n    tag_324:\n        /* \"@openzeppelin/contracts/utils/math/Math.sol\":12267:12274  uint256 */\n      0x00\n      dup1\n      shl(0x40, 0x184f03e93ff9f4daa797ed6e38ed64bf6a1f01)\n        /* \"@openzeppelin/contracts/utils/math/Math.sol\":12342:12359  value >= 10 ** 64 */\n      dup4\n      lt\n        /* \"@openzeppelin/contracts/utils/math/Math.sol\":12338:12441  if (value >= 10 ** 64) {... */\n      tag_350\n      jumpi\n      shl(0x40, 0x184f03e93ff9f4daa797ed6e38ed64bf6a1f01)\n        /* \"@openzeppelin/contracts/utils/math/Math.sol\":12379:12396  value /= 10 ** 64 */\n      dup4\n      div\n      swap3\n      pop\n        /* \"@openzeppelin/contracts/utils/math/Math.sol\":12424:12426  64 */\n      0x40\n        /* \"@openzeppelin/contracts/utils/math/Math.sol\":12414:12426  result += 64 */\n      add\n        /* \"@openzeppelin/contracts/utils/math/Math.sol\":12338:12441  if (value >= 10 ** 64) {... */\n    tag_350:\n        /* \"@openzeppelin/contracts/utils/math/Math.sol\":12467:12475  10 ** 32 */\n      0x04ee2d6d415b85acef8100000000\n        /* \"@openzeppelin/contracts/utils/math/Math.sol\":12458:12463  value */\n      dup4\n        /* \"@openzeppelin/contracts/utils/math/Math.sol\":12458:12475  value >= 10 ** 32 */\n      lt\n        /* \"@openzeppelin/contracts/utils/math/Math.sol\":12454:12557  if (value >= 10 ** 32) {... */\n      tag_353\n      jumpi\n        /* \"@openzeppelin/contracts/utils/math/Math.sol\":12504:12512  10 ** 32 */\n      0x04ee2d6d415b85acef8100000000\n        /* \"@openzeppelin/contracts/utils/math/Math.sol\":12495:12512  value /= 10 ** 32 */\n      dup4\n      div\n      swap3\n      pop\n        /* \"@openzeppelin/contracts/utils/math/Math.sol\":12540:12542  32 */\n      0x20\n        /* \"@openzeppelin/contracts/utils/math/Math.sol\":12530:12542  result += 32 */\n      add\n        /* \"@openzeppelin/contracts/utils/math/Math.sol\":12454:12557  if (value >= 10 ** 32) {... */\n    tag_353:\n        /* \"@openzeppelin/contracts/utils/math/Math.sol\":12583:12591  10 ** 16 */\n      0x2386f26fc10000\n        /* \"@openzeppelin/contracts/utils/math/Math.sol\":12574:12579  value */\n      dup4\n        /* \"@openzeppelin/contracts/utils/math/Math.sol\":12574:12591  value >= 10 ** 16 */\n      lt\n        /* \"@openzeppelin/contracts/utils/math/Math.sol\":12570:12673  if (value >= 10 ** 16) {... */\n      tag_356\n      jumpi\n        /* \"@openzeppelin/contracts/utils/math/Math.sol\":12620:12628  10 ** 16 */\n      0x2386f26fc10000\n        /* \"@openzeppelin/contracts/utils/math/Math.sol\":12611:12628  value /= 10 ** 16 */\n      dup4\n      div\n      swap3\n      pop\n        /* \"@openzeppelin/contracts/utils/math/Math.sol\":12656:12658  16 */\n      0x10\n        /* \"@openzeppelin/contracts/utils/math/Math.sol\":12646:12658  result += 16 */\n      add\n        /* \"@openzeppelin/contracts/utils/math/Math.sol\":12570:12673  if (value >= 10 ** 16) {... */\n    tag_356:\n        /* \"@openzeppelin/contracts/utils/math/Math.sol\":12699:12706  10 ** 8 */\n      0x05f5e100\n        /* \"@openzeppelin/contracts/utils/math/Math.sol\":12690:12695  value */\n      dup4\n        /* \"@openzeppelin/contracts/utils/math/Math.sol\":12690:12706  value >= 10 ** 8 */\n      lt\n        /* \"@openzeppelin/contracts/utils/math/Math.sol\":12686:12786  if (value >= 10 ** 8) {... */\n      tag_359\n      jumpi\n        /* \"@openzeppelin/contracts/utils/math/Math.sol\":12735:12742  10 ** 8 */\n      0x05f5e100\n        /* \"@openzeppelin/contracts/utils/math/Math.sol\":12726:12742  value /= 10 ** 8 */\n      dup4\n      div\n      swap3\n      pop\n        /* \"@openzeppelin/contracts/utils/math/Math.sol\":12770:12771  8 */\n      0x08\n        /* \"@openzeppelin/contracts/utils/math/Math.sol\":12760:12771  result += 8 */\n      add\n        /* \"@openzeppelin/contracts/utils/math/Math.sol\":12686:12786  if (value >= 10 ** 8) {... */\n    tag_359:\n        /* \"@openzeppelin/contracts/utils/math/Math.sol\":12812:12819  10 ** 4 */\n      0x2710\n        /* \"@openzeppelin/contracts/utils/math/Math.sol\":12803:12808  value */\n      dup4\n        /* \"@openzeppelin/contracts/utils/math/Math.sol\":12803:12819  value >= 10 ** 4 */\n      lt\n        /* \"@openzeppelin/contracts/utils/math/Math.sol\":12799:12899  if (value >= 10 ** 4) {... */\n      tag_362\n      jumpi\n        /* \"@openzeppelin/contracts/utils/math/Math.sol\":12848:12855  10 ** 4 */\n      0x2710\n        /* \"@openzeppelin/contracts/utils/math/Math.sol\":12839:12855  value /= 10 ** 4 */\n      dup4\n      div\n      swap3\n      pop\n        /* \"@openzeppelin/contracts/utils/math/Math.sol\":12883:12884  4 */\n      0x04\n        /* \"@openzeppelin/contracts/utils/math/Math.sol\":12873:12884  result += 4 */\n      add\n        /* \"@openzeppelin/contracts/utils/math/Math.sol\":12799:12899  if (value >= 10 ** 4) {... */\n    tag_362:\n        /* \"@openzeppelin/contracts/utils/math/Math.sol\":12925:12932  10 ** 2 */\n      0x64\n        /* \"@openzeppelin/contracts/utils/math/Math.sol\":12916:12921  value */\n      dup4\n        /* \"@openzeppelin/contracts/utils/math/Math.sol\":12916:12932  value >= 10 ** 2 */\n      lt\n        /* \"@openzeppelin/contracts/utils/math/Math.sol\":12912:13012  if (value >= 10 ** 2) {... */\n      tag_365\n      jumpi\n        /* \"@openzeppelin/contracts/utils/math/Math.sol\":12961:12968  10 ** 2 */\n      0x64\n        /* \"@openzeppelin/contracts/utils/math/Math.sol\":12952:12968  value /= 10 ** 2 */\n      dup4\n      div\n      swap3\n      pop\n        /* \"@openzeppelin/contracts/utils/math/Math.sol\":12996:12997  2 */\n      0x02\n        /* \"@openzeppelin/contracts/utils/math/Math.sol\":12986:12997  result += 2 */\n      add\n        /* \"@openzeppelin/contracts/utils/math/Math.sol\":12912:13012  if (value >= 10 ** 2) {... */\n    tag_365:\n        /* \"@openzeppelin/contracts/utils/math/Math.sol\":13038:13045  10 ** 1 */\n      0x0a\n        /* \"@openzeppelin/contracts/utils/math/Math.sol\":13029:13034  value */\n      dup4\n        /* \"@openzeppelin/contracts/utils/math/Math.sol\":13029:13045  value >= 10 ** 1 */\n      lt\n        /* \"@openzeppelin/contracts/utils/math/Math.sol\":13025:13091  if (value >= 10 ** 1) {... */\n      tag_145\n      jumpi\n        /* \"@openzeppelin/contracts/utils/math/Math.sol\":13075:13076  1 */\n      0x01\n        /* \"@openzeppelin/contracts/utils/math/Math.sol\":13065:13076  result += 1 */\n      add\n        /* \"@openzeppelin/contracts/utils/math/Math.sol\":13117:13123  result */\n      swap3\n        /* \"@openzeppelin/contracts/utils/math/Math.sol\":12214:13130  function log10(uint256 value) internal pure returns (uint256) {... */\n      swap2\n      pop\n      pop\n      jump\t// out\n        /* \"#utility.yul\":14:264   */\n    tag_369:\n        /* \"#utility.yul\":99:100   */\n      0x00\n        /* \"#utility.yul\":109:222   */\n    tag_380:\n        /* \"#utility.yul\":123:129   */\n      dup4\n        /* \"#utility.yul\":120:121   */\n      dup2\n        /* \"#utility.yul\":117:130   */\n      lt\n        /* \"#utility.yul\":109:222   */\n      iszero\n      tag_382\n      jumpi\n        /* \"#utility.yul\":199:210   */\n      dup2\n      dup2\n      add\n        /* \"#utility.yul\":193:211   */\n      mload\n        /* \"#utility.yul\":180:191   */\n      dup4\n      dup3\n      add\n        /* \"#utility.yul\":173:212   */\n      mstore\n        /* \"#utility.yul\":145:147   */\n      0x20\n        /* \"#utility.yul\":138:148   */\n      add\n        /* \"#utility.yul\":109:222   */\n      jump(tag_380)\n    tag_382:\n      pop\n      pop\n        /* \"#utility.yul\":256:257   */\n      0x00\n        /* \"#utility.yul\":238:254   */\n      swap2\n      add\n        /* \"#utility.yul\":231:258   */\n      mstore\n        /* \"#utility.yul\":14:264   */\n      jump\t// out\n        /* \"#utility.yul\":269:665   */\n    tag_39:\n        /* \"#utility.yul\":418:420   */\n      0x20\n        /* \"#utility.yul\":407:416   */\n      dup2\n        /* \"#utility.yul\":400:421   */\n      mstore\n        /* \"#utility.yul\":381:385   */\n      0x00\n        /* \"#utility.yul\":450:456   */\n      dup3\n        /* \"#utility.yul\":444:457   */\n      mload\n        /* \"#utility.yul\":493:499   */\n      dup1\n        /* \"#utility.yul\":488:490   */\n      0x20\n        /* \"#utility.yul\":477:486   */\n      dup5\n        /* \"#utility.yul\":473:491   */\n      add\n        /* \"#utility.yul\":466:500   */\n      mstore\n        /* \"#utility.yul\":509:588   */\n      tag_384\n        /* \"#utility.yul\":581:587   */\n      dup2\n        /* \"#utility.yul\":576:578   */\n      0x40\n        /* \"#utility.yul\":565:574   */\n      dup6\n        /* \"#utility.yul\":561:579   */\n      add\n        /* \"#utility.yul\":556:558   */\n      0x20\n        /* \"#utility.yul\":548:554   */\n      dup8\n        /* \"#utility.yul\":544:559   */\n      add\n        /* \"#utility.yul\":509:588   */\n      tag_369\n      jump\t// in\n    tag_384:\n        /* \"#utility.yul\":649:651   */\n      0x1f\n        /* \"#utility.yul\":628:643   */\n      add\n      not(0x1f)\n        /* \"#utility.yul\":624:653   */\n      and\n        /* \"#utility.yul\":609:654   */\n      swap2\n      swap1\n      swap2\n      add\n        /* \"#utility.yul\":656:658   */\n      0x40\n        /* \"#utility.yul\":605:659   */\n      add\n      swap3\n        /* \"#utility.yul\":269:665   */\n      swap2\n      pop\n      pop\n      jump\t// out\n        /* \"#utility.yul\":670:850   */\n    tag_42:\n        /* \"#utility.yul\":729:735   */\n      0x00\n        /* \"#utility.yul\":782:784   */\n      0x20\n        /* \"#utility.yul\":770:779   */\n      dup3\n        /* \"#utility.yul\":761:768   */\n      dup5\n        /* \"#utility.yul\":757:780   */\n      sub\n        /* \"#utility.yul\":753:785   */\n      slt\n        /* \"#utility.yul\":750:802   */\n      iszero\n      tag_386\n      jumpi\n        /* \"#utility.yul\":798:799   */\n      0x00\n        /* \"#utility.yul\":795:796   */\n      dup1\n        /* \"#utility.yul\":788:800   */\n      revert\n        /* \"#utility.yul\":750:802   */\n    tag_386:\n      pop\n        /* \"#utility.yul\":821:844   */\n      calldataload\n      swap2\n        /* \"#utility.yul\":670:850   */\n      swap1\n      pop\n      jump\t// out\n        /* \"#utility.yul\":1063:1236   */\n    tag_370:\n        /* \"#utility.yul\":1131:1151   */\n      dup1\n      calldataload\n      sub(shl(0xa0, 0x01), 0x01)\n        /* \"#utility.yul\":1180:1211   */\n      dup2\n      and\n        /* \"#utility.yul\":1170:1212   */\n      dup2\n      eq\n        /* \"#utility.yul\":1160:1230   */\n      tag_213\n      jumpi\n        /* \"#utility.yul\":1226:1227   */\n      0x00\n        /* \"#utility.yul\":1223:1224   */\n      dup1\n        /* \"#utility.yul\":1216:1228   */\n      revert\n        /* \"#utility.yul\":1241:1495   */\n    tag_48:\n        /* \"#utility.yul\":1309:1315   */\n      0x00\n        /* \"#utility.yul\":1317:1323   */\n      dup1\n        /* \"#utility.yul\":1370:1372   */\n      0x40\n        /* \"#utility.yul\":1358:1367   */\n      dup4\n        /* \"#utility.yul\":1349:1356   */\n      dup6\n        /* \"#utility.yul\":1345:1368   */\n      sub\n        /* \"#utility.yul\":1341:1373   */\n      slt\n        /* \"#utility.yul\":1338:1390   */\n      iszero\n      tag_391\n      jumpi\n        /* \"#utility.yul\":1386:1387   */\n      0x00\n        /* \"#utility.yul\":1383:1384   */\n      dup1\n        /* \"#utility.yul\":1376:1388   */\n      revert\n        /* \"#utility.yul\":1338:1390   */\n    tag_391:\n        /* \"#utility.yul\":1409:1438   */\n      tag_392\n        /* \"#utility.yul\":1428:1437   */\n      dup4\n        /* \"#utility.yul\":1409:1438   */\n      tag_370\n      jump\t// in\n    tag_392:\n        /* \"#utility.yul\":1399:1438   */\n      swap5\n        /* \"#utility.yul\":1485:1487   */\n      0x20\n        /* \"#utility.yul\":1470:1488   */\n      swap4\n      swap1\n      swap4\n      add\n        /* \"#utility.yul\":1457:1489   */\n      calldataload\n      swap4\n      pop\n      pop\n      pop\n        /* \"#utility.yul\":1241:1495   */\n      jump\t// out\n        /* \"#utility.yul\":1874:2001   */\n    tag_327:\n        /* \"#utility.yul\":1935:1945   */\n      0x4e487b71\n        /* \"#utility.yul\":1930:1933   */\n      0xe0\n        /* \"#utility.yul\":1926:1946   */\n      shl\n        /* \"#utility.yul\":1923:1924   */\n      0x00\n        /* \"#utility.yul\":1916:1947   */\n      mstore\n        /* \"#utility.yul\":1966:1970   */\n      0x41\n        /* \"#utility.yul\":1963:1964   */\n      0x04\n        /* \"#utility.yul\":1956:1971   */\n      mstore\n        /* \"#utility.yul\":1990:1994   */\n      0x24\n        /* \"#utility.yul\":1987:1988   */\n      0x00\n        /* \"#utility.yul\":1980:1995   */\n      revert\n        /* \"#utility.yul\":2006:2725   */\n    tag_371:\n        /* \"#utility.yul\":2049:2054   */\n      0x00\n        /* \"#utility.yul\":2102:2105   */\n      dup3\n        /* \"#utility.yul\":2095:2099   */\n      0x1f\n        /* \"#utility.yul\":2087:2093   */\n      dup4\n        /* \"#utility.yul\":2083:2100   */\n      add\n        /* \"#utility.yul\":2079:2106   */\n      slt\n        /* \"#utility.yul\":2069:2124   */\n      tag_397\n      jumpi\n        /* \"#utility.yul\":2120:2121   */\n      0x00\n        /* \"#utility.yul\":2117:2118   */\n      dup1\n        /* \"#utility.yul\":2110:2122   */\n      revert\n        /* \"#utility.yul\":2069:2124   */\n    tag_397:\n        /* \"#utility.yul\":2156:2162   */\n      dup2\n        /* \"#utility.yul\":2143:2163   */\n      calldataload\n        /* \"#utility.yul\":2182:2200   */\n      0xffffffffffffffff\n        /* \"#utility.yul\":2219:2221   */\n      dup1\n        /* \"#utility.yul\":2215:2217   */\n      dup3\n        /* \"#utility.yul\":2212:2222   */\n      gt\n        /* \"#utility.yul\":2209:2245   */\n      iszero\n      tag_399\n      jumpi\n        /* \"#utility.yul\":2225:2243   */\n      tag_399\n      tag_327\n      jump\t// in\n    tag_399:\n        /* \"#utility.yul\":2300:2302   */\n      0x40\n        /* \"#utility.yul\":2294:2303   */\n      mload\n        /* \"#utility.yul\":2268:2270   */\n      0x1f\n        /* \"#utility.yul\":2354:2367   */\n      dup4\n      add\n      not(0x1f)\n        /* \"#utility.yul\":2350:2372   */\n      swap1\n      dup2\n      and\n        /* \"#utility.yul\":2374:2376   */\n      0x3f\n        /* \"#utility.yul\":2346:2377   */\n      add\n        /* \"#utility.yul\":2342:2382   */\n      and\n        /* \"#utility.yul\":2330:2383   */\n      dup2\n      add\n      swap1\n        /* \"#utility.yul\":2398:2416   */\n      dup3\n      dup3\n      gt\n        /* \"#utility.yul\":2418:2440   */\n      dup2\n      dup4\n      lt\n        /* \"#utility.yul\":2395:2441   */\n      or\n        /* \"#utility.yul\":2392:2464   */\n      iszero\n      tag_401\n      jumpi\n        /* \"#utility.yul\":2444:2462   */\n      tag_401\n      tag_327\n      jump\t// in\n    tag_401:\n        /* \"#utility.yul\":2484:2494   */\n      dup2\n        /* \"#utility.yul\":2480:2482   */\n      0x40\n        /* \"#utility.yul\":2473:2495   */\n      mstore\n        /* \"#utility.yul\":2519:2521   */\n      dup4\n        /* \"#utility.yul\":2511:2517   */\n      dup2\n        /* \"#utility.yul\":2504:2522   */\n      mstore\n        /* \"#utility.yul\":2565:2568   */\n      dup7\n        /* \"#utility.yul\":2558:2562   */\n      0x20\n        /* \"#utility.yul\":2553:2555   */\n      dup6\n        /* \"#utility.yul\":2545:2551   */\n      dup9\n        /* \"#utility.yul\":2541:2556   */\n      add\n        /* \"#utility.yul\":2537:2563   */\n      add\n        /* \"#utility.yul\":2534:2569   */\n      gt\n        /* \"#utility.yul\":2531:2586   */\n      iszero\n      tag_402\n      jumpi\n        /* \"#utility.yul\":2582:2583   */\n      0x00\n        /* \"#utility.yul\":2579:2580   */\n      dup1\n        /* \"#utility.yul\":2572:2584   */\n      revert\n        /* \"#utility.yul\":2531:2586   */\n    tag_402:\n        /* \"#utility.yul\":2646:2648   */\n      dup4\n        /* \"#utility.yul\":2639:2643   */\n      0x20\n        /* \"#utility.yul\":2631:2637   */\n      dup8\n        /* \"#utility.yul\":2627:2644   */\n      add\n        /* \"#utility.yul\":2620:2624   */\n      0x20\n        /* \"#utility.yul\":2612:2618   */\n      dup4\n        /* \"#utility.yul\":2608:2625   */\n      add\n        /* \"#utility.yul\":2595:2649   */\n      calldatacopy\n        /* \"#utility.yul\":2693:2694   */\n      0x00\n        /* \"#utility.yul\":2686:2690   */\n      0x20\n        /* \"#utility.yul\":2681:2683   */\n      dup6\n        /* \"#utility.yul\":2673:2679   */\n      dup4\n        /* \"#utility.yul\":2669:2684   */\n      add\n        /* \"#utility.yul\":2665:2691   */\n      add\n        /* \"#utility.yul\":2658:2695   */\n      mstore\n        /* \"#utility.yul\":2713:2719   */\n      dup1\n        /* \"#utility.yul\":2704:2719   */\n      swap5\n      pop\n      pop\n      pop\n      pop\n      pop\n        /* \"#utility.yul\":2006:2725   */\n      swap3\n      swap2\n      pop\n      pop\n      jump\t// out\n        /* \"#utility.yul\":2730:3052   */\n    tag_58:\n        /* \"#utility.yul\":2799:2805   */\n      0x00\n        /* \"#utility.yul\":2852:2854   */\n      0x20\n        /* \"#utility.yul\":2840:2849   */\n      dup3\n        /* \"#utility.yul\":2831:2838   */\n      dup5\n        /* \"#utility.yul\":2827:2850   */\n      sub\n        /* \"#utility.yul\":2823:2855   */\n      slt\n        /* \"#utility.yul\":2820:2872   */\n      iszero\n      tag_404\n      jumpi\n        /* \"#utility.yul\":2868:2869   */\n      0x00\n        /* \"#utility.yul\":2865:2866   */\n      dup1\n        /* \"#utility.yul\":2858:2870   */\n      revert\n        /* \"#utility.yul\":2820:2872   */\n    tag_404:\n        /* \"#utility.yul\":2908:2917   */\n      dup2\n        /* \"#utility.yul\":2895:2918   */\n      calldataload\n        /* \"#utility.yul\":2941:2959   */\n      0xffffffffffffffff\n        /* \"#utility.yul\":2933:2939   */\n      dup2\n        /* \"#utility.yul\":2930:2960   */\n      gt\n        /* \"#utility.yul\":2927:2977   */\n      iszero\n      tag_405\n      jumpi\n        /* \"#utility.yul\":2973:2974   */\n      0x00\n        /* \"#utility.yul\":2970:2971   */\n      dup1\n        /* \"#utility.yul\":2963:2975   */\n      revert\n        /* \"#utility.yul\":2927:2977   */\n    tag_405:\n        /* \"#utility.yul\":2996:3046   */\n      tag_406\n        /* \"#utility.yul\":3038:3045   */\n      dup5\n        /* \"#utility.yul\":3029:3035   */\n      dup3\n        /* \"#utility.yul\":3018:3027   */\n      dup6\n        /* \"#utility.yul\":3014:3036   */\n      add\n        /* \"#utility.yul\":2996:3046   */\n      tag_371\n      jump\t// in\n    tag_406:\n        /* \"#utility.yul\":2986:3046   */\n      swap5\n        /* \"#utility.yul\":2730:3052   */\n      swap4\n      pop\n      pop\n      pop\n      pop\n      jump\t// out\n        /* \"#utility.yul\":3057:3385   */\n    tag_62:\n        /* \"#utility.yul\":3134:3140   */\n      0x00\n        /* \"#utility.yul\":3142:3148   */\n      dup1\n        /* \"#utility.yul\":3150:3156   */\n      0x00\n        /* \"#utility.yul\":3203:3205   */\n      0x60\n        /* \"#utility.yul\":3191:3200   */\n      dup5\n        /* \"#utility.yul\":3182:3189   */\n      dup7\n        /* \"#utility.yul\":3178:3201   */\n      sub\n        /* \"#utility.yul\":3174:3206   */\n      slt\n        /* \"#utility.yul\":3171:3223   */\n      iszero\n      tag_408\n      jumpi\n        /* \"#utility.yul\":3219:3220   */\n      0x00\n        /* \"#utility.yul\":3216:3217   */\n      dup1\n        /* \"#utility.yul\":3209:3221   */\n      revert\n        /* \"#utility.yul\":3171:3223   */\n    tag_408:\n        /* \"#utility.yul\":3242:3271   */\n      tag_409\n        /* \"#utility.yul\":3261:3270   */\n      dup5\n        /* \"#utility.yul\":3242:3271   */\n      tag_370\n      jump\t// in\n    tag_409:\n        /* \"#utility.yul\":3232:3271   */\n      swap3\n      pop\n        /* \"#utility.yul\":3290:3328   */\n      tag_410\n        /* \"#utility.yul\":3324:3326   */\n      0x20\n        /* \"#utility.yul\":3313:3322   */\n      dup6\n        /* \"#utility.yul\":3309:3327   */\n      add\n        /* \"#utility.yul\":3290:3328   */\n      tag_370\n      jump\t// in\n    tag_410:\n        /* \"#utility.yul\":3280:3328   */\n      swap2\n      pop\n        /* \"#utility.yul\":3375:3377   */\n      0x40\n        /* \"#utility.yul\":3364:3373   */\n      dup5\n        /* \"#utility.yul\":3360:3378   */\n      add\n        /* \"#utility.yul\":3347:3379   */\n      calldataload\n        /* \"#utility.yul\":3337:3379   */\n      swap1\n      pop\n        /* \"#utility.yul\":3057:3385   */\n      swap3\n      pop\n      swap3\n      pop\n      swap3\n      jump\t// out\n        /* \"#utility.yul\":3579:4122   */\n    tag_78:\n        /* \"#utility.yul\":3667:3673   */\n      0x00\n        /* \"#utility.yul\":3675:3681   */\n      dup1\n        /* \"#utility.yul\":3728:3730   */\n      0x40\n        /* \"#utility.yul\":3716:3725   */\n      dup4\n        /* \"#utility.yul\":3707:3714   */\n      dup6\n        /* \"#utility.yul\":3703:3726   */\n      sub\n        /* \"#utility.yul\":3699:3731   */\n      slt\n        /* \"#utility.yul\":3696:3748   */\n      iszero\n      tag_413\n      jumpi\n        /* \"#utility.yul\":3744:3745   */\n      0x00\n        /* \"#utility.yul\":3741:3742   */\n      dup1\n        /* \"#utility.yul\":3734:3746   */\n      revert\n        /* \"#utility.yul\":3696:3748   */\n    tag_413:\n        /* \"#utility.yul\":3784:3793   */\n      dup3\n        /* \"#utility.yul\":3771:3794   */\n      calldataload\n        /* \"#utility.yul\":3813:3831   */\n      0xffffffffffffffff\n        /* \"#utility.yul\":3854:3856   */\n      dup1\n        /* \"#utility.yul\":3846:3852   */\n      dup3\n        /* \"#utility.yul\":3843:3857   */\n      gt\n        /* \"#utility.yul\":3840:3874   */\n      iszero\n      tag_414\n      jumpi\n        /* \"#utility.yul\":3870:3871   */\n      0x00\n        /* \"#utility.yul\":3867:3868   */\n      dup1\n        /* \"#utility.yul\":3860:3872   */\n      revert\n        /* \"#utility.yul\":3840:3874   */\n    tag_414:\n        /* \"#utility.yul\":3893:3943   */\n      tag_415\n        /* \"#utility.yul\":3935:3942   */\n      dup7\n        /* \"#utility.yul\":3926:3932   */\n      dup4\n        /* \"#utility.yul\":3915:3924   */\n      dup8\n        /* \"#utility.yul\":3911:3933   */\n      add\n        /* \"#utility.yul\":3893:3943   */\n      tag_371\n      jump\t// in\n    tag_415:\n        /* \"#utility.yul\":3883:3943   */\n      swap4\n      pop\n        /* \"#utility.yul\":3996:3998   */\n      0x20\n        /* \"#utility.yul\":3985:3994   */\n      dup6\n        /* \"#utility.yul\":3981:3999   */\n      add\n        /* \"#utility.yul\":3968:4000   */\n      calldataload\n        /* \"#utility.yul\":3952:4000   */\n      swap2\n      pop\n        /* \"#utility.yul\":4025:4027   */\n      dup1\n        /* \"#utility.yul\":4015:4023   */\n      dup3\n        /* \"#utility.yul\":4012:4028   */\n      gt\n        /* \"#utility.yul\":4009:4045   */\n      iszero\n      tag_416\n      jumpi\n        /* \"#utility.yul\":4041:4042   */\n      0x00\n        /* \"#utility.yul\":4038:4039   */\n      dup1\n        /* \"#utility.yul\":4031:4043   */\n      revert\n        /* \"#utility.yul\":4009:4045   */\n    tag_416:\n      pop\n        /* \"#utility.yul\":4064:4116   */\n      tag_417\n        /* \"#utility.yul\":4108:4115   */\n      dup6\n        /* \"#utility.yul\":4097:4105   */\n      dup3\n        /* \"#utility.yul\":4086:4095   */\n      dup7\n        /* \"#utility.yul\":4082:4106   */\n      add\n        /* \"#utility.yul\":4064:4116   */\n      tag_371\n      jump\t// in\n    tag_417:\n        /* \"#utility.yul\":4054:4116   */\n      swap2\n      pop\n      pop\n        /* \"#utility.yul\":3579:4122   */\n      swap3\n      pop\n      swap3\n      swap1\n      pop\n      jump\t// out\n        /* \"#utility.yul\":4127:4474   */\n    tag_82:\n        /* \"#utility.yul\":4192:4198   */\n      0x00\n        /* \"#utility.yul\":4200:4206   */\n      dup1\n        /* \"#utility.yul\":4253:4255   */\n      0x40\n        /* \"#utility.yul\":4241:4250   */\n      dup4\n        /* \"#utility.yul\":4232:4239   */\n      dup6\n        /* \"#utility.yul\":4228:4251   */\n      sub\n        /* \"#utility.yul\":4224:4256   */\n      slt\n        /* \"#utility.yul\":4221:4273   */\n      iszero\n      tag_419\n      jumpi\n        /* \"#utility.yul\":4269:4270   */\n      0x00\n        /* \"#utility.yul\":4266:4267   */\n      dup1\n        /* \"#utility.yul\":4259:4271   */\n      revert\n        /* \"#utility.yul\":4221:4273   */\n    tag_419:\n        /* \"#utility.yul\":4292:4321   */\n      tag_420\n        /* \"#utility.yul\":4311:4320   */\n      dup4\n        /* \"#utility.yul\":4292:4321   */\n      tag_370\n      jump\t// in\n    tag_420:\n        /* \"#utility.yul\":4282:4321   */\n      swap2\n      pop\n        /* \"#utility.yul\":4371:4373   */\n      0x20\n        /* \"#utility.yul\":4360:4369   */\n      dup4\n        /* \"#utility.yul\":4356:4374   */\n      add\n        /* \"#utility.yul\":4343:4375   */\n      calldataload\n        /* \"#utility.yul\":4418:4423   */\n      dup1\n        /* \"#utility.yul\":4411:4424   */\n      iszero\n        /* \"#utility.yul\":4404:4425   */\n      iszero\n        /* \"#utility.yul\":4397:4402   */\n      dup2\n        /* \"#utility.yul\":4394:4426   */\n      eq\n        /* \"#utility.yul\":4384:4444   */\n      tag_421\n      jumpi\n        /* \"#utility.yul\":4440:4441   */\n      0x00\n        /* \"#utility.yul\":4437:4438   */\n      dup1\n        /* \"#utility.yul\":4430:4442   */\n      revert\n        /* \"#utility.yul\":4384:4444   */\n    tag_421:\n        /* \"#utility.yul\":4463:4468   */\n      dup1\n        /* \"#utility.yul\":4453:4468   */\n      swap2\n      pop\n      pop\n        /* \"#utility.yul\":4127:4474   */\n      swap3\n      pop\n      swap3\n      swap1\n      pop\n      jump\t// out\n        /* \"#utility.yul\":4479:4665   */\n    tag_90:\n        /* \"#utility.yul\":4538:4544   */\n      0x00\n        /* \"#utility.yul\":4591:4593   */\n      0x20\n        /* \"#utility.yul\":4579:4588   */\n      dup3\n        /* \"#utility.yul\":4570:4577   */\n      dup5\n        /* \"#utility.yul\":4566:4589   */\n      sub\n        /* \"#utility.yul\":4562:4594   */\n      slt\n        /* \"#utility.yul\":4559:4611   */\n      iszero\n      tag_423\n      jumpi\n        /* \"#utility.yul\":4607:4608   */\n      0x00\n        /* \"#utility.yul\":4604:4605   */\n      dup1\n        /* \"#utility.yul\":4597:4609   */\n      revert\n        /* \"#utility.yul\":4559:4611   */\n    tag_423:\n        /* \"#utility.yul\":4630:4659   */\n      tag_222\n        /* \"#utility.yul\":4649:4658   */\n      dup3\n        /* \"#utility.yul\":4630:4659   */\n      tag_370\n      jump\t// in\n        /* \"#utility.yul\":4670:5478   */\n    tag_112:\n        /* \"#utility.yul\":4767:4773   */\n      0x00\n        /* \"#utility.yul\":4775:4781   */\n      dup1\n        /* \"#utility.yul\":4783:4789   */\n      0x00\n        /* \"#utility.yul\":4791:4797   */\n      dup1\n        /* \"#utility.yul\":4799:4805   */\n      0x00\n        /* \"#utility.yul\":4852:4855   */\n      0x80\n        /* \"#utility.yul\":4840:4849   */\n      dup7\n        /* \"#utility.yul\":4831:4838   */\n      dup9\n        /* \"#utility.yul\":4827:4850   */\n      sub\n        /* \"#utility.yul\":4823:4856   */\n      slt\n        /* \"#utility.yul\":4820:4873   */\n      iszero\n      tag_426\n      jumpi\n        /* \"#utility.yul\":4869:4870   */\n      0x00\n        /* \"#utility.yul\":4866:4867   */\n      dup1\n        /* \"#utility.yul\":4859:4871   */\n      revert\n        /* \"#utility.yul\":4820:4873   */\n    tag_426:\n        /* \"#utility.yul\":4892:4921   */\n      tag_427\n        /* \"#utility.yul\":4911:4920   */\n      dup7\n        /* \"#utility.yul\":4892:4921   */\n      tag_370\n      jump\t// in\n    tag_427:\n        /* \"#utility.yul\":4882:4921   */\n      swap5\n      pop\n        /* \"#utility.yul\":4940:4978   */\n      tag_428\n        /* \"#utility.yul\":4974:4976   */\n      0x20\n        /* \"#utility.yul\":4963:4972   */\n      dup8\n        /* \"#utility.yul\":4959:4977   */\n      add\n        /* \"#utility.yul\":4940:4978   */\n      tag_370\n      jump\t// in\n    tag_428:\n        /* \"#utility.yul\":4930:4978   */\n      swap4\n      pop\n        /* \"#utility.yul\":5025:5027   */\n      0x40\n        /* \"#utility.yul\":5014:5023   */\n      dup7\n        /* \"#utility.yul\":5010:5028   */\n      add\n        /* \"#utility.yul\":4997:5029   */\n      calldataload\n        /* \"#utility.yul\":4987:5029   */\n      swap3\n      pop\n        /* \"#utility.yul\":5080:5082   */\n      0x60\n        /* \"#utility.yul\":5069:5078   */\n      dup7\n        /* \"#utility.yul\":5065:5083   */\n      add\n        /* \"#utility.yul\":5052:5084   */\n      calldataload\n        /* \"#utility.yul\":5103:5121   */\n      0xffffffffffffffff\n        /* \"#utility.yul\":5144:5146   */\n      dup1\n        /* \"#utility.yul\":5136:5142   */\n      dup3\n        /* \"#utility.yul\":5133:5147   */\n      gt\n        /* \"#utility.yul\":5130:5164   */\n      iszero\n      tag_429\n      jumpi\n        /* \"#utility.yul\":5160:5161   */\n      0x00\n        /* \"#utility.yul\":5157:5158   */\n      dup1\n        /* \"#utility.yul\":5150:5162   */\n      revert\n        /* \"#utility.yul\":5130:5164   */\n    tag_429:\n        /* \"#utility.yul\":5198:5204   */\n      dup2\n        /* \"#utility.yul\":5187:5196   */\n      dup9\n        /* \"#utility.yul\":5183:5205   */\n      add\n        /* \"#utility.yul\":5173:5205   */\n      swap2\n      pop\n        /* \"#utility.yul\":5243:5250   */\n      dup9\n        /* \"#utility.yul\":5236:5240   */\n      0x1f\n        /* \"#utility.yul\":5232:5234   */\n      dup4\n        /* \"#utility.yul\":5228:5241   */\n      add\n        /* \"#utility.yul\":5224:5251   */\n      slt\n        /* \"#utility.yul\":5214:5269   */\n      tag_430\n      jumpi\n        /* \"#utility.yul\":5265:5266   */\n      0x00\n        /* \"#utility.yul\":5262:5263   */\n      dup1\n        /* \"#utility.yul\":5255:5267   */\n      revert\n        /* \"#utility.yul\":5214:5269   */\n    tag_430:\n        /* \"#utility.yul\":5305:5307   */\n      dup2\n        /* \"#utility.yul\":5292:5308   */\n      calldataload\n        /* \"#utility.yul\":5331:5333   */\n      dup2\n        /* \"#utility.yul\":5323:5329   */\n      dup2\n        /* \"#utility.yul\":5320:5334   */\n      gt\n        /* \"#utility.yul\":5317:5351   */\n      iszero\n      tag_431\n      jumpi\n        /* \"#utility.yul\":5347:5348   */\n      0x00\n        /* \"#utility.yul\":5344:5345   */\n      dup1\n        /* \"#utility.yul\":5337:5349   */\n      revert\n        /* \"#utility.yul\":5317:5351   */\n    tag_431:\n        /* \"#utility.yul\":5392:5399   */\n      dup10\n        /* \"#utility.yul\":5387:5389   */\n      0x20\n        /* \"#utility.yul\":5378:5384   */\n      dup3\n        /* \"#utility.yul\":5374:5376   */\n      dup6\n        /* \"#utility.yul\":5370:5385   */\n      add\n        /* \"#utility.yul\":5366:5390   */\n      add\n        /* \"#utility.yul\":5363:5400   */\n      gt\n        /* \"#utility.yul\":5360:5417   */\n      iszero\n      tag_432\n      jumpi\n        /* \"#utility.yul\":5413:5414   */\n      0x00\n        /* \"#utility.yul\":5410:5411   */\n      dup1\n        /* \"#utility.yul\":5403:5415   */\n      revert\n        /* \"#utility.yul\":5360:5417   */\n    tag_432:\n        /* \"#utility.yul\":4670:5478   */\n      swap7\n      swap10\n      swap6\n      swap9\n      pop\n      swap4\n      swap7\n      pop\n        /* \"#utility.yul\":5444:5446   */\n      0x20\n        /* \"#utility.yul\":5436:5447   */\n      add\n      swap5\n        /* \"#utility.yul\":5466:5472   */\n      swap4\n        /* \"#utility.yul\":4670:5478   */\n      swap3\n      pop\n      pop\n      pop\n      jump\t// out\n        /* \"#utility.yul\":5483:5743   */\n    tag_123:\n        /* \"#utility.yul\":5551:5557   */\n      0x00\n        /* \"#utility.yul\":5559:5565   */\n      dup1\n        /* \"#utility.yul\":5612:5614   */\n      0x40\n        /* \"#utility.yul\":5600:5609   */\n      dup4\n        /* \"#utility.yul\":5591:5598   */\n      dup6\n        /* \"#utility.yul\":5587:5610   */\n      sub\n        /* \"#utility.yul\":5583:5615   */\n      slt\n        /* \"#utility.yul\":5580:5632   */\n      iszero\n      tag_434\n      jumpi\n        /* \"#utility.yul\":5628:5629   */\n      0x00\n        /* \"#utility.yul\":5625:5626   */\n      dup1\n        /* \"#utility.yul\":5618:5630   */\n      revert\n        /* \"#utility.yul\":5580:5632   */\n    tag_434:\n        /* \"#utility.yul\":5651:5680   */\n      tag_435\n        /* \"#utility.yul\":5670:5679   */\n      dup4\n        /* \"#utility.yul\":5651:5680   */\n      tag_370\n      jump\t// in\n    tag_435:\n        /* \"#utility.yul\":5641:5680   */\n      swap2\n      pop\n        /* \"#utility.yul\":5699:5737   */\n      tag_436\n        /* \"#utility.yul\":5733:5735   */\n      0x20\n        /* \"#utility.yul\":5722:5731   */\n      dup5\n        /* \"#utility.yul\":5718:5736   */\n      add\n        /* \"#utility.yul\":5699:5737   */\n      tag_370\n      jump\t// in\n    tag_436:\n        /* \"#utility.yul\":5689:5737   */\n      swap1\n      pop\n        /* \"#utility.yul\":5483:5743   */\n      swap3\n      pop\n      swap3\n      swap1\n      pop\n      jump\t// out\n        /* \"#utility.yul\":5748:6128   */\n    tag_140:\n        /* \"#utility.yul\":5827:5828   */\n      0x01\n        /* \"#utility.yul\":5823:5835   */\n      dup2\n      dup2\n      shr\n      swap1\n        /* \"#utility.yul\":5870:5882   */\n      dup3\n      and\n      dup1\n        /* \"#utility.yul\":5891:5952   */\n      tag_438\n      jumpi\n        /* \"#utility.yul\":5945:5949   */\n      0x7f\n        /* \"#utility.yul\":5937:5943   */\n      dup3\n        /* \"#utility.yul\":5933:5950   */\n      and\n        /* \"#utility.yul\":5923:5950   */\n      swap2\n      pop\n        /* \"#utility.yul\":5891:5952   */\n    tag_438:\n        /* \"#utility.yul\":5998:6000   */\n      0x20\n        /* \"#utility.yul\":5990:5996   */\n      dup3\n        /* \"#utility.yul\":5987:6001   */\n      lt\n        /* \"#utility.yul\":5967:5985   */\n      dup2\n        /* \"#utility.yul\":5964:6002   */\n      sub\n        /* \"#utility.yul\":5961:6122   */\n      tag_439\n      jumpi\n        /* \"#utility.yul\":6044:6054   */\n      0x4e487b71\n        /* \"#utility.yul\":6039:6042   */\n      0xe0\n        /* \"#utility.yul\":6035:6055   */\n      shl\n        /* \"#utility.yul\":6032:6033   */\n      0x00\n        /* \"#utility.yul\":6025:6056   */\n      mstore\n        /* \"#utility.yul\":6079:6083   */\n      0x22\n        /* \"#utility.yul\":6076:6077   */\n      0x04\n        /* \"#utility.yul\":6069:6084   */\n      mstore\n        /* \"#utility.yul\":6107:6111   */\n      0x24\n        /* \"#utility.yul\":6104:6105   */\n      0x00\n        /* \"#utility.yul\":6097:6112   */\n      revert\n        /* \"#utility.yul\":5961:6122   */\n    tag_439:\n      pop\n        /* \"#utility.yul\":5748:6128   */\n      swap2\n      swap1\n      pop\n      jump\t// out\n        /* \"#utility.yul\":6259:6802   */\n    tag_373:\n        /* \"#utility.yul\":6361:6363   */\n      0x1f\n        /* \"#utility.yul\":6356:6359   */\n      dup3\n        /* \"#utility.yul\":6353:6364   */\n      gt\n        /* \"#utility.yul\":6350:6796   */\n      iszero\n      tag_186\n      jumpi\n        /* \"#utility.yul\":6397:6398   */\n      0x00\n        /* \"#utility.yul\":6421:6426   */\n      dup2\n        /* \"#utility.yul\":6418:6419   */\n      0x00\n        /* \"#utility.yul\":6411:6427   */\n      mstore\n        /* \"#utility.yul\":6465:6469   */\n      0x20\n        /* \"#utility.yul\":6462:6463   */\n      0x00\n        /* \"#utility.yul\":6452:6470   */\n      keccak256\n        /* \"#utility.yul\":6535:6537   */\n      0x1f\n        /* \"#utility.yul\":6523:6533   */\n      dup6\n        /* \"#utility.yul\":6519:6538   */\n      add\n        /* \"#utility.yul\":6516:6517   */\n      0x05\n        /* \"#utility.yul\":6512:6539   */\n      shr\n        /* \"#utility.yul\":6506:6510   */\n      dup2\n        /* \"#utility.yul\":6502:6540   */\n      add\n        /* \"#utility.yul\":6571:6575   */\n      0x20\n        /* \"#utility.yul\":6559:6569   */\n      dup7\n        /* \"#utility.yul\":6556:6576   */\n      lt\n        /* \"#utility.yul\":6553:6600   */\n      iszero\n      tag_443\n      jumpi\n      pop\n        /* \"#utility.yul\":6594:6598   */\n      dup1\n        /* \"#utility.yul\":6553:6600   */\n    tag_443:\n        /* \"#utility.yul\":6649:6651   */\n      0x1f\n        /* \"#utility.yul\":6644:6647   */\n      dup6\n        /* \"#utility.yul\":6640:6652   */\n      add\n        /* \"#utility.yul\":6637:6638   */\n      0x05\n        /* \"#utility.yul\":6633:6653   */\n      shr\n        /* \"#utility.yul\":6627:6631   */\n      dup3\n        /* \"#utility.yul\":6623:6654   */\n      add\n        /* \"#utility.yul\":6613:6654   */\n      swap2\n      pop\n        /* \"#utility.yul\":6704:6786   */\n    tag_444:\n        /* \"#utility.yul\":6722:6724   */\n      dup2\n        /* \"#utility.yul\":6715:6720   */\n      dup2\n        /* \"#utility.yul\":6712:6725   */\n      lt\n        /* \"#utility.yul\":6704:6786   */\n      iszero\n      tag_446\n      jumpi\n        /* \"#utility.yul\":6767:6784   */\n      dup3\n      dup2\n      sstore\n        /* \"#utility.yul\":6748:6749   */\n      0x01\n        /* \"#utility.yul\":6737:6750   */\n      add\n        /* \"#utility.yul\":6704:6786   */\n      jump(tag_444)\n    tag_446:\n        /* \"#utility.yul\":6708:6711   */\n      pop\n      pop\n      pop\n        /* \"#utility.yul\":6259:6802   */\n      pop\n      pop\n      pop\n      jump\t// out\n        /* \"#utility.yul\":6978:8323   */\n    tag_157:\n        /* \"#utility.yul\":7104:7107   */\n      dup2\n        /* \"#utility.yul\":7098:7108   */\n      mload\n        /* \"#utility.yul\":7131:7149   */\n      0xffffffffffffffff\n        /* \"#utility.yul\":7123:7129   */\n      dup2\n        /* \"#utility.yul\":7120:7150   */\n      gt\n        /* \"#utility.yul\":7117:7173   */\n      iszero\n      tag_450\n      jumpi\n        /* \"#utility.yul\":7153:7171   */\n      tag_450\n      tag_327\n      jump\t// in\n    tag_450:\n        /* \"#utility.yul\":7182:7279   */\n      tag_451\n        /* \"#utility.yul\":7272:7278   */\n      dup2\n        /* \"#utility.yul\":7232:7270   */\n      tag_452\n        /* \"#utility.yul\":7264:7268   */\n      dup5\n        /* \"#utility.yul\":7258:7269   */\n      sload\n        /* \"#utility.yul\":7232:7270   */\n      tag_140\n      jump\t// in\n    tag_452:\n        /* \"#utility.yul\":7226:7230   */\n      dup5\n        /* \"#utility.yul\":7182:7279   */\n      tag_373\n      jump\t// in\n    tag_451:\n        /* \"#utility.yul\":7334:7338   */\n      0x20\n      dup1\n        /* \"#utility.yul\":7391:7393   */\n      0x1f\n        /* \"#utility.yul\":7380:7394   */\n      dup4\n      gt\n        /* \"#utility.yul\":7408:7409   */\n      0x01\n        /* \"#utility.yul\":7403:8066   */\n      dup2\n      eq\n      tag_454\n      jumpi\n        /* \"#utility.yul\":8110:8111   */\n      0x00\n        /* \"#utility.yul\":8127:8133   */\n      dup5\n        /* \"#utility.yul\":8124:8213   */\n      iszero\n      tag_455\n      jumpi\n      pop\n        /* \"#utility.yul\":8179:8198   */\n      dup6\n      dup4\n      add\n        /* \"#utility.yul\":8173:8199   */\n      mload\n        /* \"#utility.yul\":8124:8213   */\n    tag_455:\n      not(0x00)\n        /* \"#utility.yul\":6935:6936   */\n      0x03\n        /* \"#utility.yul\":6931:6942   */\n      dup7\n      swap1\n      shl\n        /* \"#utility.yul\":6927:6951   */\n      shr\n        /* \"#utility.yul\":6923:6952   */\n      not\n        /* \"#utility.yul\":6913:6953   */\n      and\n        /* \"#utility.yul\":6959:6960   */\n      0x01\n        /* \"#utility.yul\":6955:6966   */\n      dup6\n      swap1\n      shl\n        /* \"#utility.yul\":6910:6967   */\n      or\n        /* \"#utility.yul\":8226:8307   */\n      dup6\n      sstore\n        /* \"#utility.yul\":7373:8317   */\n      jump(tag_446)\n        /* \"#utility.yul\":7403:8066   */\n    tag_454:\n        /* \"#utility.yul\":6206:6207   */\n      0x00\n        /* \"#utility.yul\":6199:6213   */\n      dup6\n      dup2\n      mstore\n        /* \"#utility.yul\":6243:6247   */\n      0x20\n        /* \"#utility.yul\":6230:6248   */\n      dup2\n      keccak256\n      not(0x1f)\n        /* \"#utility.yul\":7439:7459   */\n      dup7\n      and\n      swap2\n        /* \"#utility.yul\":7557:7793   */\n    tag_458:\n        /* \"#utility.yul\":7571:7578   */\n      dup3\n        /* \"#utility.yul\":7568:7569   */\n      dup2\n        /* \"#utility.yul\":7565:7579   */\n      lt\n        /* \"#utility.yul\":7557:7793   */\n      iszero\n      tag_460\n      jumpi\n        /* \"#utility.yul\":7660:7679   */\n      dup9\n      dup7\n      add\n        /* \"#utility.yul\":7654:7680   */\n      mload\n        /* \"#utility.yul\":7639:7681   */\n      dup3\n      sstore\n        /* \"#utility.yul\":7752:7779   */\n      swap5\n      dup5\n      add\n      swap5\n        /* \"#utility.yul\":7720:7721   */\n      0x01\n        /* \"#utility.yul\":7708:7722   */\n      swap1\n      swap2\n      add\n      swap1\n        /* \"#utility.yul\":7587:7606   */\n      dup5\n      add\n        /* \"#utility.yul\":7557:7793   */\n      jump(tag_458)\n    tag_460:\n        /* \"#utility.yul\":7561:7564   */\n      pop\n        /* \"#utility.yul\":7821:7827   */\n      dup6\n        /* \"#utility.yul\":7812:7819   */\n      dup3\n        /* \"#utility.yul\":7809:7828   */\n      lt\n        /* \"#utility.yul\":7806:8007   */\n      iszero\n      tag_461\n      jumpi\n        /* \"#utility.yul\":7882:7901   */\n      dup8\n      dup6\n      add\n        /* \"#utility.yul\":7876:7902   */\n      mload\n      not(0x00)\n        /* \"#utility.yul\":7965:7966   */\n      0x03\n        /* \"#utility.yul\":7961:7975   */\n      dup9\n      swap1\n      shl\n        /* \"#utility.yul\":7977:7980   */\n      0xf8\n        /* \"#utility.yul\":7957:7981   */\n      and\n        /* \"#utility.yul\":7953:7990   */\n      shr\n        /* \"#utility.yul\":7949:7991   */\n      not\n        /* \"#utility.yul\":7934:7992   */\n      and\n        /* \"#utility.yul\":7919:7993   */\n      dup2\n      sstore\n        /* \"#utility.yul\":7806:8007   */\n    tag_461:\n      pop\n      pop\n      pop\n      pop\n      pop\n        /* \"#utility.yul\":8053:8054   */\n      0x01\n        /* \"#utility.yul\":8037:8051   */\n      swap1\n      dup2\n      shl\n        /* \"#utility.yul\":8033:8055   */\n      add\n        /* \"#utility.yul\":8020:8056   */\n      swap1\n      sstore\n      pop\n        /* \"#utility.yul\":6978:8323   */\n      jump\t// out\n        /* \"#utility.yul\":8328:8455   */\n    tag_375:\n        /* \"#utility.yul\":8389:8399   */\n      0x4e487b71\n        /* \"#utility.yul\":8384:8387   */\n      0xe0\n        /* \"#utility.yul\":8380:8400   */\n      shl\n        /* \"#utility.yul\":8377:8378   */\n      0x00\n        /* \"#utility.yul\":8370:8401   */\n      mstore\n        /* \"#utility.yul\":8420:8424   */\n      0x11\n        /* \"#utility.yul\":8417:8418   */\n      0x04\n        /* \"#utility.yul\":8410:8425   */\n      mstore\n        /* \"#utility.yul\":8444:8448   */\n      0x24\n        /* \"#utility.yul\":8441:8442   */\n      0x00\n        /* \"#utility.yul\":8434:8449   */\n      revert\n        /* \"#utility.yul\":8460:8588   */\n    tag_168:\n        /* \"#utility.yul\":8527:8536   */\n      dup2\n      dup2\n      sub\n        /* \"#utility.yul\":8548:8559   */\n      dup2\n      dup2\n      gt\n        /* \"#utility.yul\":8545:8582   */\n      iszero\n      tag_145\n      jumpi\n        /* \"#utility.yul\":8562:8580   */\n      tag_145\n      tag_375\n      jump\t// in\n        /* \"#utility.yul\":8593:8720   */\n    tag_173:\n        /* \"#utility.yul\":8654:8664   */\n      0x4e487b71\n        /* \"#utility.yul\":8649:8652   */\n      0xe0\n        /* \"#utility.yul\":8645:8665   */\n      shl\n        /* \"#utility.yul\":8642:8643   */\n      0x00\n        /* \"#utility.yul\":8635:8666   */\n      mstore\n        /* \"#utility.yul\":8685:8689   */\n      0x32\n        /* \"#utility.yul\":8682:8683   */\n      0x04\n        /* \"#utility.yul\":8675:8690   */\n      mstore\n        /* \"#utility.yul\":8709:8713   */\n      0x24\n        /* \"#utility.yul\":8706:8707   */\n      0x00\n        /* \"#utility.yul\":8699:8714   */\n      revert\n        /* \"#utility.yul\":8725:8852   */\n    tag_180:\n        /* \"#utility.yul\":8786:8796   */\n      0x4e487b71\n        /* \"#utility.yul\":8781:8784   */\n      0xe0\n        /* \"#utility.yul\":8777:8797   */\n      shl\n        /* \"#utility.yul\":8774:8775   */\n      0x00\n        /* \"#utility.yul\":8767:8798   */\n      mstore\n        /* \"#utility.yul\":8817:8821   */\n      0x31\n        /* \"#utility.yul\":8814:8815   */\n      0x04\n        /* \"#utility.yul\":8807:8822   */\n      mstore\n        /* \"#utility.yul\":8841:8845   */\n      0x24\n        /* \"#utility.yul\":8838:8839   */\n      0x00\n        /* \"#utility.yul\":8831:8846   */\n      revert\n        /* \"#utility.yul\":9417:9707   */\n    tag_202:\n        /* \"#utility.yul\":9486:9492   */\n      0x00\n        /* \"#utility.yul\":9539:9541   */\n      0x20\n        /* \"#utility.yul\":9527:9536   */\n      dup3\n        /* \"#utility.yul\":9518:9525   */\n      dup5\n        /* \"#utility.yul\":9514:9537   */\n      sub\n        /* \"#utility.yul\":9510:9542   */\n      slt\n        /* \"#utility.yul\":9507:9559   */\n      iszero\n      tag_470\n      jumpi\n        /* \"#utility.yul\":9555:9556   */\n      0x00\n        /* \"#utility.yul\":9552:9553   */\n      dup1\n        /* \"#utility.yul\":9545:9557   */\n      revert\n        /* \"#utility.yul\":9507:9559   */\n    tag_470:\n        /* \"#utility.yul\":9581:9597   */\n      dup2\n      mload\n      not(sub(shl(0xe0, 0x01), 0x01))\n        /* \"#utility.yul\":9626:9658   */\n      dup2\n      and\n        /* \"#utility.yul\":9616:9659   */\n      dup2\n      eq\n        /* \"#utility.yul\":9606:9677   */\n      tag_222\n      jumpi\n        /* \"#utility.yul\":9673:9674   */\n      0x00\n        /* \"#utility.yul\":9670:9671   */\n      dup1\n        /* \"#utility.yul\":9663:9675   */\n      revert\n        /* \"#utility.yul\":9712:10374   */\n    tag_227:\n      sub(shl(0xa0, 0x01), 0x01)\n        /* \"#utility.yul\":9991:10006   */\n      dup7\n      dup2\n      and\n        /* \"#utility.yul\":9973:10007   */\n      dup3\n      mstore\n        /* \"#utility.yul\":10043:10058   */\n      dup6\n      and\n        /* \"#utility.yul\":10038:10040   */\n      0x20\n        /* \"#utility.yul\":10023:10041   */\n      dup3\n      add\n        /* \"#utility.yul\":10016:10059   */\n      mstore\n        /* \"#utility.yul\":10090:10092   */\n      0x40\n        /* \"#utility.yul\":10075:10093   */\n      dup2\n      add\n        /* \"#utility.yul\":10068:10102   */\n      dup5\n      swap1\n      mstore\n        /* \"#utility.yul\":10138:10141   */\n      0x80\n        /* \"#utility.yul\":10133:10135   */\n      0x60\n        /* \"#utility.yul\":10118:10136   */\n      dup3\n      add\n        /* \"#utility.yul\":10111:10142   */\n      dup2\n      swap1\n      mstore\n        /* \"#utility.yul\":10158:10177   */\n      dup2\n      add\n        /* \"#utility.yul\":10151:10186   */\n      dup3\n      swap1\n      mstore\n        /* \"#utility.yul\":9916:9920   */\n      0x00\n        /* \"#utility.yul\":10179:10185   */\n      dup3\n        /* \"#utility.yul\":10229:10235   */\n      dup5\n        /* \"#utility.yul\":9953:9956   */\n      0xa0\n        /* \"#utility.yul\":10208:10227   */\n      dup5\n      add\n        /* \"#utility.yul\":10195:10244   */\n      calldatacopy\n        /* \"#utility.yul\":10294:10295   */\n      0x00\n        /* \"#utility.yul\":10288:10291   */\n      0xa0\n        /* \"#utility.yul\":10279:10285   */\n      dup5\n        /* \"#utility.yul\":10268:10277   */\n      dup5\n        /* \"#utility.yul\":10264:10286   */\n      add\n        /* \"#utility.yul\":10260:10292   */\n      add\n        /* \"#utility.yul\":10253:10296   */\n      mstore\n        /* \"#utility.yul\":10364:10367   */\n      0xa0\n        /* \"#utility.yul\":10357:10359   */\n      0x1f\n        /* \"#utility.yul\":10353:10360   */\n      not\n        /* \"#utility.yul\":10348:10350   */\n      0x1f\n        /* \"#utility.yul\":10340:10346   */\n      dup6\n        /* \"#utility.yul\":10336:10351   */\n      add\n        /* \"#utility.yul\":10332:10361   */\n      and\n        /* \"#utility.yul\":10321:10330   */\n      dup4\n        /* \"#utility.yul\":10317:10362   */\n      add\n        /* \"#utility.yul\":10313:10368   */\n      add\n        /* \"#utility.yul\":10305:10368   */\n      swap1\n      pop\n        /* \"#utility.yul\":9712:10374   */\n      swap7\n      swap6\n      pop\n      pop\n      pop\n      pop\n      pop\n      pop\n      jump\t// out\n        /* \"#utility.yul\":10379:11400   */\n    tag_238:\n        /* \"#utility.yul\":10555:10558   */\n      0x00\n        /* \"#utility.yul\":10584:10585   */\n      dup1\n        /* \"#utility.yul\":10617:10623   */\n      dup5\n        /* \"#utility.yul\":10611:10624   */\n      sload\n        /* \"#utility.yul\":10647:10683   */\n      tag_474\n        /* \"#utility.yul\":10673:10682   */\n      dup2\n        /* \"#utility.yul\":10647:10683   */\n      tag_140\n      jump\t// in\n    tag_474:\n        /* \"#utility.yul\":10702:10703   */\n      0x01\n        /* \"#utility.yul\":10719:10736   */\n      dup3\n      dup2\n      and\n        /* \"#utility.yul\":10745:10878   */\n      dup1\n      iszero\n      tag_476\n      jumpi\n        /* \"#utility.yul\":10892:10893   */\n      0x01\n        /* \"#utility.yul\":10887:11245   */\n      dup2\n      eq\n      tag_477\n      jumpi\n        /* \"#utility.yul\":10712:11245   */\n      jump(tag_475)\n        /* \"#utility.yul\":10745:10878   */\n    tag_476:\n      not(0xff)\n        /* \"#utility.yul\":10778:10802   */\n      dup5\n      and\n        /* \"#utility.yul\":10766:10803   */\n      dup8\n      mstore\n        /* \"#utility.yul\":10851:10865   */\n      dup3\n      iszero\n        /* \"#utility.yul\":10844:10866   */\n      iszero\n        /* \"#utility.yul\":10832:10867   */\n      dup4\n      mul\n        /* \"#utility.yul\":10823:10868   */\n      dup8\n      add\n      swap5\n      pop\n        /* \"#utility.yul\":10745:10878   */\n      jump(tag_475)\n        /* \"#utility.yul\":10887:11245   */\n    tag_477:\n        /* \"#utility.yul\":10918:10924   */\n      dup9\n        /* \"#utility.yul\":10915:10916   */\n      0x00\n        /* \"#utility.yul\":10908:10925   */\n      mstore\n        /* \"#utility.yul\":10948:10952   */\n      0x20\n        /* \"#utility.yul\":10993:10997   */\n      dup1\n        /* \"#utility.yul\":10990:10991   */\n      0x00\n        /* \"#utility.yul\":10980:10998   */\n      keccak256\n        /* \"#utility.yul\":11020:11021   */\n      0x00\n        /* \"#utility.yul\":11034:11199   */\n    tag_478:\n        /* \"#utility.yul\":11048:11054   */\n      dup6\n        /* \"#utility.yul\":11045:11046   */\n      dup2\n        /* \"#utility.yul\":11042:11055   */\n      lt\n        /* \"#utility.yul\":11034:11199   */\n      iszero\n      tag_480\n      jumpi\n        /* \"#utility.yul\":11126:11140   */\n      dup2\n      sload\n        /* \"#utility.yul\":11113:11124   */\n      dup11\n      dup3\n      add\n        /* \"#utility.yul\":11106:11141   */\n      mstore\n        /* \"#utility.yul\":11169:11185   */\n      swap1\n      dup5\n      add\n      swap1\n        /* \"#utility.yul\":11063:11073   */\n      dup3\n      add\n        /* \"#utility.yul\":11034:11199   */\n      jump(tag_478)\n    tag_480:\n        /* \"#utility.yul\":11038:11041   */\n      pop\n      pop\n      pop\n        /* \"#utility.yul\":11228:11234   */\n      dup3\n        /* \"#utility.yul\":11223:11226   */\n      dup8\n        /* \"#utility.yul\":11219:11235   */\n      add\n        /* \"#utility.yul\":11212:11235   */\n      swap5\n      pop\n        /* \"#utility.yul\":10712:11245   */\n    tag_475:\n      pop\n      pop\n      pop\n      pop\n        /* \"#utility.yul\":11276:11282   */\n      dup4\n        /* \"#utility.yul\":11270:11283   */\n      mload\n        /* \"#utility.yul\":11292:11360   */\n      tag_481\n        /* \"#utility.yul\":11351:11359   */\n      dup2\n        /* \"#utility.yul\":11346:11349   */\n      dup4\n        /* \"#utility.yul\":11339:11343   */\n      0x20\n        /* \"#utility.yul\":11331:11337   */\n      dup9\n        /* \"#utility.yul\":11327:11344   */\n      add\n        /* \"#utility.yul\":11292:11360   */\n      tag_369\n      jump\t// in\n    tag_481:\n        /* \"#utility.yul\":11376:11394   */\n      add\n      swap5\n        /* \"#utility.yul\":10379:11400   */\n      swap4\n      pop\n      pop\n      pop\n      pop\n      jump\t// out\n        /* \"#utility.yul\":11592:12078   */\n    tag_263:\n        /* \"#utility.yul\":11844:11910   */\n      0x7b226e616d65223a20224161766547686f737465722023000000000000000000\n        /* \"#utility.yul\":11839:11842   */\n      dup2\n        /* \"#utility.yul\":11832:11911   */\n      mstore\n        /* \"#utility.yul\":11814:11817   */\n      0x00\n        /* \"#utility.yul\":11940:11946   */\n      dup3\n        /* \"#utility.yul\":11934:11947   */\n      mload\n        /* \"#utility.yul\":11956:12031   */\n      tag_484\n        /* \"#utility.yul\":12024:12030   */\n      dup2\n        /* \"#utility.yul\":12019:12021   */\n      0x17\n        /* \"#utility.yul\":12014:12017   */\n      dup6\n        /* \"#utility.yul\":12010:12022   */\n      add\n        /* \"#utility.yul\":12003:12007   */\n      0x20\n        /* \"#utility.yul\":11995:12001   */\n      dup8\n        /* \"#utility.yul\":11991:12008   */\n      add\n        /* \"#utility.yul\":11956:12031   */\n      tag_369\n      jump\t// in\n    tag_484:\n        /* \"#utility.yul\":12051:12067   */\n      swap2\n      swap1\n      swap2\n      add\n        /* \"#utility.yul\":12069:12071   */\n      0x17\n        /* \"#utility.yul\":12047:12072   */\n      add\n      swap3\n        /* \"#utility.yul\":11592:12078   */\n      swap2\n      pop\n      pop\n      jump\t// out\n        /* \"#utility.yul\":12083:13013   */\n    tag_265:\n        /* \"#utility.yul\":12315:12318   */\n      0x00\n        /* \"#utility.yul\":12353:12359   */\n      dup3\n        /* \"#utility.yul\":12347:12360   */\n      mload\n        /* \"#utility.yul\":12369:12435   */\n      tag_486\n        /* \"#utility.yul\":12428:12434   */\n      dup2\n        /* \"#utility.yul\":12423:12426   */\n      dup5\n        /* \"#utility.yul\":12416:12420   */\n      0x20\n        /* \"#utility.yul\":12408:12414   */\n      dup8\n        /* \"#utility.yul\":12404:12421   */\n      add\n        /* \"#utility.yul\":12369:12435   */\n      tag_369\n      jump\t// in\n    tag_486:\n        /* \"#utility.yul\":12496:12562   */\n      0x222c226465736372697074696f6e223a224120636f6c6c656374696f6e206f66\n        /* \"#utility.yul\":12457:12473   */\n      swap3\n      add\n        /* \"#utility.yul\":12482:12563   */\n      swap2\n      dup3\n      mstore\n      pop\n        /* \"#utility.yul\":12597:12631   */\n      0x2031352c303030204161766547686f7374657220656e61626c65642062792045\n        /* \"#utility.yul\":12590:12594   */\n      0x20\n        /* \"#utility.yul\":12579:12595   */\n      dup3\n      add\n        /* \"#utility.yul\":12572:12632   */\n      mstore\n        /* \"#utility.yul\":12664:12698   */\n      0x52433430342c20616e206578706572696d656e74616c20746f6b656e20737461\n        /* \"#utility.yul\":12659:12661   */\n      0x40\n        /* \"#utility.yul\":12648:12662   */\n      dup3\n      add\n        /* \"#utility.yul\":12641:12699   */\n      mstore\n        /* \"#utility.yul\":12731:12797   */\n      0x6e6461726420696e7370697265642062792050616e646f7261222c2265787465\n        /* \"#utility.yul\":12726:12728   */\n      0x60\n        /* \"#utility.yul\":12715:12729   */\n      dup3\n      add\n        /* \"#utility.yul\":12708:12798   */\n      mstore\n        /* \"#utility.yul\":12831:12897   */\n      0x726e616c5f75726c223a2268747470733a2f2f6161766567686f737465722e6f\n        /* \"#utility.yul\":12825:12828   */\n      0x80\n        /* \"#utility.yul\":12814:12829   */\n      dup3\n      add\n        /* \"#utility.yul\":12807:12898   */\n      mstore\n      shl(0x81, 0x373634b73291161134b6b0b3b2911d11)\n        /* \"#utility.yul\":12925:12928   */\n      0xa0\n        /* \"#utility.yul\":12914:12929   */\n      dup3\n      add\n        /* \"#utility.yul\":12907:12976   */\n      mstore\n        /* \"#utility.yul\":13003:13006   */\n      0xb0\n        /* \"#utility.yul\":12992:13007   */\n      add\n      swap2\n        /* \"#utility.yul\":12083:13013   */\n      swap1\n      pop\n      jump\t// out\n        /* \"#utility.yul\":13018:13514   */\n    tag_268:\n        /* \"#utility.yul\":13197:13200   */\n      0x00\n        /* \"#utility.yul\":13235:13241   */\n      dup4\n        /* \"#utility.yul\":13229:13242   */\n      mload\n        /* \"#utility.yul\":13251:13317   */\n      tag_488\n        /* \"#utility.yul\":13310:13316   */\n      dup2\n        /* \"#utility.yul\":13305:13308   */\n      dup5\n        /* \"#utility.yul\":13298:13302   */\n      0x20\n        /* \"#utility.yul\":13290:13296   */\n      dup9\n        /* \"#utility.yul\":13286:13303   */\n      add\n        /* \"#utility.yul\":13251:13317   */\n      tag_369\n      jump\t// in\n    tag_488:\n        /* \"#utility.yul\":13380:13393   */\n      dup4\n      mload\n        /* \"#utility.yul\":13339:13355   */\n      swap1\n      dup4\n      add\n      swap1\n        /* \"#utility.yul\":13402:13472   */\n      tag_481\n        /* \"#utility.yul\":13380:13393   */\n      dup2\n        /* \"#utility.yul\":13339:13355   */\n      dup4\n        /* \"#utility.yul\":13449:13453   */\n      0x20\n        /* \"#utility.yul\":13437:13454   */\n      dup9\n      add\n        /* \"#utility.yul\":13402:13472   */\n      tag_369\n      jump\t// in\n        /* \"#utility.yul\":13519:14086   */\n    tag_270:\n        /* \"#utility.yul\":13781:13847   */\n      0x222c2261747472696275746573223a5b7b2274726169745f74797065223a2243\n        /* \"#utility.yul\":13776:13779   */\n      dup2\n        /* \"#utility.yul\":13769:13848   */\n      mstore\n        /* \"#utility.yul\":13887:13919   */\n      0x37b637b91116113b30b63ab2911d11\n        /* \"#utility.yul\":13882:13885   */\n      0x89\n        /* \"#utility.yul\":13878:13920   */\n      shl\n        /* \"#utility.yul\":13873:13875   */\n      0x20\n        /* \"#utility.yul\":13868:13871   */\n      dup3\n        /* \"#utility.yul\":13864:13876   */\n      add\n        /* \"#utility.yul\":13857:13921   */\n      mstore\n        /* \"#utility.yul\":13751:13754   */\n      0x00\n        /* \"#utility.yul\":13950:13956   */\n      dup3\n        /* \"#utility.yul\":13944:13957   */\n      mload\n        /* \"#utility.yul\":13966:14039   */\n      tag_491\n        /* \"#utility.yul\":14032:14038   */\n      dup2\n        /* \"#utility.yul\":14027:14029   */\n      0x2f\n        /* \"#utility.yul\":14022:14025   */\n      dup6\n        /* \"#utility.yul\":14018:14030   */\n      add\n        /* \"#utility.yul\":14013:14015   */\n      0x20\n        /* \"#utility.yul\":14005:14011   */\n      dup8\n        /* \"#utility.yul\":14001:14016   */\n      add\n        /* \"#utility.yul\":13966:14039   */\n      tag_369\n      jump\t// in\n    tag_491:\n        /* \"#utility.yul\":14059:14075   */\n      swap2\n      swap1\n      swap2\n      add\n        /* \"#utility.yul\":14077:14079   */\n      0x2f\n        /* \"#utility.yul\":14055:14080   */\n      add\n      swap3\n        /* \"#utility.yul\":13519:14086   */\n      swap2\n      pop\n      pop\n      jump\t// out\n        /* \"#utility.yul\":14091:14540   */\n    tag_274:\n        /* \"#utility.yul\":14343:14372   */\n      0x646174613a6170706c69636174696f6e2f6a736f6e3b757466382c0000000000\n        /* \"#utility.yul\":14338:14341   */\n      dup2\n        /* \"#utility.yul\":14331:14373   */\n      mstore\n        /* \"#utility.yul\":14313:14316   */\n      0x00\n        /* \"#utility.yul\":14402:14408   */\n      dup3\n        /* \"#utility.yul\":14396:14409   */\n      mload\n        /* \"#utility.yul\":14418:14493   */\n      tag_493\n        /* \"#utility.yul\":14486:14492   */\n      dup2\n        /* \"#utility.yul\":14481:14483   */\n      0x1b\n        /* \"#utility.yul\":14476:14479   */\n      dup6\n        /* \"#utility.yul\":14472:14484   */\n      add\n        /* \"#utility.yul\":14465:14469   */\n      0x20\n        /* \"#utility.yul\":14457:14463   */\n      dup8\n        /* \"#utility.yul\":14453:14470   */\n      add\n        /* \"#utility.yul\":14418:14493   */\n      tag_369\n      jump\t// in\n    tag_493:\n        /* \"#utility.yul\":14513:14529   */\n      swap2\n      swap1\n      swap2\n      add\n        /* \"#utility.yul\":14531:14533   */\n      0x1b\n        /* \"#utility.yul\":14509:14534   */\n      add\n      swap3\n        /* \"#utility.yul\":14091:14540   */\n      swap2\n      pop\n      pop\n      jump\t// out\n        /* \"#utility.yul\":14545:14961   */\n    tag_376:\n        /* \"#utility.yul\":14634:14635   */\n      0x01\n        /* \"#utility.yul\":14671:14676   */\n      dup2\n        /* \"#utility.yul\":14634:14635   */\n      dup2\n        /* \"#utility.yul\":14685:14955   */\n    tag_495:\n        /* \"#utility.yul\":14706:14713   */\n      dup1\n        /* \"#utility.yul\":14696:14704   */\n      dup6\n        /* \"#utility.yul\":14693:14714   */\n      gt\n        /* \"#utility.yul\":14685:14955   */\n      iszero\n      tag_497\n      jumpi\n        /* \"#utility.yul\":14765:14769   */\n      dup2\n        /* \"#utility.yul\":14761:14762   */\n      0x00\n        /* \"#utility.yul\":14757:14763   */\n      not\n        /* \"#utility.yul\":14753:14770   */\n      div\n        /* \"#utility.yul\":14747:14751   */\n      dup3\n        /* \"#utility.yul\":14744:14771   */\n      gt\n        /* \"#utility.yul\":14741:14794   */\n      iszero\n      tag_499\n      jumpi\n        /* \"#utility.yul\":14774:14792   */\n      tag_499\n      tag_375\n      jump\t// in\n    tag_499:\n        /* \"#utility.yul\":14824:14831   */\n      dup1\n        /* \"#utility.yul\":14814:14822   */\n      dup6\n        /* \"#utility.yul\":14810:14832   */\n      and\n        /* \"#utility.yul\":14807:14862   */\n      iszero\n      tag_500\n      jumpi\n        /* \"#utility.yul\":14844:14860   */\n      swap2\n      dup2\n      mul\n      swap2\n        /* \"#utility.yul\":14807:14862   */\n    tag_500:\n        /* \"#utility.yul\":14923:14945   */\n      swap4\n      dup5\n      shr\n      swap4\n        /* \"#utility.yul\":14883:14898   */\n      swap1\n      dup1\n      mul\n      swap1\n        /* \"#utility.yul\":14685:14955   */\n      jump(tag_495)\n    tag_497:\n        /* \"#utility.yul\":14689:14692   */\n      pop\n        /* \"#utility.yul\":14545:14961   */\n      swap3\n      pop\n      swap3\n      swap1\n      pop\n      jump\t// out\n        /* \"#utility.yul\":14966:15772   */\n    tag_377:\n        /* \"#utility.yul\":15015:15020   */\n      0x00\n        /* \"#utility.yul\":15045:15053   */\n      dup3\n        /* \"#utility.yul\":15035:15115   */\n      tag_502\n      jumpi\n      pop\n        /* \"#utility.yul\":15086:15087   */\n      0x01\n        /* \"#utility.yul\":15100:15105   */\n      jump(tag_145)\n        /* \"#utility.yul\":15035:15115   */\n    tag_502:\n        /* \"#utility.yul\":15134:15138   */\n      dup2\n        /* \"#utility.yul\":15124:15200   */\n      tag_503\n      jumpi\n      pop\n        /* \"#utility.yul\":15171:15172   */\n      0x00\n        /* \"#utility.yul\":15185:15190   */\n      jump(tag_145)\n        /* \"#utility.yul\":15124:15200   */\n    tag_503:\n        /* \"#utility.yul\":15216:15220   */\n      dup2\n        /* \"#utility.yul\":15234:15235   */\n      0x01\n        /* \"#utility.yul\":15229:15288   */\n      dup2\n      eq\n      tag_505\n      jumpi\n        /* \"#utility.yul\":15302:15303   */\n      0x02\n        /* \"#utility.yul\":15297:15427   */\n      dup2\n      eq\n      tag_506\n      jumpi\n        /* \"#utility.yul\":15209:15427   */\n      jump(tag_504)\n        /* \"#utility.yul\":15229:15288   */\n    tag_505:\n        /* \"#utility.yul\":15259:15260   */\n      0x01\n        /* \"#utility.yul\":15250:15260   */\n      swap2\n      pop\n        /* \"#utility.yul\":15273:15278   */\n      pop\n      jump(tag_145)\n        /* \"#utility.yul\":15297:15427   */\n    tag_506:\n        /* \"#utility.yul\":15334:15337   */\n      0xff\n        /* \"#utility.yul\":15324:15332   */\n      dup5\n        /* \"#utility.yul\":15321:15338   */\n      gt\n        /* \"#utility.yul\":15318:15361   */\n      iszero\n      tag_508\n      jumpi\n        /* \"#utility.yul\":15341:15359   */\n      tag_508\n      tag_375\n      jump\t// in\n    tag_508:\n      pop\n      pop\n        /* \"#utility.yul\":15397:15398   */\n      0x01\n        /* \"#utility.yul\":15383:15399   */\n      dup3\n      shl\n        /* \"#utility.yul\":15412:15417   */\n      jump(tag_145)\n        /* \"#utility.yul\":15209:15427   */\n    tag_504:\n      pop\n        /* \"#utility.yul\":15511:15513   */\n      0x20\n        /* \"#utility.yul\":15501:15509   */\n      dup4\n        /* \"#utility.yul\":15498:15514   */\n      lt\n        /* \"#utility.yul\":15492:15495   */\n      0x0133\n        /* \"#utility.yul\":15486:15490   */\n      dup4\n        /* \"#utility.yul\":15483:15496   */\n      lt\n        /* \"#utility.yul\":15479:15515   */\n      and\n        /* \"#utility.yul\":15473:15475   */\n      0x4e\n        /* \"#utility.yul\":15463:15471   */\n      dup5\n        /* \"#utility.yul\":15460:15476   */\n      lt\n        /* \"#utility.yul\":15455:15457   */\n      0x0b\n        /* \"#utility.yul\":15449:15453   */\n      dup5\n        /* \"#utility.yul\":15446:15458   */\n      lt\n        /* \"#utility.yul\":15442:15477   */\n      and\n        /* \"#utility.yul\":15439:15516   */\n      or\n        /* \"#utility.yul\":15436:15595   */\n      iszero\n      tag_509\n      jumpi\n      pop\n        /* \"#utility.yul\":15548:15567   */\n      dup2\n      dup2\n      exp\n        /* \"#utility.yul\":15580:15585   */\n      jump(tag_145)\n        /* \"#utility.yul\":15436:15595   */\n    tag_509:\n        /* \"#utility.yul\":15627:15661   */\n      tag_510\n        /* \"#utility.yul\":15652:15660   */\n      dup4\n        /* \"#utility.yul\":15646:15650   */\n      dup4\n        /* \"#utility.yul\":15627:15661   */\n      tag_376\n      jump\t// in\n    tag_510:\n        /* \"#utility.yul\":15697:15703   */\n      dup1\n        /* \"#utility.yul\":15693:15694   */\n      0x00\n        /* \"#utility.yul\":15689:15695   */\n      not\n        /* \"#utility.yul\":15685:15704   */\n      div\n        /* \"#utility.yul\":15676:15683   */\n      dup3\n        /* \"#utility.yul\":15673:15705   */\n      gt\n        /* \"#utility.yul\":15670:15728   */\n      iszero\n      tag_512\n      jumpi\n        /* \"#utility.yul\":15708:15726   */\n      tag_512\n      tag_375\n      jump\t// in\n    tag_512:\n        /* \"#utility.yul\":15746:15766   */\n      mul\n      swap4\n        /* \"#utility.yul\":14966:15772   */\n      swap3\n      pop\n      pop\n      pop\n      jump\t// out\n        /* \"#utility.yul\":15777:15917   */\n    tag_295:\n        /* \"#utility.yul\":15835:15840   */\n      0x00\n        /* \"#utility.yul\":15864:15911   */\n      tag_222\n        /* \"#utility.yul\":15905:15909   */\n      0xff\n        /* \"#utility.yul\":15895:15903   */\n      dup5\n        /* \"#utility.yul\":15891:15910   */\n      and\n        /* \"#utility.yul\":15885:15889   */\n      dup4\n        /* \"#utility.yul\":15864:15911   */\n      tag_377\n      jump\t// in\n        /* \"#utility.yul\":16054:16271   */\n    tag_301:\n        /* \"#utility.yul\":16094:16095   */\n      0x00\n        /* \"#utility.yul\":16120:16121   */\n      dup3\n        /* \"#utility.yul\":16110:16242   */\n      tag_517\n      jumpi\n        /* \"#utility.yul\":16164:16174   */\n      0x4e487b71\n        /* \"#utility.yul\":16159:16162   */\n      0xe0\n        /* \"#utility.yul\":16155:16175   */\n      shl\n        /* \"#utility.yul\":16152:16153   */\n      0x00\n        /* \"#utility.yul\":16145:16176   */\n      mstore\n        /* \"#utility.yul\":16199:16203   */\n      0x12\n        /* \"#utility.yul\":16196:16197   */\n      0x04\n        /* \"#utility.yul\":16189:16204   */\n      mstore\n        /* \"#utility.yul\":16227:16231   */\n      0x24\n        /* \"#utility.yul\":16224:16225   */\n      0x00\n        /* \"#utility.yul\":16217:16232   */\n      revert\n        /* \"#utility.yul\":16110:16242   */\n    tag_517:\n      pop\n        /* \"#utility.yul\":16256:16265   */\n      div\n      swap1\n        /* \"#utility.yul\":16054:16271   */\n      jump\t// out\n\n    auxdata: 0xa26469706673582212207f01dbcaf3bd65a9463b6c991d65c78cf5ebad17478d717dd482a4dbfc9f1dff64736f6c63430008180033\n}\n",
				"bytecode": {
					"linkReferences": {},
					"object": "60c06040523480156200001157600080fd5b506040516200266a3803806200266a833981016040819052620000349162000175565b6040518060400160405280600b81526020016a20b0bb32a3b437b9ba32b960a91b8152506040518060400160405280600b81526020016a20a0ab22a3a427a9aa22a960a91b8152506012613a98848060006001600160a01b0316816001600160a01b031603620000b7576040516349e27cff60e01b815260040160405180910390fd5b600080546001600160a01b0319166001600160a01b03831690811782556040519091907f8be0079c531659141344cd1fd0a4f28419497f9722a3daafe3b4186f6b6457e0908290a35060016200010e86826200024e565b5060026200011d85826200024e565b5060ff831660808190526200013490600a6200042f565b62000140908362000440565b60a0525050506001600160a01b03909216600090815260046020526040902069032d26d12e980b6000009055506200045a9050565b6000602082840312156200018857600080fd5b81516001600160a01b0381168114620001a057600080fd5b9392505050565b634e487b7160e01b600052604160045260246000fd5b600181811c90821680620001d257607f821691505b602082108103620001f357634e487b7160e01b600052602260045260246000fd5b50919050565b601f82111562000249576000816000526020600020601f850160051c81016020861015620002245750805b601f850160051c820191505b81811015620002455782815560010162000230565b5050505b505050565b81516001600160401b038111156200026a576200026a620001a7565b62000282816200027b8454620001bd565b84620001f9565b602080601f831160018114620002ba5760008415620002a15750858301515b600019600386901b1c1916600185901b17855562000245565b600085815260208120601f198616915b82811015620002eb57888601518255948401946001909101908401620002ca565b50858210156200030a5787850151600019600388901b60f8161c191681555b5050505050600190811b01905550565b634e487b7160e01b600052601160045260246000fd5b600181815b80851115620003715781600019048211156200035557620003556200031a565b808516156200036357918102915b93841c939080029062000335565b509250929050565b6000826200038a5750600162000429565b81620003995750600062000429565b8160018114620003b25760028114620003bd57620003dd565b600191505062000429565b60ff841115620003d157620003d16200031a565b50506001821b62000429565b5060208310610133831016604e8410600b841016171562000402575081810a62000429565b6200040e838362000330565b80600019048211156200042557620004256200031a565b0290505b92915050565b6000620001a060ff84168362000379565b80820281158282048414176200042957620004296200031a565b60805160a0516121e362000487600039600061023501526000818161029a015261130f01526121e36000f3fe608060405234801561001057600080fd5b50600436106101a95760003560e01c806370a08231116100f9578063c87b56dd11610097578063e0df5b6f11610071578063e0df5b6f14610400578063e985e9c514610413578063f28ca1dd14610441578063f2fde38b1461044957600080fd5b8063c87b56dd146103ba578063d547cfb7146103cd578063dd62ed3e146103d557600080fd5b80639b19251a116100d35780639b19251a1461035e578063a22cb46514610381578063a9059cbb14610394578063b88d4fde146103a757600080fd5b806370a08231146103235780638da5cb5b1461034357806395d89b411461035657600080fd5b80632b968958116101665780634f02c420116101405780634f02c420146102e1578063504334c2146102ea57806353d6fd59146102fd5780636352211e1461031057600080fd5b80632b9689581461028d578063313ce5671461029557806342842e0e146102ce57600080fd5b806306fdde03146101ae578063081812fc146101cc578063095ea7b31461020d57806318160ddd1461023057806318d217c31461026557806323b872dd1461027a575b600080fd5b6101b661045c565b6040516101c391906118c3565b60405180910390f35b6101f56101da3660046118f6565b6006602052600090815260409020546001600160a01b031681565b6040516001600160a01b0390911681526020016101c3565b61022061021b366004611926565b6104ea565b60405190151581526020016101c3565b6102577f000000000000000000000000000000000000000000000000000000000000000081565b6040519081526020016101c3565b6102786102733660046119f3565b61063b565b005b610278610288366004611a30565b610675565b6102786109fe565b6102bc7f000000000000000000000000000000000000000000000000000000000000000081565b60405160ff90911681526020016101c3565b6102786102dc366004611a30565b610a64565b61025760035481565b6102786102f8366004611a6c565b610b39565b61027861030b366004611ad0565b610b6d565b6101f561031e3660046118f6565b610bc2565b610257610331366004611b0c565b60046020526000908152604090205481565b6000546101f5906001600160a01b031681565b6101b6610bfd565b61022061036c366004611b0c565b600b6020526000908152604090205460ff1681565b61027861038f366004611ad0565b610c0a565b6102206103a2366004611926565b610c76565b6102786103b5366004611b27565b610c8a565b6101b66103c83660046118f6565b610d4d565b6101b661121c565b6102576103e3366004611bc2565b600560209081526000928352604080842090915290825290205481565b61027861040e3660046119f3565b611229565b610220610421366004611bc2565b600760209081526000928352604080842090915290825290205460ff1681565b6101b661125f565b610278610457366004611b0c565b61126c565b6001805461046990611bf5565b80601f016020809104026020016040519081016040528092919081815260200182805461049590611bf5565b80156104e25780601f106104b7576101008083540402835291602001916104e2565b820191906000526020600020905b8154815290600101906020018083116104c557829003601f168201915b505050505081565b600060035482111580156104fe5750600082115b156105d5576000828152600860205260409020546001600160a01b031633811480159061054f57506001600160a01b038116600090815260076020908152604080832033845290915290205460ff16155b1561056c576040516282b42960e81b815260040160405180910390fd5b60008381526006602090815260409182902080546001600160a01b0319166001600160a01b038881169182179092559251868152908416917f8c5be1e5ebec7d5bd14f71427d1e84f3dd0314c0f7b2291e5b200ac8c7c3b925910160405180910390a350610631565b3360008181526005602090815260408083206001600160a01b03881680855290835292819020869055518581529192917f8c5be1e5ebec7d5bd14f71427d1e84f3dd0314c0f7b2291e5b200ac8c7c3b925910160405180910390a35b5060015b92915050565b6000546001600160a01b03163314610665576040516282b42960e81b815260040160405180910390fd5b600c6106718282611c7f565b5050565b600354811161098f576000818152600860205260409020546001600160a01b038481169116146106b857604051636edaef2f60e11b815260040160405180910390fd5b6001600160a01b0382166106df57604051634e46966960e11b815260040160405180910390fd5b336001600160a01b0384161480159061071c57506001600160a01b038316600090815260076020908152604080832033845290915290205460ff16155b801561073f57506000818152600660205260409020546001600160a01b03163314155b1561075c576040516282b42960e81b815260040160405180910390fd5b610764611308565b6001600160a01b0384166000908152600460205260408120805490919061078c908490611d55565b9091555061079a9050611308565b6001600160a01b03808416600081815260046020908152604080832080549096019095558582526008815284822080546001600160a01b03199081169094179055600681528482208054909316909255918616825260099052908120805461080490600190611d55565b8154811061081457610814611d68565b60009182526020808320909101546001600160a01b0387168352600982526040808420868552600a9093529092205481549293508392811061085857610858611d68565b60009182526020808320909101929092556001600160a01b038616815260099091526040902080548061088d5761088d611d7e565b600082815260208082208301600019908101839055909201909255838252600a8152604080832054848452818420556001600160a01b0386168084526009835290832080546001818101835582865293852001869055925290546108f19190611d55565b6000838152600a602052604080822092909255905183916001600160a01b0380871692908816917fddf252ad1be2c89b69c2b068fc378daa952ba7f163c4a11628f55a4df523b3ef91a4826001600160a01b0316846001600160a01b03167fe59fdd36d0d223c0c7d996db7ad796880f45e1936cb0bb7ac102e7082e031487610978611308565b60405190815260200160405180910390a350505050565b6001600160a01b038316600090815260056020908152604080832033845290915290205460001981146109eb576109c68282611d55565b6001600160a01b03851660009081526005602090815260408083203384529091529020555b6109f684848461133a565b50505b505050565b6000546001600160a01b03163314610a28576040516282b42960e81b815260040160405180910390fd5b600080546001600160a01b031916815560405133907f8be0079c531659141344cd1fd0a4f28419497f9722a3daafe3b4186f6b6457e0908390a3565b610a6f838383610675565b6001600160a01b0382163b15801590610b1b5750604051630a85bd0160e11b8082523360048301526001600160a01b03858116602484015260448301849052608060648401526000608484015290919084169063150b7a029060a4016020604051808303816000875af1158015610aea573d6000803e3d6000fd5b505050506040513d601f19601f82011682018060405250810190610b0e9190611d94565b6001600160e01b03191614155b156109f957604051633da6393160e01b815260040160405180910390fd5b6000546001600160a01b03163314610b63576040516282b42960e81b815260040160405180910390fd5b61067182826114e8565b6000546001600160a01b03163314610b97576040516282b42960e81b815260040160405180910390fd5b6001600160a01b03919091166000908152600b60205260409020805460ff1916911515919091179055565b6000818152600860205260409020546001600160a01b031680610bf85760405163c5723b5160e01b815260040160405180910390fd5b919050565b6002805461046990611bf5565b3360008181526007602090815260408083206001600160a01b03871680855290835292819020805460ff191686151590811790915590519081529192917f17307eab39ab6107e8899845ad3d59bd9653f200f220920489ca2b5937696c31910160405180910390a35050565b6000610c8333848461133a565b9392505050565b610c95858585610675565b6001600160a01b0384163b15801590610d2f5750604051630a85bd0160e11b808252906001600160a01b0386169063150b7a0290610cdf9033908a90899089908990600401611dbe565b6020604051808303816000875af1158015610cfe573d6000803e3d6000fd5b505050506040513d601f19601f82011682018060405250810190610d229190611d94565b6001600160e01b03191614155b156109f657604051633da6393160e01b815260040160405180910390fd5b60606000600d8054610d5e90611bf5565b90501115610d9857600d610d7183611501565b604051602001610d82929190611e12565b6040516020818303038152906040529050919050565b600082604051602001610dad91815260200190565b6040516020818303038152906040528051906020012060f81c905060608060648360ff1611610e1b5760405180604001604052806005815260200164312e706e6760d81b81525091506040518060400160405280600581526020016423b932b2b760d91b81525090506110ed565b60a08360ff1611610e6a5760405180604001604052806005815260200164322e706e6760d81b815250915060405180604001604052806004815260200163426c756560e01b81525090506110ed565b60d28360ff1611610ebb5760405180604001604052806005815260200164332e706e6760d81b815250915060405180604001604052806006815260200165507572706c6560d01b81525090506110ed565b60f08360ff1611610f0c5760405180604001604052806005815260200164342e706e6760d81b8152509150604051806040016040528060068152602001654f72616e676560d01b81525090506110ed565b60ff8360ff1611610f5a5760405180604001604052806005815260200164352e706e6760d81b81525091506040518060400160405280600381526020016214995960ea1b81525090506110ed565b61012c8360ff1611610fab5760405180604001604052806005815260200164362e706e6760d81b815250915060405180604001604052806005815260200164576869746560d81b81525090506110ed565b6101688360ff1611610ffc5760405180604001604052806005815260200164372e706e6760d81b815250915060405180604001604052806005815260200164426c61636b60d81b81525090506110ed565b61019a8360ff161161104c5760405180604001604052806005815260200164382e706e6760d81b81525091506040518060400160405280600481526020016350696e6b60e01b81525090506110ed565b6101c28360ff161161109e5760405180604001604052806005815260200164392e706e6760d81b81525091506040518060400160405280600681526020016559656c6c6f7760d01b81525090506110ed565b6101fe8360ff16116110ed576040518060400160405280600681526020016531302e706e6760d01b815250915060405180604001604052806006815260200165159a5bdb195d60d21b81525090505b60006110f886611501565b6040516020016111089190611e99565b60408051601f198184030181529082905261112591602001611ede565b604051602081830303815290604052600c84604051602001611148929190611e12565b60408051601f19818403018152908290526111669291602001611fd0565b604051602081830303815290604052905060008260405160200161118a9190611ff6565b60408051601f1981840301815282820182526004835263227d5d7d60e01b60208481019190915291519093506111c4918591859101611fd0565b60408051601f19818403018152908290526111e3918390602001611fd0565b60408051601f198184030181529082905261120091602001612053565b6040516020818303038152906040529650505050505050919050565b600d805461046990611bf5565b6000546001600160a01b03163314611253576040516282b42960e81b815260040160405180910390fd5b600d6106718282611c7f565b600c805461046990611bf5565b6000546001600160a01b03163314611296576040516282b42960e81b815260040160405180910390fd5b6001600160a01b0381166112bd576040516349e27cff60e01b815260040160405180910390fd5b600080546001600160a01b0319166001600160a01b0383169081178255604051909133917f8be0079c531659141344cd1fd0a4f28419497f9722a3daafe3b4186f6b6457e09190a350565b60006113357f0000000000000000000000000000000000000000000000000000000000000000600a61217c565b905090565b600080611345611308565b6001600160a01b038087166000818152600460205260408082208054948a16835290822054928252939450919290918691906113818386611d55565b90915550506001600160a01b03808716600090815260046020908152604080832080548a019055928a168252600b9052205460ff16611413576001600160a01b0387166000908152600460205260408120546113de90859061218b565b6113e8858561218b565b6113f29190611d55565b905060005b818110156114105761140889611594565b6001016113f7565b50505b6001600160a01b0386166000908152600b602052604090205460ff1661148e57600061143f848361218b565b6001600160a01b03881660009081526004602052604090205461146390869061218b565b61146d9190611d55565b905060005b8181101561148b57611483886116bc565b600101611472565b50505b856001600160a01b0316876001600160a01b03167fe59fdd36d0d223c0c7d996db7ad796880f45e1936cb0bb7ac102e7082e031487876040516114d391815260200190565b60405180910390a35060019695505050505050565b60016114f48382611c7f565b5060026109f98282611c7f565b6060600061150e836117c7565b600101905060008167ffffffffffffffff81111561152e5761152e611950565b6040519080825280601f01601f191660200182016040528015611558576020820181803683370190505b5090508181016020015b600019016f181899199a1a9b1b9c1cb0b131b232b360811b600a86061a8153600a850494508461156257509392505050565b6001600160a01b0381166115bb57604051636edaef2f60e11b815260040160405180910390fd5b6001600160a01b038116600090815260096020526040812080546115e190600190611d55565b815481106115f1576115f1611d68565b9060005260206000200154905060096000836001600160a01b03166001600160a01b0316815260200190815260200160002080548061163257611632611d7e565b600082815260208082208301600019908101839055909201909255828252600a815260408083208390556008825280832080546001600160a01b031990811690915560069092528083208054909216909155518291906001600160a01b038516907fddf252ad1be2c89b69c2b068fc378daa952ba7f163c4a11628f55a4df523b3ef908390a45050565b6001600160a01b0381166116e357604051634e46966960e11b815260040160405180910390fd5b60038054600101908190556000818152600860205260409020546001600160a01b0316156117245760405163119b4fd360e11b815260040160405180910390fd5b600081815260086020908152604080832080546001600160a01b0319166001600160a01b03871690811790915580845260098352908320805460018181018355828652938520018590559252905461177c9190611d55565b6000828152600a602052604080822092909255905182916001600160a01b038516917fddf252ad1be2c89b69c2b068fc378daa952ba7f163c4a11628f55a4df523b3ef908290a45050565b60008072184f03e93ff9f4daa797ed6e38ed64bf6a1f0160401b83106118065772184f03e93ff9f4daa797ed6e38ed64bf6a1f0160401b830492506040015b6d04ee2d6d415b85acef81000000008310611832576d04ee2d6d415b85acef8100000000830492506020015b662386f26fc10000831061185057662386f26fc10000830492506010015b6305f5e1008310611868576305f5e100830492506008015b612710831061187c57612710830492506004015b6064831061188e576064830492506002015b600a83106106355760010192915050565b60005b838110156118ba5781810151838201526020016118a2565b50506000910152565b60208152600082518060208401526118e281604085016020870161189f565b601f01601f19169190910160400192915050565b60006020828403121561190857600080fd5b5035919050565b80356001600160a01b0381168114610bf857600080fd5b6000806040838503121561193957600080fd5b6119428361190f565b946020939093013593505050565b634e487b7160e01b600052604160045260246000fd5b600082601f83011261197757600080fd5b813567ffffffffffffffff8082111561199257611992611950565b604051601f8301601f19908116603f011681019082821181831017156119ba576119ba611950565b816040528381528660208588010111156119d357600080fd5b836020870160208301376000602085830101528094505050505092915050565b600060208284031215611a0557600080fd5b813567ffffffffffffffff811115611a1c57600080fd5b611a2884828501611966565b949350505050565b600080600060608486031215611a4557600080fd5b611a4e8461190f565b9250611a5c6020850161190f565b9150604084013590509250925092565b60008060408385031215611a7f57600080fd5b823567ffffffffffffffff80821115611a9757600080fd5b611aa386838701611966565b93506020850135915080821115611ab957600080fd5b50611ac685828601611966565b9150509250929050565b60008060408385031215611ae357600080fd5b611aec8361190f565b915060208301358015158114611b0157600080fd5b809150509250929050565b600060208284031215611b1e57600080fd5b610c838261190f565b600080600080600060808688031215611b3f57600080fd5b611b488661190f565b9450611b566020870161190f565b935060408601359250606086013567ffffffffffffffff80821115611b7a57600080fd5b818801915088601f830112611b8e57600080fd5b813581811115611b9d57600080fd5b896020828501011115611baf57600080fd5b9699959850939650602001949392505050565b60008060408385031215611bd557600080fd5b611bde8361190f565b9150611bec6020840161190f565b90509250929050565b600181811c90821680611c0957607f821691505b602082108103611c2957634e487b7160e01b600052602260045260246000fd5b50919050565b601f8211156109f9576000816000526020600020601f850160051c81016020861015611c585750805b601f850160051c820191505b81811015611c7757828155600101611c64565b505050505050565b815167ffffffffffffffff811115611c9957611c99611950565b611cad81611ca78454611bf5565b84611c2f565b602080601f831160018114611ce25760008415611cca5750858301515b600019600386901b1c1916600185901b178555611c77565b600085815260208120601f198616915b82811015611d1157888601518255948401946001909101908401611cf2565b5085821015611d2f5787850151600019600388901b60f8161c191681555b5050505050600190811b01905550565b634e487b7160e01b600052601160045260246000fd5b8181038181111561063557610635611d3f565b634e487b7160e01b600052603260045260246000fd5b634e487b7160e01b600052603160045260246000fd5b600060208284031215611da657600080fd5b81516001600160e01b031981168114610c8357600080fd5b6001600160a01b038681168252851660208201526040810184905260806060820181905281018290526000828460a0840137600060a0848401015260a0601f19601f85011683010190509695505050505050565b6000808454611e2081611bf5565b60018281168015611e385760018114611e4d57611e7c565b60ff1984168752821515830287019450611e7c565b8860005260208060002060005b85811015611e735781548a820152908401908201611e5a565b50505082870194505b505050508351611e9081836020880161189f565b01949350505050565b7f7b226e616d65223a20224161766547686f737465722023000000000000000000815260008251611ed181601785016020870161189f565b9190910160170192915050565b60008251611ef081846020870161189f565b7f222c226465736372697074696f6e223a224120636f6c6c656374696f6e206f669201918252507f2031352c303030204161766547686f7374657220656e61626c6564206279204560208201527f52433430342c20616e206578706572696d656e74616c20746f6b656e2073746160408201527f6e6461726420696e7370697265642062792050616e646f7261222c226578746560608201527f726e616c5f75726c223a2268747470733a2f2f6161766567686f737465722e6f60808201526f373634b73291161134b6b0b3b2911d1160811b60a082015260b001919050565b60008351611fe281846020880161189f565b835190830190611e9081836020880161189f565b7f222c2261747472696275746573223a5b7b2274726169745f74797065223a224381526e37b637b91116113b30b63ab2911d1160891b60208201526000825161204681602f85016020870161189f565b91909101602f0192915050565b7f646174613a6170706c69636174696f6e2f6a736f6e3b757466382c000000000081526000825161208b81601b85016020870161189f565b91909101601b0192915050565b600181815b808511156120d35781600019048211156120b9576120b9611d3f565b808516156120c657918102915b93841c939080029061209d565b509250929050565b6000826120ea57506001610635565b816120f757506000610635565b816001811461210d576002811461211757612133565b6001915050610635565b60ff84111561212857612128611d3f565b50506001821b610635565b5060208310610133831016604e8410600b8410161715612156575081810a610635565b6121608383612098565b806000190482111561217457612174611d3f565b029392505050565b6000610c8360ff8416836120db565b6000826121a857634e487b7160e01b600052601260045260246000fd5b50049056fea26469706673582212207f01dbcaf3bd65a9463b6c991d65c78cf5ebad17478d717dd482a4dbfc9f1dff64736f6c63430008180033",
					"opcodes": "PUSH1 0xC0 PUSH1 0x40 MSTORE CALLVALUE DUP1 ISZERO PUSH3 0x11 JUMPI PUSH1 0x0 DUP1 REVERT JUMPDEST POP PUSH1 0x40 MLOAD PUSH3 0x266A CODESIZE SUB DUP1 PUSH3 0x266A DUP4 CODECOPY DUP2 ADD PUSH1 0x40 DUP2 SWAP1 MSTORE PUSH3 0x34 SWAP2 PUSH3 0x175 JUMP JUMPDEST PUSH1 0x40 MLOAD DUP1 PUSH1 0x40 ADD PUSH1 0x40 MSTORE DUP1 PUSH1 0xB DUP2 MSTORE PUSH1 0x20 ADD PUSH11 0x20B0BB32A3B437B9BA32B9 PUSH1 0xA9 SHL DUP2 MSTORE POP PUSH1 0x40 MLOAD DUP1 PUSH1 0x40 ADD PUSH1 0x40 MSTORE DUP1 PUSH1 0xB DUP2 MSTORE PUSH1 0x20 ADD PUSH11 0x20A0AB22A3A427A9AA22A9 PUSH1 0xA9 SHL DUP2 MSTORE POP PUSH1 0x12 PUSH2 0x3A98 DUP5 DUP1 PUSH1 0x0 PUSH1 0x1 PUSH1 0x1 PUSH1 0xA0 SHL SUB AND DUP2 PUSH1 0x1 PUSH1 0x1 PUSH1 0xA0 SHL SUB AND SUB PUSH3 0xB7 JUMPI PUSH1 0x40 MLOAD PUSH4 0x49E27CFF PUSH1 0xE0 SHL DUP2 MSTORE PUSH1 0x4 ADD PUSH1 0x40 MLOAD DUP1 SWAP2 SUB SWAP1 REVERT JUMPDEST PUSH1 0x0 DUP1 SLOAD PUSH1 0x1 PUSH1 0x1 PUSH1 0xA0 SHL SUB NOT AND PUSH1 0x1 PUSH1 0x1 PUSH1 0xA0 SHL SUB DUP4 AND SWAP1 DUP2 OR DUP3 SSTORE PUSH1 0x40 MLOAD SWAP1 SWAP2 SWAP1 PUSH32 0x8BE0079C531659141344CD1FD0A4F28419497F9722A3DAAFE3B4186F6B6457E0 SWAP1 DUP3 SWAP1 LOG3 POP PUSH1 0x1 PUSH3 0x10E DUP7 DUP3 PUSH3 0x24E JUMP JUMPDEST POP PUSH1 0x2 PUSH3 0x11D DUP6 DUP3 PUSH3 0x24E JUMP JUMPDEST POP PUSH1 0xFF DUP4 AND PUSH1 0x80 DUP2 SWAP1 MSTORE PUSH3 0x134 SWAP1 PUSH1 0xA PUSH3 0x42F JUMP JUMPDEST PUSH3 0x140 SWAP1 DUP4 PUSH3 0x440 JUMP JUMPDEST PUSH1 0xA0 MSTORE POP POP POP PUSH1 0x1 PUSH1 0x1 PUSH1 0xA0 SHL SUB SWAP1 SWAP3 AND PUSH1 0x0 SWAP1 DUP2 MSTORE PUSH1 0x4 PUSH1 0x20 MSTORE PUSH1 0x40 SWAP1 KECCAK256 PUSH10 0x32D26D12E980B600000 SWAP1 SSTORE POP PUSH3 0x45A SWAP1 POP JUMP JUMPDEST PUSH1 0x0 PUSH1 0x20 DUP3 DUP5 SUB SLT ISZERO PUSH3 0x188 JUMPI PUSH1 0x0 DUP1 REVERT JUMPDEST DUP2 MLOAD PUSH1 0x1 PUSH1 0x1 PUSH1 0xA0 SHL SUB DUP2 AND DUP2 EQ PUSH3 0x1A0 JUMPI PUSH1 0x0 DUP1 REVERT JUMPDEST SWAP4 SWAP3 POP POP POP JUMP JUMPDEST PUSH4 0x4E487B71 PUSH1 0xE0 SHL PUSH1 0x0 MSTORE PUSH1 0x41 PUSH1 0x4 MSTORE PUSH1 0x24 PUSH1 0x0 REVERT JUMPDEST PUSH1 0x1 DUP2 DUP2 SHR SWAP1 DUP3 AND DUP1 PUSH3 0x1D2 JUMPI PUSH1 0x7F DUP3 AND SWAP2 POP JUMPDEST PUSH1 0x20 DUP3 LT DUP2 SUB PUSH3 0x1F3 JUMPI PUSH4 0x4E487B71 PUSH1 0xE0 SHL PUSH1 0x0 MSTORE PUSH1 0x22 PUSH1 0x4 MSTORE PUSH1 0x24 PUSH1 0x0 REVERT JUMPDEST POP SWAP2 SWAP1 POP JUMP JUMPDEST PUSH1 0x1F DUP3 GT ISZERO PUSH3 0x249 JUMPI PUSH1 0x0 DUP2 PUSH1 0x0 MSTORE PUSH1 0x20 PUSH1 0x0 KECCAK256 PUSH1 0x1F DUP6 ADD PUSH1 0x5 SHR DUP2 ADD PUSH1 0x20 DUP7 LT ISZERO PUSH3 0x224 JUMPI POP DUP1 JUMPDEST PUSH1 0x1F DUP6 ADD PUSH1 0x5 SHR DUP3 ADD SWAP2 POP JUMPDEST DUP2 DUP2 LT ISZERO PUSH3 0x245 JUMPI DUP3 DUP2 SSTORE PUSH1 0x1 ADD PUSH3 0x230 JUMP JUMPDEST POP POP POP JUMPDEST POP POP POP JUMP JUMPDEST DUP2 MLOAD PUSH1 0x1 PUSH1 0x1 PUSH1 0x40 SHL SUB DUP2 GT ISZERO PUSH3 0x26A JUMPI PUSH3 0x26A PUSH3 0x1A7 JUMP JUMPDEST PUSH3 0x282 DUP2 PUSH3 0x27B DUP5 SLOAD PUSH3 0x1BD JUMP JUMPDEST DUP5 PUSH3 0x1F9 JUMP JUMPDEST PUSH1 0x20 DUP1 PUSH1 0x1F DUP4 GT PUSH1 0x1 DUP2 EQ PUSH3 0x2BA JUMPI PUSH1 0x0 DUP5 ISZERO PUSH3 0x2A1 JUMPI POP DUP6 DUP4 ADD MLOAD JUMPDEST PUSH1 0x0 NOT PUSH1 0x3 DUP7 SWAP1 SHL SHR NOT AND PUSH1 0x1 DUP6 SWAP1 SHL OR DUP6 SSTORE PUSH3 0x245 JUMP JUMPDEST PUSH1 0x0 DUP6 DUP2 MSTORE PUSH1 0x20 DUP2 KECCAK256 PUSH1 0x1F NOT DUP7 AND SWAP2 JUMPDEST DUP3 DUP2 LT ISZERO PUSH3 0x2EB JUMPI DUP9 DUP7 ADD MLOAD DUP3 SSTORE SWAP5 DUP5 ADD SWAP5 PUSH1 0x1 SWAP1 SWAP2 ADD SWAP1 DUP5 ADD PUSH3 0x2CA JUMP JUMPDEST POP DUP6 DUP3 LT ISZERO PUSH3 0x30A JUMPI DUP8 DUP6 ADD MLOAD PUSH1 0x0 NOT PUSH1 0x3 DUP9 SWAP1 SHL PUSH1 0xF8 AND SHR NOT AND DUP2 SSTORE JUMPDEST POP POP POP POP POP PUSH1 0x1 SWAP1 DUP2 SHL ADD SWAP1 SSTORE POP JUMP JUMPDEST PUSH4 0x4E487B71 PUSH1 0xE0 SHL PUSH1 0x0 MSTORE PUSH1 0x11 PUSH1 0x4 MSTORE PUSH1 0x24 PUSH1 0x0 REVERT JUMPDEST PUSH1 0x1 DUP2 DUP2 JUMPDEST DUP1 DUP6 GT ISZERO PUSH3 0x371 JUMPI DUP2 PUSH1 0x0 NOT DIV DUP3 GT ISZERO PUSH3 0x355 JUMPI PUSH3 0x355 PUSH3 0x31A JUMP JUMPDEST DUP1 DUP6 AND ISZERO PUSH3 0x363 JUMPI SWAP2 DUP2 MUL SWAP2 JUMPDEST SWAP4 DUP5 SHR SWAP4 SWAP1 DUP1 MUL SWAP1 PUSH3 0x335 JUMP JUMPDEST POP SWAP3 POP SWAP3 SWAP1 POP JUMP JUMPDEST PUSH1 0x0 DUP3 PUSH3 0x38A JUMPI POP PUSH1 0x1 PUSH3 0x429 JUMP JUMPDEST DUP2 PUSH3 0x399 JUMPI POP PUSH1 0x0 PUSH3 0x429 JUMP JUMPDEST DUP2 PUSH1 0x1 DUP2 EQ PUSH3 0x3B2 JUMPI PUSH1 0x2 DUP2 EQ PUSH3 0x3BD JUMPI PUSH3 0x3DD JUMP JUMPDEST PUSH1 0x1 SWAP2 POP POP PUSH3 0x429 JUMP JUMPDEST PUSH1 0xFF DUP5 GT ISZERO PUSH3 0x3D1 JUMPI PUSH3 0x3D1 PUSH3 0x31A JUMP JUMPDEST POP POP PUSH1 0x1 DUP3 SHL PUSH3 0x429 JUMP JUMPDEST POP PUSH1 0x20 DUP4 LT PUSH2 0x133 DUP4 LT AND PUSH1 0x4E DUP5 LT PUSH1 0xB DUP5 LT AND OR ISZERO PUSH3 0x402 JUMPI POP DUP2 DUP2 EXP PUSH3 0x429 JUMP JUMPDEST PUSH3 0x40E DUP4 DUP4 PUSH3 0x330 JUMP JUMPDEST DUP1 PUSH1 0x0 NOT DIV DUP3 GT ISZERO PUSH3 0x425 JUMPI PUSH3 0x425 PUSH3 0x31A JUMP JUMPDEST MUL SWAP1 POP JUMPDEST SWAP3 SWAP2 POP POP JUMP JUMPDEST PUSH1 0x0 PUSH3 0x1A0 PUSH1 0xFF DUP5 AND DUP4 PUSH3 0x379 JUMP JUMPDEST DUP1 DUP3 MUL DUP2 ISZERO DUP3 DUP3 DIV DUP5 EQ OR PUSH3 0x429 JUMPI PUSH3 0x429 PUSH3 0x31A JUMP JUMPDEST PUSH1 0x80 MLOAD PUSH1 0xA0 MLOAD PUSH2 0x21E3 PUSH3 0x487 PUSH1 0x0 CODECOPY PUSH1 0x0 PUSH2 0x235 ADD MSTORE PUSH1 0x0 DUP2 DUP2 PUSH2 0x29A ADD MSTORE PUSH2 0x130F ADD MSTORE PUSH2 0x21E3 PUSH1 0x0 RETURN INVALID PUSH1 0x80 PUSH1 0x40 MSTORE CALLVALUE DUP1 ISZERO PUSH2 0x10 JUMPI PUSH1 0x0 DUP1 REVERT JUMPDEST POP PUSH1 0x4 CALLDATASIZE LT PUSH2 0x1A9 JUMPI PUSH1 0x0 CALLDATALOAD PUSH1 0xE0 SHR DUP1 PUSH4 0x70A08231 GT PUSH2 0xF9 JUMPI DUP1 PUSH4 0xC87B56DD GT PUSH2 0x97 JUMPI DUP1 PUSH4 0xE0DF5B6F GT PUSH2 0x71 JUMPI DUP1 PUSH4 0xE0DF5B6F EQ PUSH2 0x400 JUMPI DUP1 PUSH4 0xE985E9C5 EQ PUSH2 0x413 JUMPI DUP1 PUSH4 0xF28CA1DD EQ PUSH2 0x441 JUMPI DUP1 PUSH4 0xF2FDE38B EQ PUSH2 0x449 JUMPI PUSH1 0x0 DUP1 REVERT JUMPDEST DUP1 PUSH4 0xC87B56DD EQ PUSH2 0x3BA JUMPI DUP1 PUSH4 0xD547CFB7 EQ PUSH2 0x3CD JUMPI DUP1 PUSH4 0xDD62ED3E EQ PUSH2 0x3D5 JUMPI PUSH1 0x0 DUP1 REVERT JUMPDEST DUP1 PUSH4 0x9B19251A GT PUSH2 0xD3 JUMPI DUP1 PUSH4 0x9B19251A EQ PUSH2 0x35E JUMPI DUP1 PUSH4 0xA22CB465 EQ PUSH2 0x381 JUMPI DUP1 PUSH4 0xA9059CBB EQ PUSH2 0x394 JUMPI DUP1 PUSH4 0xB88D4FDE EQ PUSH2 0x3A7 JUMPI PUSH1 0x0 DUP1 REVERT JUMPDEST DUP1 PUSH4 0x70A08231 EQ PUSH2 0x323 JUMPI DUP1 PUSH4 0x8DA5CB5B EQ PUSH2 0x343 JUMPI DUP1 PUSH4 0x95D89B41 EQ PUSH2 0x356 JUMPI PUSH1 0x0 DUP1 REVERT JUMPDEST DUP1 PUSH4 0x2B968958 GT PUSH2 0x166 JUMPI DUP1 PUSH4 0x4F02C420 GT PUSH2 0x140 JUMPI DUP1 PUSH4 0x4F02C420 EQ PUSH2 0x2E1 JUMPI DUP1 PUSH4 0x504334C2 EQ PUSH2 0x2EA JUMPI DUP1 PUSH4 0x53D6FD59 EQ PUSH2 0x2FD JUMPI DUP1 PUSH4 0x6352211E EQ PUSH2 0x310 JUMPI PUSH1 0x0 DUP1 REVERT JUMPDEST DUP1 PUSH4 0x2B968958 EQ PUSH2 0x28D JUMPI DUP1 PUSH4 0x313CE567 EQ PUSH2 0x295 JUMPI DUP1 PUSH4 0x42842E0E EQ PUSH2 0x2CE JUMPI PUSH1 0x0 DUP1 REVERT JUMPDEST DUP1 PUSH4 0x6FDDE03 EQ PUSH2 0x1AE JUMPI DUP1 PUSH4 0x81812FC EQ PUSH2 0x1CC JUMPI DUP1 PUSH4 0x95EA7B3 EQ PUSH2 0x20D JUMPI DUP1 PUSH4 0x18160DDD EQ PUSH2 0x230 JUMPI DUP1 PUSH4 0x18D217C3 EQ PUSH2 0x265 JUMPI DUP1 PUSH4 0x23B872DD EQ PUSH2 0x27A JUMPI JUMPDEST PUSH1 0x0 DUP1 REVERT JUMPDEST PUSH2 0x1B6 PUSH2 0x45C JUMP JUMPDEST PUSH1 0x40 MLOAD PUSH2 0x1C3 SWAP2 SWAP1 PUSH2 0x18C3 JUMP JUMPDEST PUSH1 0x40 MLOAD DUP1 SWAP2 SUB SWAP1 RETURN JUMPDEST PUSH2 0x1F5 PUSH2 0x1DA CALLDATASIZE PUSH1 0x4 PUSH2 0x18F6 JUMP JUMPDEST PUSH1 0x6 PUSH1 0x20 MSTORE PUSH1 0x0 SWAP1 DUP2 MSTORE PUSH1 0x40 SWAP1 KECCAK256 SLOAD PUSH1 0x1 PUSH1 0x1 PUSH1 0xA0 SHL SUB AND DUP2 JUMP JUMPDEST PUSH1 0x40 MLOAD PUSH1 0x1 PUSH1 0x1 PUSH1 0xA0 SHL SUB SWAP1 SWAP2 AND DUP2 MSTORE PUSH1 0x20 ADD PUSH2 0x1C3 JUMP JUMPDEST PUSH2 0x220 PUSH2 0x21B CALLDATASIZE PUSH1 0x4 PUSH2 0x1926 JUMP JUMPDEST PUSH2 0x4EA JUMP JUMPDEST PUSH1 0x40 MLOAD SWAP1 ISZERO ISZERO DUP2 MSTORE PUSH1 0x20 ADD PUSH2 0x1C3 JUMP JUMPDEST PUSH2 0x257 PUSH32 0x0 DUP2 JUMP JUMPDEST PUSH1 0x40 MLOAD SWAP1 DUP2 MSTORE PUSH1 0x20 ADD PUSH2 0x1C3 JUMP JUMPDEST PUSH2 0x278 PUSH2 0x273 CALLDATASIZE PUSH1 0x4 PUSH2 0x19F3 JUMP JUMPDEST PUSH2 0x63B JUMP JUMPDEST STOP JUMPDEST PUSH2 0x278 PUSH2 0x288 CALLDATASIZE PUSH1 0x4 PUSH2 0x1A30 JUMP JUMPDEST PUSH2 0x675 JUMP JUMPDEST PUSH2 0x278 PUSH2 0x9FE JUMP JUMPDEST PUSH2 0x2BC PUSH32 0x0 DUP2 JUMP JUMPDEST PUSH1 0x40 MLOAD PUSH1 0xFF SWAP1 SWAP2 AND DUP2 MSTORE PUSH1 0x20 ADD PUSH2 0x1C3 JUMP JUMPDEST PUSH2 0x278 PUSH2 0x2DC CALLDATASIZE PUSH1 0x4 PUSH2 0x1A30 JUMP JUMPDEST PUSH2 0xA64 JUMP JUMPDEST PUSH2 0x257 PUSH1 0x3 SLOAD DUP2 JUMP JUMPDEST PUSH2 0x278 PUSH2 0x2F8 CALLDATASIZE PUSH1 0x4 PUSH2 0x1A6C JUMP JUMPDEST PUSH2 0xB39 JUMP JUMPDEST PUSH2 0x278 PUSH2 0x30B CALLDATASIZE PUSH1 0x4 PUSH2 0x1AD0 JUMP JUMPDEST PUSH2 0xB6D JUMP JUMPDEST PUSH2 0x1F5 PUSH2 0x31E CALLDATASIZE PUSH1 0x4 PUSH2 0x18F6 JUMP JUMPDEST PUSH2 0xBC2 JUMP JUMPDEST PUSH2 0x257 PUSH2 0x331 CALLDATASIZE PUSH1 0x4 PUSH2 0x1B0C JUMP JUMPDEST PUSH1 0x4 PUSH1 0x20 MSTORE PUSH1 0x0 SWAP1 DUP2 MSTORE PUSH1 0x40 SWAP1 KECCAK256 SLOAD DUP2 JUMP JUMPDEST PUSH1 0x0 SLOAD PUSH2 0x1F5 SWAP1 PUSH1 0x1 PUSH1 0x1 PUSH1 0xA0 SHL SUB AND DUP2 JUMP JUMPDEST PUSH2 0x1B6 PUSH2 0xBFD JUMP JUMPDEST PUSH2 0x220 PUSH2 0x36C CALLDATASIZE PUSH1 0x4 PUSH2 0x1B0C JUMP JUMPDEST PUSH1 0xB PUSH1 0x20 MSTORE PUSH1 0x0 SWAP1 DUP2 MSTORE PUSH1 0x40 SWAP1 KECCAK256 SLOAD PUSH1 0xFF AND DUP2 JUMP JUMPDEST PUSH2 0x278 PUSH2 0x38F CALLDATASIZE PUSH1 0x4 PUSH2 0x1AD0 JUMP JUMPDEST PUSH2 0xC0A JUMP JUMPDEST PUSH2 0x220 PUSH2 0x3A2 CALLDATASIZE PUSH1 0x4 PUSH2 0x1926 JUMP JUMPDEST PUSH2 0xC76 JUMP JUMPDEST PUSH2 0x278 PUSH2 0x3B5 CALLDATASIZE PUSH1 0x4 PUSH2 0x1B27 JUMP JUMPDEST PUSH2 0xC8A JUMP JUMPDEST PUSH2 0x1B6 PUSH2 0x3C8 CALLDATASIZE PUSH1 0x4 PUSH2 0x18F6 JUMP JUMPDEST PUSH2 0xD4D JUMP JUMPDEST PUSH2 0x1B6 PUSH2 0x121C JUMP JUMPDEST PUSH2 0x257 PUSH2 0x3E3 CALLDATASIZE PUSH1 0x4 PUSH2 0x1BC2 JUMP JUMPDEST PUSH1 0x5 PUSH1 0x20 SWAP1 DUP2 MSTORE PUSH1 0x0 SWAP3 DUP4 MSTORE PUSH1 0x40 DUP1 DUP5 KECCAK256 SWAP1 SWAP2 MSTORE SWAP1 DUP3 MSTORE SWAP1 KECCAK256 SLOAD DUP2 JUMP JUMPDEST PUSH2 0x278 PUSH2 0x40E CALLDATASIZE PUSH1 0x4 PUSH2 0x19F3 JUMP JUMPDEST PUSH2 0x1229 JUMP JUMPDEST PUSH2 0x220 PUSH2 0x421 CALLDATASIZE PUSH1 0x4 PUSH2 0x1BC2 JUMP JUMPDEST PUSH1 0x7 PUSH1 0x20 SWAP1 DUP2 MSTORE PUSH1 0x0 SWAP3 DUP4 MSTORE PUSH1 0x40 DUP1 DUP5 KECCAK256 SWAP1 SWAP2 MSTORE SWAP1 DUP3 MSTORE SWAP1 KECCAK256 SLOAD PUSH1 0xFF AND DUP2 JUMP JUMPDEST PUSH2 0x1B6 PUSH2 0x125F JUMP JUMPDEST PUSH2 0x278 PUSH2 0x457 CALLDATASIZE PUSH1 0x4 PUSH2 0x1B0C JUMP JUMPDEST PUSH2 0x126C JUMP JUMPDEST PUSH1 0x1 DUP1 SLOAD PUSH2 0x469 SWAP1 PUSH2 0x1BF5 JUMP JUMPDEST DUP1 PUSH1 0x1F ADD PUSH1 0x20 DUP1 SWAP2 DIV MUL PUSH1 0x20 ADD PUSH1 0x40 MLOAD SWAP1 DUP2 ADD PUSH1 0x40 MSTORE DUP1 SWAP3 SWAP2 SWAP1 DUP2 DUP2 MSTORE PUSH1 0x20 ADD DUP3 DUP1 SLOAD PUSH2 0x495 SWAP1 PUSH2 0x1BF5 JUMP JUMPDEST DUP1 ISZERO PUSH2 0x4E2 JUMPI DUP1 PUSH1 0x1F LT PUSH2 0x4B7 JUMPI PUSH2 0x100 DUP1 DUP4 SLOAD DIV MUL DUP4 MSTORE SWAP2 PUSH1 0x20 ADD SWAP2 PUSH2 0x4E2 JUMP JUMPDEST DUP3 ADD SWAP2 SWAP1 PUSH1 0x0 MSTORE PUSH1 0x20 PUSH1 0x0 KECCAK256 SWAP1 JUMPDEST DUP2 SLOAD DUP2 MSTORE SWAP1 PUSH1 0x1 ADD SWAP1 PUSH1 0x20 ADD DUP1 DUP4 GT PUSH2 0x4C5 JUMPI DUP3 SWAP1 SUB PUSH1 0x1F AND DUP3 ADD SWAP2 JUMPDEST POP POP POP POP POP DUP2 JUMP JUMPDEST PUSH1 0x0 PUSH1 0x3 SLOAD DUP3 GT ISZERO DUP1 ISZERO PUSH2 0x4FE JUMPI POP PUSH1 0x0 DUP3 GT JUMPDEST ISZERO PUSH2 0x5D5 JUMPI PUSH1 0x0 DUP3 DUP2 MSTORE PUSH1 0x8 PUSH1 0x20 MSTORE PUSH1 0x40 SWAP1 KECCAK256 SLOAD PUSH1 0x1 PUSH1 0x1 PUSH1 0xA0 SHL SUB AND CALLER DUP2 EQ DUP1 ISZERO SWAP1 PUSH2 0x54F JUMPI POP PUSH1 0x1 PUSH1 0x1 PUSH1 0xA0 SHL SUB DUP2 AND PUSH1 0x0 SWAP1 DUP2 MSTORE PUSH1 0x7 PUSH1 0x20 SWAP1 DUP2 MSTORE PUSH1 0x40 DUP1 DUP4 KECCAK256 CALLER DUP5 MSTORE SWAP1 SWAP2 MSTORE SWAP1 KECCAK256 SLOAD PUSH1 0xFF AND ISZERO JUMPDEST ISZERO PUSH2 0x56C JUMPI PUSH1 0x40 MLOAD PUSH3 0x82B429 PUSH1 0xE8 SHL DUP2 MSTORE PUSH1 0x4 ADD PUSH1 0x40 MLOAD DUP1 SWAP2 SUB SWAP1 REVERT JUMPDEST PUSH1 0x0 DUP4 DUP2 MSTORE PUSH1 0x6 PUSH1 0x20 SWAP1 DUP2 MSTORE PUSH1 0x40 SWAP2 DUP3 SWAP1 KECCAK256 DUP1 SLOAD PUSH1 0x1 PUSH1 0x1 PUSH1 0xA0 SHL SUB NOT AND PUSH1 0x1 PUSH1 0x1 PUSH1 0xA0 SHL SUB DUP9 DUP2 AND SWAP2 DUP3 OR SWAP1 SWAP3 SSTORE SWAP3 MLOAD DUP7 DUP2 MSTORE SWAP1 DUP5 AND SWAP2 PUSH32 0x8C5BE1E5EBEC7D5BD14F71427D1E84F3DD0314C0F7B2291E5B200AC8C7C3B925 SWAP2 ADD PUSH1 0x40 MLOAD DUP1 SWAP2 SUB SWAP1 LOG3 POP PUSH2 0x631 JUMP JUMPDEST CALLER PUSH1 0x0 DUP2 DUP2 MSTORE PUSH1 0x5 PUSH1 0x20 SWAP1 DUP2 MSTORE PUSH1 0x40 DUP1 DUP4 KECCAK256 PUSH1 0x1 PUSH1 0x1 PUSH1 0xA0 SHL SUB DUP9 AND DUP1 DUP6 MSTORE SWAP1 DUP4 MSTORE SWAP3 DUP2 SWAP1 KECCAK256 DUP7 SWAP1 SSTORE MLOAD DUP6 DUP2 MSTORE SWAP2 SWAP3 SWAP2 PUSH32 0x8C5BE1E5EBEC7D5BD14F71427D1E84F3DD0314C0F7B2291E5B200AC8C7C3B925 SWAP2 ADD PUSH1 0x40 MLOAD DUP1 SWAP2 SUB SWAP1 LOG3 JUMPDEST POP PUSH1 0x1 JUMPDEST SWAP3 SWAP2 POP POP JUMP JUMPDEST PUSH1 0x0 SLOAD PUSH1 0x1 PUSH1 0x1 PUSH1 0xA0 SHL SUB AND CALLER EQ PUSH2 0x665 JUMPI PUSH1 0x40 MLOAD PUSH3 0x82B429 PUSH1 0xE8 SHL DUP2 MSTORE PUSH1 0x4 ADD PUSH1 0x40 MLOAD DUP1 SWAP2 SUB SWAP1 REVERT JUMPDEST PUSH1 0xC PUSH2 0x671 DUP3 DUP3 PUSH2 0x1C7F JUMP JUMPDEST POP POP JUMP JUMPDEST PUSH1 0x3 SLOAD DUP2 GT PUSH2 0x98F JUMPI PUSH1 0x0 DUP2 DUP2 MSTORE PUSH1 0x8 PUSH1 0x20 MSTORE PUSH1 0x40 SWAP1 KECCAK256 SLOAD PUSH1 0x1 PUSH1 0x1 PUSH1 0xA0 SHL SUB DUP5 DUP2 AND SWAP2 AND EQ PUSH2 0x6B8 JUMPI PUSH1 0x40 MLOAD PUSH4 0x6EDAEF2F PUSH1 0xE1 SHL DUP2 MSTORE PUSH1 0x4 ADD PUSH1 0x40 MLOAD DUP1 SWAP2 SUB SWAP1 REVERT JUMPDEST PUSH1 0x1 PUSH1 0x1 PUSH1 0xA0 SHL SUB DUP3 AND PUSH2 0x6DF JUMPI PUSH1 0x40 MLOAD PUSH4 0x4E469669 PUSH1 0xE1 SHL DUP2 MSTORE PUSH1 0x4 ADD PUSH1 0x40 MLOAD DUP1 SWAP2 SUB SWAP1 REVERT JUMPDEST CALLER PUSH1 0x1 PUSH1 0x1 PUSH1 0xA0 SHL SUB DUP5 AND EQ DUP1 ISZERO SWAP1 PUSH2 0x71C JUMPI POP PUSH1 0x1 PUSH1 0x1 PUSH1 0xA0 SHL SUB DUP4 AND PUSH1 0x0 SWAP1 DUP2 MSTORE PUSH1 0x7 PUSH1 0x20 SWAP1 DUP2 MSTORE PUSH1 0x40 DUP1 DUP4 KECCAK256 CALLER DUP5 MSTORE SWAP1 SWAP2 MSTORE SWAP1 KECCAK256 SLOAD PUSH1 0xFF AND ISZERO JUMPDEST DUP1 ISZERO PUSH2 0x73F JUMPI POP PUSH1 0x0 DUP2 DUP2 MSTORE PUSH1 0x6 PUSH1 0x20 MSTORE PUSH1 0x40 SWAP1 KECCAK256 SLOAD PUSH1 0x1 PUSH1 0x1 PUSH1 0xA0 SHL SUB AND CALLER EQ ISZERO JUMPDEST ISZERO PUSH2 0x75C JUMPI PUSH1 0x40 MLOAD PUSH3 0x82B429 PUSH1 0xE8 SHL DUP2 MSTORE PUSH1 0x4 ADD PUSH1 0x40 MLOAD DUP1 SWAP2 SUB SWAP1 REVERT JUMPDEST PUSH2 0x764 PUSH2 0x1308 JUMP JUMPDEST PUSH1 0x1 PUSH1 0x1 PUSH1 0xA0 SHL SUB DUP5 AND PUSH1 0x0 SWAP1 DUP2 MSTORE PUSH1 0x4 PUSH1 0x20 MSTORE PUSH1 0x40 DUP2 KECCAK256 DUP1 SLOAD SWAP1 SWAP2 SWAP1 PUSH2 0x78C SWAP1 DUP5 SWAP1 PUSH2 0x1D55 JUMP JUMPDEST SWAP1 SWAP2 SSTORE POP PUSH2 0x79A SWAP1 POP PUSH2 0x1308 JUMP JUMPDEST PUSH1 0x1 PUSH1 0x1 PUSH1 0xA0 SHL SUB DUP1 DUP5 AND PUSH1 0x0 DUP2 DUP2 MSTORE PUSH1 0x4 PUSH1 0x20 SWAP1 DUP2 MSTORE PUSH1 0x40 DUP1 DUP4 KECCAK256 DUP1 SLOAD SWAP1 SWAP7 ADD SWAP1 SWAP6 SSTORE DUP6 DUP3 MSTORE PUSH1 0x8 DUP2 MSTORE DUP5 DUP3 KECCAK256 DUP1 SLOAD PUSH1 0x1 PUSH1 0x1 PUSH1 0xA0 SHL SUB NOT SWAP1 DUP2 AND SWAP1 SWAP5 OR SWAP1 SSTORE PUSH1 0x6 DUP2 MSTORE DUP5 DUP3 KECCAK256 DUP1 SLOAD SWAP1 SWAP4 AND SWAP1 SWAP3 SSTORE SWAP2 DUP7 AND DUP3 MSTORE PUSH1 0x9 SWAP1 MSTORE SWAP1 DUP2 KECCAK256 DUP1 SLOAD PUSH2 0x804 SWAP1 PUSH1 0x1 SWAP1 PUSH2 0x1D55 JUMP JUMPDEST DUP2 SLOAD DUP2 LT PUSH2 0x814 JUMPI PUSH2 0x814 PUSH2 0x1D68 JUMP JUMPDEST PUSH1 0x0 SWAP2 DUP3 MSTORE PUSH1 0x20 DUP1 DUP4 KECCAK256 SWAP1 SWAP2 ADD SLOAD PUSH1 0x1 PUSH1 0x1 PUSH1 0xA0 SHL SUB DUP8 AND DUP4 MSTORE PUSH1 0x9 DUP3 MSTORE PUSH1 0x40 DUP1 DUP5 KECCAK256 DUP7 DUP6 MSTORE PUSH1 0xA SWAP1 SWAP4 MSTORE SWAP1 SWAP3 KECCAK256 SLOAD DUP2 SLOAD SWAP3 SWAP4 POP DUP4 SWAP3 DUP2 LT PUSH2 0x858 JUMPI PUSH2 0x858 PUSH2 0x1D68 JUMP JUMPDEST PUSH1 0x0 SWAP2 DUP3 MSTORE PUSH1 0x20 DUP1 DUP4 KECCAK256 SWAP1 SWAP2 ADD SWAP3 SWAP1 SWAP3 SSTORE PUSH1 0x1 PUSH1 0x1 PUSH1 0xA0 SHL SUB DUP7 AND DUP2 MSTORE PUSH1 0x9 SWAP1 SWAP2 MSTORE PUSH1 0x40 SWAP1 KECCAK256 DUP1 SLOAD DUP1 PUSH2 0x88D JUMPI PUSH2 0x88D PUSH2 0x1D7E JUMP JUMPDEST PUSH1 0x0 DUP3 DUP2 MSTORE PUSH1 0x20 DUP1 DUP3 KECCAK256 DUP4 ADD PUSH1 0x0 NOT SWAP1 DUP2 ADD DUP4 SWAP1 SSTORE SWAP1 SWAP3 ADD SWAP1 SWAP3 SSTORE DUP4 DUP3 MSTORE PUSH1 0xA DUP2 MSTORE PUSH1 0x40 DUP1 DUP4 KECCAK256 SLOAD DUP5 DUP5 MSTORE DUP2 DUP5 KECCAK256 SSTORE PUSH1 0x1 PUSH1 0x1 PUSH1 0xA0 SHL SUB DUP7 AND DUP1 DUP5 MSTORE PUSH1 0x9 DUP4 MSTORE SWAP1 DUP4 KECCAK256 DUP1 SLOAD PUSH1 0x1 DUP2 DUP2 ADD DUP4 SSTORE DUP3 DUP7 MSTORE SWAP4 DUP6 KECCAK256 ADD DUP7 SWAP1 SSTORE SWAP3 MSTORE SWAP1 SLOAD PUSH2 0x8F1 SWAP2 SWAP1 PUSH2 0x1D55 JUMP JUMPDEST PUSH1 0x0 DUP4 DUP2 MSTORE PUSH1 0xA PUSH1 0x20 MSTORE PUSH1 0x40 DUP1 DUP3 KECCAK256 SWAP3 SWAP1 SWAP3 SSTORE SWAP1 MLOAD DUP4 SWAP2 PUSH1 0x1 PUSH1 0x1 PUSH1 0xA0 SHL SUB DUP1 DUP8 AND SWAP3 SWAP1 DUP9 AND SWAP2 PUSH32 0xDDF252AD1BE2C89B69C2B068FC378DAA952BA7F163C4A11628F55A4DF523B3EF SWAP2 LOG4 DUP3 PUSH1 0x1 PUSH1 0x1 PUSH1 0xA0 SHL SUB AND DUP5 PUSH1 0x1 PUSH1 0x1 PUSH1 0xA0 SHL SUB AND PUSH32 0xE59FDD36D0D223C0C7D996DB7AD796880F45E1936CB0BB7AC102E7082E031487 PUSH2 0x978 PUSH2 0x1308 JUMP JUMPDEST PUSH1 0x40 MLOAD SWAP1 DUP2 MSTORE PUSH1 0x20 ADD PUSH1 0x40 MLOAD DUP1 SWAP2 SUB SWAP1 LOG3 POP POP POP POP JUMP JUMPDEST PUSH1 0x1 PUSH1 0x1 PUSH1 0xA0 SHL SUB DUP4 AND PUSH1 0x0 SWAP1 DUP2 MSTORE PUSH1 0x5 PUSH1 0x20 SWAP1 DUP2 MSTORE PUSH1 0x40 DUP1 DUP4 KECCAK256 CALLER DUP5 MSTORE SWAP1 SWAP2 MSTORE SWAP1 KECCAK256 SLOAD PUSH1 0x0 NOT DUP2 EQ PUSH2 0x9EB JUMPI PUSH2 0x9C6 DUP3 DUP3 PUSH2 0x1D55 JUMP JUMPDEST PUSH1 0x1 PUSH1 0x1 PUSH1 0xA0 SHL SUB DUP6 AND PUSH1 0x0 SWAP1 DUP2 MSTORE PUSH1 0x5 PUSH1 0x20 SWAP1 DUP2 MSTORE PUSH1 0x40 DUP1 DUP4 KECCAK256 CALLER DUP5 MSTORE SWAP1 SWAP2 MSTORE SWAP1 KECCAK256 SSTORE JUMPDEST PUSH2 0x9F6 DUP5 DUP5 DUP5 PUSH2 0x133A JUMP JUMPDEST POP POP JUMPDEST POP POP POP JUMP JUMPDEST PUSH1 0x0 SLOAD PUSH1 0x1 PUSH1 0x1 PUSH1 0xA0 SHL SUB AND CALLER EQ PUSH2 0xA28 JUMPI PUSH1 0x40 MLOAD PUSH3 0x82B429 PUSH1 0xE8 SHL DUP2 MSTORE PUSH1 0x4 ADD PUSH1 0x40 MLOAD DUP1 SWAP2 SUB SWAP1 REVERT JUMPDEST PUSH1 0x0 DUP1 SLOAD PUSH1 0x1 PUSH1 0x1 PUSH1 0xA0 SHL SUB NOT AND DUP2 SSTORE PUSH1 0x40 MLOAD CALLER SWAP1 PUSH32 0x8BE0079C531659141344CD1FD0A4F28419497F9722A3DAAFE3B4186F6B6457E0 SWAP1 DUP4 SWAP1 LOG3 JUMP JUMPDEST PUSH2 0xA6F DUP4 DUP4 DUP4 PUSH2 0x675 JUMP JUMPDEST PUSH1 0x1 PUSH1 0x1 PUSH1 0xA0 SHL SUB DUP3 AND EXTCODESIZE ISZERO DUP1 ISZERO SWAP1 PUSH2 0xB1B JUMPI POP PUSH1 0x40 MLOAD PUSH4 0xA85BD01 PUSH1 0xE1 SHL DUP1 DUP3 MSTORE CALLER PUSH1 0x4 DUP4 ADD MSTORE PUSH1 0x1 PUSH1 0x1 PUSH1 0xA0 SHL SUB DUP6 DUP2 AND PUSH1 0x24 DUP5 ADD MSTORE PUSH1 0x44 DUP4 ADD DUP5 SWAP1 MSTORE PUSH1 0x80 PUSH1 0x64 DUP5 ADD MSTORE PUSH1 0x0 PUSH1 0x84 DUP5 ADD MSTORE SWAP1 SWAP2 SWAP1 DUP5 AND SWAP1 PUSH4 0x150B7A02 SWAP1 PUSH1 0xA4 ADD PUSH1 0x20 PUSH1 0x40 MLOAD DUP1 DUP4 SUB DUP2 PUSH1 0x0 DUP8 GAS CALL ISZERO DUP1 ISZERO PUSH2 0xAEA JUMPI RETURNDATASIZE PUSH1 0x0 DUP1 RETURNDATACOPY RETURNDATASIZE PUSH1 0x0 REVERT JUMPDEST POP POP POP POP PUSH1 0x40 MLOAD RETURNDATASIZE PUSH1 0x1F NOT PUSH1 0x1F DUP3 ADD AND DUP3 ADD DUP1 PUSH1 0x40 MSTORE POP DUP2 ADD SWAP1 PUSH2 0xB0E SWAP2 SWAP1 PUSH2 0x1D94 JUMP JUMPDEST PUSH1 0x1 PUSH1 0x1 PUSH1 0xE0 SHL SUB NOT AND EQ ISZERO JUMPDEST ISZERO PUSH2 0x9F9 JUMPI PUSH1 0x40 MLOAD PUSH4 0x3DA63931 PUSH1 0xE0 SHL DUP2 MSTORE PUSH1 0x4 ADD PUSH1 0x40 MLOAD DUP1 SWAP2 SUB SWAP1 REVERT JUMPDEST PUSH1 0x0 SLOAD PUSH1 0x1 PUSH1 0x1 PUSH1 0xA0 SHL SUB AND CALLER EQ PUSH2 0xB63 JUMPI PUSH1 0x40 MLOAD PUSH3 0x82B429 PUSH1 0xE8 SHL DUP2 MSTORE PUSH1 0x4 ADD PUSH1 0x40 MLOAD DUP1 SWAP2 SUB SWAP1 REVERT JUMPDEST PUSH2 0x671 DUP3 DUP3 PUSH2 0x14E8 JUMP JUMPDEST PUSH1 0x0 SLOAD PUSH1 0x1 PUSH1 0x1 PUSH1 0xA0 SHL SUB AND CALLER EQ PUSH2 0xB97 JUMPI PUSH1 0x40 MLOAD PUSH3 0x82B429 PUSH1 0xE8 SHL DUP2 MSTORE PUSH1 0x4 ADD PUSH1 0x40 MLOAD DUP1 SWAP2 SUB SWAP1 REVERT JUMPDEST PUSH1 0x1 PUSH1 0x1 PUSH1 0xA0 SHL SUB SWAP2 SWAP1 SWAP2 AND PUSH1 0x0 SWAP1 DUP2 MSTORE PUSH1 0xB PUSH1 0x20 MSTORE PUSH1 0x40 SWAP1 KECCAK256 DUP1 SLOAD PUSH1 0xFF NOT AND SWAP2 ISZERO ISZERO SWAP2 SWAP1 SWAP2 OR SWAP1 SSTORE JUMP JUMPDEST PUSH1 0x0 DUP2 DUP2 MSTORE PUSH1 0x8 PUSH1 0x20 MSTORE PUSH1 0x40 SWAP1 KECCAK256 SLOAD PUSH1 0x1 PUSH1 0x1 PUSH1 0xA0 SHL SUB AND DUP1 PUSH2 0xBF8 JUMPI PUSH1 0x40 MLOAD PUSH4 0xC5723B51 PUSH1 0xE0 SHL DUP2 MSTORE PUSH1 0x4 ADD PUSH1 0x40 MLOAD DUP1 SWAP2 SUB SWAP1 REVERT JUMPDEST SWAP2 SWAP1 POP JUMP JUMPDEST PUSH1 0x2 DUP1 SLOAD PUSH2 0x469 SWAP1 PUSH2 0x1BF5 JUMP JUMPDEST CALLER PUSH1 0x0 DUP2 DUP2 MSTORE PUSH1 0x7 PUSH1 0x20 SWAP1 DUP2 MSTORE PUSH1 0x40 DUP1 DUP4 KECCAK256 PUSH1 0x1 PUSH1 0x1 PUSH1 0xA0 SHL SUB DUP8 AND DUP1 DUP6 MSTORE SWAP1 DUP4 MSTORE SWAP3 DUP2 SWAP1 KECCAK256 DUP1 SLOAD PUSH1 0xFF NOT AND DUP7 ISZERO ISZERO SWAP1 DUP2 OR SWAP1 SWAP2 SSTORE SWAP1 MLOAD SWAP1 DUP2 MSTORE SWAP2 SWAP3 SWAP2 PUSH32 0x17307EAB39AB6107E8899845AD3D59BD9653F200F220920489CA2B5937696C31 SWAP2 ADD PUSH1 0x40 MLOAD DUP1 SWAP2 SUB SWAP1 LOG3 POP POP JUMP JUMPDEST PUSH1 0x0 PUSH2 0xC83 CALLER DUP5 DUP5 PUSH2 0x133A JUMP JUMPDEST SWAP4 SWAP3 POP POP POP JUMP JUMPDEST PUSH2 0xC95 DUP6 DUP6 DUP6 PUSH2 0x675 JUMP JUMPDEST PUSH1 0x1 PUSH1 0x1 PUSH1 0xA0 SHL SUB DUP5 AND EXTCODESIZE ISZERO DUP1 ISZERO SWAP1 PUSH2 0xD2F JUMPI POP PUSH1 0x40 MLOAD PUSH4 0xA85BD01 PUSH1 0xE1 SHL DUP1 DUP3 MSTORE SWAP1 PUSH1 0x1 PUSH1 0x1 PUSH1 0xA0 SHL SUB DUP7 AND SWAP1 PUSH4 0x150B7A02 SWAP1 PUSH2 0xCDF SWAP1 CALLER SWAP1 DUP11 SWAP1 DUP10 SWAP1 DUP10 SWAP1 DUP10 SWAP1 PUSH1 0x4 ADD PUSH2 0x1DBE JUMP JUMPDEST PUSH1 0x20 PUSH1 0x40 MLOAD DUP1 DUP4 SUB DUP2 PUSH1 0x0 DUP8 GAS CALL ISZERO DUP1 ISZERO PUSH2 0xCFE JUMPI RETURNDATASIZE PUSH1 0x0 DUP1 RETURNDATACOPY RETURNDATASIZE PUSH1 0x0 REVERT JUMPDEST POP POP POP POP PUSH1 0x40 MLOAD RETURNDATASIZE PUSH1 0x1F NOT PUSH1 0x1F DUP3 ADD AND DUP3 ADD DUP1 PUSH1 0x40 MSTORE POP DUP2 ADD SWAP1 PUSH2 0xD22 SWAP2 SWAP1 PUSH2 0x1D94 JUMP JUMPDEST PUSH1 0x1 PUSH1 0x1 PUSH1 0xE0 SHL SUB NOT AND EQ ISZERO JUMPDEST ISZERO PUSH2 0x9F6 JUMPI PUSH1 0x40 MLOAD PUSH4 0x3DA63931 PUSH1 0xE0 SHL DUP2 MSTORE PUSH1 0x4 ADD PUSH1 0x40 MLOAD DUP1 SWAP2 SUB SWAP1 REVERT JUMPDEST PUSH1 0x60 PUSH1 0x0 PUSH1 0xD DUP1 SLOAD PUSH2 0xD5E SWAP1 PUSH2 0x1BF5 JUMP JUMPDEST SWAP1 POP GT ISZERO PUSH2 0xD98 JUMPI PUSH1 0xD PUSH2 0xD71 DUP4 PUSH2 0x1501 JUMP JUMPDEST PUSH1 0x40 MLOAD PUSH1 0x20 ADD PUSH2 0xD82 SWAP3 SWAP2 SWAP1 PUSH2 0x1E12 JUMP JUMPDEST PUSH1 0x40 MLOAD PUSH1 0x20 DUP2 DUP4 SUB SUB DUP2 MSTORE SWAP1 PUSH1 0x40 MSTORE SWAP1 POP SWAP2 SWAP1 POP JUMP JUMPDEST PUSH1 0x0 DUP3 PUSH1 0x40 MLOAD PUSH1 0x20 ADD PUSH2 0xDAD SWAP2 DUP2 MSTORE PUSH1 0x20 ADD SWAP1 JUMP JUMPDEST PUSH1 0x40 MLOAD PUSH1 0x20 DUP2 DUP4 SUB SUB DUP2 MSTORE SWAP1 PUSH1 0x40 MSTORE DUP1 MLOAD SWAP1 PUSH1 0x20 ADD KECCAK256 PUSH1 0xF8 SHR SWAP1 POP PUSH1 0x60 DUP1 PUSH1 0x64 DUP4 PUSH1 0xFF AND GT PUSH2 0xE1B JUMPI PUSH1 0x40 MLOAD DUP1 PUSH1 0x40 ADD PUSH1 0x40 MSTORE DUP1 PUSH1 0x5 DUP2 MSTORE PUSH1 0x20 ADD PUSH5 0x312E706E67 PUSH1 0xD8 SHL DUP2 MSTORE POP SWAP2 POP PUSH1 0x40 MLOAD DUP1 PUSH1 0x40 ADD PUSH1 0x40 MSTORE DUP1 PUSH1 0x5 DUP2 MSTORE PUSH1 0x20 ADD PUSH5 0x23B932B2B7 PUSH1 0xD9 SHL DUP2 MSTORE POP SWAP1 POP PUSH2 0x10ED JUMP JUMPDEST PUSH1 0xA0 DUP4 PUSH1 0xFF AND GT PUSH2 0xE6A JUMPI PUSH1 0x40 MLOAD DUP1 PUSH1 0x40 ADD PUSH1 0x40 MSTORE DUP1 PUSH1 0x5 DUP2 MSTORE PUSH1 0x20 ADD PUSH5 0x322E706E67 PUSH1 0xD8 SHL DUP2 MSTORE POP SWAP2 POP PUSH1 0x40 MLOAD DUP1 PUSH1 0x40 ADD PUSH1 0x40 MSTORE DUP1 PUSH1 0x4 DUP2 MSTORE PUSH1 0x20 ADD PUSH4 0x426C7565 PUSH1 0xE0 SHL DUP2 MSTORE POP SWAP1 POP PUSH2 0x10ED JUMP JUMPDEST PUSH1 0xD2 DUP4 PUSH1 0xFF AND GT PUSH2 0xEBB JUMPI PUSH1 0x40 MLOAD DUP1 PUSH1 0x40 ADD PUSH1 0x40 MSTORE DUP1 PUSH1 0x5 DUP2 MSTORE PUSH1 0x20 ADD PUSH5 0x332E706E67 PUSH1 0xD8 SHL DUP2 MSTORE POP SWAP2 POP PUSH1 0x40 MLOAD DUP1 PUSH1 0x40 ADD PUSH1 0x40 MSTORE DUP1 PUSH1 0x6 DUP2 MSTORE PUSH1 0x20 ADD PUSH6 0x507572706C65 PUSH1 0xD0 SHL DUP2 MSTORE POP SWAP1 POP PUSH2 0x10ED JUMP JUMPDEST PUSH1 0xF0 DUP4 PUSH1 0xFF AND GT PUSH2 0xF0C JUMPI PUSH1 0x40 MLOAD DUP1 PUSH1 0x40 ADD PUSH1 0x40 MSTORE DUP1 PUSH1 0x5 DUP2 MSTORE PUSH1 0x20 ADD PUSH5 0x342E706E67 PUSH1 0xD8 SHL DUP2 MSTORE POP SWAP2 POP PUSH1 0x40 MLOAD DUP1 PUSH1 0x40 ADD PUSH1 0x40 MSTORE DUP1 PUSH1 0x6 DUP2 MSTORE PUSH1 0x20 ADD PUSH6 0x4F72616E6765 PUSH1 0xD0 SHL DUP2 MSTORE POP SWAP1 POP PUSH2 0x10ED JUMP JUMPDEST PUSH1 0xFF DUP4 PUSH1 0xFF AND GT PUSH2 0xF5A JUMPI PUSH1 0x40 MLOAD DUP1 PUSH1 0x40 ADD PUSH1 0x40 MSTORE DUP1 PUSH1 0x5 DUP2 MSTORE PUSH1 0x20 ADD PUSH5 0x352E706E67 PUSH1 0xD8 SHL DUP2 MSTORE POP SWAP2 POP PUSH1 0x40 MLOAD DUP1 PUSH1 0x40 ADD PUSH1 0x40 MSTORE DUP1 PUSH1 0x3 DUP2 MSTORE PUSH1 0x20 ADD PUSH3 0x149959 PUSH1 0xEA SHL DUP2 MSTORE POP SWAP1 POP PUSH2 0x10ED JUMP JUMPDEST PUSH2 0x12C DUP4 PUSH1 0xFF AND GT PUSH2 0xFAB JUMPI PUSH1 0x40 MLOAD DUP1 PUSH1 0x40 ADD PUSH1 0x40 MSTORE DUP1 PUSH1 0x5 DUP2 MSTORE PUSH1 0x20 ADD PUSH5 0x362E706E67 PUSH1 0xD8 SHL DUP2 MSTORE POP SWAP2 POP PUSH1 0x40 MLOAD DUP1 PUSH1 0x40 ADD PUSH1 0x40 MSTORE DUP1 PUSH1 0x5 DUP2 MSTORE PUSH1 0x20 ADD PUSH5 0x5768697465 PUSH1 0xD8 SHL DUP2 MSTORE POP SWAP1 POP PUSH2 0x10ED JUMP JUMPDEST PUSH2 0x168 DUP4 PUSH1 0xFF AND GT PUSH2 0xFFC JUMPI PUSH1 0x40 MLOAD DUP1 PUSH1 0x40 ADD PUSH1 0x40 MSTORE DUP1 PUSH1 0x5 DUP2 MSTORE PUSH1 0x20 ADD PUSH5 0x372E706E67 PUSH1 0xD8 SHL DUP2 MSTORE POP SWAP2 POP PUSH1 0x40 MLOAD DUP1 PUSH1 0x40 ADD PUSH1 0x40 MSTORE DUP1 PUSH1 0x5 DUP2 MSTORE PUSH1 0x20 ADD PUSH5 0x426C61636B PUSH1 0xD8 SHL DUP2 MSTORE POP SWAP1 POP PUSH2 0x10ED JUMP JUMPDEST PUSH2 0x19A DUP4 PUSH1 0xFF AND GT PUSH2 0x104C JUMPI PUSH1 0x40 MLOAD DUP1 PUSH1 0x40 ADD PUSH1 0x40 MSTORE DUP1 PUSH1 0x5 DUP2 MSTORE PUSH1 0x20 ADD PUSH5 0x382E706E67 PUSH1 0xD8 SHL DUP2 MSTORE POP SWAP2 POP PUSH1 0x40 MLOAD DUP1 PUSH1 0x40 ADD PUSH1 0x40 MSTORE DUP1 PUSH1 0x4 DUP2 MSTORE PUSH1 0x20 ADD PUSH4 0x50696E6B PUSH1 0xE0 SHL DUP2 MSTORE POP SWAP1 POP PUSH2 0x10ED JUMP JUMPDEST PUSH2 0x1C2 DUP4 PUSH1 0xFF AND GT PUSH2 0x109E JUMPI PUSH1 0x40 MLOAD DUP1 PUSH1 0x40 ADD PUSH1 0x40 MSTORE DUP1 PUSH1 0x5 DUP2 MSTORE PUSH1 0x20 ADD PUSH5 0x392E706E67 PUSH1 0xD8 SHL DUP2 MSTORE POP SWAP2 POP PUSH1 0x40 MLOAD DUP1 PUSH1 0x40 ADD PUSH1 0x40 MSTORE DUP1 PUSH1 0x6 DUP2 MSTORE PUSH1 0x20 ADD PUSH6 0x59656C6C6F77 PUSH1 0xD0 SHL DUP2 MSTORE POP SWAP1 POP PUSH2 0x10ED JUMP JUMPDEST PUSH2 0x1FE DUP4 PUSH1 0xFF AND GT PUSH2 0x10ED JUMPI PUSH1 0x40 MLOAD DUP1 PUSH1 0x40 ADD PUSH1 0x40 MSTORE DUP1 PUSH1 0x6 DUP2 MSTORE PUSH1 0x20 ADD PUSH6 0x31302E706E67 PUSH1 0xD0 SHL DUP2 MSTORE POP SWAP2 POP PUSH1 0x40 MLOAD DUP1 PUSH1 0x40 ADD PUSH1 0x40 MSTORE DUP1 PUSH1 0x6 DUP2 MSTORE PUSH1 0x20 ADD PUSH6 0x159A5BDB195D PUSH1 0xD2 SHL DUP2 MSTORE POP SWAP1 POP JUMPDEST PUSH1 0x0 PUSH2 0x10F8 DUP7 PUSH2 0x1501 JUMP JUMPDEST PUSH1 0x40 MLOAD PUSH1 0x20 ADD PUSH2 0x1108 SWAP2 SWAP1 PUSH2 0x1E99 JUMP JUMPDEST PUSH1 0x40 DUP1 MLOAD PUSH1 0x1F NOT DUP2 DUP5 SUB ADD DUP2 MSTORE SWAP1 DUP3 SWAP1 MSTORE PUSH2 0x1125 SWAP2 PUSH1 0x20 ADD PUSH2 0x1EDE JUMP JUMPDEST PUSH1 0x40 MLOAD PUSH1 0x20 DUP2 DUP4 SUB SUB DUP2 MSTORE SWAP1 PUSH1 0x40 MSTORE PUSH1 0xC DUP5 PUSH1 0x40 MLOAD PUSH1 0x20 ADD PUSH2 0x1148 SWAP3 SWAP2 SWAP1 PUSH2 0x1E12 JUMP JUMPDEST PUSH1 0x40 DUP1 MLOAD PUSH1 0x1F NOT DUP2 DUP5 SUB ADD DUP2 MSTORE SWAP1 DUP3 SWAP1 MSTORE PUSH2 0x1166 SWAP3 SWAP2 PUSH1 0x20 ADD PUSH2 0x1FD0 JUMP JUMPDEST PUSH1 0x40 MLOAD PUSH1 0x20 DUP2 DUP4 SUB SUB DUP2 MSTORE SWAP1 PUSH1 0x40 MSTORE SWAP1 POP PUSH1 0x0 DUP3 PUSH1 0x40 MLOAD PUSH1 0x20 ADD PUSH2 0x118A SWAP2 SWAP1 PUSH2 0x1FF6 JUMP JUMPDEST PUSH1 0x40 DUP1 MLOAD PUSH1 0x1F NOT DUP2 DUP5 SUB ADD DUP2 MSTORE DUP3 DUP3 ADD DUP3 MSTORE PUSH1 0x4 DUP4 MSTORE PUSH4 0x227D5D7D PUSH1 0xE0 SHL PUSH1 0x20 DUP5 DUP2 ADD SWAP2 SWAP1 SWAP2 MSTORE SWAP2 MLOAD SWAP1 SWAP4 POP PUSH2 0x11C4 SWAP2 DUP6 SWAP2 DUP6 SWAP2 ADD PUSH2 0x1FD0 JUMP JUMPDEST PUSH1 0x40 DUP1 MLOAD PUSH1 0x1F NOT DUP2 DUP5 SUB ADD DUP2 MSTORE SWAP1 DUP3 SWAP1 MSTORE PUSH2 0x11E3 SWAP2 DUP4 SWAP1 PUSH1 0x20 ADD PUSH2 0x1FD0 JUMP JUMPDEST PUSH1 0x40 DUP1 MLOAD PUSH1 0x1F NOT DUP2 DUP5 SUB ADD DUP2 MSTORE SWAP1 DUP3 SWAP1 MSTORE PUSH2 0x1200 SWAP2 PUSH1 0x20 ADD PUSH2 0x2053 JUMP JUMPDEST PUSH1 0x40 MLOAD PUSH1 0x20 DUP2 DUP4 SUB SUB DUP2 MSTORE SWAP1 PUSH1 0x40 MSTORE SWAP7 POP POP POP POP POP POP POP SWAP2 SWAP1 POP JUMP JUMPDEST PUSH1 0xD DUP1 SLOAD PUSH2 0x469 SWAP1 PUSH2 0x1BF5 JUMP JUMPDEST PUSH1 0x0 SLOAD PUSH1 0x1 PUSH1 0x1 PUSH1 0xA0 SHL SUB AND CALLER EQ PUSH2 0x1253 JUMPI PUSH1 0x40 MLOAD PUSH3 0x82B429 PUSH1 0xE8 SHL DUP2 MSTORE PUSH1 0x4 ADD PUSH1 0x40 MLOAD DUP1 SWAP2 SUB SWAP1 REVERT JUMPDEST PUSH1 0xD PUSH2 0x671 DUP3 DUP3 PUSH2 0x1C7F JUMP JUMPDEST PUSH1 0xC DUP1 SLOAD PUSH2 0x469 SWAP1 PUSH2 0x1BF5 JUMP JUMPDEST PUSH1 0x0 SLOAD PUSH1 0x1 PUSH1 0x1 PUSH1 0xA0 SHL SUB AND CALLER EQ PUSH2 0x1296 JUMPI PUSH1 0x40 MLOAD PUSH3 0x82B429 PUSH1 0xE8 SHL DUP2 MSTORE PUSH1 0x4 ADD PUSH1 0x40 MLOAD DUP1 SWAP2 SUB SWAP1 REVERT JUMPDEST PUSH1 0x1 PUSH1 0x1 PUSH1 0xA0 SHL SUB DUP2 AND PUSH2 0x12BD JUMPI PUSH1 0x40 MLOAD PUSH4 0x49E27CFF PUSH1 0xE0 SHL DUP2 MSTORE PUSH1 0x4 ADD PUSH1 0x40 MLOAD DUP1 SWAP2 SUB SWAP1 REVERT JUMPDEST PUSH1 0x0 DUP1 SLOAD PUSH1 0x1 PUSH1 0x1 PUSH1 0xA0 SHL SUB NOT AND PUSH1 0x1 PUSH1 0x1 PUSH1 0xA0 SHL SUB DUP4 AND SWAP1 DUP2 OR DUP3 SSTORE PUSH1 0x40 MLOAD SWAP1 SWAP2 CALLER SWAP2 PUSH32 0x8BE0079C531659141344CD1FD0A4F28419497F9722A3DAAFE3B4186F6B6457E0 SWAP2 SWAP1 LOG3 POP JUMP JUMPDEST PUSH1 0x0 PUSH2 0x1335 PUSH32 0x0 PUSH1 0xA PUSH2 0x217C JUMP JUMPDEST SWAP1 POP SWAP1 JUMP JUMPDEST PUSH1 0x0 DUP1 PUSH2 0x1345 PUSH2 0x1308 JUMP JUMPDEST PUSH1 0x1 PUSH1 0x1 PUSH1 0xA0 SHL SUB DUP1 DUP8 AND PUSH1 0x0 DUP2 DUP2 MSTORE PUSH1 0x4 PUSH1 0x20 MSTORE PUSH1 0x40 DUP1 DUP3 KECCAK256 DUP1 SLOAD SWAP5 DUP11 AND DUP4 MSTORE SWAP1 DUP3 KECCAK256 SLOAD SWAP3 DUP3 MSTORE SWAP4 SWAP5 POP SWAP2 SWAP3 SWAP1 SWAP2 DUP7 SWAP2 SWAP1 PUSH2 0x1381 DUP4 DUP7 PUSH2 0x1D55 JUMP JUMPDEST SWAP1 SWAP2 SSTORE POP POP PUSH1 0x1 PUSH1 0x1 PUSH1 0xA0 SHL SUB DUP1 DUP8 AND PUSH1 0x0 SWAP1 DUP2 MSTORE PUSH1 0x4 PUSH1 0x20 SWAP1 DUP2 MSTORE PUSH1 0x40 DUP1 DUP4 KECCAK256 DUP1 SLOAD DUP11 ADD SWAP1 SSTORE SWAP3 DUP11 AND DUP3 MSTORE PUSH1 0xB SWAP1 MSTORE KECCAK256 SLOAD PUSH1 0xFF AND PUSH2 0x1413 JUMPI PUSH1 0x1 PUSH1 0x1 PUSH1 0xA0 SHL SUB DUP8 AND PUSH1 0x0 SWAP1 DUP2 MSTORE PUSH1 0x4 PUSH1 0x20 MSTORE PUSH1 0x40 DUP2 KECCAK256 SLOAD PUSH2 0x13DE SWAP1 DUP6 SWAP1 PUSH2 0x218B JUMP JUMPDEST PUSH2 0x13E8 DUP6 DUP6 PUSH2 0x218B JUMP JUMPDEST PUSH2 0x13F2 SWAP2 SWAP1 PUSH2 0x1D55 JUMP JUMPDEST SWAP1 POP PUSH1 0x0 JUMPDEST DUP2 DUP2 LT ISZERO PUSH2 0x1410 JUMPI PUSH2 0x1408 DUP10 PUSH2 0x1594 JUMP JUMPDEST PUSH1 0x1 ADD PUSH2 0x13F7 JUMP JUMPDEST POP POP JUMPDEST PUSH1 0x1 PUSH1 0x1 PUSH1 0xA0 SHL SUB DUP7 AND PUSH1 0x0 SWAP1 DUP2 MSTORE PUSH1 0xB PUSH1 0x20 MSTORE PUSH1 0x40 SWAP1 KECCAK256 SLOAD PUSH1 0xFF AND PUSH2 0x148E JUMPI PUSH1 0x0 PUSH2 0x143F DUP5 DUP4 PUSH2 0x218B JUMP JUMPDEST PUSH1 0x1 PUSH1 0x1 PUSH1 0xA0 SHL SUB DUP9 AND PUSH1 0x0 SWAP1 DUP2 MSTORE PUSH1 0x4 PUSH1 0x20 MSTORE PUSH1 0x40 SWAP1 KECCAK256 SLOAD PUSH2 0x1463 SWAP1 DUP7 SWAP1 PUSH2 0x218B JUMP JUMPDEST PUSH2 0x146D SWAP2 SWAP1 PUSH2 0x1D55 JUMP JUMPDEST SWAP1 POP PUSH1 0x0 JUMPDEST DUP2 DUP2 LT ISZERO PUSH2 0x148B JUMPI PUSH2 0x1483 DUP9 PUSH2 0x16BC JUMP JUMPDEST PUSH1 0x1 ADD PUSH2 0x1472 JUMP JUMPDEST POP POP JUMPDEST DUP6 PUSH1 0x1 PUSH1 0x1 PUSH1 0xA0 SHL SUB AND DUP8 PUSH1 0x1 PUSH1 0x1 PUSH1 0xA0 SHL SUB AND PUSH32 0xE59FDD36D0D223C0C7D996DB7AD796880F45E1936CB0BB7AC102E7082E031487 DUP8 PUSH1 0x40 MLOAD PUSH2 0x14D3 SWAP2 DUP2 MSTORE PUSH1 0x20 ADD SWAP1 JUMP JUMPDEST PUSH1 0x40 MLOAD DUP1 SWAP2 SUB SWAP1 LOG3 POP PUSH1 0x1 SWAP7 SWAP6 POP POP POP POP POP POP JUMP JUMPDEST PUSH1 0x1 PUSH2 0x14F4 DUP4 DUP3 PUSH2 0x1C7F JUMP JUMPDEST POP PUSH1 0x2 PUSH2 0x9F9 DUP3 DUP3 PUSH2 0x1C7F JUMP JUMPDEST PUSH1 0x60 PUSH1 0x0 PUSH2 0x150E DUP4 PUSH2 0x17C7 JUMP JUMPDEST PUSH1 0x1 ADD SWAP1 POP PUSH1 0x0 DUP2 PUSH8 0xFFFFFFFFFFFFFFFF DUP2 GT ISZERO PUSH2 0x152E JUMPI PUSH2 0x152E PUSH2 0x1950 JUMP JUMPDEST PUSH1 0x40 MLOAD SWAP1 DUP1 DUP3 MSTORE DUP1 PUSH1 0x1F ADD PUSH1 0x1F NOT AND PUSH1 0x20 ADD DUP3 ADD PUSH1 0x40 MSTORE DUP1 ISZERO PUSH2 0x1558 JUMPI PUSH1 0x20 DUP3 ADD DUP2 DUP1 CALLDATASIZE DUP4 CALLDATACOPY ADD SWAP1 POP JUMPDEST POP SWAP1 POP DUP2 DUP2 ADD PUSH1 0x20 ADD JUMPDEST PUSH1 0x0 NOT ADD PUSH16 0x181899199A1A9B1B9C1CB0B131B232B3 PUSH1 0x81 SHL PUSH1 0xA DUP7 MOD BYTE DUP2 MSTORE8 PUSH1 0xA DUP6 DIV SWAP5 POP DUP5 PUSH2 0x1562 JUMPI POP SWAP4 SWAP3 POP POP POP JUMP JUMPDEST PUSH1 0x1 PUSH1 0x1 PUSH1 0xA0 SHL SUB DUP2 AND PUSH2 0x15BB JUMPI PUSH1 0x40 MLOAD PUSH4 0x6EDAEF2F PUSH1 0xE1 SHL DUP2 MSTORE PUSH1 0x4 ADD PUSH1 0x40 MLOAD DUP1 SWAP2 SUB SWAP1 REVERT JUMPDEST PUSH1 0x1 PUSH1 0x1 PUSH1 0xA0 SHL SUB DUP2 AND PUSH1 0x0 SWAP1 DUP2 MSTORE PUSH1 0x9 PUSH1 0x20 MSTORE PUSH1 0x40 DUP2 KECCAK256 DUP1 SLOAD PUSH2 0x15E1 SWAP1 PUSH1 0x1 SWAP1 PUSH2 0x1D55 JUMP JUMPDEST DUP2 SLOAD DUP2 LT PUSH2 0x15F1 JUMPI PUSH2 0x15F1 PUSH2 0x1D68 JUMP JUMPDEST SWAP1 PUSH1 0x0 MSTORE PUSH1 0x20 PUSH1 0x0 KECCAK256 ADD SLOAD SWAP1 POP PUSH1 0x9 PUSH1 0x0 DUP4 PUSH1 0x1 PUSH1 0x1 PUSH1 0xA0 SHL SUB AND PUSH1 0x1 PUSH1 0x1 PUSH1 0xA0 SHL SUB AND DUP2 MSTORE PUSH1 0x20 ADD SWAP1 DUP2 MSTORE PUSH1 0x20 ADD PUSH1 0x0 KECCAK256 DUP1 SLOAD DUP1 PUSH2 0x1632 JUMPI PUSH2 0x1632 PUSH2 0x1D7E JUMP JUMPDEST PUSH1 0x0 DUP3 DUP2 MSTORE PUSH1 0x20 DUP1 DUP3 KECCAK256 DUP4 ADD PUSH1 0x0 NOT SWAP1 DUP2 ADD DUP4 SWAP1 SSTORE SWAP1 SWAP3 ADD SWAP1 SWAP3 SSTORE DUP3 DUP3 MSTORE PUSH1 0xA DUP2 MSTORE PUSH1 0x40 DUP1 DUP4 KECCAK256 DUP4 SWAP1 SSTORE PUSH1 0x8 DUP3 MSTORE DUP1 DUP4 KECCAK256 DUP1 SLOAD PUSH1 0x1 PUSH1 0x1 PUSH1 0xA0 SHL SUB NOT SWAP1 DUP2 AND SWAP1 SWAP2 SSTORE PUSH1 0x6 SWAP1 SWAP3 MSTORE DUP1 DUP4 KECCAK256 DUP1 SLOAD SWAP1 SWAP3 AND SWAP1 SWAP2 SSTORE MLOAD DUP3 SWAP2 SWAP1 PUSH1 0x1 PUSH1 0x1 PUSH1 0xA0 SHL SUB DUP6 AND SWAP1 PUSH32 0xDDF252AD1BE2C89B69C2B068FC378DAA952BA7F163C4A11628F55A4DF523B3EF SWAP1 DUP4 SWAP1 LOG4 POP POP JUMP JUMPDEST PUSH1 0x1 PUSH1 0x1 PUSH1 0xA0 SHL SUB DUP2 AND PUSH2 0x16E3 JUMPI PUSH1 0x40 MLOAD PUSH4 0x4E469669 PUSH1 0xE1 SHL DUP2 MSTORE PUSH1 0x4 ADD PUSH1 0x40 MLOAD DUP1 SWAP2 SUB SWAP1 REVERT JUMPDEST PUSH1 0x3 DUP1 SLOAD PUSH1 0x1 ADD SWAP1 DUP2 SWAP1 SSTORE PUSH1 0x0 DUP2 DUP2 MSTORE PUSH1 0x8 PUSH1 0x20 MSTORE PUSH1 0x40 SWAP1 KECCAK256 SLOAD PUSH1 0x1 PUSH1 0x1 PUSH1 0xA0 SHL SUB AND ISZERO PUSH2 0x1724 JUMPI PUSH1 0x40 MLOAD PUSH4 0x119B4FD3 PUSH1 0xE1 SHL DUP2 MSTORE PUSH1 0x4 ADD PUSH1 0x40 MLOAD DUP1 SWAP2 SUB SWAP1 REVERT JUMPDEST PUSH1 0x0 DUP2 DUP2 MSTORE PUSH1 0x8 PUSH1 0x20 SWAP1 DUP2 MSTORE PUSH1 0x40 DUP1 DUP4 KECCAK256 DUP1 SLOAD PUSH1 0x1 PUSH1 0x1 PUSH1 0xA0 SHL SUB NOT AND PUSH1 0x1 PUSH1 0x1 PUSH1 0xA0 SHL SUB DUP8 AND SWAP1 DUP2 OR SWAP1 SWAP2 SSTORE DUP1 DUP5 MSTORE PUSH1 0x9 DUP4 MSTORE SWAP1 DUP4 KECCAK256 DUP1 SLOAD PUSH1 0x1 DUP2 DUP2 ADD DUP4 SSTORE DUP3 DUP7 MSTORE SWAP4 DUP6 KECCAK256 ADD DUP6 SWAP1 SSTORE SWAP3 MSTORE SWAP1 SLOAD PUSH2 0x177C SWAP2 SWAP1 PUSH2 0x1D55 JUMP JUMPDEST PUSH1 0x0 DUP3 DUP2 MSTORE PUSH1 0xA PUSH1 0x20 MSTORE PUSH1 0x40 DUP1 DUP3 KECCAK256 SWAP3 SWAP1 SWAP3 SSTORE SWAP1 MLOAD DUP3 SWAP2 PUSH1 0x1 PUSH1 0x1 PUSH1 0xA0 SHL SUB DUP6 AND SWAP2 PUSH32 0xDDF252AD1BE2C89B69C2B068FC378DAA952BA7F163C4A11628F55A4DF523B3EF SWAP1 DUP3 SWAP1 LOG4 POP POP JUMP JUMPDEST PUSH1 0x0 DUP1 PUSH19 0x184F03E93FF9F4DAA797ED6E38ED64BF6A1F01 PUSH1 0x40 SHL DUP4 LT PUSH2 0x1806 JUMPI PUSH19 0x184F03E93FF9F4DAA797ED6E38ED64BF6A1F01 PUSH1 0x40 SHL DUP4 DIV SWAP3 POP PUSH1 0x40 ADD JUMPDEST PUSH14 0x4EE2D6D415B85ACEF8100000000 DUP4 LT PUSH2 0x1832 JUMPI PUSH14 0x4EE2D6D415B85ACEF8100000000 DUP4 DIV SWAP3 POP PUSH1 0x20 ADD JUMPDEST PUSH7 0x2386F26FC10000 DUP4 LT PUSH2 0x1850 JUMPI PUSH7 0x2386F26FC10000 DUP4 DIV SWAP3 POP PUSH1 0x10 ADD JUMPDEST PUSH4 0x5F5E100 DUP4 LT PUSH2 0x1868 JUMPI PUSH4 0x5F5E100 DUP4 DIV SWAP3 POP PUSH1 0x8 ADD JUMPDEST PUSH2 0x2710 DUP4 LT PUSH2 0x187C JUMPI PUSH2 0x2710 DUP4 DIV SWAP3 POP PUSH1 0x4 ADD JUMPDEST PUSH1 0x64 DUP4 LT PUSH2 0x188E JUMPI PUSH1 0x64 DUP4 DIV SWAP3 POP PUSH1 0x2 ADD JUMPDEST PUSH1 0xA DUP4 LT PUSH2 0x635 JUMPI PUSH1 0x1 ADD SWAP3 SWAP2 POP POP JUMP JUMPDEST PUSH1 0x0 JUMPDEST DUP4 DUP2 LT ISZERO PUSH2 0x18BA JUMPI DUP2 DUP2 ADD MLOAD DUP4 DUP3 ADD MSTORE PUSH1 0x20 ADD PUSH2 0x18A2 JUMP JUMPDEST POP POP PUSH1 0x0 SWAP2 ADD MSTORE JUMP JUMPDEST PUSH1 0x20 DUP2 MSTORE PUSH1 0x0 DUP3 MLOAD DUP1 PUSH1 0x20 DUP5 ADD MSTORE PUSH2 0x18E2 DUP2 PUSH1 0x40 DUP6 ADD PUSH1 0x20 DUP8 ADD PUSH2 0x189F JUMP JUMPDEST PUSH1 0x1F ADD PUSH1 0x1F NOT AND SWAP2 SWAP1 SWAP2 ADD PUSH1 0x40 ADD SWAP3 SWAP2 POP POP JUMP JUMPDEST PUSH1 0x0 PUSH1 0x20 DUP3 DUP5 SUB SLT ISZERO PUSH2 0x1908 JUMPI PUSH1 0x0 DUP1 REVERT JUMPDEST POP CALLDATALOAD SWAP2 SWAP1 POP JUMP JUMPDEST DUP1 CALLDATALOAD PUSH1 0x1 PUSH1 0x1 PUSH1 0xA0 SHL SUB DUP2 AND DUP2 EQ PUSH2 0xBF8 JUMPI PUSH1 0x0 DUP1 REVERT JUMPDEST PUSH1 0x0 DUP1 PUSH1 0x40 DUP4 DUP6 SUB SLT ISZERO PUSH2 0x1939 JUMPI PUSH1 0x0 DUP1 REVERT JUMPDEST PUSH2 0x1942 DUP4 PUSH2 0x190F JUMP JUMPDEST SWAP5 PUSH1 0x20 SWAP4 SWAP1 SWAP4 ADD CALLDATALOAD SWAP4 POP POP POP JUMP JUMPDEST PUSH4 0x4E487B71 PUSH1 0xE0 SHL PUSH1 0x0 MSTORE PUSH1 0x41 PUSH1 0x4 MSTORE PUSH1 0x24 PUSH1 0x0 REVERT JUMPDEST PUSH1 0x0 DUP3 PUSH1 0x1F DUP4 ADD SLT PUSH2 0x1977 JUMPI PUSH1 0x0 DUP1 REVERT JUMPDEST DUP2 CALLDATALOAD PUSH8 0xFFFFFFFFFFFFFFFF DUP1 DUP3 GT ISZERO PUSH2 0x1992 JUMPI PUSH2 0x1992 PUSH2 0x1950 JUMP JUMPDEST PUSH1 0x40 MLOAD PUSH1 0x1F DUP4 ADD PUSH1 0x1F NOT SWAP1 DUP2 AND PUSH1 0x3F ADD AND DUP2 ADD SWAP1 DUP3 DUP3 GT DUP2 DUP4 LT OR ISZERO PUSH2 0x19BA JUMPI PUSH2 0x19BA PUSH2 0x1950 JUMP JUMPDEST DUP2 PUSH1 0x40 MSTORE DUP4 DUP2 MSTORE DUP7 PUSH1 0x20 DUP6 DUP9 ADD ADD GT ISZERO PUSH2 0x19D3 JUMPI PUSH1 0x0 DUP1 REVERT JUMPDEST DUP4 PUSH1 0x20 DUP8 ADD PUSH1 0x20 DUP4 ADD CALLDATACOPY PUSH1 0x0 PUSH1 0x20 DUP6 DUP4 ADD ADD MSTORE DUP1 SWAP5 POP POP POP POP POP SWAP3 SWAP2 POP POP JUMP JUMPDEST PUSH1 0x0 PUSH1 0x20 DUP3 DUP5 SUB SLT ISZERO PUSH2 0x1A05 JUMPI PUSH1 0x0 DUP1 REVERT JUMPDEST DUP2 CALLDATALOAD PUSH8 0xFFFFFFFFFFFFFFFF DUP2 GT ISZERO PUSH2 0x1A1C JUMPI PUSH1 0x0 DUP1 REVERT JUMPDEST PUSH2 0x1A28 DUP5 DUP3 DUP6 ADD PUSH2 0x1966 JUMP JUMPDEST SWAP5 SWAP4 POP POP POP POP JUMP JUMPDEST PUSH1 0x0 DUP1 PUSH1 0x0 PUSH1 0x60 DUP5 DUP7 SUB SLT ISZERO PUSH2 0x1A45 JUMPI PUSH1 0x0 DUP1 REVERT JUMPDEST PUSH2 0x1A4E DUP5 PUSH2 0x190F JUMP JUMPDEST SWAP3 POP PUSH2 0x1A5C PUSH1 0x20 DUP6 ADD PUSH2 0x190F JUMP JUMPDEST SWAP2 POP PUSH1 0x40 DUP5 ADD CALLDATALOAD SWAP1 POP SWAP3 POP SWAP3 POP SWAP3 JUMP JUMPDEST PUSH1 0x0 DUP1 PUSH1 0x40 DUP4 DUP6 SUB SLT ISZERO PUSH2 0x1A7F JUMPI PUSH1 0x0 DUP1 REVERT JUMPDEST DUP3 CALLDATALOAD PUSH8 0xFFFFFFFFFFFFFFFF DUP1 DUP3 GT ISZERO PUSH2 0x1A97 JUMPI PUSH1 0x0 DUP1 REVERT JUMPDEST PUSH2 0x1AA3 DUP7 DUP4 DUP8 ADD PUSH2 0x1966 JUMP JUMPDEST SWAP4 POP PUSH1 0x20 DUP6 ADD CALLDATALOAD SWAP2 POP DUP1 DUP3 GT ISZERO PUSH2 0x1AB9 JUMPI PUSH1 0x0 DUP1 REVERT JUMPDEST POP PUSH2 0x1AC6 DUP6 DUP3 DUP7 ADD PUSH2 0x1966 JUMP JUMPDEST SWAP2 POP POP SWAP3 POP SWAP3 SWAP1 POP JUMP JUMPDEST PUSH1 0x0 DUP1 PUSH1 0x40 DUP4 DUP6 SUB SLT ISZERO PUSH2 0x1AE3 JUMPI PUSH1 0x0 DUP1 REVERT JUMPDEST PUSH2 0x1AEC DUP4 PUSH2 0x190F JUMP JUMPDEST SWAP2 POP PUSH1 0x20 DUP4 ADD CALLDATALOAD DUP1 ISZERO ISZERO DUP2 EQ PUSH2 0x1B01 JUMPI PUSH1 0x0 DUP1 REVERT JUMPDEST DUP1 SWAP2 POP POP SWAP3 POP SWAP3 SWAP1 POP JUMP JUMPDEST PUSH1 0x0 PUSH1 0x20 DUP3 DUP5 SUB SLT ISZERO PUSH2 0x1B1E JUMPI PUSH1 0x0 DUP1 REVERT JUMPDEST PUSH2 0xC83 DUP3 PUSH2 0x190F JUMP JUMPDEST PUSH1 0x0 DUP1 PUSH1 0x0 DUP1 PUSH1 0x0 PUSH1 0x80 DUP7 DUP9 SUB SLT ISZERO PUSH2 0x1B3F JUMPI PUSH1 0x0 DUP1 REVERT JUMPDEST PUSH2 0x1B48 DUP7 PUSH2 0x190F JUMP JUMPDEST SWAP5 POP PUSH2 0x1B56 PUSH1 0x20 DUP8 ADD PUSH2 0x190F JUMP JUMPDEST SWAP4 POP PUSH1 0x40 DUP7 ADD CALLDATALOAD SWAP3 POP PUSH1 0x60 DUP7 ADD CALLDATALOAD PUSH8 0xFFFFFFFFFFFFFFFF DUP1 DUP3 GT ISZERO PUSH2 0x1B7A JUMPI PUSH1 0x0 DUP1 REVERT JUMPDEST DUP2 DUP9 ADD SWAP2 POP DUP9 PUSH1 0x1F DUP4 ADD SLT PUSH2 0x1B8E JUMPI PUSH1 0x0 DUP1 REVERT JUMPDEST DUP2 CALLDATALOAD DUP2 DUP2 GT ISZERO PUSH2 0x1B9D JUMPI PUSH1 0x0 DUP1 REVERT JUMPDEST DUP10 PUSH1 0x20 DUP3 DUP6 ADD ADD GT ISZERO PUSH2 0x1BAF JUMPI PUSH1 0x0 DUP1 REVERT JUMPDEST SWAP7 SWAP10 SWAP6 SWAP9 POP SWAP4 SWAP7 POP PUSH1 0x20 ADD SWAP5 SWAP4 SWAP3 POP POP POP JUMP JUMPDEST PUSH1 0x0 DUP1 PUSH1 0x40 DUP4 DUP6 SUB SLT ISZERO PUSH2 0x1BD5 JUMPI PUSH1 0x0 DUP1 REVERT JUMPDEST PUSH2 0x1BDE DUP4 PUSH2 0x190F JUMP JUMPDEST SWAP2 POP PUSH2 0x1BEC PUSH1 0x20 DUP5 ADD PUSH2 0x190F JUMP JUMPDEST SWAP1 POP SWAP3 POP SWAP3 SWAP1 POP JUMP JUMPDEST PUSH1 0x1 DUP2 DUP2 SHR SWAP1 DUP3 AND DUP1 PUSH2 0x1C09 JUMPI PUSH1 0x7F DUP3 AND SWAP2 POP JUMPDEST PUSH1 0x20 DUP3 LT DUP2 SUB PUSH2 0x1C29 JUMPI PUSH4 0x4E487B71 PUSH1 0xE0 SHL PUSH1 0x0 MSTORE PUSH1 0x22 PUSH1 0x4 MSTORE PUSH1 0x24 PUSH1 0x0 REVERT JUMPDEST POP SWAP2 SWAP1 POP JUMP JUMPDEST PUSH1 0x1F DUP3 GT ISZERO PUSH2 0x9F9 JUMPI PUSH1 0x0 DUP2 PUSH1 0x0 MSTORE PUSH1 0x20 PUSH1 0x0 KECCAK256 PUSH1 0x1F DUP6 ADD PUSH1 0x5 SHR DUP2 ADD PUSH1 0x20 DUP7 LT ISZERO PUSH2 0x1C58 JUMPI POP DUP1 JUMPDEST PUSH1 0x1F DUP6 ADD PUSH1 0x5 SHR DUP3 ADD SWAP2 POP JUMPDEST DUP2 DUP2 LT ISZERO PUSH2 0x1C77 JUMPI DUP3 DUP2 SSTORE PUSH1 0x1 ADD PUSH2 0x1C64 JUMP JUMPDEST POP POP POP POP POP POP JUMP JUMPDEST DUP2 MLOAD PUSH8 0xFFFFFFFFFFFFFFFF DUP2 GT ISZERO PUSH2 0x1C99 JUMPI PUSH2 0x1C99 PUSH2 0x1950 JUMP JUMPDEST PUSH2 0x1CAD DUP2 PUSH2 0x1CA7 DUP5 SLOAD PUSH2 0x1BF5 JUMP JUMPDEST DUP5 PUSH2 0x1C2F JUMP JUMPDEST PUSH1 0x20 DUP1 PUSH1 0x1F DUP4 GT PUSH1 0x1 DUP2 EQ PUSH2 0x1CE2 JUMPI PUSH1 0x0 DUP5 ISZERO PUSH2 0x1CCA JUMPI POP DUP6 DUP4 ADD MLOAD JUMPDEST PUSH1 0x0 NOT PUSH1 0x3 DUP7 SWAP1 SHL SHR NOT AND PUSH1 0x1 DUP6 SWAP1 SHL OR DUP6 SSTORE PUSH2 0x1C77 JUMP JUMPDEST PUSH1 0x0 DUP6 DUP2 MSTORE PUSH1 0x20 DUP2 KECCAK256 PUSH1 0x1F NOT DUP7 AND SWAP2 JUMPDEST DUP3 DUP2 LT ISZERO PUSH2 0x1D11 JUMPI DUP9 DUP7 ADD MLOAD DUP3 SSTORE SWAP5 DUP5 ADD SWAP5 PUSH1 0x1 SWAP1 SWAP2 ADD SWAP1 DUP5 ADD PUSH2 0x1CF2 JUMP JUMPDEST POP DUP6 DUP3 LT ISZERO PUSH2 0x1D2F JUMPI DUP8 DUP6 ADD MLOAD PUSH1 0x0 NOT PUSH1 0x3 DUP9 SWAP1 SHL PUSH1 0xF8 AND SHR NOT AND DUP2 SSTORE JUMPDEST POP POP POP POP POP PUSH1 0x1 SWAP1 DUP2 SHL ADD SWAP1 SSTORE POP JUMP JUMPDEST PUSH4 0x4E487B71 PUSH1 0xE0 SHL PUSH1 0x0 MSTORE PUSH1 0x11 PUSH1 0x4 MSTORE PUSH1 0x24 PUSH1 0x0 REVERT JUMPDEST DUP2 DUP2 SUB DUP2 DUP2 GT ISZERO PUSH2 0x635 JUMPI PUSH2 0x635 PUSH2 0x1D3F JUMP JUMPDEST PUSH4 0x4E487B71 PUSH1 0xE0 SHL PUSH1 0x0 MSTORE PUSH1 0x32 PUSH1 0x4 MSTORE PUSH1 0x24 PUSH1 0x0 REVERT JUMPDEST PUSH4 0x4E487B71 PUSH1 0xE0 SHL PUSH1 0x0 MSTORE PUSH1 0x31 PUSH1 0x4 MSTORE PUSH1 0x24 PUSH1 0x0 REVERT JUMPDEST PUSH1 0x0 PUSH1 0x20 DUP3 DUP5 SUB SLT ISZERO PUSH2 0x1DA6 JUMPI PUSH1 0x0 DUP1 REVERT JUMPDEST DUP2 MLOAD PUSH1 0x1 PUSH1 0x1 PUSH1 0xE0 SHL SUB NOT DUP2 AND DUP2 EQ PUSH2 0xC83 JUMPI PUSH1 0x0 DUP1 REVERT JUMPDEST PUSH1 0x1 PUSH1 0x1 PUSH1 0xA0 SHL SUB DUP7 DUP2 AND DUP3 MSTORE DUP6 AND PUSH1 0x20 DUP3 ADD MSTORE PUSH1 0x40 DUP2 ADD DUP5 SWAP1 MSTORE PUSH1 0x80 PUSH1 0x60 DUP3 ADD DUP2 SWAP1 MSTORE DUP2 ADD DUP3 SWAP1 MSTORE PUSH1 0x0 DUP3 DUP5 PUSH1 0xA0 DUP5 ADD CALLDATACOPY PUSH1 0x0 PUSH1 0xA0 DUP5 DUP5 ADD ADD MSTORE PUSH1 0xA0 PUSH1 0x1F NOT PUSH1 0x1F DUP6 ADD AND DUP4 ADD ADD SWAP1 POP SWAP7 SWAP6 POP POP POP POP POP POP JUMP JUMPDEST PUSH1 0x0 DUP1 DUP5 SLOAD PUSH2 0x1E20 DUP2 PUSH2 0x1BF5 JUMP JUMPDEST PUSH1 0x1 DUP3 DUP2 AND DUP1 ISZERO PUSH2 0x1E38 JUMPI PUSH1 0x1 DUP2 EQ PUSH2 0x1E4D JUMPI PUSH2 0x1E7C JUMP JUMPDEST PUSH1 0xFF NOT DUP5 AND DUP8 MSTORE DUP3 ISZERO ISZERO DUP4 MUL DUP8 ADD SWAP5 POP PUSH2 0x1E7C JUMP JUMPDEST DUP9 PUSH1 0x0 MSTORE PUSH1 0x20 DUP1 PUSH1 0x0 KECCAK256 PUSH1 0x0 JUMPDEST DUP6 DUP2 LT ISZERO PUSH2 0x1E73 JUMPI DUP2 SLOAD DUP11 DUP3 ADD MSTORE SWAP1 DUP5 ADD SWAP1 DUP3 ADD PUSH2 0x1E5A JUMP JUMPDEST POP POP POP DUP3 DUP8 ADD SWAP5 POP JUMPDEST POP POP POP POP DUP4 MLOAD PUSH2 0x1E90 DUP2 DUP4 PUSH1 0x20 DUP9 ADD PUSH2 0x189F JUMP JUMPDEST ADD SWAP5 SWAP4 POP POP POP POP JUMP JUMPDEST PUSH32 0x7B226E616D65223A20224161766547686F737465722023000000000000000000 DUP2 MSTORE PUSH1 0x0 DUP3 MLOAD PUSH2 0x1ED1 DUP2 PUSH1 0x17 DUP6 ADD PUSH1 0x20 DUP8 ADD PUSH2 0x189F JUMP JUMPDEST SWAP2 SWAP1 SWAP2 ADD PUSH1 0x17 ADD SWAP3 SWAP2 POP POP JUMP JUMPDEST PUSH1 0x0 DUP3 MLOAD PUSH2 0x1EF0 DUP2 DUP5 PUSH1 0x20 DUP8 ADD PUSH2 0x189F JUMP JUMPDEST PUSH32 0x222C226465736372697074696F6E223A224120636F6C6C656374696F6E206F66 SWAP3 ADD SWAP2 DUP3 MSTORE POP PUSH32 0x2031352C303030204161766547686F7374657220656E61626C65642062792045 PUSH1 0x20 DUP3 ADD MSTORE PUSH32 0x52433430342C20616E206578706572696D656E74616C20746F6B656E20737461 PUSH1 0x40 DUP3 ADD MSTORE PUSH32 0x6E6461726420696E7370697265642062792050616E646F7261222C2265787465 PUSH1 0x60 DUP3 ADD MSTORE PUSH32 0x726E616C5F75726C223A2268747470733A2F2F6161766567686F737465722E6F PUSH1 0x80 DUP3 ADD MSTORE PUSH16 0x373634B73291161134B6B0B3B2911D11 PUSH1 0x81 SHL PUSH1 0xA0 DUP3 ADD MSTORE PUSH1 0xB0 ADD SWAP2 SWAP1 POP JUMP JUMPDEST PUSH1 0x0 DUP4 MLOAD PUSH2 0x1FE2 DUP2 DUP5 PUSH1 0x20 DUP9 ADD PUSH2 0x189F JUMP JUMPDEST DUP4 MLOAD SWAP1 DUP4 ADD SWAP1 PUSH2 0x1E90 DUP2 DUP4 PUSH1 0x20 DUP9 ADD PUSH2 0x189F JUMP JUMPDEST PUSH32 0x222C2261747472696275746573223A5B7B2274726169745F74797065223A2243 DUP2 MSTORE PUSH15 0x37B637B91116113B30B63AB2911D11 PUSH1 0x89 SHL PUSH1 0x20 DUP3 ADD MSTORE PUSH1 0x0 DUP3 MLOAD PUSH2 0x2046 DUP2 PUSH1 0x2F DUP6 ADD PUSH1 0x20 DUP8 ADD PUSH2 0x189F JUMP JUMPDEST SWAP2 SWAP1 SWAP2 ADD PUSH1 0x2F ADD SWAP3 SWAP2 POP POP JUMP JUMPDEST PUSH32 0x646174613A6170706C69636174696F6E2F6A736F6E3B757466382C0000000000 DUP2 MSTORE PUSH1 0x0 DUP3 MLOAD PUSH2 0x208B DUP2 PUSH1 0x1B DUP6 ADD PUSH1 0x20 DUP8 ADD PUSH2 0x189F JUMP JUMPDEST SWAP2 SWAP1 SWAP2 ADD PUSH1 0x1B ADD SWAP3 SWAP2 POP POP JUMP JUMPDEST PUSH1 0x1 DUP2 DUP2 JUMPDEST DUP1 DUP6 GT ISZERO PUSH2 0x20D3 JUMPI DUP2 PUSH1 0x0 NOT DIV DUP3 GT ISZERO PUSH2 0x20B9 JUMPI PUSH2 0x20B9 PUSH2 0x1D3F JUMP JUMPDEST DUP1 DUP6 AND ISZERO PUSH2 0x20C6 JUMPI SWAP2 DUP2 MUL SWAP2 JUMPDEST SWAP4 DUP5 SHR SWAP4 SWAP1 DUP1 MUL SWAP1 PUSH2 0x209D JUMP JUMPDEST POP SWAP3 POP SWAP3 SWAP1 POP JUMP JUMPDEST PUSH1 0x0 DUP3 PUSH2 0x20EA JUMPI POP PUSH1 0x1 PUSH2 0x635 JUMP JUMPDEST DUP2 PUSH2 0x20F7 JUMPI POP PUSH1 0x0 PUSH2 0x635 JUMP JUMPDEST DUP2 PUSH1 0x1 DUP2 EQ PUSH2 0x210D JUMPI PUSH1 0x2 DUP2 EQ PUSH2 0x2117 JUMPI PUSH2 0x2133 JUMP JUMPDEST PUSH1 0x1 SWAP2 POP POP PUSH2 0x635 JUMP JUMPDEST PUSH1 0xFF DUP5 GT ISZERO PUSH2 0x2128 JUMPI PUSH2 0x2128 PUSH2 0x1D3F JUMP JUMPDEST POP POP PUSH1 0x1 DUP3 SHL PUSH2 0x635 JUMP JUMPDEST POP PUSH1 0x20 DUP4 LT PUSH2 0x133 DUP4 LT AND PUSH1 0x4E DUP5 LT PUSH1 0xB DUP5 LT AND OR ISZERO PUSH2 0x2156 JUMPI POP DUP2 DUP2 EXP PUSH2 0x635 JUMP JUMPDEST PUSH2 0x2160 DUP4 DUP4 PUSH2 0x2098 JUMP JUMPDEST DUP1 PUSH1 0x0 NOT DIV DUP3 GT ISZERO PUSH2 0x2174 JUMPI PUSH2 0x2174 PUSH2 0x1D3F JUMP JUMPDEST MUL SWAP4 SWAP3 POP POP POP JUMP JUMPDEST PUSH1 0x0 PUSH2 0xC83 PUSH1 0xFF DUP5 AND DUP4 PUSH2 0x20DB JUMP JUMPDEST PUSH1 0x0 DUP3 PUSH2 0x21A8 JUMPI PUSH4 0x4E487B71 PUSH1 0xE0 SHL PUSH1 0x0 MSTORE PUSH1 0x12 PUSH1 0x4 MSTORE PUSH1 0x24 PUSH1 0x0 REVERT JUMPDEST POP DIV SWAP1 JUMP INVALID LOG2 PUSH5 0x6970667358 0x22 SLT KECCAK256 PUSH32 0x1DBCAF3BD65A9463B6C991D65C78CF5EBAD17478D717DD482A4DBFC9F1DFF64 PUSH20 0x6F6C634300081800330000000000000000000000 "
				},
				"gasEstimates": {
					"creation": {
						"codeDepositCost": "1735000",
						"executionCost": "infinite",
						"totalCost": "infinite"
					},
					"external": {
						"allowance(address,address)": "infinite",
						"approve(address,uint256)": "33307",
						"balanceOf(address)": "2565",
						"baseTokenURI()": "infinite",
						"dataURI()": "infinite",
						"decimals()": "infinite",
						"getApproved(uint256)": "2523",
						"isApprovedForAll(address,address)": "infinite",
						"minted()": "2340",
						"name()": "infinite",
						"owner()": "2405",
						"ownerOf(uint256)": "2622",
						"revokeOwnership()": "28083",
						"safeTransferFrom(address,address,uint256)": "infinite",
						"safeTransferFrom(address,address,uint256,bytes)": "infinite",
						"setApprovalForAll(address,bool)": "26652",
						"setDataURI(string)": "infinite",
						"setNameSymbol(string,string)": "infinite",
						"setTokenURI(string)": "infinite",
						"setWhitelist(address,bool)": "26923",
						"symbol()": "infinite",
						"tokenURI(uint256)": "infinite",
						"totalSupply()": "infinite",
						"transfer(address,uint256)": "infinite",
						"transferFrom(address,address,uint256)": "infinite",
						"transferOwnership(address)": "28375",
						"whitelist(address)": "2576"
					}
				},
				"methodIdentifiers": {
					"allowance(address,address)": "dd62ed3e",
					"approve(address,uint256)": "095ea7b3",
					"balanceOf(address)": "70a08231",
					"baseTokenURI()": "d547cfb7",
					"dataURI()": "f28ca1dd",
					"decimals()": "313ce567",
					"getApproved(uint256)": "081812fc",
					"isApprovedForAll(address,address)": "e985e9c5",
					"minted()": "4f02c420",
					"name()": "06fdde03",
					"owner()": "8da5cb5b",
					"ownerOf(uint256)": "6352211e",
					"revokeOwnership()": "2b968958",
					"safeTransferFrom(address,address,uint256)": "42842e0e",
					"safeTransferFrom(address,address,uint256,bytes)": "b88d4fde",
					"setApprovalForAll(address,bool)": "a22cb465",
					"setDataURI(string)": "18d217c3",
					"setNameSymbol(string,string)": "504334c2",
					"setTokenURI(string)": "e0df5b6f",
					"setWhitelist(address,bool)": "53d6fd59",
					"symbol()": "95d89b41",
					"tokenURI(uint256)": "c87b56dd",
					"totalSupply()": "18160ddd",
					"transfer(address,uint256)": "a9059cbb",
					"transferFrom(address,address,uint256)": "23b872dd",
					"transferOwnership(address)": "f2fde38b",
					"whitelist(address)": "9b19251a"
				}
			},
			"storageLayout": {
				"storage": [
					{
						"astId": 1737,
						"contract": "contracts/AaveGhoster.sol:AaveGhoster",
						"label": "owner",
						"offset": 0,
						"slot": "0",
						"type": "t_address"
					},
					{
						"astId": 1903,
						"contract": "contracts/AaveGhoster.sol:AaveGhoster",
						"label": "name",
						"offset": 0,
						"slot": "1",
						"type": "t_string_storage"
					},
					{
						"astId": 1906,
						"contract": "contracts/AaveGhoster.sol:AaveGhoster",
						"label": "symbol",
						"offset": 0,
						"slot": "2",
						"type": "t_string_storage"
					},
					{
						"astId": 1915,
						"contract": "contracts/AaveGhoster.sol:AaveGhoster",
						"label": "minted",
						"offset": 0,
						"slot": "3",
						"type": "t_uint256"
					},
					{
						"astId": 1920,
						"contract": "contracts/AaveGhoster.sol:AaveGhoster",
						"label": "balanceOf",
						"offset": 0,
						"slot": "4",
						"type": "t_mapping(t_address,t_uint256)"
					},
					{
						"astId": 1927,
						"contract": "contracts/AaveGhoster.sol:AaveGhoster",
						"label": "allowance",
						"offset": 0,
						"slot": "5",
						"type": "t_mapping(t_address,t_mapping(t_address,t_uint256))"
					},
					{
						"astId": 1932,
						"contract": "contracts/AaveGhoster.sol:AaveGhoster",
						"label": "getApproved",
						"offset": 0,
						"slot": "6",
						"type": "t_mapping(t_uint256,t_address)"
					},
					{
						"astId": 1939,
						"contract": "contracts/AaveGhoster.sol:AaveGhoster",
						"label": "isApprovedForAll",
						"offset": 0,
						"slot": "7",
						"type": "t_mapping(t_address,t_mapping(t_address,t_bool))"
					},
					{
						"astId": 1944,
						"contract": "contracts/AaveGhoster.sol:AaveGhoster",
						"label": "_ownerOf",
						"offset": 0,
						"slot": "8",
						"type": "t_mapping(t_uint256,t_address)"
					},
					{
						"astId": 1950,
						"contract": "contracts/AaveGhoster.sol:AaveGhoster",
						"label": "_owned",
						"offset": 0,
						"slot": "9",
						"type": "t_mapping(t_address,t_array(t_uint256)dyn_storage)"
					},
					{
						"astId": 1955,
						"contract": "contracts/AaveGhoster.sol:AaveGhoster",
						"label": "_ownedIndex",
						"offset": 0,
						"slot": "10",
						"type": "t_mapping(t_uint256,t_uint256)"
					},
					{
						"astId": 1960,
						"contract": "contracts/AaveGhoster.sol:AaveGhoster",
						"label": "whitelist",
						"offset": 0,
						"slot": "11",
						"type": "t_mapping(t_address,t_bool)"
					},
					{
						"astId": 1421,
						"contract": "contracts/AaveGhoster.sol:AaveGhoster",
						"label": "dataURI",
						"offset": 0,
						"slot": "12",
						"type": "t_string_storage"
					},
					{
						"astId": 1423,
						"contract": "contracts/AaveGhoster.sol:AaveGhoster",
						"label": "baseTokenURI",
						"offset": 0,
						"slot": "13",
						"type": "t_string_storage"
					}
				],
				"types": {
					"t_address": {
						"encoding": "inplace",
						"label": "address",
						"numberOfBytes": "20"
					},
					"t_array(t_uint256)dyn_storage": {
						"base": "t_uint256",
						"encoding": "dynamic_array",
						"label": "uint256[]",
						"numberOfBytes": "32"
					},
					"t_bool": {
						"encoding": "inplace",
						"label": "bool",
						"numberOfBytes": "1"
					},
					"t_mapping(t_address,t_array(t_uint256)dyn_storage)": {
						"encoding": "mapping",
						"key": "t_address",
						"label": "mapping(address => uint256[])",
						"numberOfBytes": "32",
						"value": "t_array(t_uint256)dyn_storage"
					},
					"t_mapping(t_address,t_bool)": {
						"encoding": "mapping",
						"key": "t_address",
						"label": "mapping(address => bool)",
						"numberOfBytes": "32",
						"value": "t_bool"
					},
					"t_mapping(t_address,t_mapping(t_address,t_bool))": {
						"encoding": "mapping",
						"key": "t_address",
						"label": "mapping(address => mapping(address => bool))",
						"numberOfBytes": "32",
						"value": "t_mapping(t_address,t_bool)"
					},
					"t_mapping(t_address,t_mapping(t_address,t_uint256))": {
						"encoding": "mapping",
						"key": "t_address",
						"label": "mapping(address => mapping(address => uint256))",
						"numberOfBytes": "32",
						"value": "t_mapping(t_address,t_uint256)"
					},
					"t_mapping(t_address,t_uint256)": {
						"encoding": "mapping",
						"key": "t_address",
						"label": "mapping(address => uint256)",
						"numberOfBytes": "32",
						"value": "t_uint256"
					},
					"t_mapping(t_uint256,t_address)": {
						"encoding": "mapping",
						"key": "t_uint256",
						"label": "mapping(uint256 => address)",
						"numberOfBytes": "32",
						"value": "t_address"
					},
					"t_mapping(t_uint256,t_uint256)": {
						"encoding": "mapping",
						"key": "t_uint256",
						"label": "mapping(uint256 => uint256)",
						"numberOfBytes": "32",
						"value": "t_uint256"
					},
					"t_string_storage": {
						"encoding": "bytes",
						"label": "string",
						"numberOfBytes": "32"
					},
					"t_uint256": {
						"encoding": "inplace",
						"label": "uint256",
						"numberOfBytes": "32"
					}
				}
			},
			"userdoc": {
				"kind": "user",
				"methods": {
					"approve(address,uint256)": {
						"notice": "Function for token approvals"
					},
					"ownerOf(uint256)": {
						"notice": "Function to find owner of a given native token"
					},
					"safeTransferFrom(address,address,uint256)": {
						"notice": "Function for native transfers with contract support"
					},
					"safeTransferFrom(address,address,uint256,bytes)": {
						"notice": "Function for native transfers with contract support and callback data"
					},
					"setApprovalForAll(address,bool)": {
						"notice": "Function native approvals"
					},
					"setWhitelist(address,bool)": {
						"notice": "Initialization function to set pairs / etc         saving gas by avoiding mint / burn on unnecessary targets"
					},
					"tokenURI(uint256)": {
						"notice": "tokenURI must be implemented by child contract"
					},
					"transfer(address,uint256)": {
						"notice": "Function for fractional transfers"
					},
					"transferFrom(address,address,uint256)": {
						"notice": "Function for mixed transfers"
					}
				},
				"version": 1
			}
		}
	}
}