{
	"contracts/404.sol": {
		"Error404": {
			"abi": [
				{
					"inputs": [
						{
							"internalType": "address",
							"name": "_owner",
							"type": "address"
						}
					],
					"stateMutability": "nonpayable",
					"type": "constructor"
				},
				{
					"inputs": [],
					"name": "AlreadyExists",
					"type": "error"
				},
				{
					"inputs": [],
					"name": "InvalidOwner",
					"type": "error"
				},
				{
					"inputs": [],
					"name": "InvalidRecipient",
					"type": "error"
				},
				{
					"inputs": [],
					"name": "InvalidSender",
					"type": "error"
				},
				{
					"inputs": [],
					"name": "NotFound",
					"type": "error"
				},
				{
					"inputs": [],
					"name": "Unauthorized",
					"type": "error"
				},
				{
					"inputs": [],
					"name": "UnsafeRecipient",
					"type": "error"
				},
				{
					"anonymous": false,
					"inputs": [
						{
							"indexed": true,
							"internalType": "address",
							"name": "owner",
							"type": "address"
						},
						{
							"indexed": true,
							"internalType": "address",
							"name": "spender",
							"type": "address"
						},
						{
							"indexed": false,
							"internalType": "uint256",
							"name": "amount",
							"type": "uint256"
						}
					],
					"name": "Approval",
					"type": "event"
				},
				{
					"anonymous": false,
					"inputs": [
						{
							"indexed": true,
							"internalType": "address",
							"name": "owner",
							"type": "address"
						},
						{
							"indexed": true,
							"internalType": "address",
							"name": "operator",
							"type": "address"
						},
						{
							"indexed": false,
							"internalType": "bool",
							"name": "approved",
							"type": "bool"
						}
					],
					"name": "ApprovalForAll",
					"type": "event"
				},
				{
					"anonymous": false,
					"inputs": [
						{
							"indexed": true,
							"internalType": "address",
							"name": "from",
							"type": "address"
						},
						{
							"indexed": true,
							"internalType": "address",
							"name": "to",
							"type": "address"
						},
						{
							"indexed": false,
							"internalType": "uint256",
							"name": "amount",
							"type": "uint256"
						}
					],
					"name": "ERC20Transfer",
					"type": "event"
				},
				{
					"anonymous": false,
					"inputs": [
						{
							"indexed": true,
							"internalType": "address",
							"name": "owner",
							"type": "address"
						},
						{
							"indexed": true,
							"internalType": "address",
							"name": "spender",
							"type": "address"
						},
						{
							"indexed": true,
							"internalType": "uint256",
							"name": "id",
							"type": "uint256"
						}
					],
					"name": "ERC721Approval",
					"type": "event"
				},
				{
					"anonymous": false,
					"inputs": [
						{
							"indexed": true,
							"internalType": "address",
							"name": "user",
							"type": "address"
						},
						{
							"indexed": true,
							"internalType": "address",
							"name": "newOwner",
							"type": "address"
						}
					],
					"name": "OwnershipTransferred",
					"type": "event"
				},
				{
					"anonymous": false,
					"inputs": [
						{
							"indexed": true,
							"internalType": "address",
							"name": "from",
							"type": "address"
						},
						{
							"indexed": true,
							"internalType": "address",
							"name": "to",
							"type": "address"
						},
						{
							"indexed": true,
							"internalType": "uint256",
							"name": "id",
							"type": "uint256"
						}
					],
					"name": "Transfer",
					"type": "event"
				},
				{
					"inputs": [
						{
							"internalType": "address",
							"name": "",
							"type": "address"
						},
						{
							"internalType": "address",
							"name": "",
							"type": "address"
						}
					],
					"name": "allowance",
					"outputs": [
						{
							"internalType": "uint256",
							"name": "",
							"type": "uint256"
						}
					],
					"stateMutability": "view",
					"type": "function"
				},
				{
					"inputs": [
						{
							"internalType": "address",
							"name": "spender",
							"type": "address"
						},
						{
							"internalType": "uint256",
							"name": "amountOrId",
							"type": "uint256"
						}
					],
					"name": "approve",
					"outputs": [
						{
							"internalType": "bool",
							"name": "",
							"type": "bool"
						}
					],
					"stateMutability": "nonpayable",
					"type": "function"
				},
				{
					"inputs": [
						{
							"internalType": "address",
							"name": "",
							"type": "address"
						}
					],
					"name": "balanceOf",
					"outputs": [
						{
							"internalType": "uint256",
							"name": "",
							"type": "uint256"
						}
					],
					"stateMutability": "view",
					"type": "function"
				},
				{
					"inputs": [],
					"name": "baseTokenURI",
					"outputs": [
						{
							"internalType": "string",
							"name": "",
							"type": "string"
						}
					],
					"stateMutability": "view",
					"type": "function"
				},
				{
					"inputs": [],
					"name": "dataURI",
					"outputs": [
						{
							"internalType": "string",
							"name": "",
							"type": "string"
						}
					],
					"stateMutability": "view",
					"type": "function"
				},
				{
					"inputs": [],
					"name": "decimals",
					"outputs": [
						{
							"internalType": "uint8",
							"name": "",
							"type": "uint8"
						}
					],
					"stateMutability": "view",
					"type": "function"
				},
				{
					"inputs": [
						{
							"internalType": "uint256",
							"name": "",
							"type": "uint256"
						}
					],
					"name": "getApproved",
					"outputs": [
						{
							"internalType": "address",
							"name": "",
							"type": "address"
						}
					],
					"stateMutability": "view",
					"type": "function"
				},
				{
					"inputs": [
						{
							"internalType": "address",
							"name": "",
							"type": "address"
						},
						{
							"internalType": "address",
							"name": "",
							"type": "address"
						}
					],
					"name": "isApprovedForAll",
					"outputs": [
						{
							"internalType": "bool",
							"name": "",
							"type": "bool"
						}
					],
					"stateMutability": "view",
					"type": "function"
				},
				{
					"inputs": [],
					"name": "minted",
					"outputs": [
						{
							"internalType": "uint256",
							"name": "",
							"type": "uint256"
						}
					],
					"stateMutability": "view",
					"type": "function"
				},
				{
					"inputs": [],
					"name": "name",
					"outputs": [
						{
							"internalType": "string",
							"name": "",
							"type": "string"
						}
					],
					"stateMutability": "view",
					"type": "function"
				},
				{
					"inputs": [],
					"name": "owner",
					"outputs": [
						{
							"internalType": "address",
							"name": "",
							"type": "address"
						}
					],
					"stateMutability": "view",
					"type": "function"
				},
				{
					"inputs": [
						{
							"internalType": "uint256",
							"name": "id",
							"type": "uint256"
						}
					],
					"name": "ownerOf",
					"outputs": [
						{
							"internalType": "address",
							"name": "owner",
							"type": "address"
						}
					],
					"stateMutability": "view",
					"type": "function"
				},
				{
					"inputs": [],
					"name": "revokeOwnership",
					"outputs": [],
					"stateMutability": "nonpayable",
					"type": "function"
				},
				{
					"inputs": [
						{
							"internalType": "address",
							"name": "from",
							"type": "address"
						},
						{
							"internalType": "address",
							"name": "to",
							"type": "address"
						},
						{
							"internalType": "uint256",
							"name": "id",
							"type": "uint256"
						}
					],
					"name": "safeTransferFrom",
					"outputs": [],
					"stateMutability": "nonpayable",
					"type": "function"
				},
				{
					"inputs": [
						{
							"internalType": "address",
							"name": "from",
							"type": "address"
						},
						{
							"internalType": "address",
							"name": "to",
							"type": "address"
						},
						{
							"internalType": "uint256",
							"name": "id",
							"type": "uint256"
						},
						{
							"internalType": "bytes",
							"name": "data",
							"type": "bytes"
						}
					],
					"name": "safeTransferFrom",
					"outputs": [],
					"stateMutability": "nonpayable",
					"type": "function"
				},
				{
					"inputs": [
						{
							"internalType": "address",
							"name": "operator",
							"type": "address"
						},
						{
							"internalType": "bool",
							"name": "approved",
							"type": "bool"
						}
					],
					"name": "setApprovalForAll",
					"outputs": [],
					"stateMutability": "nonpayable",
					"type": "function"
				},
				{
					"inputs": [
						{
							"internalType": "string",
							"name": "_dataURI",
							"type": "string"
						}
					],
					"name": "setDataURI",
					"outputs": [],
					"stateMutability": "nonpayable",
					"type": "function"
				},
				{
					"inputs": [
						{
							"internalType": "string",
							"name": "_name",
							"type": "string"
						},
						{
							"internalType": "string",
							"name": "_symbol",
							"type": "string"
						}
					],
					"name": "setNameSymbol",
					"outputs": [],
					"stateMutability": "nonpayable",
					"type": "function"
				},
				{
					"inputs": [
						{
							"internalType": "string",
							"name": "_tokenURI",
							"type": "string"
						}
					],
					"name": "setTokenURI",
					"outputs": [],
					"stateMutability": "nonpayable",
					"type": "function"
				},
				{
					"inputs": [
						{
							"internalType": "address",
							"name": "target",
							"type": "address"
						},
						{
							"internalType": "bool",
							"name": "state",
							"type": "bool"
						}
					],
					"name": "setWhitelist",
					"outputs": [],
					"stateMutability": "nonpayable",
					"type": "function"
				},
				{
					"inputs": [],
					"name": "symbol",
					"outputs": [
						{
							"internalType": "string",
							"name": "",
							"type": "string"
						}
					],
					"stateMutability": "view",
					"type": "function"
				},
				{
					"inputs": [
						{
							"internalType": "uint256",
							"name": "id",
							"type": "uint256"
						}
					],
					"name": "tokenURI",
					"outputs": [
						{
							"internalType": "string",
							"name": "",
							"type": "string"
						}
					],
					"stateMutability": "view",
					"type": "function"
				},
				{
					"inputs": [],
					"name": "totalSupply",
					"outputs": [
						{
							"internalType": "uint256",
							"name": "",
							"type": "uint256"
						}
					],
					"stateMutability": "view",
					"type": "function"
				},
				{
					"inputs": [
						{
							"internalType": "address",
							"name": "to",
							"type": "address"
						},
						{
							"internalType": "uint256",
							"name": "amount",
							"type": "uint256"
						}
					],
					"name": "transfer",
					"outputs": [
						{
							"internalType": "bool",
							"name": "",
							"type": "bool"
						}
					],
					"stateMutability": "nonpayable",
					"type": "function"
				},
				{
					"inputs": [
						{
							"internalType": "address",
							"name": "from",
							"type": "address"
						},
						{
							"internalType": "address",
							"name": "to",
							"type": "address"
						},
						{
							"internalType": "uint256",
							"name": "amountOrId",
							"type": "uint256"
						}
					],
					"name": "transferFrom",
					"outputs": [],
					"stateMutability": "nonpayable",
					"type": "function"
				},
				{
					"inputs": [
						{
							"internalType": "address",
							"name": "_owner",
							"type": "address"
						}
					],
					"name": "transferOwnership",
					"outputs": [],
					"stateMutability": "nonpayable",
					"type": "function"
				},
				{
					"inputs": [
						{
							"internalType": "address",
							"name": "",
							"type": "address"
						}
					],
					"name": "whitelist",
					"outputs": [
						{
							"internalType": "bool",
							"name": "",
							"type": "bool"
						}
					],
					"stateMutability": "view",
					"type": "function"
				}
			],
			"devdoc": {
				"kind": "dev",
				"methods": {
					"approve(address,uint256)": {
						"details": "This function assumes id / native if amount less than or equal to current max id"
					},
					"transferFrom(address,address,uint256)": {
						"details": "This function assumes id / native if amount less than or equal to current max id"
					}
				},
				"version": 1
			},
			"evm": {
				"assembly": "    /* \"contracts/404.sol\":145:2641  contract Error404 is ERC404 {... */\n  mstore(0x40, 0xc0)\n    /* \"contracts/404.sol\":243:387  constructor(... */\n  callvalue\n  dup1\n  iszero\n  tag_1\n  jumpi\n  0x00\n  dup1\n  revert\ntag_1:\n  pop\n  mload(0x40)\n  sub(codesize, bytecodeSize)\n  dup1\n  bytecodeSize\n  dup4\n  codecopy\n  dup2\n  add\n  0x40\n  dup2\n  swap1\n  mstore\n  tag_2\n  swap2\n  tag_3\n  jump\t// in\ntag_2:\n    /* \"contracts/ERC404.sol\":4192:4528  constructor(... */\n  0x40\n  dup1\n  mload\n  dup1\n  dup3\n  add\n  dup3\n  mstore\n  0x08\n  dup2\n  mstore\n  shl(0xc2, 0x115c9c9bdc8d0c0d)\n  0x20\n  dup1\n  dup4\n  add\n  swap2\n  swap1\n  swap2\n  mstore\n  dup3\n  mload\n  dup1\n  dup5\n  add\n  swap1\n  swap4\n  mstore\n  0x05\n  dup4\n  mstore\n  shl(0xd9, 0x22b93937b9)\n  swap1\n  dup4\n  add\n  mstore\n  swap1\n    /* \"contracts/404.sol\":315:317  18 */\n  0x12\n    /* \"contracts/404.sol\":319:323  1000 */\n  0x03e8\n    /* \"contracts/404.sol\":325:331  _owner */\n  dup5\n  dup1\n  sub(shl(0xa0, 0x01), 0x01)\n    /* \"contracts/ERC404.sol\":426:446  _owner == address(0) */\n  dup2\n  and\n    /* \"contracts/ERC404.sol\":422:469  if (_owner == address(0)) revert InvalidOwner() */\n  tag_8\n  jumpi\n    /* \"contracts/ERC404.sol\":455:469  InvalidOwner() */\n  mload(0x40)\n  shl(0xe0, 0x49e27cff)\n  dup2\n  mstore\n  0x04\n  add\n  mload(0x40)\n  dup1\n  swap2\n  sub\n  swap1\n  revert\n    /* \"contracts/ERC404.sol\":422:469  if (_owner == address(0)) revert InvalidOwner() */\ntag_8:\n    /* \"contracts/ERC404.sol\":482:487  owner */\n  0x00\n    /* \"contracts/ERC404.sol\":482:496  owner = _owner */\n  dup1\n  sload\n  not(sub(shl(0xa0, 0x01), 0x01))\n  and\n  sub(shl(0xa0, 0x01), 0x01)\n  dup4\n  and\n  swap1\n  dup2\n  or\n  dup3\n  sstore\n    /* \"contracts/ERC404.sol\":514:554  OwnershipTransferred(address(0), _owner) */\n  mload(0x40)\n    /* \"contracts/ERC404.sol\":482:496  owner = _owner */\n  swap1\n  swap2\n    /* \"contracts/ERC404.sol\":482:487  owner */\n  swap1\n    /* \"contracts/ERC404.sol\":514:554  OwnershipTransferred(address(0), _owner) */\n  0x8be0079c531659141344cd1fd0a4f28419497f9722a3daafe3b4186f6b6457e0\n  swap1\n    /* \"contracts/ERC404.sol\":482:487  owner */\n  dup3\n  swap1\n    /* \"contracts/ERC404.sol\":514:554  OwnershipTransferred(address(0), _owner) */\n  log3\n  pop\n    /* \"contracts/ERC404.sol\":4388:4392  name */\n  0x01\n    /* \"contracts/ERC404.sol\":4388:4400  name = _name */\n  tag_10\n    /* \"contracts/ERC404.sol\":4395:4400  _name */\n  dup7\n    /* \"contracts/ERC404.sol\":4388:4392  name */\n  dup3\n    /* \"contracts/ERC404.sol\":4388:4400  name = _name */\n  tag_11\n  jump\t// in\ntag_10:\n  pop\n    /* \"contracts/ERC404.sol\":4411:4417  symbol */\n  0x02\n    /* \"contracts/ERC404.sol\":4411:4427  symbol = _symbol */\n  tag_12\n    /* \"contracts/ERC404.sol\":4420:4427  _symbol */\n  dup6\n    /* \"contracts/ERC404.sol\":4411:4417  symbol */\n  dup3\n    /* \"contracts/ERC404.sol\":4411:4427  symbol = _symbol */\n  tag_11\n  jump\t// in\ntag_12:\n  pop\n    /* \"contracts/ERC404.sol\":4438:4458  decimals = _decimals */\n  0xff\n  dup4\n  and\n  0x80\n  dup2\n  swap1\n  mstore\n    /* \"contracts/ERC404.sol\":4505:4519  10 ** decimals */\n  tag_13\n  swap1\n    /* \"contracts/ERC404.sol\":4505:4507  10 */\n  0x0a\n    /* \"contracts/ERC404.sol\":4505:4519  10 ** decimals */\n  tag_14\n  jump\t// in\ntag_13:\n    /* \"contracts/ERC404.sol\":4483:4520  _totalNativeSupply * (10 ** decimals) */\n  tag_15\n  swap1\n    /* \"contracts/ERC404.sol\":4483:4501  _totalNativeSupply */\n  dup4\n    /* \"contracts/ERC404.sol\":4483:4520  _totalNativeSupply * (10 ** decimals) */\n  tag_16\n  jump\t// in\ntag_15:\n    /* \"contracts/ERC404.sol\":4469:4520  totalSupply = _totalNativeSupply * (10 ** decimals) */\n  0xa0\n  mstore\n  pop\n  pop\n  pop\n  sub(shl(0xa0, 0x01), 0x01)\n    /* \"contracts/404.sol\":344:361  balanceOf[_owner] */\n  swap1\n  swap3\n  and\n  0x00\n  swap1\n  dup2\n  mstore\n    /* \"contracts/404.sol\":344:353  balanceOf */\n  0x04\n    /* \"contracts/404.sol\":344:361  balanceOf[_owner] */\n  0x20\n  mstore\n  0x40\n  swap1\n  keccak256\n    /* \"contracts/404.sol\":364:379  1000 * 10 ** 18 */\n  0x3635c9adc5dea00000\n    /* \"contracts/404.sol\":344:379  balanceOf[_owner] = 1000 * 10 ** 18 */\n  swap1\n  sstore\n  pop\n    /* \"contracts/404.sol\":145:2641  contract Error404 is ERC404 {... */\n  tag_27\n  swap1\n  pop\n  jump\n    /* \"#utility.yul\":14:304   */\ntag_3:\n    /* \"#utility.yul\":84:90   */\n  0x00\n    /* \"#utility.yul\":137:139   */\n  0x20\n    /* \"#utility.yul\":125:134   */\n  dup3\n    /* \"#utility.yul\":116:123   */\n  dup5\n    /* \"#utility.yul\":112:135   */\n  sub\n    /* \"#utility.yul\":108:140   */\n  slt\n    /* \"#utility.yul\":105:157   */\n  iszero\n  tag_29\n  jumpi\n    /* \"#utility.yul\":153:154   */\n  0x00\n    /* \"#utility.yul\":150:151   */\n  dup1\n    /* \"#utility.yul\":143:155   */\n  revert\n    /* \"#utility.yul\":105:157   */\ntag_29:\n    /* \"#utility.yul\":179:195   */\n  dup2\n  mload\n  sub(shl(0xa0, 0x01), 0x01)\n    /* \"#utility.yul\":224:255   */\n  dup2\n  and\n    /* \"#utility.yul\":214:256   */\n  dup2\n  eq\n    /* \"#utility.yul\":204:274   */\n  tag_30\n  jumpi\n    /* \"#utility.yul\":270:271   */\n  0x00\n    /* \"#utility.yul\":267:268   */\n  dup1\n    /* \"#utility.yul\":260:272   */\n  revert\n    /* \"#utility.yul\":204:274   */\ntag_30:\n    /* \"#utility.yul\":293:298   */\n  swap4\n    /* \"#utility.yul\":14:304   */\n  swap3\n  pop\n  pop\n  pop\n  jump\t// out\n    /* \"#utility.yul\":309:436   */\ntag_19:\n    /* \"#utility.yul\":370:380   */\n  0x4e487b71\n    /* \"#utility.yul\":365:368   */\n  0xe0\n    /* \"#utility.yul\":361:381   */\n  shl\n    /* \"#utility.yul\":358:359   */\n  0x00\n    /* \"#utility.yul\":351:382   */\n  mstore\n    /* \"#utility.yul\":401:405   */\n  0x41\n    /* \"#utility.yul\":398:399   */\n  0x04\n    /* \"#utility.yul\":391:406   */\n  mstore\n    /* \"#utility.yul\":425:429   */\n  0x24\n    /* \"#utility.yul\":422:423   */\n  0x00\n    /* \"#utility.yul\":415:430   */\n  revert\n    /* \"#utility.yul\":441:821   */\ntag_20:\n    /* \"#utility.yul\":520:521   */\n  0x01\n    /* \"#utility.yul\":516:528   */\n  dup2\n  dup2\n  shr\n  swap1\n    /* \"#utility.yul\":563:575   */\n  dup3\n  and\n  dup1\n    /* \"#utility.yul\":584:645   */\n  tag_33\n  jumpi\n    /* \"#utility.yul\":638:642   */\n  0x7f\n    /* \"#utility.yul\":630:636   */\n  dup3\n    /* \"#utility.yul\":626:643   */\n  and\n    /* \"#utility.yul\":616:643   */\n  swap2\n  pop\n    /* \"#utility.yul\":584:645   */\ntag_33:\n    /* \"#utility.yul\":691:693   */\n  0x20\n    /* \"#utility.yul\":683:689   */\n  dup3\n    /* \"#utility.yul\":680:694   */\n  lt\n    /* \"#utility.yul\":660:678   */\n  dup2\n    /* \"#utility.yul\":657:695   */\n  sub\n    /* \"#utility.yul\":654:815   */\n  tag_34\n  jumpi\n    /* \"#utility.yul\":737:747   */\n  0x4e487b71\n    /* \"#utility.yul\":732:735   */\n  0xe0\n    /* \"#utility.yul\":728:748   */\n  shl\n    /* \"#utility.yul\":725:726   */\n  0x00\n    /* \"#utility.yul\":718:749   */\n  mstore\n    /* \"#utility.yul\":772:776   */\n  0x22\n    /* \"#utility.yul\":769:770   */\n  0x04\n    /* \"#utility.yul\":762:777   */\n  mstore\n    /* \"#utility.yul\":800:804   */\n  0x24\n    /* \"#utility.yul\":797:798   */\n  0x00\n    /* \"#utility.yul\":790:805   */\n  revert\n    /* \"#utility.yul\":654:815   */\ntag_34:\n  pop\n    /* \"#utility.yul\":441:821   */\n  swap2\n  swap1\n  pop\n  jump\t// out\n    /* \"#utility.yul\":952:1470   */\ntag_22:\n    /* \"#utility.yul\":1054:1056   */\n  0x1f\n    /* \"#utility.yul\":1049:1052   */\n  dup3\n    /* \"#utility.yul\":1046:1057   */\n  gt\n    /* \"#utility.yul\":1043:1464   */\n  iszero\n  tag_37\n  jumpi\n    /* \"#utility.yul\":1090:1095   */\n  dup1\n    /* \"#utility.yul\":1087:1088   */\n  0x00\n    /* \"#utility.yul\":1080:1096   */\n  mstore\n    /* \"#utility.yul\":1134:1138   */\n  0x20\n    /* \"#utility.yul\":1131:1132   */\n  0x00\n    /* \"#utility.yul\":1121:1139   */\n  keccak256\n    /* \"#utility.yul\":1204:1206   */\n  0x1f\n    /* \"#utility.yul\":1192:1202   */\n  dup5\n    /* \"#utility.yul\":1188:1207   */\n  add\n    /* \"#utility.yul\":1185:1186   */\n  0x05\n    /* \"#utility.yul\":1181:1208   */\n  shr\n    /* \"#utility.yul\":1175:1179   */\n  dup2\n    /* \"#utility.yul\":1171:1209   */\n  add\n    /* \"#utility.yul\":1240:1244   */\n  0x20\n    /* \"#utility.yul\":1228:1238   */\n  dup6\n    /* \"#utility.yul\":1225:1245   */\n  lt\n    /* \"#utility.yul\":1222:1269   */\n  iszero\n  tag_38\n  jumpi\n  pop\n    /* \"#utility.yul\":1263:1267   */\n  dup1\n    /* \"#utility.yul\":1222:1269   */\ntag_38:\n    /* \"#utility.yul\":1318:1320   */\n  0x1f\n    /* \"#utility.yul\":1313:1316   */\n  dup5\n    /* \"#utility.yul\":1309:1321   */\n  add\n    /* \"#utility.yul\":1306:1307   */\n  0x05\n    /* \"#utility.yul\":1302:1322   */\n  shr\n    /* \"#utility.yul\":1296:1300   */\n  dup3\n    /* \"#utility.yul\":1292:1323   */\n  add\n    /* \"#utility.yul\":1282:1323   */\n  swap2\n  pop\n    /* \"#utility.yul\":1373:1454   */\ntag_39:\n    /* \"#utility.yul\":1391:1393   */\n  dup2\n    /* \"#utility.yul\":1384:1389   */\n  dup2\n    /* \"#utility.yul\":1381:1394   */\n  lt\n    /* \"#utility.yul\":1373:1454   */\n  iszero\n  tag_41\n  jumpi\n    /* \"#utility.yul\":1450:1451   */\n  0x00\n    /* \"#utility.yul\":1436:1452   */\n  dup2\n  sstore\n    /* \"#utility.yul\":1417:1418   */\n  0x01\n    /* \"#utility.yul\":1406:1419   */\n  add\n    /* \"#utility.yul\":1373:1454   */\n  jump(tag_39)\ntag_41:\n    /* \"#utility.yul\":1377:1380   */\n  pop\n  pop\n    /* \"#utility.yul\":1043:1464   */\ntag_37:\n    /* \"#utility.yul\":952:1470   */\n  pop\n  pop\n  pop\n  jump\t// out\n    /* \"#utility.yul\":1646:2991   */\ntag_11:\n    /* \"#utility.yul\":1766:1776   */\n  dup2\n  mload\n  sub(shl(0x40, 0x01), 0x01)\n    /* \"#utility.yul\":1788:1818   */\n  dup2\n  gt\n    /* \"#utility.yul\":1785:1841   */\n  iszero\n  tag_45\n  jumpi\n    /* \"#utility.yul\":1821:1839   */\n  tag_45\n  tag_19\n  jump\t// in\ntag_45:\n    /* \"#utility.yul\":1850:1947   */\n  tag_46\n    /* \"#utility.yul\":1940:1946   */\n  dup2\n    /* \"#utility.yul\":1900:1938   */\n  tag_47\n    /* \"#utility.yul\":1932:1936   */\n  dup5\n    /* \"#utility.yul\":1926:1937   */\n  sload\n    /* \"#utility.yul\":1900:1938   */\n  tag_20\n  jump\t// in\ntag_47:\n    /* \"#utility.yul\":1894:1898   */\n  dup5\n    /* \"#utility.yul\":1850:1947   */\n  tag_22\n  jump\t// in\ntag_46:\n    /* \"#utility.yul\":2002:2006   */\n  0x20\n  dup1\n    /* \"#utility.yul\":2059:2061   */\n  0x1f\n    /* \"#utility.yul\":2048:2062   */\n  dup4\n  gt\n    /* \"#utility.yul\":2076:2077   */\n  0x01\n    /* \"#utility.yul\":2071:2734   */\n  dup2\n  eq\n  tag_49\n  jumpi\n    /* \"#utility.yul\":2778:2779   */\n  0x00\n    /* \"#utility.yul\":2795:2801   */\n  dup5\n    /* \"#utility.yul\":2792:2881   */\n  iszero\n  tag_50\n  jumpi\n  pop\n    /* \"#utility.yul\":2847:2866   */\n  dup6\n  dup4\n  add\n    /* \"#utility.yul\":2841:2867   */\n  mload\n    /* \"#utility.yul\":2792:2881   */\ntag_50:\n  not(0x00)\n    /* \"#utility.yul\":1603:1604   */\n  0x03\n    /* \"#utility.yul\":1599:1610   */\n  dup7\n  swap1\n  shl\n    /* \"#utility.yul\":1595:1619   */\n  shr\n    /* \"#utility.yul\":1591:1620   */\n  not\n    /* \"#utility.yul\":1581:1621   */\n  and\n    /* \"#utility.yul\":1627:1628   */\n  0x01\n    /* \"#utility.yul\":1623:1634   */\n  dup6\n  swap1\n  shl\n    /* \"#utility.yul\":1578:1635   */\n  or\n    /* \"#utility.yul\":2894:2975   */\n  dup6\n  sstore\n    /* \"#utility.yul\":2041:2985   */\n  jump(tag_48)\n    /* \"#utility.yul\":2071:2734   */\ntag_49:\n    /* \"#utility.yul\":899:900   */\n  0x00\n    /* \"#utility.yul\":892:906   */\n  dup6\n  dup2\n  mstore\n    /* \"#utility.yul\":936:940   */\n  0x20\n    /* \"#utility.yul\":923:941   */\n  dup2\n  keccak256\n  not(0x1f)\n    /* \"#utility.yul\":2107:2127   */\n  dup7\n  and\n  swap2\n    /* \"#utility.yul\":2225:2461   */\ntag_53:\n    /* \"#utility.yul\":2239:2246   */\n  dup3\n    /* \"#utility.yul\":2236:2237   */\n  dup2\n    /* \"#utility.yul\":2233:2247   */\n  lt\n    /* \"#utility.yul\":2225:2461   */\n  iszero\n  tag_55\n  jumpi\n    /* \"#utility.yul\":2328:2347   */\n  dup9\n  dup7\n  add\n    /* \"#utility.yul\":2322:2348   */\n  mload\n    /* \"#utility.yul\":2307:2349   */\n  dup3\n  sstore\n    /* \"#utility.yul\":2420:2447   */\n  swap5\n  dup5\n  add\n  swap5\n    /* \"#utility.yul\":2388:2389   */\n  0x01\n    /* \"#utility.yul\":2376:2390   */\n  swap1\n  swap2\n  add\n  swap1\n    /* \"#utility.yul\":2255:2274   */\n  dup5\n  add\n    /* \"#utility.yul\":2225:2461   */\n  jump(tag_53)\ntag_55:\n    /* \"#utility.yul\":2229:2232   */\n  pop\n    /* \"#utility.yul\":2489:2495   */\n  dup6\n    /* \"#utility.yul\":2480:2487   */\n  dup3\n    /* \"#utility.yul\":2477:2496   */\n  lt\n    /* \"#utility.yul\":2474:2675   */\n  iszero\n  tag_56\n  jumpi\n    /* \"#utility.yul\":2550:2569   */\n  dup8\n  dup6\n  add\n    /* \"#utility.yul\":2544:2570   */\n  mload\n  not(0x00)\n    /* \"#utility.yul\":2633:2634   */\n  0x03\n    /* \"#utility.yul\":2629:2643   */\n  dup9\n  swap1\n  shl\n    /* \"#utility.yul\":2645:2648   */\n  0xf8\n    /* \"#utility.yul\":2625:2649   */\n  and\n    /* \"#utility.yul\":2621:2658   */\n  shr\n    /* \"#utility.yul\":2617:2659   */\n  not\n    /* \"#utility.yul\":2602:2660   */\n  and\n    /* \"#utility.yul\":2587:2661   */\n  dup2\n  sstore\n    /* \"#utility.yul\":2474:2675   */\ntag_56:\n  pop\n  pop\n    /* \"#utility.yul\":2721:2722   */\n  0x01\n    /* \"#utility.yul\":2712:2718   */\n  dup5\n    /* \"#utility.yul\":2709:2710   */\n  0x01\n    /* \"#utility.yul\":2705:2719   */\n  shl\n    /* \"#utility.yul\":2701:2723   */\n  add\n    /* \"#utility.yul\":2695:2699   */\n  dup6\n    /* \"#utility.yul\":2688:2724   */\n  sstore\n    /* \"#utility.yul\":2041:2985   */\ntag_48:\n  pop\n  pop\n  pop\n  pop\n    /* \"#utility.yul\":1646:2991   */\n  pop\n  pop\n  jump\t// out\n    /* \"#utility.yul\":2996:3123   */\ntag_24:\n    /* \"#utility.yul\":3057:3067   */\n  0x4e487b71\n    /* \"#utility.yul\":3052:3055   */\n  0xe0\n    /* \"#utility.yul\":3048:3068   */\n  shl\n    /* \"#utility.yul\":3045:3046   */\n  0x00\n    /* \"#utility.yul\":3038:3069   */\n  mstore\n    /* \"#utility.yul\":3088:3092   */\n  0x11\n    /* \"#utility.yul\":3085:3086   */\n  0x04\n    /* \"#utility.yul\":3078:3093   */\n  mstore\n    /* \"#utility.yul\":3112:3116   */\n  0x24\n    /* \"#utility.yul\":3109:3110   */\n  0x00\n    /* \"#utility.yul\":3102:3117   */\n  revert\n    /* \"#utility.yul\":3128:3544   */\ntag_25:\n    /* \"#utility.yul\":3217:3218   */\n  0x01\n    /* \"#utility.yul\":3254:3259   */\n  dup2\n    /* \"#utility.yul\":3217:3218   */\n  dup2\n    /* \"#utility.yul\":3268:3538   */\ntag_59:\n    /* \"#utility.yul\":3289:3296   */\n  dup1\n    /* \"#utility.yul\":3279:3287   */\n  dup6\n    /* \"#utility.yul\":3276:3297   */\n  gt\n    /* \"#utility.yul\":3268:3538   */\n  iszero\n  tag_61\n  jumpi\n    /* \"#utility.yul\":3348:3352   */\n  dup2\n    /* \"#utility.yul\":3344:3345   */\n  0x00\n    /* \"#utility.yul\":3340:3346   */\n  not\n    /* \"#utility.yul\":3336:3353   */\n  div\n    /* \"#utility.yul\":3330:3334   */\n  dup3\n    /* \"#utility.yul\":3327:3354   */\n  gt\n    /* \"#utility.yul\":3324:3377   */\n  iszero\n  tag_63\n  jumpi\n    /* \"#utility.yul\":3357:3375   */\n  tag_63\n  tag_24\n  jump\t// in\ntag_63:\n    /* \"#utility.yul\":3407:3414   */\n  dup1\n    /* \"#utility.yul\":3397:3405   */\n  dup6\n    /* \"#utility.yul\":3393:3415   */\n  and\n    /* \"#utility.yul\":3390:3445   */\n  iszero\n  tag_64\n  jumpi\n    /* \"#utility.yul\":3427:3443   */\n  swap2\n  dup2\n  mul\n  swap2\n    /* \"#utility.yul\":3390:3445   */\ntag_64:\n    /* \"#utility.yul\":3506:3528   */\n  swap4\n  dup5\n  shr\n  swap4\n    /* \"#utility.yul\":3466:3481   */\n  swap1\n  dup1\n  mul\n  swap1\n    /* \"#utility.yul\":3268:3538   */\n  jump(tag_59)\ntag_61:\n    /* \"#utility.yul\":3272:3275   */\n  pop\n    /* \"#utility.yul\":3128:3544   */\n  swap3\n  pop\n  swap3\n  swap1\n  pop\n  jump\t// out\n    /* \"#utility.yul\":3549:4355   */\ntag_26:\n    /* \"#utility.yul\":3598:3603   */\n  0x00\n    /* \"#utility.yul\":3628:3636   */\n  dup3\n    /* \"#utility.yul\":3618:3698   */\n  tag_66\n  jumpi\n  pop\n    /* \"#utility.yul\":3669:3670   */\n  0x01\n    /* \"#utility.yul\":3683:3688   */\n  jump(tag_65)\n    /* \"#utility.yul\":3618:3698   */\ntag_66:\n    /* \"#utility.yul\":3717:3721   */\n  dup2\n    /* \"#utility.yul\":3707:3783   */\n  tag_67\n  jumpi\n  pop\n    /* \"#utility.yul\":3754:3755   */\n  0x00\n    /* \"#utility.yul\":3768:3773   */\n  jump(tag_65)\n    /* \"#utility.yul\":3707:3783   */\ntag_67:\n    /* \"#utility.yul\":3799:3803   */\n  dup2\n    /* \"#utility.yul\":3817:3818   */\n  0x01\n    /* \"#utility.yul\":3812:3871   */\n  dup2\n  eq\n  tag_69\n  jumpi\n    /* \"#utility.yul\":3885:3886   */\n  0x02\n    /* \"#utility.yul\":3880:4010   */\n  dup2\n  eq\n  tag_70\n  jumpi\n    /* \"#utility.yul\":3792:4010   */\n  jump(tag_68)\n    /* \"#utility.yul\":3812:3871   */\ntag_69:\n    /* \"#utility.yul\":3842:3843   */\n  0x01\n    /* \"#utility.yul\":3833:3843   */\n  swap2\n  pop\n    /* \"#utility.yul\":3856:3861   */\n  pop\n  jump(tag_65)\n    /* \"#utility.yul\":3880:4010   */\ntag_70:\n    /* \"#utility.yul\":3917:3920   */\n  0xff\n    /* \"#utility.yul\":3907:3915   */\n  dup5\n    /* \"#utility.yul\":3904:3921   */\n  gt\n    /* \"#utility.yul\":3901:3944   */\n  iszero\n  tag_72\n  jumpi\n    /* \"#utility.yul\":3924:3942   */\n  tag_72\n  tag_24\n  jump\t// in\ntag_72:\n  pop\n  pop\n    /* \"#utility.yul\":3980:3981   */\n  0x01\n    /* \"#utility.yul\":3966:3982   */\n  dup3\n  shl\n    /* \"#utility.yul\":3995:4000   */\n  jump(tag_65)\n    /* \"#utility.yul\":3792:4010   */\ntag_68:\n  pop\n    /* \"#utility.yul\":4094:4096   */\n  0x20\n    /* \"#utility.yul\":4084:4092   */\n  dup4\n    /* \"#utility.yul\":4081:4097   */\n  lt\n    /* \"#utility.yul\":4075:4078   */\n  0x0133\n    /* \"#utility.yul\":4069:4073   */\n  dup4\n    /* \"#utility.yul\":4066:4079   */\n  lt\n    /* \"#utility.yul\":4062:4098   */\n  and\n    /* \"#utility.yul\":4056:4058   */\n  0x4e\n    /* \"#utility.yul\":4046:4054   */\n  dup5\n    /* \"#utility.yul\":4043:4059   */\n  lt\n    /* \"#utility.yul\":4038:4040   */\n  0x0b\n    /* \"#utility.yul\":4032:4036   */\n  dup5\n    /* \"#utility.yul\":4029:4041   */\n  lt\n    /* \"#utility.yul\":4025:4060   */\n  and\n    /* \"#utility.yul\":4022:4099   */\n  or\n    /* \"#utility.yul\":4019:4178   */\n  iszero\n  tag_73\n  jumpi\n  pop\n    /* \"#utility.yul\":4131:4150   */\n  dup2\n  dup2\n  exp\n    /* \"#utility.yul\":4163:4168   */\n  jump(tag_65)\n    /* \"#utility.yul\":4019:4178   */\ntag_73:\n    /* \"#utility.yul\":4210:4244   */\n  tag_74\n    /* \"#utility.yul\":4235:4243   */\n  dup4\n    /* \"#utility.yul\":4229:4233   */\n  dup4\n    /* \"#utility.yul\":4210:4244   */\n  tag_25\n  jump\t// in\ntag_74:\n    /* \"#utility.yul\":4280:4286   */\n  dup1\n    /* \"#utility.yul\":4276:4277   */\n  0x00\n    /* \"#utility.yul\":4272:4278   */\n  not\n    /* \"#utility.yul\":4268:4287   */\n  div\n    /* \"#utility.yul\":4259:4266   */\n  dup3\n    /* \"#utility.yul\":4256:4288   */\n  gt\n    /* \"#utility.yul\":4253:4311   */\n  iszero\n  tag_76\n  jumpi\n    /* \"#utility.yul\":4291:4309   */\n  tag_76\n  tag_24\n  jump\t// in\ntag_76:\n    /* \"#utility.yul\":4329:4349   */\n  mul\n  swap1\n  pop\n    /* \"#utility.yul\":3549:4355   */\ntag_65:\n  swap3\n  swap2\n  pop\n  pop\n  jump\t// out\n    /* \"#utility.yul\":4360:4500   */\ntag_14:\n    /* \"#utility.yul\":4418:4423   */\n  0x00\n    /* \"#utility.yul\":4447:4494   */\n  tag_30\n    /* \"#utility.yul\":4488:4492   */\n  0xff\n    /* \"#utility.yul\":4478:4486   */\n  dup5\n    /* \"#utility.yul\":4474:4493   */\n  and\n    /* \"#utility.yul\":4468:4472   */\n  dup4\n    /* \"#utility.yul\":4447:4494   */\n  tag_26\n  jump\t// in\n    /* \"#utility.yul\":4505:4673   */\ntag_16:\n    /* \"#utility.yul\":4578:4587   */\n  dup1\n  dup3\n  mul\n    /* \"#utility.yul\":4609:4618   */\n  dup2\n  iszero\n    /* \"#utility.yul\":4626:4641   */\n  dup3\n  dup3\n  div\n    /* \"#utility.yul\":4620:4642   */\n  dup5\n  eq\n    /* \"#utility.yul\":4606:4643   */\n  or\n    /* \"#utility.yul\":4596:4667   */\n  tag_65\n  jumpi\n    /* \"#utility.yul\":4647:4665   */\n  tag_65\n  tag_24\n  jump\t// in\n    /* \"#utility.yul\":4505:4673   */\ntag_27:\n    /* \"contracts/404.sol\":145:2641  contract Error404 is ERC404 {... */\n  mload(0x80)\n  mload(0xa0)\n  codecopy(0x00, dataOffset(sub_0), dataSize(sub_0))\n  0x00\n  assignImmutable(\"0x4b9044d5bc6ba44442a1df27306428d11c346e9c70e9b5554dc9be4b73f26e86\")\n  0x00\n  assignImmutable(\"0x36061140490c116ac0dc9894ee670d65d115415001ecff6da5cb5610f086e0c5\")\n  return(0x00, dataSize(sub_0))\nstop\n\nsub_0: assembly {\n        /* \"contracts/404.sol\":145:2641  contract Error404 is ERC404 {... */\n      mstore(0x40, 0x80)\n      callvalue\n      dup1\n      iszero\n      tag_1\n      jumpi\n      0x00\n      dup1\n      revert\n    tag_1:\n      pop\n      jumpi(tag_2, lt(calldatasize, 0x04))\n      shr(0xe0, calldataload(0x00))\n      dup1\n      0x70a08231\n      gt\n      tag_30\n      jumpi\n      dup1\n      0xc87b56dd\n      gt\n      tag_31\n      jumpi\n      dup1\n      0xe0df5b6f\n      gt\n      tag_32\n      jumpi\n      dup1\n      0xe0df5b6f\n      eq\n      tag_26\n      jumpi\n      dup1\n      0xe985e9c5\n      eq\n      tag_27\n      jumpi\n      dup1\n      0xf28ca1dd\n      eq\n      tag_28\n      jumpi\n      dup1\n      0xf2fde38b\n      eq\n      tag_29\n      jumpi\n      0x00\n      dup1\n      revert\n    tag_32:\n      dup1\n      0xc87b56dd\n      eq\n      tag_23\n      jumpi\n      dup1\n      0xd547cfb7\n      eq\n      tag_24\n      jumpi\n      dup1\n      0xdd62ed3e\n      eq\n      tag_25\n      jumpi\n      0x00\n      dup1\n      revert\n    tag_31:\n      dup1\n      0x9b19251a\n      gt\n      tag_33\n      jumpi\n      dup1\n      0x9b19251a\n      eq\n      tag_19\n      jumpi\n      dup1\n      0xa22cb465\n      eq\n      tag_20\n      jumpi\n      dup1\n      0xa9059cbb\n      eq\n      tag_21\n      jumpi\n      dup1\n      0xb88d4fde\n      eq\n      tag_22\n      jumpi\n      0x00\n      dup1\n      revert\n    tag_33:\n      dup1\n      0x70a08231\n      eq\n      tag_16\n      jumpi\n      dup1\n      0x8da5cb5b\n      eq\n      tag_17\n      jumpi\n      dup1\n      0x95d89b41\n      eq\n      tag_18\n      jumpi\n      0x00\n      dup1\n      revert\n    tag_30:\n      dup1\n      0x2b968958\n      gt\n      tag_34\n      jumpi\n      dup1\n      0x4f02c420\n      gt\n      tag_35\n      jumpi\n      dup1\n      0x4f02c420\n      eq\n      tag_12\n      jumpi\n      dup1\n      0x504334c2\n      eq\n      tag_13\n      jumpi\n      dup1\n      0x53d6fd59\n      eq\n      tag_14\n      jumpi\n      dup1\n      0x6352211e\n      eq\n      tag_15\n      jumpi\n      0x00\n      dup1\n      revert\n    tag_35:\n      dup1\n      0x2b968958\n      eq\n      tag_9\n      jumpi\n      dup1\n      0x313ce567\n      eq\n      tag_10\n      jumpi\n      dup1\n      0x42842e0e\n      eq\n      tag_11\n      jumpi\n      0x00\n      dup1\n      revert\n    tag_34:\n      dup1\n      0x06fdde03\n      eq\n      tag_3\n      jumpi\n      dup1\n      0x081812fc\n      eq\n      tag_4\n      jumpi\n      dup1\n      0x095ea7b3\n      eq\n      tag_5\n      jumpi\n      dup1\n      0x18160ddd\n      eq\n      tag_6\n      jumpi\n      dup1\n      0x18d217c3\n      eq\n      tag_7\n      jumpi\n      dup1\n      0x23b872dd\n      eq\n      tag_8\n      jumpi\n    tag_2:\n      0x00\n      dup1\n      revert\n        /* \"contracts/ERC404.sol\":2800:2818  string public name */\n    tag_3:\n      tag_36\n      tag_37\n      jump\t// in\n    tag_36:\n      mload(0x40)\n      tag_38\n      swap2\n      swap1\n      tag_39\n      jump\t// in\n    tag_38:\n      mload(0x40)\n      dup1\n      swap2\n      sub\n      swap1\n      return\n        /* \"contracts/ERC404.sol\":3511:3557  mapping(uint256 => address) public getApproved */\n    tag_4:\n      tag_40\n      tag_41\n      calldatasize\n      0x04\n      tag_42\n      jump\t// in\n    tag_41:\n      mstore(0x20, 0x06)\n      0x00\n      swap1\n      dup2\n      mstore\n      0x40\n      swap1\n      keccak256\n      sload\n      sub(shl(0xa0, 0x01), 0x01)\n      and\n      dup2\n      jump\n    tag_40:\n      mload(0x40)\n      sub(shl(0xa0, 0x01), 0x01)\n        /* \"#utility.yul\":1019:1051   */\n      swap1\n      swap2\n      and\n        /* \"#utility.yul\":1001:1052   */\n      dup2\n      mstore\n        /* \"#utility.yul\":989:991   */\n      0x20\n        /* \"#utility.yul\":974:992   */\n      add\n        /* \"contracts/ERC404.sol\":3511:3557  mapping(uint256 => address) public getApproved */\n      tag_38\n        /* \"#utility.yul\":855:1058   */\n      jump\n        /* \"contracts/ERC404.sol\":5342:5984  function approve(... */\n    tag_5:\n      tag_46\n      tag_47\n      calldatasize\n      0x04\n      tag_48\n      jump\t// in\n    tag_47:\n      tag_49\n      jump\t// in\n    tag_46:\n      mload(0x40)\n        /* \"#utility.yul\":1665:1679   */\n      swap1\n      iszero\n        /* \"#utility.yul\":1658:1680   */\n      iszero\n        /* \"#utility.yul\":1640:1681   */\n      dup2\n      mstore\n        /* \"#utility.yul\":1628:1630   */\n      0x20\n        /* \"#utility.yul\":1613:1631   */\n      add\n        /* \"contracts/ERC404.sol\":5342:5984  function approve(... */\n      tag_38\n        /* \"#utility.yul\":1500:1687   */\n      jump\n        /* \"contracts/ERC404.sol\":3036:3072  uint256 public immutable totalSupply */\n    tag_6:\n      tag_52\n      immutable(\"0x4b9044d5bc6ba44442a1df27306428d11c346e9c70e9b5554dc9be4b73f26e86\")\n      dup2\n      jump\n    tag_52:\n      mload(0x40)\n        /* \"#utility.yul\":1838:1863   */\n      swap1\n      dup2\n      mstore\n        /* \"#utility.yul\":1826:1828   */\n      0x20\n        /* \"#utility.yul\":1811:1829   */\n      add\n        /* \"contracts/ERC404.sol\":3036:3072  uint256 public immutable totalSupply */\n      tag_38\n        /* \"#utility.yul\":1692:1869   */\n      jump\n        /* \"contracts/404.sol\":395:493  function setDataURI(string memory _dataURI) public onlyOwner {... */\n    tag_7:\n      tag_56\n      tag_57\n      calldatasize\n      0x04\n      tag_58\n      jump\t// in\n    tag_57:\n      tag_59\n      jump\t// in\n    tag_56:\n      stop\n        /* \"contracts/ERC404.sol\":6391:8107  function transferFrom(... */\n    tag_8:\n      tag_56\n      tag_61\n      calldatasize\n      0x04\n      tag_62\n      jump\t// in\n    tag_61:\n      tag_63\n      jump\t// in\n        /* \"contracts/ERC404.sol\":797:948  function revokeOwnership() public virtual onlyOwner {... */\n    tag_9:\n      tag_56\n      tag_65\n      jump\t// in\n        /* \"contracts/ERC404.sol\":2936:2967  uint8 public immutable decimals */\n    tag_10:\n      tag_66\n      immutable(\"0x36061140490c116ac0dc9894ee670d65d115415001ecff6da5cb5610f086e0c5\")\n      dup2\n      jump\n    tag_66:\n      mload(0x40)\n        /* \"#utility.yul\":3562:3566   */\n      0xff\n        /* \"#utility.yul\":3550:3567   */\n      swap1\n      swap2\n      and\n        /* \"#utility.yul\":3532:3568   */\n      dup2\n      mstore\n        /* \"#utility.yul\":3520:3522   */\n      0x20\n        /* \"#utility.yul\":3505:3523   */\n      add\n        /* \"contracts/ERC404.sol\":2936:2967  uint8 public immutable decimals */\n      tag_38\n        /* \"#utility.yul\":3390:3574   */\n      jump\n        /* \"contracts/ERC404.sol\":8403:8808  function safeTransferFrom(... */\n    tag_11:\n      tag_56\n      tag_71\n      calldatasize\n      0x04\n      tag_62\n      jump\t// in\n    tag_71:\n      tag_72\n      jump\t// in\n        /* \"contracts/ERC404.sol\":3171:3192  uint256 public minted */\n    tag_12:\n      tag_52\n      sload(0x03)\n      dup2\n      jump\n        /* \"contracts/404.sol\":615:773  function setNameSymbol(... */\n    tag_13:\n      tag_56\n      tag_77\n      calldatasize\n      0x04\n      tag_78\n      jump\t// in\n    tag_77:\n      tag_79\n      jump\t// in\n        /* \"contracts/ERC404.sol\":4671:4782  function setWhitelist(address target, bool state) public onlyOwner {... */\n    tag_14:\n      tag_56\n      tag_81\n      calldatasize\n      0x04\n      tag_82\n      jump\t// in\n    tag_81:\n      tag_83\n      jump\t// in\n        /* \"contracts/ERC404.sol\":4854:5047  function ownerOf(uint256 id) public view virtual returns (address owner) {... */\n    tag_15:\n      tag_40\n      tag_85\n      calldatasize\n      0x04\n      tag_42\n      jump\t// in\n    tag_85:\n      tag_86\n      jump\t// in\n        /* \"contracts/ERC404.sol\":3277:3321  mapping(address => uint256) public balanceOf */\n    tag_16:\n      tag_52\n      tag_89\n      calldatasize\n      0x04\n      tag_90\n      jump\t// in\n    tag_89:\n      mstore(0x20, 0x04)\n      0x00\n      swap1\n      dup2\n      mstore\n      0x40\n      swap1\n      keccak256\n      sload\n      dup2\n      jump\n        /* \"contracts/ERC404.sol\":238:258  address public owner */\n    tag_17:\n      sload(0x00)\n      tag_40\n      swap1\n      sub(shl(0xa0, 0x01), 0x01)\n      and\n      dup2\n      jump\n        /* \"contracts/ERC404.sol\":2854:2874  string public symbol */\n    tag_18:\n      tag_36\n      tag_97\n      jump\t// in\n        /* \"contracts/ERC404.sol\":4122:4163  mapping(address => bool) public whitelist */\n    tag_19:\n      tag_46\n      tag_100\n      calldatasize\n      0x04\n      tag_90\n      jump\t// in\n    tag_100:\n      mstore(0x20, 0x0b)\n      0x00\n      swap1\n      dup2\n      mstore\n      0x40\n      swap1\n      keccak256\n      sload\n      0xff\n      and\n      dup2\n      jump\n        /* \"contracts/ERC404.sol\":6035:6242  function setApprovalForAll(address operator, bool approved) public virtual {... */\n    tag_20:\n      tag_56\n      tag_104\n      calldatasize\n      0x04\n      tag_82\n      jump\t// in\n    tag_104:\n      tag_105\n      jump\t// in\n        /* \"contracts/ERC404.sol\":8166:8326  function transfer(... */\n    tag_21:\n      tag_46\n      tag_107\n      calldatasize\n      0x04\n      tag_48\n      jump\t// in\n    tag_107:\n      tag_108\n      jump\t// in\n        /* \"contracts/ERC404.sol\":8903:9340  function safeTransferFrom(... */\n    tag_22:\n      tag_56\n      tag_111\n      calldatasize\n      0x04\n      tag_112\n      jump\t// in\n    tag_111:\n      tag_113\n      jump\t// in\n        /* \"contracts/404.sol\":781:2638  function tokenURI(uint256 id) public view override returns (string memory) {... */\n    tag_23:\n      tag_36\n      tag_115\n      calldatasize\n      0x04\n      tag_42\n      jump\t// in\n    tag_115:\n      tag_116\n      jump\t// in\n        /* \"contracts/404.sol\":208:234  string public baseTokenURI */\n    tag_24:\n      tag_36\n      tag_119\n      jump\t// in\n        /* \"contracts/ERC404.sol\":3391:3455  mapping(address => mapping(address => uint256)) public allowance */\n    tag_25:\n      tag_52\n      tag_122\n      calldatasize\n      0x04\n      tag_123\n      jump\t// in\n    tag_122:\n      0x05\n      0x20\n      swap1\n      dup2\n      mstore\n      0x00\n      swap3\n      dup4\n      mstore\n      0x40\n      dup1\n      dup5\n      keccak256\n      swap1\n      swap2\n      mstore\n      swap1\n      dup3\n      mstore\n      swap1\n      keccak256\n      sload\n      dup2\n      jump\n        /* \"contracts/404.sol\":501:607  function setTokenURI(string memory _tokenURI) public onlyOwner {... */\n    tag_26:\n      tag_56\n      tag_127\n      calldatasize\n      0x04\n      tag_58\n      jump\t// in\n    tag_127:\n      tag_128\n      jump\t// in\n        /* \"contracts/ERC404.sol\":3622:3690  mapping(address => mapping(address => bool)) public isApprovedForAll */\n    tag_27:\n      tag_46\n      tag_130\n      calldatasize\n      0x04\n      tag_123\n      jump\t// in\n    tag_130:\n      0x07\n      0x20\n      swap1\n      dup2\n      mstore\n      0x00\n      swap3\n      dup4\n      mstore\n      0x40\n      dup1\n      dup5\n      keccak256\n      swap1\n      swap2\n      mstore\n      swap1\n      dup3\n      mstore\n      swap1\n      keccak256\n      sload\n      0xff\n      and\n      dup2\n      jump\n        /* \"contracts/404.sol\":180:201  string public dataURI */\n    tag_28:\n      tag_36\n      tag_134\n      jump\t// in\n        /* \"contracts/ERC404.sol\":570:789  function transferOwnership(address _owner) public virtual onlyOwner {... */\n    tag_29:\n      tag_56\n      tag_137\n      calldatasize\n      0x04\n      tag_90\n      jump\t// in\n    tag_137:\n      tag_138\n      jump\t// in\n        /* \"contracts/ERC404.sol\":2800:2818  string public name */\n    tag_37:\n      0x01\n      dup1\n      sload\n      tag_139\n      swap1\n      tag_140\n      jump\t// in\n    tag_139:\n      dup1\n      0x1f\n      add\n      0x20\n      dup1\n      swap2\n      div\n      mul\n      0x20\n      add\n      mload(0x40)\n      swap1\n      dup2\n      add\n      0x40\n      mstore\n      dup1\n      swap3\n      swap2\n      swap1\n      dup2\n      dup2\n      mstore\n      0x20\n      add\n      dup3\n      dup1\n      sload\n      tag_141\n      swap1\n      tag_140\n      jump\t// in\n    tag_141:\n      dup1\n      iszero\n      tag_142\n      jumpi\n      dup1\n      0x1f\n      lt\n      tag_143\n      jumpi\n      0x0100\n      dup1\n      dup4\n      sload\n      div\n      mul\n      dup4\n      mstore\n      swap2\n      0x20\n      add\n      swap2\n      jump(tag_142)\n    tag_143:\n      dup3\n      add\n      swap2\n      swap1\n      0x00\n      mstore\n      keccak256(0x00, 0x20)\n      swap1\n    tag_144:\n      dup2\n      sload\n      dup2\n      mstore\n      swap1\n      0x01\n      add\n      swap1\n      0x20\n      add\n      dup1\n      dup4\n      gt\n      tag_144\n      jumpi\n      dup3\n      swap1\n      sub\n      0x1f\n      and\n      dup3\n      add\n      swap2\n    tag_142:\n      pop\n      pop\n      pop\n      pop\n      pop\n      dup2\n      jump\t// out\n        /* \"contracts/ERC404.sol\":5342:5984  function approve(... */\n    tag_49:\n        /* \"contracts/ERC404.sol\":5445:5449  bool */\n      0x00\n        /* \"contracts/ERC404.sol\":5480:5486  minted */\n      sload(0x03)\n        /* \"contracts/ERC404.sol\":5466:5476  amountOrId */\n      dup3\n        /* \"contracts/ERC404.sol\":5466:5486  amountOrId <= minted */\n      gt\n      iszero\n        /* \"contracts/ERC404.sol\":5466:5504  amountOrId <= minted && amountOrId > 0 */\n      dup1\n      iszero\n      tag_146\n      jumpi\n      pop\n        /* \"contracts/ERC404.sol\":5503:5504  0 */\n      0x00\n        /* \"contracts/ERC404.sol\":5490:5500  amountOrId */\n      dup3\n        /* \"contracts/ERC404.sol\":5490:5504  amountOrId > 0 */\n      gt\n        /* \"contracts/ERC404.sol\":5466:5504  amountOrId <= minted && amountOrId > 0 */\n    tag_146:\n        /* \"contracts/ERC404.sol\":5462:5953  if (amountOrId <= minted && amountOrId > 0) {... */\n      iszero\n      tag_147\n      jumpi\n        /* \"contracts/ERC404.sol\":5521:5534  address owner */\n      0x00\n        /* \"contracts/ERC404.sol\":5537:5557  _ownerOf[amountOrId] */\n      dup3\n      dup2\n      mstore\n        /* \"contracts/ERC404.sol\":5537:5545  _ownerOf */\n      0x08\n        /* \"contracts/ERC404.sol\":5537:5557  _ownerOf[amountOrId] */\n      0x20\n      mstore\n      0x40\n      swap1\n      keccak256\n      sload\n      sub(shl(0xa0, 0x01), 0x01)\n      and\n        /* \"contracts/ERC404.sol\":5578:5588  msg.sender */\n      caller\n        /* \"contracts/ERC404.sol\":5578:5597  msg.sender != owner */\n      dup2\n      eq\n      dup1\n      iszero\n      swap1\n        /* \"contracts/ERC404.sol\":5578:5637  msg.sender != owner && !isApprovedForAll[owner][msg.sender] */\n      tag_148\n      jumpi\n      pop\n      sub(shl(0xa0, 0x01), 0x01)\n        /* \"contracts/ERC404.sol\":5602:5625  isApprovedForAll[owner] */\n      dup2\n      and\n      0x00\n      swap1\n      dup2\n      mstore\n        /* \"contracts/ERC404.sol\":5602:5618  isApprovedForAll */\n      0x07\n        /* \"contracts/ERC404.sol\":5602:5625  isApprovedForAll[owner] */\n      0x20\n      swap1\n      dup2\n      mstore\n      0x40\n      dup1\n      dup4\n      keccak256\n        /* \"contracts/ERC404.sol\":5626:5636  msg.sender */\n      caller\n        /* \"contracts/ERC404.sol\":5602:5637  isApprovedForAll[owner][msg.sender] */\n      dup5\n      mstore\n      swap1\n      swap2\n      mstore\n      swap1\n      keccak256\n      sload\n      0xff\n      and\n        /* \"contracts/ERC404.sol\":5601:5637  !isApprovedForAll[owner][msg.sender] */\n      iszero\n        /* \"contracts/ERC404.sol\":5578:5637  msg.sender != owner && !isApprovedForAll[owner][msg.sender] */\n    tag_148:\n        /* \"contracts/ERC404.sol\":5574:5695  if (msg.sender != owner && !isApprovedForAll[owner][msg.sender]) {... */\n      iszero\n      tag_149\n      jumpi\n        /* \"contracts/ERC404.sol\":5665:5679  Unauthorized() */\n      mload(0x40)\n      shl(0xe8, 0x82b429)\n      dup2\n      mstore\n      0x04\n      add\n      mload(0x40)\n      dup1\n      swap2\n      sub\n      swap1\n      revert\n        /* \"contracts/ERC404.sol\":5574:5695  if (msg.sender != owner && !isApprovedForAll[owner][msg.sender]) {... */\n    tag_149:\n        /* \"contracts/ERC404.sol\":5711:5734  getApproved[amountOrId] */\n      0x00\n      dup4\n      dup2\n      mstore\n        /* \"contracts/ERC404.sol\":5711:5722  getApproved */\n      0x06\n        /* \"contracts/ERC404.sol\":5711:5734  getApproved[amountOrId] */\n      0x20\n      swap1\n      dup2\n      mstore\n      0x40\n      swap2\n      dup3\n      swap1\n      keccak256\n        /* \"contracts/ERC404.sol\":5711:5744  getApproved[amountOrId] = spender */\n      dup1\n      sload\n      not(sub(shl(0xa0, 0x01), 0x01))\n      and\n      sub(shl(0xa0, 0x01), 0x01)\n      dup9\n      dup2\n      and\n      swap2\n      dup3\n      or\n      swap1\n      swap3\n      sstore\n        /* \"contracts/ERC404.sol\":5766:5802  Approval(owner, spender, amountOrId) */\n      swap3\n      mload\n        /* \"#utility.yul\":1838:1863   */\n      dup7\n      dup2\n      mstore\n        /* \"contracts/ERC404.sol\":5766:5802  Approval(owner, spender, amountOrId) */\n      swap1\n      dup5\n      and\n      swap2\n      0x8c5be1e5ebec7d5bd14f71427d1e84f3dd0314c0f7b2291e5b200ac8c7c3b925\n      swap2\n        /* \"#utility.yul\":1811:1829   */\n      add\n        /* \"contracts/ERC404.sol\":5766:5802  Approval(owner, spender, amountOrId) */\n      mload(0x40)\n      dup1\n      swap2\n      sub\n      swap1\n      log3\n        /* \"contracts/ERC404.sol\":5506:5814  {... */\n      pop\n        /* \"contracts/ERC404.sol\":5462:5953  if (amountOrId <= minted && amountOrId > 0) {... */\n      jump(tag_151)\n    tag_147:\n        /* \"contracts/ERC404.sol\":5845:5855  msg.sender */\n      caller\n        /* \"contracts/ERC404.sol\":5835:5856  allowance[msg.sender] */\n      0x00\n      dup2\n      dup2\n      mstore\n        /* \"contracts/ERC404.sol\":5835:5844  allowance */\n      0x05\n        /* \"contracts/ERC404.sol\":5835:5856  allowance[msg.sender] */\n      0x20\n      swap1\n      dup2\n      mstore\n      0x40\n      dup1\n      dup4\n      keccak256\n      sub(shl(0xa0, 0x01), 0x01)\n        /* \"contracts/ERC404.sol\":5835:5865  allowance[msg.sender][spender] */\n      dup9\n      and\n      dup1\n      dup6\n      mstore\n      swap1\n      dup4\n      mstore\n      swap3\n      dup2\n      swap1\n      keccak256\n        /* \"contracts/ERC404.sol\":5835:5878  allowance[msg.sender][spender] = amountOrId */\n      dup7\n      swap1\n      sstore\n        /* \"contracts/ERC404.sol\":5900:5941  Approval(msg.sender, spender, amountOrId) */\n      mload\n        /* \"#utility.yul\":1838:1863   */\n      dup6\n      dup2\n      mstore\n        /* \"contracts/ERC404.sol\":5835:5865  allowance[msg.sender][spender] */\n      swap2\n      swap3\n        /* \"contracts/ERC404.sol\":5845:5855  msg.sender */\n      swap2\n        /* \"contracts/ERC404.sol\":5900:5941  Approval(msg.sender, spender, amountOrId) */\n      0x8c5be1e5ebec7d5bd14f71427d1e84f3dd0314c0f7b2291e5b200ac8c7c3b925\n      swap2\n        /* \"#utility.yul\":1811:1829   */\n      add\n        /* \"contracts/ERC404.sol\":5900:5941  Approval(msg.sender, spender, amountOrId) */\n      mload(0x40)\n      dup1\n      swap2\n      sub\n      swap1\n      log3\n        /* \"contracts/ERC404.sol\":5462:5953  if (amountOrId <= minted && amountOrId > 0) {... */\n    tag_151:\n      pop\n        /* \"contracts/ERC404.sol\":5972:5976  true */\n      0x01\n        /* \"contracts/ERC404.sol\":5342:5984  function approve(... */\n    tag_145:\n      swap3\n      swap2\n      pop\n      pop\n      jump\t// out\n        /* \"contracts/404.sol\":395:493  function setDataURI(string memory _dataURI) public onlyOwner {... */\n    tag_59:\n        /* \"contracts/ERC404.sol\":325:330  owner */\n      and(sub(shl(0xa0, 0x01), 0x01), sload(0x00))\n        /* \"contracts/ERC404.sol\":311:321  msg.sender */\n      caller\n        /* \"contracts/ERC404.sol\":311:330  msg.sender != owner */\n      eq\n        /* \"contracts/ERC404.sol\":307:353  if (msg.sender != owner) revert Unauthorized() */\n      tag_154\n      jumpi\n        /* \"contracts/ERC404.sol\":339:353  Unauthorized() */\n      mload(0x40)\n      shl(0xe8, 0x82b429)\n      dup2\n      mstore\n      0x04\n      add\n      mload(0x40)\n      dup1\n      swap2\n      sub\n      swap1\n      revert\n        /* \"contracts/ERC404.sol\":307:353  if (msg.sender != owner) revert Unauthorized() */\n    tag_154:\n        /* \"contracts/404.sol\":467:474  dataURI */\n      0x0c\n        /* \"contracts/404.sol\":467:485  dataURI = _dataURI */\n      tag_156\n        /* \"contracts/404.sol\":477:485  _dataURI */\n      dup3\n        /* \"contracts/404.sol\":467:474  dataURI */\n      dup3\n        /* \"contracts/404.sol\":467:485  dataURI = _dataURI */\n      tag_157\n      jump\t// in\n    tag_156:\n      pop\n        /* \"contracts/404.sol\":395:493  function setDataURI(string memory _dataURI) public onlyOwner {... */\n      pop\n      jump\t// out\n        /* \"contracts/ERC404.sol\":6391:8107  function transferFrom(... */\n    tag_63:\n        /* \"contracts/ERC404.sol\":6537:6543  minted */\n      sload(0x03)\n        /* \"contracts/ERC404.sol\":6523:6533  amountOrId */\n      dup2\n        /* \"contracts/ERC404.sol\":6523:6543  amountOrId <= minted */\n      gt\n        /* \"contracts/ERC404.sol\":6519:8100  if (amountOrId <= minted) {... */\n      tag_159\n      jumpi\n        /* \"contracts/ERC404.sol\":6572:6592  _ownerOf[amountOrId] */\n      0x00\n      dup2\n      dup2\n      mstore\n        /* \"contracts/ERC404.sol\":6572:6580  _ownerOf */\n      0x08\n        /* \"contracts/ERC404.sol\":6572:6592  _ownerOf[amountOrId] */\n      0x20\n      mstore\n      0x40\n      swap1\n      keccak256\n      sload\n      sub(shl(0xa0, 0x01), 0x01)\n        /* \"contracts/ERC404.sol\":6564:6592  from != _ownerOf[amountOrId] */\n      dup5\n      dup2\n      and\n        /* \"contracts/ERC404.sol\":6572:6592  _ownerOf[amountOrId] */\n      swap2\n      and\n        /* \"contracts/ERC404.sol\":6564:6592  from != _ownerOf[amountOrId] */\n      eq\n        /* \"contracts/ERC404.sol\":6560:6651  if (from != _ownerOf[amountOrId]) {... */\n      tag_160\n      jumpi\n        /* \"contracts/ERC404.sol\":6620:6635  InvalidSender() */\n      mload(0x40)\n      shl(0xe1, 0x6edaef2f)\n      dup2\n      mstore\n      0x04\n      add\n      mload(0x40)\n      dup1\n      swap2\n      sub\n      swap1\n      revert\n        /* \"contracts/ERC404.sol\":6560:6651  if (from != _ownerOf[amountOrId]) {... */\n    tag_160:\n      sub(shl(0xa0, 0x01), 0x01)\n        /* \"contracts/ERC404.sol\":6671:6687  to == address(0) */\n      dup3\n      and\n        /* \"contracts/ERC404.sol\":6667:6749  if (to == address(0)) {... */\n      tag_161\n      jumpi\n        /* \"contracts/ERC404.sol\":6715:6733  InvalidRecipient() */\n      mload(0x40)\n      shl(0xe1, 0x4e469669)\n      dup2\n      mstore\n      0x04\n      add\n      mload(0x40)\n      dup1\n      swap2\n      sub\n      swap1\n      revert\n        /* \"contracts/ERC404.sol\":6667:6749  if (to == address(0)) {... */\n    tag_161:\n        /* \"contracts/ERC404.sol\":6787:6797  msg.sender */\n      caller\n      sub(shl(0xa0, 0x01), 0x01)\n        /* \"contracts/ERC404.sol\":6787:6805  msg.sender != from */\n      dup5\n      and\n      eq\n      dup1\n      iszero\n      swap1\n        /* \"contracts/ERC404.sol\":6787:6861  msg.sender != from &&... */\n      tag_162\n      jumpi\n      pop\n      sub(shl(0xa0, 0x01), 0x01)\n        /* \"contracts/ERC404.sol\":6827:6849  isApprovedForAll[from] */\n      dup4\n      and\n      0x00\n      swap1\n      dup2\n      mstore\n        /* \"contracts/ERC404.sol\":6827:6843  isApprovedForAll */\n      0x07\n        /* \"contracts/ERC404.sol\":6827:6849  isApprovedForAll[from] */\n      0x20\n      swap1\n      dup2\n      mstore\n      0x40\n      dup1\n      dup4\n      keccak256\n        /* \"contracts/ERC404.sol\":6850:6860  msg.sender */\n      caller\n        /* \"contracts/ERC404.sol\":6827:6861  isApprovedForAll[from][msg.sender] */\n      dup5\n      mstore\n      swap1\n      swap2\n      mstore\n      swap1\n      keccak256\n      sload\n      0xff\n      and\n        /* \"contracts/ERC404.sol\":6826:6861  !isApprovedForAll[from][msg.sender] */\n      iszero\n        /* \"contracts/ERC404.sol\":6787:6861  msg.sender != from &&... */\n    tag_162:\n        /* \"contracts/ERC404.sol\":6787:6919  msg.sender != from &&... */\n      dup1\n      iszero\n      tag_163\n      jumpi\n      pop\n        /* \"contracts/ERC404.sol\":6896:6919  getApproved[amountOrId] */\n      0x00\n      dup2\n      dup2\n      mstore\n        /* \"contracts/ERC404.sol\":6896:6907  getApproved */\n      0x06\n        /* \"contracts/ERC404.sol\":6896:6919  getApproved[amountOrId] */\n      0x20\n      mstore\n      0x40\n      swap1\n      keccak256\n      sload\n      sub(shl(0xa0, 0x01), 0x01)\n      and\n        /* \"contracts/ERC404.sol\":6882:6892  msg.sender */\n      caller\n        /* \"contracts/ERC404.sol\":6882:6919  msg.sender != getApproved[amountOrId] */\n      eq\n      iszero\n        /* \"contracts/ERC404.sol\":6787:6919  msg.sender != from &&... */\n    tag_163:\n        /* \"contracts/ERC404.sol\":6765:6991  if (... */\n      iszero\n      tag_164\n      jumpi\n        /* \"contracts/ERC404.sol\":6961:6975  Unauthorized() */\n      mload(0x40)\n      shl(0xe8, 0x82b429)\n      dup2\n      mstore\n      0x04\n      add\n      mload(0x40)\n      dup1\n      swap2\n      sub\n      swap1\n      revert\n        /* \"contracts/ERC404.sol\":6765:6991  if (... */\n    tag_164:\n        /* \"contracts/ERC404.sol\":7026:7036  _getUnit() */\n      tag_165\n        /* \"contracts/ERC404.sol\":7026:7034  _getUnit */\n      tag_166\n        /* \"contracts/ERC404.sol\":7026:7036  _getUnit() */\n      jump\t// in\n    tag_165:\n      sub(shl(0xa0, 0x01), 0x01)\n        /* \"contracts/ERC404.sol\":7007:7022  balanceOf[from] */\n      dup5\n      and\n      0x00\n      swap1\n      dup2\n      mstore\n        /* \"contracts/ERC404.sol\":7007:7016  balanceOf */\n      0x04\n        /* \"contracts/ERC404.sol\":7007:7022  balanceOf[from] */\n      0x20\n      mstore\n      0x40\n      dup2\n      keccak256\n        /* \"contracts/ERC404.sol\":7007:7036  balanceOf[from] -= _getUnit() */\n      dup1\n      sload\n        /* \"contracts/ERC404.sol\":7007:7022  balanceOf[from] */\n      swap1\n      swap2\n      swap1\n        /* \"contracts/ERC404.sol\":7007:7036  balanceOf[from] -= _getUnit() */\n      tag_167\n      swap1\n      dup5\n      swap1\n      tag_168\n      jump\t// in\n    tag_167:\n      swap1\n      swap2\n      sstore\n      pop\n        /* \"contracts/ERC404.sol\":7099:7109  _getUnit() */\n      tag_169\n      swap1\n      pop\n        /* \"contracts/ERC404.sol\":7099:7107  _getUnit */\n      tag_166\n        /* \"contracts/ERC404.sol\":7099:7109  _getUnit() */\n      jump\t// in\n    tag_169:\n      sub(shl(0xa0, 0x01), 0x01)\n        /* \"contracts/ERC404.sol\":7082:7095  balanceOf[to] */\n      dup1\n      dup5\n      and\n      0x00\n      dup2\n      dup2\n      mstore\n        /* \"contracts/ERC404.sol\":7082:7091  balanceOf */\n      0x04\n        /* \"contracts/ERC404.sol\":7082:7095  balanceOf[to] */\n      0x20\n      swap1\n      dup2\n      mstore\n      0x40\n      dup1\n      dup4\n      keccak256\n        /* \"contracts/ERC404.sol\":7082:7109  balanceOf[to] += _getUnit() */\n      dup1\n      sload\n      swap1\n      swap7\n      add\n      swap1\n      swap6\n      sstore\n        /* \"contracts/ERC404.sol\":7141:7161  _ownerOf[amountOrId] */\n      dup6\n      dup3\n      mstore\n        /* \"contracts/ERC404.sol\":7141:7149  _ownerOf */\n      0x08\n        /* \"contracts/ERC404.sol\":7141:7161  _ownerOf[amountOrId] */\n      dup2\n      mstore\n      dup5\n      dup3\n      keccak256\n        /* \"contracts/ERC404.sol\":7141:7166  _ownerOf[amountOrId] = to */\n      dup1\n      sload\n      not(sub(shl(0xa0, 0x01), 0x01))\n      swap1\n      dup2\n      and\n      swap1\n      swap5\n      or\n      swap1\n      sstore\n        /* \"contracts/ERC404.sol\":7188:7199  getApproved */\n      0x06\n        /* \"contracts/ERC404.sol\":7188:7211  getApproved[amountOrId] */\n      dup2\n      mstore\n      dup5\n      dup3\n      keccak256\n        /* \"contracts/ERC404.sol\":7181:7211  delete getApproved[amountOrId] */\n      dup1\n      sload\n      swap1\n      swap4\n      and\n      swap1\n      swap3\n      sstore\n        /* \"contracts/ERC404.sol\":7289:7301  _owned[from] */\n      swap2\n      dup7\n      and\n      dup3\n      mstore\n        /* \"contracts/ERC404.sol\":7289:7295  _owned */\n      0x09\n        /* \"contracts/ERC404.sol\":7289:7301  _owned[from] */\n      swap1\n      mstore\n      swap1\n      dup2\n      keccak256\n        /* \"contracts/ERC404.sol\":7302:7321  _owned[from].length */\n      dup1\n      sload\n        /* \"contracts/ERC404.sol\":7302:7325  _owned[from].length - 1 */\n      tag_170\n      swap1\n      0x01\n      swap1\n      tag_168\n      jump\t// in\n    tag_170:\n        /* \"contracts/ERC404.sol\":7289:7326  _owned[from][_owned[from].length - 1] */\n      dup2\n      sload\n      dup2\n      lt\n      tag_172\n      jumpi\n      tag_172\n      tag_173\n      jump\t// in\n    tag_172:\n      0x00\n      swap2\n      dup3\n      mstore\n      0x20\n      dup1\n      dup4\n      keccak256\n      swap1\n      swap2\n      add\n      sload\n      sub(shl(0xa0, 0x01), 0x01)\n        /* \"contracts/ERC404.sol\":7341:7353  _owned[from] */\n      dup8\n      and\n      dup4\n      mstore\n        /* \"contracts/ERC404.sol\":7341:7347  _owned */\n      0x09\n        /* \"contracts/ERC404.sol\":7341:7353  _owned[from] */\n      dup3\n      mstore\n      0x40\n      dup1\n      dup5\n      keccak256\n        /* \"contracts/ERC404.sol\":7354:7377  _ownedIndex[amountOrId] */\n      dup7\n      dup6\n      mstore\n        /* \"contracts/ERC404.sol\":7354:7365  _ownedIndex */\n      0x0a\n        /* \"contracts/ERC404.sol\":7354:7377  _ownedIndex[amountOrId] */\n      swap1\n      swap4\n      mstore\n      swap1\n      swap3\n      keccak256\n      sload\n        /* \"contracts/ERC404.sol\":7341:7378  _owned[from][_ownedIndex[amountOrId]] */\n      dup2\n      sload\n        /* \"contracts/ERC404.sol\":7289:7326  _owned[from][_owned[from].length - 1] */\n      swap3\n      swap4\n      pop\n      dup4\n      swap3\n        /* \"contracts/ERC404.sol\":7341:7378  _owned[from][_ownedIndex[amountOrId]] */\n      dup2\n      lt\n      tag_176\n      jumpi\n      tag_176\n      tag_173\n      jump\t// in\n    tag_176:\n      0x00\n      swap2\n      dup3\n      mstore\n      0x20\n      dup1\n      dup4\n      keccak256\n      swap1\n      swap2\n      add\n        /* \"contracts/ERC404.sol\":7341:7390  _owned[from][_ownedIndex[amountOrId]] = updatedId */\n      swap3\n      swap1\n      swap3\n      sstore\n      sub(shl(0xa0, 0x01), 0x01)\n        /* \"contracts/ERC404.sol\":7425:7437  _owned[from] */\n      dup7\n      and\n      dup2\n      mstore\n        /* \"contracts/ERC404.sol\":7425:7431  _owned */\n      0x09\n        /* \"contracts/ERC404.sol\":7425:7437  _owned[from] */\n      swap1\n      swap2\n      mstore\n      0x40\n      swap1\n      keccak256\n        /* \"contracts/ERC404.sol\":7425:7443  _owned[from].pop() */\n      dup1\n      sload\n      dup1\n      tag_179\n      jumpi\n      tag_179\n      tag_180\n      jump\t// in\n    tag_179:\n      0x00\n      dup3\n      dup2\n      mstore\n      0x20\n      dup1\n      dup3\n      keccak256\n      dup4\n      add\n      not(0x00)\n      swap1\n      dup2\n      add\n      dup4\n      swap1\n      sstore\n      swap1\n      swap3\n      add\n      swap1\n      swap3\n      sstore\n        /* \"contracts/ERC404.sol\":7529:7552  _ownedIndex[amountOrId] */\n      dup4\n      dup3\n      mstore\n        /* \"contracts/ERC404.sol\":7529:7540  _ownedIndex */\n      0x0a\n        /* \"contracts/ERC404.sol\":7529:7552  _ownedIndex[amountOrId] */\n      dup2\n      mstore\n      0x40\n      dup1\n      dup4\n      keccak256\n      sload\n        /* \"contracts/ERC404.sol\":7504:7526  _ownedIndex[updatedId] */\n      dup5\n      dup5\n      mstore\n      dup2\n      dup5\n      keccak256\n        /* \"contracts/ERC404.sol\":7504:7552  _ownedIndex[updatedId] = _ownedIndex[amountOrId] */\n      sstore\n      sub(shl(0xa0, 0x01), 0x01)\n        /* \"contracts/ERC404.sol\":7606:7616  _owned[to] */\n      dup7\n      and\n      dup1\n      dup5\n      mstore\n        /* \"contracts/ERC404.sol\":7606:7612  _owned */\n      0x09\n        /* \"contracts/ERC404.sol\":7606:7616  _owned[to] */\n      dup4\n      mstore\n      swap1\n      dup4\n      keccak256\n        /* \"contracts/ERC404.sol\":7606:7633  _owned[to].push(amountOrId) */\n      dup1\n      sload\n        /* \"contracts/ERC404.sol\":7425:7443  _owned[from].pop() */\n      0x01\n        /* \"contracts/ERC404.sol\":7606:7633  _owned[to].push(amountOrId) */\n      dup2\n      dup2\n      add\n      dup4\n      sstore\n      dup3\n      dup7\n      mstore\n      swap4\n      dup6\n      keccak256\n      add\n      dup7\n      swap1\n      sstore\n        /* \"contracts/ERC404.sol\":7716:7726  _owned[to] */\n      swap3\n      mstore\n        /* \"contracts/ERC404.sol\":7716:7733  _owned[to].length */\n      swap1\n      sload\n        /* \"contracts/ERC404.sol\":7716:7737  _owned[to].length - 1 */\n      tag_183\n      swap2\n        /* \"contracts/ERC404.sol\":7425:7443  _owned[from].pop() */\n      swap1\n        /* \"contracts/ERC404.sol\":7716:7737  _owned[to].length - 1 */\n      tag_168\n      jump\t// in\n    tag_183:\n        /* \"contracts/ERC404.sol\":7690:7713  _ownedIndex[amountOrId] */\n      0x00\n      dup4\n      dup2\n      mstore\n        /* \"contracts/ERC404.sol\":7690:7701  _ownedIndex */\n      0x0a\n        /* \"contracts/ERC404.sol\":7690:7713  _ownedIndex[amountOrId] */\n      0x20\n      mstore\n      0x40\n      dup1\n      dup3\n      keccak256\n        /* \"contracts/ERC404.sol\":7690:7737  _ownedIndex[amountOrId] = _owned[to].length - 1 */\n      swap3\n      swap1\n      swap3\n      sstore\n        /* \"contracts/ERC404.sol\":7759:7789  Transfer(from, to, amountOrId) */\n      swap1\n      mload\n        /* \"contracts/ERC404.sol\":7702:7712  amountOrId */\n      dup4\n      swap2\n      sub(shl(0xa0, 0x01), 0x01)\n        /* \"contracts/ERC404.sol\":7759:7789  Transfer(from, to, amountOrId) */\n      dup1\n      dup8\n      and\n      swap3\n      swap1\n      dup9\n      and\n      swap2\n      0xddf252ad1be2c89b69c2b068fc378daa952ba7f163c4a11628f55a4df523b3ef\n      swap2\n      log4\n        /* \"contracts/ERC404.sol\":7829:7831  to */\n      dup3\n      sub(shl(0xa0, 0x01), 0x01)\n        /* \"contracts/ERC404.sol\":7809:7844  ERC20Transfer(from, to, _getUnit()) */\n      and\n        /* \"contracts/ERC404.sol\":7823:7827  from */\n      dup5\n      sub(shl(0xa0, 0x01), 0x01)\n        /* \"contracts/ERC404.sol\":7809:7844  ERC20Transfer(from, to, _getUnit()) */\n      and\n      0xe59fdd36d0d223c0c7d996db7ad796880f45e1936cb0bb7ac102e7082e031487\n        /* \"contracts/ERC404.sol\":7833:7843  _getUnit() */\n      tag_184\n        /* \"contracts/ERC404.sol\":7833:7841  _getUnit */\n      tag_166\n        /* \"contracts/ERC404.sol\":7833:7843  _getUnit() */\n      jump\t// in\n    tag_184:\n        /* \"contracts/ERC404.sol\":7809:7844  ERC20Transfer(from, to, _getUnit()) */\n      mload(0x40)\n        /* \"#utility.yul\":1838:1863   */\n      swap1\n      dup2\n      mstore\n        /* \"#utility.yul\":1826:1828   */\n      0x20\n        /* \"#utility.yul\":1811:1829   */\n      add\n        /* \"contracts/ERC404.sol\":7809:7844  ERC20Transfer(from, to, _getUnit()) */\n      mload(0x40)\n      dup1\n      swap2\n      sub\n      swap1\n      log3\n        /* \"contracts/ERC404.sol\":6545:7856  {... */\n      pop\n        /* \"contracts/ERC404.sol\":6391:8107  function transferFrom(... */\n      pop\n      pop\n      pop\n      jump\t// out\n        /* \"contracts/ERC404.sol\":6519:8100  if (amountOrId <= minted) {... */\n    tag_159:\n      sub(shl(0xa0, 0x01), 0x01)\n        /* \"contracts/ERC404.sol\":7895:7910  allowance[from] */\n      dup4\n      and\n        /* \"contracts/ERC404.sol\":7877:7892  uint256 allowed */\n      0x00\n        /* \"contracts/ERC404.sol\":7895:7910  allowance[from] */\n      swap1\n      dup2\n      mstore\n        /* \"contracts/ERC404.sol\":7895:7904  allowance */\n      0x05\n        /* \"contracts/ERC404.sol\":7895:7910  allowance[from] */\n      0x20\n      swap1\n      dup2\n      mstore\n      0x40\n      dup1\n      dup4\n      keccak256\n        /* \"contracts/ERC404.sol\":7911:7921  msg.sender */\n      caller\n        /* \"contracts/ERC404.sol\":7895:7922  allowance[from][msg.sender] */\n      dup5\n      mstore\n      swap1\n      swap2\n      mstore\n      swap1\n      keccak256\n      sload\n      not(0x00)\n        /* \"contracts/ERC404.sol\":7943:7971  allowed != type(uint256).max */\n      dup2\n      eq\n        /* \"contracts/ERC404.sol\":7939:8040  if (allowed != type(uint256).max)... */\n      tag_187\n      jumpi\n        /* \"contracts/ERC404.sol\":8020:8040  allowed - amountOrId */\n      tag_188\n        /* \"contracts/ERC404.sol\":8030:8040  amountOrId */\n      dup3\n        /* \"contracts/ERC404.sol\":8020:8027  allowed */\n      dup3\n        /* \"contracts/ERC404.sol\":8020:8040  allowed - amountOrId */\n      tag_168\n      jump\t// in\n    tag_188:\n      sub(shl(0xa0, 0x01), 0x01)\n        /* \"contracts/ERC404.sol\":7990:8005  allowance[from] */\n      dup6\n      and\n      0x00\n      swap1\n      dup2\n      mstore\n        /* \"contracts/ERC404.sol\":7990:7999  allowance */\n      0x05\n        /* \"contracts/ERC404.sol\":7990:8005  allowance[from] */\n      0x20\n      swap1\n      dup2\n      mstore\n      0x40\n      dup1\n      dup4\n      keccak256\n        /* \"contracts/ERC404.sol\":8006:8016  msg.sender */\n      caller\n        /* \"contracts/ERC404.sol\":7990:8017  allowance[from][msg.sender] */\n      dup5\n      mstore\n      swap1\n      swap2\n      mstore\n      swap1\n      keccak256\n        /* \"contracts/ERC404.sol\":7990:8040  allowance[from][msg.sender] = allowed - amountOrId */\n      sstore\n        /* \"contracts/ERC404.sol\":7939:8040  if (allowed != type(uint256).max)... */\n    tag_187:\n        /* \"contracts/ERC404.sol\":8057:8088  _transfer(from, to, amountOrId) */\n      tag_189\n        /* \"contracts/ERC404.sol\":8067:8071  from */\n      dup5\n        /* \"contracts/ERC404.sol\":8073:8075  to */\n      dup5\n        /* \"contracts/ERC404.sol\":8077:8087  amountOrId */\n      dup5\n        /* \"contracts/ERC404.sol\":8057:8066  _transfer */\n      tag_190\n        /* \"contracts/ERC404.sol\":8057:8088  _transfer(from, to, amountOrId) */\n      jump\t// in\n    tag_189:\n      pop\n        /* \"contracts/ERC404.sol\":7862:8100  {... */\n      pop\n        /* \"contracts/ERC404.sol\":6519:8100  if (amountOrId <= minted) {... */\n    tag_186:\n        /* \"contracts/ERC404.sol\":6391:8107  function transferFrom(... */\n      pop\n      pop\n      pop\n      jump\t// out\n        /* \"contracts/ERC404.sol\":797:948  function revokeOwnership() public virtual onlyOwner {... */\n    tag_65:\n        /* \"contracts/ERC404.sol\":325:330  owner */\n      and(sub(shl(0xa0, 0x01), 0x01), sload(0x00))\n        /* \"contracts/ERC404.sol\":311:321  msg.sender */\n      caller\n        /* \"contracts/ERC404.sol\":311:330  msg.sender != owner */\n      eq\n        /* \"contracts/ERC404.sol\":307:353  if (msg.sender != owner) revert Unauthorized() */\n      tag_192\n      jumpi\n        /* \"contracts/ERC404.sol\":339:353  Unauthorized() */\n      mload(0x40)\n      shl(0xe8, 0x82b429)\n      dup2\n      mstore\n      0x04\n      add\n      mload(0x40)\n      dup1\n      swap2\n      sub\n      swap1\n      revert\n        /* \"contracts/ERC404.sol\":307:353  if (msg.sender != owner) revert Unauthorized() */\n    tag_192:\n        /* \"contracts/ERC404.sol\":876:877  0 */\n      0x00\n        /* \"contracts/ERC404.sol\":860:878  owner = address(0) */\n      dup1\n      sload\n      not(sub(shl(0xa0, 0x01), 0x01))\n      and\n      dup2\n      sstore\n        /* \"contracts/ERC404.sol\":896:940  OwnershipTransferred(msg.sender, address(0)) */\n      mload(0x40)\n        /* \"contracts/ERC404.sol\":917:927  msg.sender */\n      caller\n      swap1\n        /* \"contracts/ERC404.sol\":896:940  OwnershipTransferred(msg.sender, address(0)) */\n      0x8be0079c531659141344cd1fd0a4f28419497f9722a3daafe3b4186f6b6457e0\n      swap1\n        /* \"contracts/ERC404.sol\":876:877  0 */\n      dup4\n      swap1\n        /* \"contracts/ERC404.sol\":896:940  OwnershipTransferred(msg.sender, address(0)) */\n      log3\n        /* \"contracts/ERC404.sol\":797:948  function revokeOwnership() public virtual onlyOwner {... */\n      jump\t// out\n        /* \"contracts/ERC404.sol\":8403:8808  function safeTransferFrom(... */\n    tag_72:\n        /* \"contracts/ERC404.sol\":8527:8553  transferFrom(from, to, id) */\n      tag_195\n        /* \"contracts/ERC404.sol\":8540:8544  from */\n      dup4\n        /* \"contracts/ERC404.sol\":8546:8548  to */\n      dup4\n        /* \"contracts/ERC404.sol\":8550:8552  id */\n      dup4\n        /* \"contracts/ERC404.sol\":8527:8539  transferFrom */\n      tag_63\n        /* \"contracts/ERC404.sol\":8527:8553  transferFrom(from, to, id) */\n      jump\t// in\n    tag_195:\n      sub(shl(0xa0, 0x01), 0x01)\n        /* \"contracts/ERC404.sol\":8584:8598  to.code.length */\n      dup3\n      and\n      extcodesize\n        /* \"contracts/ERC404.sol\":8584:8603  to.code.length != 0 */\n      iszero\n      dup1\n      iszero\n      swap1\n        /* \"contracts/ERC404.sol\":8584:8738  to.code.length != 0 &&... */\n      tag_196\n      jumpi\n      pop\n        /* \"contracts/ERC404.sol\":8620:8681  ERC721Receiver(to).onERC721Received(msg.sender, from, id, \"\") */\n      mload(0x40)\n      shl(0xe1, 0x0a85bd01)\n      dup1\n      dup3\n      mstore\n        /* \"contracts/ERC404.sol\":8656:8666  msg.sender */\n      caller\n        /* \"contracts/ERC404.sol\":8620:8681  ERC721Receiver(to).onERC721Received(msg.sender, from, id, \"\") */\n      0x04\n      dup4\n      add\n        /* \"#utility.yul\":9137:9171   */\n      mstore\n      sub(shl(0xa0, 0x01), 0x01)\n        /* \"#utility.yul\":9207:9222   */\n      dup6\n      dup2\n      and\n        /* \"#utility.yul\":9187:9205   */\n      0x24\n      dup5\n      add\n        /* \"#utility.yul\":9180:9223   */\n      mstore\n        /* \"#utility.yul\":9239:9257   */\n      0x44\n      dup4\n      add\n        /* \"#utility.yul\":9232:9266   */\n      dup5\n      swap1\n      mstore\n        /* \"#utility.yul\":9302:9305   */\n      0x80\n        /* \"#utility.yul\":9282:9300   */\n      0x64\n      dup5\n      add\n        /* \"#utility.yul\":9275:9306   */\n      mstore\n      0x00\n        /* \"#utility.yul\":9322:9341   */\n      0x84\n      dup5\n      add\n        /* \"#utility.yul\":9315:9345   */\n      mstore\n        /* \"contracts/ERC404.sol\":8698:8738  ERC721Receiver.onERC721Received.selector */\n      swap1\n      swap2\n        /* \"contracts/ERC404.sol\":8620:8655  ERC721Receiver(to).onERC721Received */\n      swap1\n      dup5\n      and\n      swap1\n        /* \"contracts/ERC404.sol\":8698:8738  ERC721Receiver.onERC721Received.selector */\n      0x150b7a02\n      swap1\n        /* \"#utility.yul\":9362:9381   */\n      0xa4\n      add\n        /* \"contracts/ERC404.sol\":8620:8681  ERC721Receiver(to).onERC721Received(msg.sender, from, id, \"\") */\n      0x20\n      mload(0x40)\n      dup1\n      dup4\n      sub\n      dup2\n      0x00\n      dup8\n      gas\n      call\n      iszero\n      dup1\n      iszero\n      tag_200\n      jumpi\n      returndatasize\n      0x00\n      dup1\n      returndatacopy\n      revert(0x00, returndatasize)\n    tag_200:\n      pop\n      pop\n      pop\n      pop\n      mload(0x40)\n      returndatasize\n      not(0x1f)\n      0x1f\n      dup3\n      add\n      and\n      dup3\n      add\n      dup1\n      0x40\n      mstore\n      pop\n      dup2\n      add\n      swap1\n      tag_201\n      swap2\n      swap1\n      tag_202\n      jump\t// in\n    tag_201:\n      not(sub(shl(0xe0, 0x01), 0x01))\n        /* \"contracts/ERC404.sol\":8620:8738  ERC721Receiver(to).onERC721Received(msg.sender, from, id, \"\") !=... */\n      and\n      eq\n      iszero\n        /* \"contracts/ERC404.sol\":8584:8738  to.code.length != 0 &&... */\n    tag_196:\n        /* \"contracts/ERC404.sol\":8566:8801  if (... */\n      iszero\n      tag_186\n      jumpi\n        /* \"contracts/ERC404.sol\":8772:8789  UnsafeRecipient() */\n      mload(0x40)\n      shl(0xe0, 0x3da63931)\n      dup2\n      mstore\n      0x04\n      add\n      mload(0x40)\n      dup1\n      swap2\n      sub\n      swap1\n      revert\n        /* \"contracts/404.sol\":615:773  function setNameSymbol(... */\n    tag_79:\n        /* \"contracts/ERC404.sol\":325:330  owner */\n      and(sub(shl(0xa0, 0x01), 0x01), sload(0x00))\n        /* \"contracts/ERC404.sol\":311:321  msg.sender */\n      caller\n        /* \"contracts/ERC404.sol\":311:330  msg.sender != owner */\n      eq\n        /* \"contracts/ERC404.sol\":307:353  if (msg.sender != owner) revert Unauthorized() */\n      tag_205\n      jumpi\n        /* \"contracts/ERC404.sol\":339:353  Unauthorized() */\n      mload(0x40)\n      shl(0xe8, 0x82b429)\n      dup2\n      mstore\n      0x04\n      add\n      mload(0x40)\n      dup1\n      swap2\n      sub\n      swap1\n      revert\n        /* \"contracts/ERC404.sol\":307:353  if (msg.sender != owner) revert Unauthorized() */\n    tag_205:\n        /* \"contracts/404.sol\":735:765  _setNameSymbol(_name, _symbol) */\n      tag_156\n        /* \"contracts/404.sol\":750:755  _name */\n      dup3\n        /* \"contracts/404.sol\":757:764  _symbol */\n      dup3\n        /* \"contracts/404.sol\":735:749  _setNameSymbol */\n      tag_208\n        /* \"contracts/404.sol\":735:765  _setNameSymbol(_name, _symbol) */\n      jump\t// in\n        /* \"contracts/ERC404.sol\":4671:4782  function setWhitelist(address target, bool state) public onlyOwner {... */\n    tag_83:\n        /* \"contracts/ERC404.sol\":325:330  owner */\n      and(sub(shl(0xa0, 0x01), 0x01), sload(0x00))\n        /* \"contracts/ERC404.sol\":311:321  msg.sender */\n      caller\n        /* \"contracts/ERC404.sol\":311:330  msg.sender != owner */\n      eq\n        /* \"contracts/ERC404.sol\":307:353  if (msg.sender != owner) revert Unauthorized() */\n      tag_210\n      jumpi\n        /* \"contracts/ERC404.sol\":339:353  Unauthorized() */\n      mload(0x40)\n      shl(0xe8, 0x82b429)\n      dup2\n      mstore\n      0x04\n      add\n      mload(0x40)\n      dup1\n      swap2\n      sub\n      swap1\n      revert\n        /* \"contracts/ERC404.sol\":307:353  if (msg.sender != owner) revert Unauthorized() */\n    tag_210:\n      sub(shl(0xa0, 0x01), 0x01)\n        /* \"contracts/ERC404.sol\":4749:4766  whitelist[target] */\n      swap2\n      swap1\n      swap2\n      and\n      0x00\n      swap1\n      dup2\n      mstore\n        /* \"contracts/ERC404.sol\":4749:4758  whitelist */\n      0x0b\n        /* \"contracts/ERC404.sol\":4749:4766  whitelist[target] */\n      0x20\n      mstore\n      0x40\n      swap1\n      keccak256\n        /* \"contracts/ERC404.sol\":4749:4774  whitelist[target] = state */\n      dup1\n      sload\n      not(0xff)\n      and\n      swap2\n      iszero\n      iszero\n      swap2\n      swap1\n      swap2\n      or\n      swap1\n      sstore\n        /* \"contracts/ERC404.sol\":4671:4782  function setWhitelist(address target, bool state) public onlyOwner {... */\n      jump\t// out\n        /* \"contracts/ERC404.sol\":4854:5047  function ownerOf(uint256 id) public view virtual returns (address owner) {... */\n    tag_86:\n        /* \"contracts/ERC404.sol\":4912:4925  address owner */\n      0x00\n        /* \"contracts/ERC404.sol\":4946:4958  _ownerOf[id] */\n      dup2\n      dup2\n      mstore\n        /* \"contracts/ERC404.sol\":4946:4954  _ownerOf */\n      0x08\n        /* \"contracts/ERC404.sol\":4946:4958  _ownerOf[id] */\n      0x20\n      mstore\n      0x40\n      swap1\n      keccak256\n      sload\n      sub(shl(0xa0, 0x01), 0x01)\n      and\n      dup1\n        /* \"contracts/ERC404.sol\":4971:5040  if (owner == address(0)) {... */\n      tag_213\n      jumpi\n        /* \"contracts/ERC404.sol\":5018:5028  NotFound() */\n      mload(0x40)\n      shl(0xe0, 0xc5723b51)\n      dup2\n      mstore\n      0x04\n      add\n      mload(0x40)\n      dup1\n      swap2\n      sub\n      swap1\n      revert\n        /* \"contracts/ERC404.sol\":4971:5040  if (owner == address(0)) {... */\n    tag_213:\n        /* \"contracts/ERC404.sol\":4854:5047  function ownerOf(uint256 id) public view virtual returns (address owner) {... */\n      swap2\n      swap1\n      pop\n      jump\t// out\n        /* \"contracts/ERC404.sol\":2854:2874  string public symbol */\n    tag_97:\n      0x02\n      dup1\n      sload\n      tag_139\n      swap1\n      tag_140\n      jump\t// in\n        /* \"contracts/ERC404.sol\":6035:6242  function setApprovalForAll(address operator, bool approved) public virtual {... */\n    tag_105:\n        /* \"contracts/ERC404.sol\":6138:6148  msg.sender */\n      caller\n        /* \"contracts/ERC404.sol\":6121:6149  isApprovedForAll[msg.sender] */\n      0x00\n      dup2\n      dup2\n      mstore\n        /* \"contracts/ERC404.sol\":6121:6137  isApprovedForAll */\n      0x07\n        /* \"contracts/ERC404.sol\":6121:6149  isApprovedForAll[msg.sender] */\n      0x20\n      swap1\n      dup2\n      mstore\n      0x40\n      dup1\n      dup4\n      keccak256\n      sub(shl(0xa0, 0x01), 0x01)\n        /* \"contracts/ERC404.sol\":6121:6159  isApprovedForAll[msg.sender][operator] */\n      dup8\n      and\n      dup1\n      dup6\n      mstore\n      swap1\n      dup4\n      mstore\n      swap3\n      dup2\n      swap1\n      keccak256\n        /* \"contracts/ERC404.sol\":6121:6170  isApprovedForAll[msg.sender][operator] = approved */\n      dup1\n      sload\n      not(0xff)\n      and\n      dup7\n      iszero\n      iszero\n      swap1\n      dup2\n      or\n      swap1\n      swap2\n      sstore\n        /* \"contracts/ERC404.sol\":6188:6234  ApprovalForAll(msg.sender, operator, approved) */\n      swap1\n      mload\n        /* \"#utility.yul\":1640:1681   */\n      swap1\n      dup2\n      mstore\n        /* \"contracts/ERC404.sol\":6121:6159  isApprovedForAll[msg.sender][operator] */\n      swap2\n      swap3\n        /* \"contracts/ERC404.sol\":6138:6148  msg.sender */\n      swap2\n        /* \"contracts/ERC404.sol\":6188:6234  ApprovalForAll(msg.sender, operator, approved) */\n      0x17307eab39ab6107e8899845ad3d59bd9653f200f220920489ca2b5937696c31\n      swap2\n        /* \"#utility.yul\":1613:1631   */\n      add\n        /* \"contracts/ERC404.sol\":6188:6234  ApprovalForAll(msg.sender, operator, approved) */\n      mload(0x40)\n      dup1\n      swap2\n      sub\n      swap1\n      log3\n        /* \"contracts/ERC404.sol\":6035:6242  function setApprovalForAll(address operator, bool approved) public virtual {... */\n      pop\n      pop\n      jump\t// out\n        /* \"contracts/ERC404.sol\":8166:8326  function transfer(... */\n    tag_108:\n        /* \"contracts/ERC404.sol\":8261:8265  bool */\n      0x00\n        /* \"contracts/ERC404.sol\":8285:8318  _transfer(msg.sender, to, amount) */\n      tag_222\n        /* \"contracts/ERC404.sol\":8295:8305  msg.sender */\n      caller\n        /* \"contracts/ERC404.sol\":8307:8309  to */\n      dup5\n        /* \"contracts/ERC404.sol\":8311:8317  amount */\n      dup5\n        /* \"contracts/ERC404.sol\":8285:8294  _transfer */\n      tag_190\n        /* \"contracts/ERC404.sol\":8285:8318  _transfer(msg.sender, to, amount) */\n      jump\t// in\n    tag_222:\n        /* \"contracts/ERC404.sol\":8278:8318  return _transfer(msg.sender, to, amount) */\n      swap4\n        /* \"contracts/ERC404.sol\":8166:8326  function transfer(... */\n      swap3\n      pop\n      pop\n      pop\n      jump\t// out\n        /* \"contracts/ERC404.sol\":8903:9340  function safeTransferFrom(... */\n    tag_113:\n        /* \"contracts/ERC404.sol\":9057:9083  transferFrom(from, to, id) */\n      tag_224\n        /* \"contracts/ERC404.sol\":9070:9074  from */\n      dup6\n        /* \"contracts/ERC404.sol\":9076:9078  to */\n      dup6\n        /* \"contracts/ERC404.sol\":9080:9082  id */\n      dup6\n        /* \"contracts/ERC404.sol\":9057:9069  transferFrom */\n      tag_63\n        /* \"contracts/ERC404.sol\":9057:9083  transferFrom(from, to, id) */\n      jump\t// in\n    tag_224:\n      sub(shl(0xa0, 0x01), 0x01)\n        /* \"contracts/ERC404.sol\":9114:9128  to.code.length */\n      dup5\n      and\n      extcodesize\n        /* \"contracts/ERC404.sol\":9114:9133  to.code.length != 0 */\n      iszero\n      dup1\n      iszero\n      swap1\n        /* \"contracts/ERC404.sol\":9114:9270  to.code.length != 0 &&... */\n      tag_225\n      jumpi\n      pop\n        /* \"contracts/ERC404.sol\":9150:9213  ERC721Receiver(to).onERC721Received(msg.sender, from, id, data) */\n      mload(0x40)\n      shl(0xe1, 0x0a85bd01)\n      dup1\n      dup3\n      mstore\n        /* \"contracts/ERC404.sol\":9230:9270  ERC721Receiver.onERC721Received.selector */\n      swap1\n      sub(shl(0xa0, 0x01), 0x01)\n        /* \"contracts/ERC404.sol\":9150:9185  ERC721Receiver(to).onERC721Received */\n      dup7\n      and\n      swap1\n        /* \"contracts/ERC404.sol\":9230:9270  ERC721Receiver.onERC721Received.selector */\n      0x150b7a02\n      swap1\n        /* \"contracts/ERC404.sol\":9150:9213  ERC721Receiver(to).onERC721Received(msg.sender, from, id, data) */\n      tag_226\n      swap1\n        /* \"contracts/ERC404.sol\":9186:9196  msg.sender */\n      caller\n      swap1\n        /* \"contracts/ERC404.sol\":9198:9202  from */\n      dup11\n      swap1\n        /* \"contracts/ERC404.sol\":9204:9206  id */\n      dup10\n      swap1\n        /* \"contracts/ERC404.sol\":9208:9212  data */\n      dup10\n      swap1\n      dup10\n      swap1\n        /* \"contracts/ERC404.sol\":9150:9213  ERC721Receiver(to).onERC721Received(msg.sender, from, id, data) */\n      0x04\n      add\n      tag_227\n      jump\t// in\n    tag_226:\n      0x20\n      mload(0x40)\n      dup1\n      dup4\n      sub\n      dup2\n      0x00\n      dup8\n      gas\n      call\n      iszero\n      dup1\n      iszero\n      tag_229\n      jumpi\n      returndatasize\n      0x00\n      dup1\n      returndatacopy\n      revert(0x00, returndatasize)\n    tag_229:\n      pop\n      pop\n      pop\n      pop\n      mload(0x40)\n      returndatasize\n      not(0x1f)\n      0x1f\n      dup3\n      add\n      and\n      dup3\n      add\n      dup1\n      0x40\n      mstore\n      pop\n      dup2\n      add\n      swap1\n      tag_230\n      swap2\n      swap1\n      tag_202\n      jump\t// in\n    tag_230:\n      not(sub(shl(0xe0, 0x01), 0x01))\n        /* \"contracts/ERC404.sol\":9150:9270  ERC721Receiver(to).onERC721Received(msg.sender, from, id, data) !=... */\n      and\n      eq\n      iszero\n        /* \"contracts/ERC404.sol\":9114:9270  to.code.length != 0 &&... */\n    tag_225:\n        /* \"contracts/ERC404.sol\":9096:9333  if (... */\n      iszero\n      tag_189\n      jumpi\n        /* \"contracts/ERC404.sol\":9304:9321  UnsafeRecipient() */\n      mload(0x40)\n      shl(0xe0, 0x3da63931)\n      dup2\n      mstore\n      0x04\n      add\n      mload(0x40)\n      dup1\n      swap2\n      sub\n      swap1\n      revert\n        /* \"contracts/404.sol\":781:2638  function tokenURI(uint256 id) public view override returns (string memory) {... */\n    tag_116:\n        /* \"contracts/404.sol\":841:854  string memory */\n      0x60\n        /* \"contracts/404.sol\":900:901  0 */\n      0x00\n        /* \"contracts/404.sol\":877:889  baseTokenURI */\n      0x0d\n        /* \"contracts/404.sol\":871:897  bytes(baseTokenURI).length */\n      dup1\n      sload\n      tag_233\n      swap1\n      tag_140\n      jump\t// in\n    tag_233:\n      swap1\n      pop\n        /* \"contracts/404.sol\":871:901  bytes(baseTokenURI).length > 0 */\n      gt\n        /* \"contracts/404.sol\":867:2631  if (bytes(baseTokenURI).length > 0) {... */\n      iszero\n      tag_234\n      jumpi\n        /* \"contracts/404.sol\":939:951  baseTokenURI */\n      0x0d\n        /* \"contracts/404.sol\":953:973  Strings.toString(id) */\n      tag_235\n        /* \"contracts/404.sol\":970:972  id */\n      dup4\n        /* \"contracts/404.sol\":953:969  Strings.toString */\n      tag_236\n        /* \"contracts/404.sol\":953:973  Strings.toString(id) */\n      jump\t// in\n    tag_235:\n        /* \"contracts/404.sol\":925:974  string.concat(baseTokenURI, Strings.toString(id)) */\n      add(0x20, mload(0x40))\n      tag_237\n      swap3\n      swap2\n      swap1\n      tag_238\n      jump\t// in\n    tag_237:\n      mload(0x40)\n      0x20\n      dup2\n      dup4\n      sub\n      sub\n      dup2\n      mstore\n      swap1\n      0x40\n      mstore\n        /* \"contracts/404.sol\":918:974  return string.concat(baseTokenURI, Strings.toString(id)) */\n      swap1\n      pop\n        /* \"contracts/404.sol\":781:2638  function tokenURI(uint256 id) public view override returns (string memory) {... */\n      swap2\n      swap1\n      pop\n      jump\t// out\n        /* \"contracts/404.sol\":867:2631  if (bytes(baseTokenURI).length > 0) {... */\n    tag_234:\n        /* \"contracts/404.sol\":1007:1017  uint8 seed */\n      0x00\n        /* \"contracts/404.sol\":1060:1062  id */\n      dup3\n        /* \"contracts/404.sol\":1043:1063  abi.encodePacked(id) */\n      add(0x20, mload(0x40))\n      tag_240\n      swap2\n        /* \"#utility.yul\":11509:11528   */\n      dup2\n      mstore\n        /* \"#utility.yul\":11553:11555   */\n      0x20\n        /* \"#utility.yul\":11544:11556   */\n      add\n      swap1\n        /* \"#utility.yul\":11380:11562   */\n      jump\n        /* \"contracts/404.sol\":1043:1063  abi.encodePacked(id) */\n    tag_240:\n      mload(0x40)\n      0x20\n      dup2\n      dup4\n      sub\n      sub\n      dup2\n      mstore\n      swap1\n      0x40\n      mstore\n        /* \"contracts/404.sol\":1033:1064  keccak256(abi.encodePacked(id)) */\n      dup1\n      mload\n      swap1\n      0x20\n      add\n      keccak256\n        /* \"contracts/404.sol\":1020:1066  uint8(bytes1(keccak256(abi.encodePacked(id)))) */\n      0xf8\n      shr\n        /* \"contracts/404.sol\":1007:1066  uint8 seed = uint8(bytes1(keccak256(abi.encodePacked(id)))) */\n      swap1\n      pop\n        /* \"contracts/404.sol\":1081:1100  string memory image */\n      0x60\n        /* \"contracts/404.sol\":1115:1134  string memory color */\n      dup1\n        /* \"contracts/404.sol\":1163:1166  100 */\n      0x64\n        /* \"contracts/404.sol\":1155:1159  seed */\n      dup4\n        /* \"contracts/404.sol\":1155:1166  seed <= 100 */\n      0xff\n      and\n      gt\n        /* \"contracts/404.sol\":1151:1679  if (seed <= 100) {... */\n      tag_242\n      jumpi\n        /* \"contracts/404.sol\":1187:1202  image = \"1.gif\" */\n      mload(0x40)\n      dup1\n      0x40\n      add\n      0x40\n      mstore\n      dup1\n      0x05\n      dup2\n      mstore\n      0x20\n      add\n      shl(0xd9, 0x189733b4b3)\n      dup2\n      mstore\n      pop\n      swap2\n      pop\n        /* \"contracts/404.sol\":1221:1236  color = \"Green\" */\n      mload(0x40)\n      dup1\n      0x40\n      add\n      0x40\n      mstore\n      dup1\n      0x05\n      dup2\n      mstore\n      0x20\n      add\n      shl(0xd9, 0x23b932b2b7)\n      dup2\n      mstore\n      pop\n      swap1\n      pop\n        /* \"contracts/404.sol\":1151:1679  if (seed <= 100) {... */\n      jump(tag_250)\n    tag_242:\n        /* \"contracts/404.sol\":1270:1273  160 */\n      0xa0\n        /* \"contracts/404.sol\":1262:1266  seed */\n      dup4\n        /* \"contracts/404.sol\":1262:1273  seed <= 160 */\n      0xff\n      and\n      gt\n        /* \"contracts/404.sol\":1258:1679  if (seed <= 160) {... */\n      tag_244\n      jumpi\n        /* \"contracts/404.sol\":1294:1309  image = \"2.gif\" */\n      mload(0x40)\n      dup1\n      0x40\n      add\n      0x40\n      mstore\n      dup1\n      0x05\n      dup2\n      mstore\n      0x20\n      add\n      shl(0xd9, 0x191733b4b3)\n      dup2\n      mstore\n      pop\n      swap2\n      pop\n        /* \"contracts/404.sol\":1328:1342  color = \"Blue\" */\n      mload(0x40)\n      dup1\n      0x40\n      add\n      0x40\n      mstore\n      dup1\n      0x04\n      dup2\n      mstore\n      0x20\n      add\n      shl(0xe0, 0x426c7565)\n      dup2\n      mstore\n      pop\n      swap1\n      pop\n        /* \"contracts/404.sol\":1258:1679  if (seed <= 160) {... */\n      jump(tag_250)\n    tag_244:\n        /* \"contracts/404.sol\":1376:1379  210 */\n      0xd2\n        /* \"contracts/404.sol\":1368:1372  seed */\n      dup4\n        /* \"contracts/404.sol\":1368:1379  seed <= 210 */\n      0xff\n      and\n      gt\n        /* \"contracts/404.sol\":1364:1679  if (seed <= 210) {... */\n      tag_246\n      jumpi\n        /* \"contracts/404.sol\":1400:1415  image = \"3.gif\" */\n      mload(0x40)\n      dup1\n      0x40\n      add\n      0x40\n      mstore\n      dup1\n      0x05\n      dup2\n      mstore\n      0x20\n      add\n      shl(0xd9, 0x199733b4b3)\n      dup2\n      mstore\n      pop\n      swap2\n      pop\n        /* \"contracts/404.sol\":1434:1450  color = \"Purple\" */\n      mload(0x40)\n      dup1\n      0x40\n      add\n      0x40\n      mstore\n      dup1\n      0x06\n      dup2\n      mstore\n      0x20\n      add\n      shl(0xd0, 0x507572706c65)\n      dup2\n      mstore\n      pop\n      swap1\n      pop\n        /* \"contracts/404.sol\":1364:1679  if (seed <= 210) {... */\n      jump(tag_250)\n    tag_246:\n        /* \"contracts/404.sol\":1484:1487  240 */\n      0xf0\n        /* \"contracts/404.sol\":1476:1480  seed */\n      dup4\n        /* \"contracts/404.sol\":1476:1487  seed <= 240 */\n      0xff\n      and\n      gt\n        /* \"contracts/404.sol\":1472:1679  if (seed <= 240) {... */\n      tag_248\n      jumpi\n        /* \"contracts/404.sol\":1508:1523  image = \"4.gif\" */\n      mload(0x40)\n      dup1\n      0x40\n      add\n      0x40\n      mstore\n      dup1\n      0x05\n      dup2\n      mstore\n      0x20\n      add\n      shl(0xd9, 0x1a1733b4b3)\n      dup2\n      mstore\n      pop\n      swap2\n      pop\n        /* \"contracts/404.sol\":1542:1558  color = \"Orange\" */\n      mload(0x40)\n      dup1\n      0x40\n      add\n      0x40\n      mstore\n      dup1\n      0x06\n      dup2\n      mstore\n      0x20\n      add\n      shl(0xd0, 0x4f72616e6765)\n      dup2\n      mstore\n      pop\n      swap1\n      pop\n        /* \"contracts/404.sol\":1472:1679  if (seed <= 240) {... */\n      jump(tag_250)\n    tag_248:\n        /* \"contracts/404.sol\":1592:1595  255 */\n      0xff\n        /* \"contracts/404.sol\":1584:1588  seed */\n      dup4\n        /* \"contracts/404.sol\":1584:1595  seed <= 255 */\n      0xff\n      and\n      gt\n        /* \"contracts/404.sol\":1580:1679  if (seed <= 255) {... */\n      tag_250\n      jumpi\n        /* \"contracts/404.sol\":1616:1631  image = \"5.gif\" */\n      mload(0x40)\n      dup1\n      0x40\n      add\n      0x40\n      mstore\n      dup1\n      0x05\n      dup2\n      mstore\n      0x20\n      add\n      shl(0xd9, 0x1a9733b4b3)\n      dup2\n      mstore\n      pop\n      swap2\n      pop\n        /* \"contracts/404.sol\":1650:1663  color = \"Red\" */\n      mload(0x40)\n      dup1\n      0x40\n      add\n      0x40\n      mstore\n      dup1\n      0x03\n      dup2\n      mstore\n      0x20\n      add\n      shl(0xea, 0x149959)\n      dup2\n      mstore\n      pop\n      swap1\n      pop\n        /* \"contracts/404.sol\":1580:1679  if (seed <= 255) {... */\n    tag_250:\n        /* \"contracts/404.sol\":1695:1721  string memory jsonPreImage */\n      0x00\n        /* \"contracts/404.sol\":1829:1849  Strings.toString(id) */\n      tag_251\n        /* \"contracts/404.sol\":1846:1848  id */\n      dup7\n        /* \"contracts/404.sol\":1829:1845  Strings.toString */\n      tag_236\n        /* \"contracts/404.sol\":1829:1849  Strings.toString(id) */\n      jump\t// in\n    tag_251:\n        /* \"contracts/404.sol\":1792:1850  string.concat('{\"name\": \"Pandora #', Strings.toString(id)) */\n      add(0x20, mload(0x40))\n      tag_252\n      swap2\n      swap1\n      tag_253\n      jump\t// in\n    tag_252:\n      0x40\n      dup1\n      mload\n      not(0x1f)\n      dup2\n      dup5\n      sub\n      add\n      dup2\n      mstore\n      swap1\n      dup3\n      swap1\n      mstore\n        /* \"contracts/404.sol\":1756:2045  string.concat(... */\n      tag_254\n      swap2\n        /* \"contracts/404.sol\":1792:1850  string.concat('{\"name\": \"Pandora #', Strings.toString(id)) */\n      0x20\n        /* \"contracts/404.sol\":1756:2045  string.concat(... */\n      add\n      tag_255\n      jump\t// in\n    tag_254:\n      mload(0x40)\n      0x20\n      dup2\n      dup4\n      sub\n      sub\n      dup2\n      mstore\n      swap1\n      0x40\n      mstore\n        /* \"contracts/404.sol\":2078:2085  dataURI */\n      0x0c\n        /* \"contracts/404.sol\":2087:2092  image */\n      dup5\n        /* \"contracts/404.sol\":2064:2093  string.concat(dataURI, image) */\n      add(0x20, mload(0x40))\n      tag_256\n      swap3\n      swap2\n      swap1\n      tag_238\n      jump\t// in\n    tag_256:\n      0x40\n      dup1\n      mload\n      not(0x1f)\n      dup2\n      dup5\n      sub\n      add\n      dup2\n      mstore\n      swap1\n      dup3\n      swap1\n      mstore\n        /* \"contracts/404.sol\":1724:2108  string.concat(... */\n      tag_257\n      swap3\n      swap2\n        /* \"contracts/404.sol\":2064:2093  string.concat(dataURI, image) */\n      0x20\n        /* \"contracts/404.sol\":1724:2108  string.concat(... */\n      add\n      tag_258\n      jump\t// in\n    tag_257:\n      mload(0x40)\n      0x20\n      dup2\n      dup4\n      sub\n      sub\n      dup2\n      mstore\n      swap1\n      0x40\n      mstore\n        /* \"contracts/404.sol\":1695:2108  string memory jsonPreImage = string.concat(... */\n      swap1\n      pop\n        /* \"contracts/404.sol\":2123:2150  string memory jsonPostImage */\n      0x00\n        /* \"contracts/404.sol\":2253:2258  color */\n      dup3\n        /* \"contracts/404.sol\":2153:2273  string.concat(... */\n      add(0x20, mload(0x40))\n      tag_259\n      swap2\n      swap1\n      tag_260\n      jump\t// in\n    tag_259:\n      0x40\n      dup1\n      mload\n      not(0x1f)\n      dup2\n      dup5\n      sub\n      add\n      dup2\n      mstore\n        /* \"contracts/404.sol\":2288:2325  string memory jsonPostTraits = '\"}]}' */\n      dup3\n      dup3\n      add\n      dup3\n      mstore\n      0x04\n      dup4\n      mstore\n      shl(0xe0, 0x227d5d7d)\n        /* \"contracts/404.sol\":2153:2273  string.concat(... */\n      0x20\n        /* \"contracts/404.sol\":2288:2325  string memory jsonPostTraits = '\"}]}' */\n      dup5\n      dup2\n      add\n      swap2\n      swap1\n      swap2\n      mstore\n        /* \"contracts/404.sol\":2494:2536  string.concat(jsonPreImage, jsonPostImage) */\n      swap2\n      mload\n        /* \"contracts/404.sol\":2153:2273  string.concat(... */\n      swap1\n      swap4\n      pop\n        /* \"contracts/404.sol\":2494:2536  string.concat(jsonPreImage, jsonPostImage) */\n      tag_261\n      swap2\n        /* \"contracts/404.sol\":2508:2520  jsonPreImage */\n      dup6\n      swap2\n        /* \"contracts/404.sol\":2153:2273  string.concat(... */\n      dup6\n      swap2\n        /* \"contracts/404.sol\":2494:2536  string.concat(jsonPreImage, jsonPostImage) */\n      add\n      tag_258\n      jump\t// in\n    tag_261:\n      0x40\n      dup1\n      mload\n      not(0x1f)\n      dup2\n      dup5\n      sub\n      add\n      dup2\n      mstore\n      swap1\n      dup3\n      swap1\n      mstore\n        /* \"contracts/404.sol\":2454:2600  string.concat(... */\n      tag_262\n      swap2\n        /* \"contracts/404.sol\":2563:2577  jsonPostTraits */\n      dup4\n      swap1\n        /* \"contracts/404.sol\":2494:2536  string.concat(jsonPreImage, jsonPostImage) */\n      0x20\n        /* \"contracts/404.sol\":2454:2600  string.concat(... */\n      add\n      tag_258\n      jump\t// in\n    tag_262:\n      0x40\n      dup1\n      mload\n      not(0x1f)\n      dup2\n      dup5\n      sub\n      add\n      dup2\n      mstore\n      swap1\n      dup3\n      swap1\n      mstore\n        /* \"contracts/404.sol\":2366:2619  string.concat(... */\n      tag_263\n      swap2\n        /* \"contracts/404.sol\":2454:2600  string.concat(... */\n      0x20\n        /* \"contracts/404.sol\":2366:2619  string.concat(... */\n      add\n      tag_264\n      jump\t// in\n    tag_263:\n      mload(0x40)\n      0x20\n      dup2\n      dup4\n      sub\n      sub\n      dup2\n      mstore\n      swap1\n      0x40\n      mstore\n        /* \"contracts/404.sol\":2342:2619  return... */\n      swap7\n      pop\n      pop\n      pop\n      pop\n      pop\n      pop\n      pop\n        /* \"contracts/404.sol\":781:2638  function tokenURI(uint256 id) public view override returns (string memory) {... */\n      swap2\n      swap1\n      pop\n      jump\t// out\n        /* \"contracts/404.sol\":208:234  string public baseTokenURI */\n    tag_119:\n      0x0d\n      dup1\n      sload\n      tag_139\n      swap1\n      tag_140\n      jump\t// in\n        /* \"contracts/404.sol\":501:607  function setTokenURI(string memory _tokenURI) public onlyOwner {... */\n    tag_128:\n        /* \"contracts/ERC404.sol\":325:330  owner */\n      and(sub(shl(0xa0, 0x01), 0x01), sload(0x00))\n        /* \"contracts/ERC404.sol\":311:321  msg.sender */\n      caller\n        /* \"contracts/ERC404.sol\":311:330  msg.sender != owner */\n      eq\n        /* \"contracts/ERC404.sol\":307:353  if (msg.sender != owner) revert Unauthorized() */\n      tag_271\n      jumpi\n        /* \"contracts/ERC404.sol\":339:353  Unauthorized() */\n      mload(0x40)\n      shl(0xe8, 0x82b429)\n      dup2\n      mstore\n      0x04\n      add\n      mload(0x40)\n      dup1\n      swap2\n      sub\n      swap1\n      revert\n        /* \"contracts/ERC404.sol\":307:353  if (msg.sender != owner) revert Unauthorized() */\n    tag_271:\n        /* \"contracts/404.sol\":575:587  baseTokenURI */\n      0x0d\n        /* \"contracts/404.sol\":575:599  baseTokenURI = _tokenURI */\n      tag_156\n        /* \"contracts/404.sol\":590:599  _tokenURI */\n      dup3\n        /* \"contracts/404.sol\":575:587  baseTokenURI */\n      dup3\n        /* \"contracts/404.sol\":575:599  baseTokenURI = _tokenURI */\n      tag_157\n      jump\t// in\n        /* \"contracts/404.sol\":180:201  string public dataURI */\n    tag_134:\n      0x0c\n      dup1\n      sload\n      tag_139\n      swap1\n      tag_140\n      jump\t// in\n        /* \"contracts/ERC404.sol\":570:789  function transferOwnership(address _owner) public virtual onlyOwner {... */\n    tag_138:\n        /* \"contracts/ERC404.sol\":325:330  owner */\n      and(sub(shl(0xa0, 0x01), 0x01), sload(0x00))\n        /* \"contracts/ERC404.sol\":311:321  msg.sender */\n      caller\n        /* \"contracts/ERC404.sol\":311:330  msg.sender != owner */\n      eq\n        /* \"contracts/ERC404.sol\":307:353  if (msg.sender != owner) revert Unauthorized() */\n      tag_280\n      jumpi\n        /* \"contracts/ERC404.sol\":339:353  Unauthorized() */\n      mload(0x40)\n      shl(0xe8, 0x82b429)\n      dup2\n      mstore\n      0x04\n      add\n      mload(0x40)\n      dup1\n      swap2\n      sub\n      swap1\n      revert\n        /* \"contracts/ERC404.sol\":307:353  if (msg.sender != owner) revert Unauthorized() */\n    tag_280:\n      sub(shl(0xa0, 0x01), 0x01)\n        /* \"contracts/ERC404.sol\":653:673  _owner == address(0) */\n      dup2\n      and\n        /* \"contracts/ERC404.sol\":649:696  if (_owner == address(0)) revert InvalidOwner() */\n      tag_282\n      jumpi\n        /* \"contracts/ERC404.sol\":682:696  InvalidOwner() */\n      mload(0x40)\n      shl(0xe0, 0x49e27cff)\n      dup2\n      mstore\n      0x04\n      add\n      mload(0x40)\n      dup1\n      swap2\n      sub\n      swap1\n      revert\n        /* \"contracts/ERC404.sol\":649:696  if (_owner == address(0)) revert InvalidOwner() */\n    tag_282:\n        /* \"contracts/ERC404.sol\":709:714  owner */\n      0x00\n        /* \"contracts/ERC404.sol\":709:723  owner = _owner */\n      dup1\n      sload\n      not(sub(shl(0xa0, 0x01), 0x01))\n      and\n      sub(shl(0xa0, 0x01), 0x01)\n      dup4\n      and\n      swap1\n      dup2\n      or\n      dup3\n      sstore\n        /* \"contracts/ERC404.sol\":741:781  OwnershipTransferred(msg.sender, _owner) */\n      mload(0x40)\n        /* \"contracts/ERC404.sol\":709:723  owner = _owner */\n      swap1\n      swap2\n        /* \"contracts/ERC404.sol\":762:772  msg.sender */\n      caller\n      swap2\n        /* \"contracts/ERC404.sol\":741:781  OwnershipTransferred(msg.sender, _owner) */\n      0x8be0079c531659141344cd1fd0a4f28419497f9722a3daafe3b4186f6b6457e0\n      swap2\n        /* \"contracts/ERC404.sol\":709:714  owner */\n      swap1\n        /* \"contracts/ERC404.sol\":741:781  OwnershipTransferred(msg.sender, _owner) */\n      log3\n        /* \"contracts/ERC404.sol\":570:789  function transferOwnership(address _owner) public virtual onlyOwner {... */\n      pop\n      jump\t// out\n        /* \"contracts/ERC404.sol\":10540:10632  function _getUnit() internal view returns (uint256) {... */\n    tag_166:\n        /* \"contracts/ERC404.sol\":10583:10590  uint256 */\n      0x00\n        /* \"contracts/ERC404.sol\":10610:10624  10 ** decimals */\n      tag_284\n        /* \"contracts/ERC404.sol\":10616:10624  decimals */\n      immutable(\"0x36061140490c116ac0dc9894ee670d65d115415001ecff6da5cb5610f086e0c5\")\n        /* \"contracts/ERC404.sol\":10610:10612  10 */\n      0x0a\n        /* \"contracts/ERC404.sol\":10610:10624  10 ** decimals */\n      tag_285\n      jump\t// in\n    tag_284:\n        /* \"contracts/ERC404.sol\":10603:10624  return 10 ** decimals */\n      swap1\n      pop\n        /* \"contracts/ERC404.sol\":10540:10632  function _getUnit() internal view returns (uint256) {... */\n      swap1\n      jump\t// out\n        /* \"contracts/ERC404.sol\":9408:10501  function _transfer(... */\n    tag_190:\n        /* \"contracts/ERC404.sol\":9521:9525  bool */\n      0x00\n        /* \"contracts/ERC404.sol\":9538:9550  uint256 unit */\n      dup1\n        /* \"contracts/ERC404.sol\":9553:9563  _getUnit() */\n      tag_287\n        /* \"contracts/ERC404.sol\":9553:9561  _getUnit */\n      tag_166\n        /* \"contracts/ERC404.sol\":9553:9563  _getUnit() */\n      jump\t// in\n    tag_287:\n      sub(shl(0xa0, 0x01), 0x01)\n        /* \"contracts/ERC404.sol\":9604:9619  balanceOf[from] */\n      dup1\n      dup8\n      and\n        /* \"contracts/ERC404.sol\":9574:9601  uint256 balanceBeforeSender */\n      0x00\n        /* \"contracts/ERC404.sol\":9604:9619  balanceOf[from] */\n      dup2\n      dup2\n      mstore\n        /* \"contracts/ERC404.sol\":9604:9613  balanceOf */\n      0x04\n        /* \"contracts/ERC404.sol\":9604:9619  balanceOf[from] */\n      0x20\n      mstore\n      0x40\n      dup1\n      dup3\n      keccak256\n      dup1\n      sload\n        /* \"contracts/ERC404.sol\":9662:9675  balanceOf[to] */\n      swap5\n      dup11\n      and\n      dup4\n      mstore\n      swap1\n      dup3\n      keccak256\n      sload\n        /* \"contracts/ERC404.sol\":9688:9703  balanceOf[from] */\n      swap3\n      dup3\n      mstore\n        /* \"contracts/ERC404.sol\":9538:9563  uint256 unit = _getUnit() */\n      swap4\n      swap5\n      pop\n        /* \"contracts/ERC404.sol\":9604:9619  balanceOf[from] */\n      swap2\n      swap3\n        /* \"contracts/ERC404.sol\":9662:9675  balanceOf[to] */\n      swap1\n      swap2\n        /* \"contracts/ERC404.sol\":9707:9713  amount */\n      dup7\n      swap2\n        /* \"contracts/ERC404.sol\":9604:9619  balanceOf[from] */\n      swap1\n        /* \"contracts/ERC404.sol\":9688:9713  balanceOf[from] -= amount */\n      tag_288\n        /* \"contracts/ERC404.sol\":9707:9713  amount */\n      dup4\n        /* \"contracts/ERC404.sol\":9604:9619  balanceOf[from] */\n      dup7\n        /* \"contracts/ERC404.sol\":9688:9713  balanceOf[from] -= amount */\n      tag_168\n      jump\t// in\n    tag_288:\n      swap1\n      swap2\n      sstore\n      pop\n      pop\n      sub(shl(0xa0, 0x01), 0x01)\n        /* \"contracts/ERC404.sol\":9751:9764  balanceOf[to] */\n      dup1\n      dup8\n      and\n      0x00\n      swap1\n      dup2\n      mstore\n        /* \"contracts/ERC404.sol\":9751:9760  balanceOf */\n      0x04\n        /* \"contracts/ERC404.sol\":9751:9764  balanceOf[to] */\n      0x20\n      swap1\n      dup2\n      mstore\n      0x40\n      dup1\n      dup4\n      keccak256\n        /* \"contracts/ERC404.sol\":9751:9774  balanceOf[to] += amount */\n      dup1\n      sload\n      dup11\n      add\n      swap1\n      sstore\n        /* \"contracts/ERC404.sol\":9859:9874  whitelist[from] */\n      swap3\n      dup11\n      and\n      dup3\n      mstore\n        /* \"contracts/ERC404.sol\":9859:9868  whitelist */\n      0x0b\n        /* \"contracts/ERC404.sol\":9859:9874  whitelist[from] */\n      swap1\n      mstore\n      keccak256\n      sload\n      0xff\n      and\n        /* \"contracts/ERC404.sol\":9854:10105  if (!whitelist[from]) {... */\n      tag_289\n      jumpi\n      sub(shl(0xa0, 0x01), 0x01)\n        /* \"contracts/ERC404.sol\":9965:9980  balanceOf[from] */\n      dup8\n      and\n        /* \"contracts/ERC404.sol\":9891:9913  uint256 tokens_to_burn */\n      0x00\n        /* \"contracts/ERC404.sol\":9965:9980  balanceOf[from] */\n      swap1\n      dup2\n      mstore\n        /* \"contracts/ERC404.sol\":9965:9974  balanceOf */\n      0x04\n        /* \"contracts/ERC404.sol\":9965:9980  balanceOf[from] */\n      0x20\n      mstore\n      0x40\n      dup2\n      keccak256\n      sload\n        /* \"contracts/ERC404.sol\":9965:9987  balanceOf[from] / unit */\n      tag_290\n      swap1\n        /* \"contracts/ERC404.sol\":9983:9987  unit */\n      dup6\n      swap1\n        /* \"contracts/ERC404.sol\":9965:9987  balanceOf[from] / unit */\n      tag_291\n      jump\t// in\n    tag_290:\n        /* \"contracts/ERC404.sol\":9917:9943  balanceBeforeSender / unit */\n      tag_292\n        /* \"contracts/ERC404.sol\":9939:9943  unit */\n      dup6\n        /* \"contracts/ERC404.sol\":9917:9936  balanceBeforeSender */\n      dup6\n        /* \"contracts/ERC404.sol\":9917:9943  balanceBeforeSender / unit */\n      tag_291\n      jump\t// in\n    tag_292:\n        /* \"contracts/ERC404.sol\":9916:9988  (balanceBeforeSender / unit) -... */\n      tag_293\n      swap2\n      swap1\n      tag_168\n      jump\t// in\n    tag_293:\n        /* \"contracts/ERC404.sol\":9891:9988  uint256 tokens_to_burn = (balanceBeforeSender / unit) -... */\n      swap1\n      pop\n        /* \"contracts/ERC404.sol\":10008:10017  uint256 i */\n      0x00\n        /* \"contracts/ERC404.sol\":10003:10094  for (uint256 i = 0; i < tokens_to_burn; i++) {... */\n    tag_294:\n        /* \"contracts/ERC404.sol\":10027:10041  tokens_to_burn */\n      dup2\n        /* \"contracts/ERC404.sol\":10023:10024  i */\n      dup2\n        /* \"contracts/ERC404.sol\":10023:10041  i < tokens_to_burn */\n      lt\n        /* \"contracts/ERC404.sol\":10003:10094  for (uint256 i = 0; i < tokens_to_burn; i++) {... */\n      iszero\n      tag_295\n      jumpi\n        /* \"contracts/ERC404.sol\":10067:10078  _burn(from) */\n      tag_297\n        /* \"contracts/ERC404.sol\":10073:10077  from */\n      dup10\n        /* \"contracts/ERC404.sol\":10067:10072  _burn */\n      tag_298\n        /* \"contracts/ERC404.sol\":10067:10078  _burn(from) */\n      jump\t// in\n    tag_297:\n        /* \"contracts/ERC404.sol\":10043:10046  i++ */\n      0x01\n      add\n        /* \"contracts/ERC404.sol\":10003:10094  for (uint256 i = 0; i < tokens_to_burn; i++) {... */\n      jump(tag_294)\n    tag_295:\n      pop\n        /* \"contracts/ERC404.sol\":9876:10105  {... */\n      pop\n        /* \"contracts/ERC404.sol\":9854:10105  if (!whitelist[from]) {... */\n    tag_289:\n      sub(shl(0xa0, 0x01), 0x01)\n        /* \"contracts/ERC404.sol\":10181:10194  whitelist[to] */\n      dup7\n      and\n      0x00\n      swap1\n      dup2\n      mstore\n        /* \"contracts/ERC404.sol\":10181:10190  whitelist */\n      0x0b\n        /* \"contracts/ERC404.sol\":10181:10194  whitelist[to] */\n      0x20\n      mstore\n      0x40\n      swap1\n      keccak256\n      sload\n      0xff\n      and\n        /* \"contracts/ERC404.sol\":10176:10423  if (!whitelist[to]) {... */\n      tag_299\n      jumpi\n        /* \"contracts/ERC404.sol\":10211:10233  uint256 tokens_to_mint */\n      0x00\n        /* \"contracts/ERC404.sol\":10279:10307  balanceBeforeReceiver / unit */\n      tag_300\n        /* \"contracts/ERC404.sol\":10303:10307  unit */\n      dup5\n        /* \"contracts/ERC404.sol\":10279:10300  balanceBeforeReceiver */\n      dup4\n        /* \"contracts/ERC404.sol\":10279:10307  balanceBeforeReceiver / unit */\n      tag_291\n      jump\t// in\n    tag_300:\n      sub(shl(0xa0, 0x01), 0x01)\n        /* \"contracts/ERC404.sol\":10237:10250  balanceOf[to] */\n      dup9\n      and\n      0x00\n      swap1\n      dup2\n      mstore\n        /* \"contracts/ERC404.sol\":10237:10246  balanceOf */\n      0x04\n        /* \"contracts/ERC404.sol\":10237:10250  balanceOf[to] */\n      0x20\n      mstore\n      0x40\n      swap1\n      keccak256\n      sload\n        /* \"contracts/ERC404.sol\":10237:10257  balanceOf[to] / unit */\n      tag_301\n      swap1\n        /* \"contracts/ERC404.sol\":10253:10257  unit */\n      dup7\n      swap1\n        /* \"contracts/ERC404.sol\":10237:10257  balanceOf[to] / unit */\n      tag_291\n      jump\t// in\n    tag_301:\n        /* \"contracts/ERC404.sol\":10236:10308  (balanceOf[to] / unit) -... */\n      tag_302\n      swap2\n      swap1\n      tag_168\n      jump\t// in\n    tag_302:\n        /* \"contracts/ERC404.sol\":10211:10308  uint256 tokens_to_mint = (balanceOf[to] / unit) -... */\n      swap1\n      pop\n        /* \"contracts/ERC404.sol\":10328:10337  uint256 i */\n      0x00\n        /* \"contracts/ERC404.sol\":10323:10412  for (uint256 i = 0; i < tokens_to_mint; i++) {... */\n    tag_303:\n        /* \"contracts/ERC404.sol\":10347:10361  tokens_to_mint */\n      dup2\n        /* \"contracts/ERC404.sol\":10343:10344  i */\n      dup2\n        /* \"contracts/ERC404.sol\":10343:10361  i < tokens_to_mint */\n      lt\n        /* \"contracts/ERC404.sol\":10323:10412  for (uint256 i = 0; i < tokens_to_mint; i++) {... */\n      iszero\n      tag_304\n      jumpi\n        /* \"contracts/ERC404.sol\":10387:10396  _mint(to) */\n      tag_306\n        /* \"contracts/ERC404.sol\":10393:10395  to */\n      dup9\n        /* \"contracts/ERC404.sol\":10387:10392  _mint */\n      tag_307\n        /* \"contracts/ERC404.sol\":10387:10396  _mint(to) */\n      jump\t// in\n    tag_306:\n        /* \"contracts/ERC404.sol\":10363:10366  i++ */\n      0x01\n      add\n        /* \"contracts/ERC404.sol\":10323:10412  for (uint256 i = 0; i < tokens_to_mint; i++) {... */\n      jump(tag_303)\n    tag_304:\n      pop\n        /* \"contracts/ERC404.sol\":10196:10423  {... */\n      pop\n        /* \"contracts/ERC404.sol\":10176:10423  if (!whitelist[to]) {... */\n    tag_299:\n        /* \"contracts/ERC404.sol\":10460:10462  to */\n      dup6\n      sub(shl(0xa0, 0x01), 0x01)\n        /* \"contracts/ERC404.sol\":10440:10471  ERC20Transfer(from, to, amount) */\n      and\n        /* \"contracts/ERC404.sol\":10454:10458  from */\n      dup8\n      sub(shl(0xa0, 0x01), 0x01)\n        /* \"contracts/ERC404.sol\":10440:10471  ERC20Transfer(from, to, amount) */\n      and\n      0xe59fdd36d0d223c0c7d996db7ad796880f45e1936cb0bb7ac102e7082e031487\n        /* \"contracts/ERC404.sol\":10464:10470  amount */\n      dup8\n        /* \"contracts/ERC404.sol\":10440:10471  ERC20Transfer(from, to, amount) */\n      mload(0x40)\n      tag_308\n      swap2\n        /* \"#utility.yul\":1838:1863   */\n      dup2\n      mstore\n        /* \"#utility.yul\":1826:1828   */\n      0x20\n        /* \"#utility.yul\":1811:1829   */\n      add\n      swap1\n        /* \"#utility.yul\":1692:1869   */\n      jump\n        /* \"contracts/ERC404.sol\":10440:10471  ERC20Transfer(from, to, amount) */\n    tag_308:\n      mload(0x40)\n      dup1\n      swap2\n      sub\n      swap1\n      log3\n      pop\n        /* \"contracts/ERC404.sol\":10489:10493  true */\n      0x01\n      swap7\n        /* \"contracts/ERC404.sol\":9408:10501  function _transfer(... */\n      swap6\n      pop\n      pop\n      pop\n      pop\n      pop\n      pop\n      jump\t// out\n        /* \"contracts/ERC404.sol\":11503:11663  function _setNameSymbol(... */\n    tag_208:\n        /* \"contracts/ERC404.sol\":11616:11620  name */\n      0x01\n        /* \"contracts/ERC404.sol\":11616:11628  name = _name */\n      tag_310\n        /* \"contracts/ERC404.sol\":11623:11628  _name */\n      dup4\n        /* \"contracts/ERC404.sol\":11616:11620  name */\n      dup3\n        /* \"contracts/ERC404.sol\":11616:11628  name = _name */\n      tag_157\n      jump\t// in\n    tag_310:\n      pop\n        /* \"contracts/ERC404.sol\":11639:11645  symbol */\n      0x02\n        /* \"contracts/ERC404.sol\":11639:11655  symbol = _symbol */\n      tag_186\n        /* \"contracts/ERC404.sol\":11648:11655  _symbol */\n      dup3\n        /* \"contracts/ERC404.sol\":11639:11645  symbol */\n      dup3\n        /* \"contracts/ERC404.sol\":11639:11655  symbol = _symbol */\n      tag_157\n      jump\t// in\n        /* \"@openzeppelin/contracts/utils/Strings.sol\":637:1335  function toString(uint256 value) internal pure returns (string memory) {... */\n    tag_236:\n        /* \"@openzeppelin/contracts/utils/Strings.sol\":693:706  string memory */\n      0x60\n        /* \"@openzeppelin/contracts/utils/Strings.sol\":742:756  uint256 length */\n      0x00\n        /* \"@openzeppelin/contracts/utils/Strings.sol\":759:776  Math.log10(value) */\n      tag_313\n        /* \"@openzeppelin/contracts/utils/Strings.sol\":770:775  value */\n      dup4\n        /* \"@openzeppelin/contracts/utils/Strings.sol\":759:769  Math.log10 */\n      tag_314\n        /* \"@openzeppelin/contracts/utils/Strings.sol\":759:776  Math.log10(value) */\n      jump\t// in\n    tag_313:\n        /* \"@openzeppelin/contracts/utils/Strings.sol\":779:780  1 */\n      0x01\n        /* \"@openzeppelin/contracts/utils/Strings.sol\":759:780  Math.log10(value) + 1 */\n      add\n        /* \"@openzeppelin/contracts/utils/Strings.sol\":742:780  uint256 length = Math.log10(value) + 1 */\n      swap1\n      pop\n        /* \"@openzeppelin/contracts/utils/Strings.sol\":794:814  string memory buffer */\n      0x00\n        /* \"@openzeppelin/contracts/utils/Strings.sol\":828:834  length */\n      dup2\n        /* \"@openzeppelin/contracts/utils/Strings.sol\":817:835  new string(length) */\n      0xffffffffffffffff\n      dup2\n      gt\n      iszero\n      tag_316\n      jumpi\n      tag_316\n      tag_317\n      jump\t// in\n    tag_316:\n      mload(0x40)\n      swap1\n      dup1\n      dup3\n      mstore\n      dup1\n      0x1f\n      add\n      not(0x1f)\n      and\n      0x20\n      add\n      dup3\n      add\n      0x40\n      mstore\n      dup1\n      iszero\n      tag_318\n      jumpi\n      0x20\n      dup3\n      add\n      dup2\n      dup1\n      calldatasize\n      dup4\n      calldatacopy\n      add\n      swap1\n      pop\n    tag_318:\n      pop\n        /* \"@openzeppelin/contracts/utils/Strings.sol\":794:835  string memory buffer = new string(length) */\n      swap1\n      pop\n        /* \"@openzeppelin/contracts/utils/Strings.sol\":955:983  add(buffer, add(32, length)) */\n      dup2\n      dup2\n      add\n        /* \"@openzeppelin/contracts/utils/Strings.sol\":971:973  32 */\n      0x20\n        /* \"@openzeppelin/contracts/utils/Strings.sol\":955:983  add(buffer, add(32, length)) */\n      add\n        /* \"@openzeppelin/contracts/utils/Strings.sol\":1010:1292  while (true) {... */\n    tag_319:\n      not(0x00)\n        /* \"@openzeppelin/contracts/utils/Strings.sol\":1041:1046  ptr-- */\n      add\n      shl(0x81, 0x181899199a1a9b1b9c1cb0b131b232b3)\n        /* \"@openzeppelin/contracts/utils/Strings.sol\":1175:1177  10 */\n      0x0a\n        /* \"@openzeppelin/contracts/utils/Strings.sol\":1164:1178  mod(value, 10) */\n      dup7\n      mod\n        /* \"@openzeppelin/contracts/utils/Strings.sol\":1159:1191  byte(mod(value, 10), HEX_DIGITS) */\n      byte\n        /* \"@openzeppelin/contracts/utils/Strings.sol\":1041:1046  ptr-- */\n      dup2\n        /* \"@openzeppelin/contracts/utils/Strings.sol\":1146:1192  mstore8(ptr, byte(mod(value, 10), HEX_DIGITS)) */\n      mstore8\n        /* \"@openzeppelin/contracts/utils/Strings.sol\":1236:1238  10 */\n      0x0a\n        /* \"@openzeppelin/contracts/utils/Strings.sol\":1227:1238  value /= 10 */\n      dup6\n      div\n      swap5\n      pop\n        /* \"@openzeppelin/contracts/utils/Strings.sol\":1256:1277  if (value == 0) break */\n      dup5\n        /* \"@openzeppelin/contracts/utils/Strings.sol\":1010:1292  while (true) {... */\n      tag_319\n        /* \"@openzeppelin/contracts/utils/Strings.sol\":1256:1277  if (value == 0) break */\n      jumpi\n      pop\n        /* \"@openzeppelin/contracts/utils/Strings.sol\":1312:1318  buffer */\n      swap4\n        /* \"@openzeppelin/contracts/utils/Strings.sol\":637:1335  function toString(uint256 value) internal pure returns (string memory) {... */\n      swap3\n      pop\n      pop\n      pop\n      jump\t// out\n        /* \"contracts/ERC404.sol\":11122:11495  function _burn(address from) internal virtual {... */\n    tag_298:\n      sub(shl(0xa0, 0x01), 0x01)\n        /* \"contracts/ERC404.sol\":11183:11201  from == address(0) */\n      dup2\n      and\n        /* \"contracts/ERC404.sol\":11179:11252  if (from == address(0)) {... */\n      tag_326\n      jumpi\n        /* \"contracts/ERC404.sol\":11225:11240  InvalidSender() */\n      mload(0x40)\n      shl(0xe1, 0x6edaef2f)\n      dup2\n      mstore\n      0x04\n      add\n      mload(0x40)\n      dup1\n      swap2\n      sub\n      swap1\n      revert\n        /* \"contracts/ERC404.sol\":11179:11252  if (from == address(0)) {... */\n    tag_326:\n      sub(shl(0xa0, 0x01), 0x01)\n        /* \"contracts/ERC404.sol\":11277:11289  _owned[from] */\n      dup2\n      and\n        /* \"contracts/ERC404.sol\":11264:11274  uint256 id */\n      0x00\n        /* \"contracts/ERC404.sol\":11277:11289  _owned[from] */\n      swap1\n      dup2\n      mstore\n        /* \"contracts/ERC404.sol\":11277:11283  _owned */\n      0x09\n        /* \"contracts/ERC404.sol\":11277:11289  _owned[from] */\n      0x20\n      mstore\n      0x40\n      dup2\n      keccak256\n        /* \"contracts/ERC404.sol\":11290:11309  _owned[from].length */\n      dup1\n      sload\n        /* \"contracts/ERC404.sol\":11290:11313  _owned[from].length - 1 */\n      tag_327\n      swap1\n        /* \"contracts/ERC404.sol\":11312:11313  1 */\n      0x01\n      swap1\n        /* \"contracts/ERC404.sol\":11290:11313  _owned[from].length - 1 */\n      tag_168\n      jump\t// in\n    tag_327:\n        /* \"contracts/ERC404.sol\":11277:11314  _owned[from][_owned[from].length - 1] */\n      dup2\n      sload\n      dup2\n      lt\n      tag_329\n      jumpi\n      tag_329\n      tag_173\n      jump\t// in\n    tag_329:\n      swap1\n      0x00\n      mstore\n      keccak256(0x00, 0x20)\n      add\n      sload\n        /* \"contracts/ERC404.sol\":11264:11314  uint256 id = _owned[from][_owned[from].length - 1] */\n      swap1\n      pop\n        /* \"contracts/ERC404.sol\":11325:11331  _owned */\n      0x09\n        /* \"contracts/ERC404.sol\":11325:11337  _owned[from] */\n      0x00\n        /* \"contracts/ERC404.sol\":11332:11336  from */\n      dup4\n      sub(shl(0xa0, 0x01), 0x01)\n        /* \"contracts/ERC404.sol\":11325:11337  _owned[from] */\n      and\n      sub(shl(0xa0, 0x01), 0x01)\n      and\n      dup2\n      mstore\n      0x20\n      add\n      swap1\n      dup2\n      mstore\n      0x20\n      add\n      0x00\n      keccak256\n        /* \"contracts/ERC404.sol\":11325:11343  _owned[from].pop() */\n      dup1\n      sload\n      dup1\n      tag_332\n      jumpi\n      tag_332\n      tag_180\n      jump\t// in\n    tag_332:\n      0x00\n      dup3\n      dup2\n      mstore\n      0x20\n      dup1\n      dup3\n      keccak256\n      dup4\n      add\n      not(0x00)\n      swap1\n      dup2\n      add\n      dup4\n      swap1\n      sstore\n      swap1\n      swap3\n      add\n      swap1\n      swap3\n      sstore\n        /* \"contracts/ERC404.sol\":11361:11376  _ownedIndex[id] */\n      dup3\n      dup3\n      mstore\n        /* \"contracts/ERC404.sol\":11361:11372  _ownedIndex */\n      0x0a\n        /* \"contracts/ERC404.sol\":11361:11376  _ownedIndex[id] */\n      dup2\n      mstore\n      0x40\n      dup1\n      dup4\n      keccak256\n        /* \"contracts/ERC404.sol\":11354:11376  delete _ownedIndex[id] */\n      dup4\n      swap1\n      sstore\n        /* \"contracts/ERC404.sol\":11394:11402  _ownerOf */\n      0x08\n        /* \"contracts/ERC404.sol\":11394:11406  _ownerOf[id] */\n      dup3\n      mstore\n      dup1\n      dup4\n      keccak256\n        /* \"contracts/ERC404.sol\":11387:11406  delete _ownerOf[id] */\n      dup1\n      sload\n      not(sub(shl(0xa0, 0x01), 0x01))\n      swap1\n      dup2\n      and\n      swap1\n      swap2\n      sstore\n        /* \"contracts/ERC404.sol\":11424:11435  getApproved */\n      0x06\n        /* \"contracts/ERC404.sol\":11424:11439  getApproved[id] */\n      swap1\n      swap3\n      mstore\n      dup1\n      dup4\n      keccak256\n        /* \"contracts/ERC404.sol\":11417:11439  delete getApproved[id] */\n      dup1\n      sload\n      swap1\n      swap3\n      and\n      swap1\n      swap2\n      sstore\n        /* \"contracts/ERC404.sol\":11457:11487  Transfer(from, address(0), id) */\n      mload\n        /* \"contracts/ERC404.sol\":11373:11375  id */\n      dup3\n      swap2\n        /* \"contracts/ERC404.sol\":11325:11343  _owned[from].pop() */\n      swap1\n      sub(shl(0xa0, 0x01), 0x01)\n        /* \"contracts/ERC404.sol\":11457:11487  Transfer(from, address(0), id) */\n      dup6\n      and\n      swap1\n      0xddf252ad1be2c89b69c2b068fc378daa952ba7f163c4a11628f55a4df523b3ef\n      swap1\n        /* \"contracts/ERC404.sol\":11325:11343  _owned[from].pop() */\n      dup4\n      swap1\n        /* \"contracts/ERC404.sol\":11457:11487  Transfer(from, address(0), id) */\n      log4\n        /* \"contracts/ERC404.sol\":11168:11495  {... */\n      pop\n        /* \"contracts/ERC404.sol\":11122:11495  function _burn(address from) internal virtual {... */\n      pop\n      jump\t// out\n        /* \"contracts/ERC404.sol\":10640:11114  function _mint(address to) internal virtual {... */\n    tag_307:\n      sub(shl(0xa0, 0x01), 0x01)\n        /* \"contracts/ERC404.sol\":10699:10715  to == address(0) */\n      dup2\n      and\n        /* \"contracts/ERC404.sol\":10695:10769  if (to == address(0)) {... */\n      tag_335\n      jumpi\n        /* \"contracts/ERC404.sol\":10739:10757  InvalidRecipient() */\n      mload(0x40)\n      shl(0xe1, 0x4e469669)\n      dup2\n      mstore\n      0x04\n      add\n      mload(0x40)\n      dup1\n      swap2\n      sub\n      swap1\n      revert\n        /* \"contracts/ERC404.sol\":10695:10769  if (to == address(0)) {... */\n    tag_335:\n        /* \"contracts/ERC404.sol\":10806:10812  minted */\n      0x03\n        /* \"contracts/ERC404.sol\":10806:10814  minted++ */\n      dup1\n      sload\n      0x01\n      add\n      swap1\n      dup2\n      swap1\n      sstore\n        /* \"contracts/ERC404.sol\":10806:10812  minted */\n      0x00\n        /* \"contracts/ERC404.sol\":10874:10886  _ownerOf[id] */\n      dup2\n      dup2\n      mstore\n        /* \"contracts/ERC404.sol\":10874:10882  _ownerOf */\n      0x08\n        /* \"contracts/ERC404.sol\":10874:10886  _ownerOf[id] */\n      0x20\n      mstore\n      0x40\n      swap1\n      keccak256\n      sload\n      sub(shl(0xa0, 0x01), 0x01)\n      and\n        /* \"contracts/ERC404.sol\":10874:10900  _ownerOf[id] != address(0) */\n      iszero\n        /* \"contracts/ERC404.sol\":10870:10951  if (_ownerOf[id] != address(0)) {... */\n      tag_336\n      jumpi\n        /* \"contracts/ERC404.sol\":10924:10939  AlreadyExists() */\n      mload(0x40)\n      shl(0xe1, 0x119b4fd3)\n      dup2\n      mstore\n      0x04\n      add\n      mload(0x40)\n      dup1\n      swap2\n      sub\n      swap1\n      revert\n        /* \"contracts/ERC404.sol\":10870:10951  if (_ownerOf[id] != address(0)) {... */\n    tag_336:\n        /* \"contracts/ERC404.sol\":10963:10975  _ownerOf[id] */\n      0x00\n      dup2\n      dup2\n      mstore\n        /* \"contracts/ERC404.sol\":10963:10971  _ownerOf */\n      0x08\n        /* \"contracts/ERC404.sol\":10963:10975  _ownerOf[id] */\n      0x20\n      swap1\n      dup2\n      mstore\n      0x40\n      dup1\n      dup4\n      keccak256\n        /* \"contracts/ERC404.sol\":10963:10980  _ownerOf[id] = to */\n      dup1\n      sload\n      not(sub(shl(0xa0, 0x01), 0x01))\n      and\n      sub(shl(0xa0, 0x01), 0x01)\n      dup8\n      and\n      swap1\n      dup2\n      or\n      swap1\n      swap2\n      sstore\n        /* \"contracts/ERC404.sol\":10991:11001  _owned[to] */\n      dup1\n      dup5\n      mstore\n        /* \"contracts/ERC404.sol\":10991:10997  _owned */\n      0x09\n        /* \"contracts/ERC404.sol\":10991:11001  _owned[to] */\n      dup4\n      mstore\n      swap1\n      dup4\n      keccak256\n        /* \"contracts/ERC404.sol\":10991:11010  _owned[to].push(id) */\n      dup1\n      sload\n      0x01\n      dup2\n      dup2\n      add\n      dup4\n      sstore\n      dup3\n      dup7\n      mstore\n      swap4\n      dup6\n      keccak256\n      add\n      dup6\n      swap1\n      sstore\n        /* \"contracts/ERC404.sol\":11039:11049  _owned[to] */\n      swap3\n      mstore\n        /* \"contracts/ERC404.sol\":11039:11056  _owned[to].length */\n      swap1\n      sload\n        /* \"contracts/ERC404.sol\":11039:11060  _owned[to].length - 1 */\n      tag_338\n      swap2\n      swap1\n      tag_168\n      jump\t// in\n    tag_338:\n        /* \"contracts/ERC404.sol\":11021:11036  _ownedIndex[id] */\n      0x00\n      dup3\n      dup2\n      mstore\n        /* \"contracts/ERC404.sol\":11021:11032  _ownedIndex */\n      0x0a\n        /* \"contracts/ERC404.sol\":11021:11036  _ownedIndex[id] */\n      0x20\n      mstore\n      0x40\n      dup1\n      dup3\n      keccak256\n        /* \"contracts/ERC404.sol\":11021:11060  _ownedIndex[id] = _owned[to].length - 1 */\n      swap3\n      swap1\n      swap3\n      sstore\n        /* \"contracts/ERC404.sol\":11078:11106  Transfer(address(0), to, id) */\n      swap1\n      mload\n        /* \"contracts/ERC404.sol\":11033:11035  id */\n      dup3\n      swap2\n      sub(shl(0xa0, 0x01), 0x01)\n        /* \"contracts/ERC404.sol\":11078:11106  Transfer(address(0), to, id) */\n      dup6\n      and\n      swap2\n      0xddf252ad1be2c89b69c2b068fc378daa952ba7f163c4a11628f55a4df523b3ef\n      swap1\n        /* \"contracts/ERC404.sol\":11021:11036  _ownedIndex[id] */\n      dup3\n      swap1\n        /* \"contracts/ERC404.sol\":11078:11106  Transfer(address(0), to, id) */\n      log4\n        /* \"contracts/ERC404.sol\":10684:11114  {... */\n      pop\n        /* \"contracts/ERC404.sol\":10640:11114  function _mint(address to) internal virtual {... */\n      pop\n      jump\t// out\n        /* \"@openzeppelin/contracts/utils/math/Math.sol\":12214:13130  function log10(uint256 value) internal pure returns (uint256) {... */\n    tag_314:\n        /* \"@openzeppelin/contracts/utils/math/Math.sol\":12267:12274  uint256 */\n      0x00\n      dup1\n      shl(0x40, 0x184f03e93ff9f4daa797ed6e38ed64bf6a1f01)\n        /* \"@openzeppelin/contracts/utils/math/Math.sol\":12342:12359  value >= 10 ** 64 */\n      dup4\n      lt\n        /* \"@openzeppelin/contracts/utils/math/Math.sol\":12338:12441  if (value >= 10 ** 64) {... */\n      tag_340\n      jumpi\n      shl(0x40, 0x184f03e93ff9f4daa797ed6e38ed64bf6a1f01)\n        /* \"@openzeppelin/contracts/utils/math/Math.sol\":12379:12396  value /= 10 ** 64 */\n      dup4\n      div\n      swap3\n      pop\n        /* \"@openzeppelin/contracts/utils/math/Math.sol\":12424:12426  64 */\n      0x40\n        /* \"@openzeppelin/contracts/utils/math/Math.sol\":12414:12426  result += 64 */\n      add\n        /* \"@openzeppelin/contracts/utils/math/Math.sol\":12338:12441  if (value >= 10 ** 64) {... */\n    tag_340:\n        /* \"@openzeppelin/contracts/utils/math/Math.sol\":12467:12475  10 ** 32 */\n      0x04ee2d6d415b85acef8100000000\n        /* \"@openzeppelin/contracts/utils/math/Math.sol\":12458:12463  value */\n      dup4\n        /* \"@openzeppelin/contracts/utils/math/Math.sol\":12458:12475  value >= 10 ** 32 */\n      lt\n        /* \"@openzeppelin/contracts/utils/math/Math.sol\":12454:12557  if (value >= 10 ** 32) {... */\n      tag_343\n      jumpi\n        /* \"@openzeppelin/contracts/utils/math/Math.sol\":12504:12512  10 ** 32 */\n      0x04ee2d6d415b85acef8100000000\n        /* \"@openzeppelin/contracts/utils/math/Math.sol\":12495:12512  value /= 10 ** 32 */\n      dup4\n      div\n      swap3\n      pop\n        /* \"@openzeppelin/contracts/utils/math/Math.sol\":12540:12542  32 */\n      0x20\n        /* \"@openzeppelin/contracts/utils/math/Math.sol\":12530:12542  result += 32 */\n      add\n        /* \"@openzeppelin/contracts/utils/math/Math.sol\":12454:12557  if (value >= 10 ** 32) {... */\n    tag_343:\n        /* \"@openzeppelin/contracts/utils/math/Math.sol\":12583:12591  10 ** 16 */\n      0x2386f26fc10000\n        /* \"@openzeppelin/contracts/utils/math/Math.sol\":12574:12579  value */\n      dup4\n        /* \"@openzeppelin/contracts/utils/math/Math.sol\":12574:12591  value >= 10 ** 16 */\n      lt\n        /* \"@openzeppelin/contracts/utils/math/Math.sol\":12570:12673  if (value >= 10 ** 16) {... */\n      tag_346\n      jumpi\n        /* \"@openzeppelin/contracts/utils/math/Math.sol\":12620:12628  10 ** 16 */\n      0x2386f26fc10000\n        /* \"@openzeppelin/contracts/utils/math/Math.sol\":12611:12628  value /= 10 ** 16 */\n      dup4\n      div\n      swap3\n      pop\n        /* \"@openzeppelin/contracts/utils/math/Math.sol\":12656:12658  16 */\n      0x10\n        /* \"@openzeppelin/contracts/utils/math/Math.sol\":12646:12658  result += 16 */\n      add\n        /* \"@openzeppelin/contracts/utils/math/Math.sol\":12570:12673  if (value >= 10 ** 16) {... */\n    tag_346:\n        /* \"@openzeppelin/contracts/utils/math/Math.sol\":12699:12706  10 ** 8 */\n      0x05f5e100\n        /* \"@openzeppelin/contracts/utils/math/Math.sol\":12690:12695  value */\n      dup4\n        /* \"@openzeppelin/contracts/utils/math/Math.sol\":12690:12706  value >= 10 ** 8 */\n      lt\n        /* \"@openzeppelin/contracts/utils/math/Math.sol\":12686:12786  if (value >= 10 ** 8) {... */\n      tag_349\n      jumpi\n        /* \"@openzeppelin/contracts/utils/math/Math.sol\":12735:12742  10 ** 8 */\n      0x05f5e100\n        /* \"@openzeppelin/contracts/utils/math/Math.sol\":12726:12742  value /= 10 ** 8 */\n      dup4\n      div\n      swap3\n      pop\n        /* \"@openzeppelin/contracts/utils/math/Math.sol\":12770:12771  8 */\n      0x08\n        /* \"@openzeppelin/contracts/utils/math/Math.sol\":12760:12771  result += 8 */\n      add\n        /* \"@openzeppelin/contracts/utils/math/Math.sol\":12686:12786  if (value >= 10 ** 8) {... */\n    tag_349:\n        /* \"@openzeppelin/contracts/utils/math/Math.sol\":12812:12819  10 ** 4 */\n      0x2710\n        /* \"@openzeppelin/contracts/utils/math/Math.sol\":12803:12808  value */\n      dup4\n        /* \"@openzeppelin/contracts/utils/math/Math.sol\":12803:12819  value >= 10 ** 4 */\n      lt\n        /* \"@openzeppelin/contracts/utils/math/Math.sol\":12799:12899  if (value >= 10 ** 4) {... */\n      tag_352\n      jumpi\n        /* \"@openzeppelin/contracts/utils/math/Math.sol\":12848:12855  10 ** 4 */\n      0x2710\n        /* \"@openzeppelin/contracts/utils/math/Math.sol\":12839:12855  value /= 10 ** 4 */\n      dup4\n      div\n      swap3\n      pop\n        /* \"@openzeppelin/contracts/utils/math/Math.sol\":12883:12884  4 */\n      0x04\n        /* \"@openzeppelin/contracts/utils/math/Math.sol\":12873:12884  result += 4 */\n      add\n        /* \"@openzeppelin/contracts/utils/math/Math.sol\":12799:12899  if (value >= 10 ** 4) {... */\n    tag_352:\n        /* \"@openzeppelin/contracts/utils/math/Math.sol\":12925:12932  10 ** 2 */\n      0x64\n        /* \"@openzeppelin/contracts/utils/math/Math.sol\":12916:12921  value */\n      dup4\n        /* \"@openzeppelin/contracts/utils/math/Math.sol\":12916:12932  value >= 10 ** 2 */\n      lt\n        /* \"@openzeppelin/contracts/utils/math/Math.sol\":12912:13012  if (value >= 10 ** 2) {... */\n      tag_355\n      jumpi\n        /* \"@openzeppelin/contracts/utils/math/Math.sol\":12961:12968  10 ** 2 */\n      0x64\n        /* \"@openzeppelin/contracts/utils/math/Math.sol\":12952:12968  value /= 10 ** 2 */\n      dup4\n      div\n      swap3\n      pop\n        /* \"@openzeppelin/contracts/utils/math/Math.sol\":12996:12997  2 */\n      0x02\n        /* \"@openzeppelin/contracts/utils/math/Math.sol\":12986:12997  result += 2 */\n      add\n        /* \"@openzeppelin/contracts/utils/math/Math.sol\":12912:13012  if (value >= 10 ** 2) {... */\n    tag_355:\n        /* \"@openzeppelin/contracts/utils/math/Math.sol\":13038:13045  10 ** 1 */\n      0x0a\n        /* \"@openzeppelin/contracts/utils/math/Math.sol\":13029:13034  value */\n      dup4\n        /* \"@openzeppelin/contracts/utils/math/Math.sol\":13029:13045  value >= 10 ** 1 */\n      lt\n        /* \"@openzeppelin/contracts/utils/math/Math.sol\":13025:13091  if (value >= 10 ** 1) {... */\n      tag_145\n      jumpi\n        /* \"@openzeppelin/contracts/utils/math/Math.sol\":13075:13076  1 */\n      0x01\n        /* \"@openzeppelin/contracts/utils/math/Math.sol\":13065:13076  result += 1 */\n      add\n        /* \"@openzeppelin/contracts/utils/math/Math.sol\":13117:13123  result */\n      swap3\n        /* \"@openzeppelin/contracts/utils/math/Math.sol\":12214:13130  function log10(uint256 value) internal pure returns (uint256) {... */\n      swap2\n      pop\n      pop\n      jump\t// out\n        /* \"#utility.yul\":14:264   */\n    tag_359:\n        /* \"#utility.yul\":99:100   */\n      0x00\n        /* \"#utility.yul\":109:222   */\n    tag_370:\n        /* \"#utility.yul\":123:129   */\n      dup4\n        /* \"#utility.yul\":120:121   */\n      dup2\n        /* \"#utility.yul\":117:130   */\n      lt\n        /* \"#utility.yul\":109:222   */\n      iszero\n      tag_372\n      jumpi\n        /* \"#utility.yul\":199:210   */\n      dup2\n      dup2\n      add\n        /* \"#utility.yul\":193:211   */\n      mload\n        /* \"#utility.yul\":180:191   */\n      dup4\n      dup3\n      add\n        /* \"#utility.yul\":173:212   */\n      mstore\n        /* \"#utility.yul\":145:147   */\n      0x20\n        /* \"#utility.yul\":138:148   */\n      add\n        /* \"#utility.yul\":109:222   */\n      jump(tag_370)\n    tag_372:\n      pop\n      pop\n        /* \"#utility.yul\":256:257   */\n      0x00\n        /* \"#utility.yul\":238:254   */\n      swap2\n      add\n        /* \"#utility.yul\":231:258   */\n      mstore\n        /* \"#utility.yul\":14:264   */\n      jump\t// out\n        /* \"#utility.yul\":269:665   */\n    tag_39:\n        /* \"#utility.yul\":418:420   */\n      0x20\n        /* \"#utility.yul\":407:416   */\n      dup2\n        /* \"#utility.yul\":400:421   */\n      mstore\n        /* \"#utility.yul\":381:385   */\n      0x00\n        /* \"#utility.yul\":450:456   */\n      dup3\n        /* \"#utility.yul\":444:457   */\n      mload\n        /* \"#utility.yul\":493:499   */\n      dup1\n        /* \"#utility.yul\":488:490   */\n      0x20\n        /* \"#utility.yul\":477:486   */\n      dup5\n        /* \"#utility.yul\":473:491   */\n      add\n        /* \"#utility.yul\":466:500   */\n      mstore\n        /* \"#utility.yul\":509:588   */\n      tag_374\n        /* \"#utility.yul\":581:587   */\n      dup2\n        /* \"#utility.yul\":576:578   */\n      0x40\n        /* \"#utility.yul\":565:574   */\n      dup6\n        /* \"#utility.yul\":561:579   */\n      add\n        /* \"#utility.yul\":556:558   */\n      0x20\n        /* \"#utility.yul\":548:554   */\n      dup8\n        /* \"#utility.yul\":544:559   */\n      add\n        /* \"#utility.yul\":509:588   */\n      tag_359\n      jump\t// in\n    tag_374:\n        /* \"#utility.yul\":649:651   */\n      0x1f\n        /* \"#utility.yul\":628:643   */\n      add\n      not(0x1f)\n        /* \"#utility.yul\":624:653   */\n      and\n        /* \"#utility.yul\":609:654   */\n      swap2\n      swap1\n      swap2\n      add\n        /* \"#utility.yul\":656:658   */\n      0x40\n        /* \"#utility.yul\":605:659   */\n      add\n      swap3\n        /* \"#utility.yul\":269:665   */\n      swap2\n      pop\n      pop\n      jump\t// out\n        /* \"#utility.yul\":670:850   */\n    tag_42:\n        /* \"#utility.yul\":729:735   */\n      0x00\n        /* \"#utility.yul\":782:784   */\n      0x20\n        /* \"#utility.yul\":770:779   */\n      dup3\n        /* \"#utility.yul\":761:768   */\n      dup5\n        /* \"#utility.yul\":757:780   */\n      sub\n        /* \"#utility.yul\":753:785   */\n      slt\n        /* \"#utility.yul\":750:802   */\n      iszero\n      tag_376\n      jumpi\n        /* \"#utility.yul\":798:799   */\n      0x00\n        /* \"#utility.yul\":795:796   */\n      dup1\n        /* \"#utility.yul\":788:800   */\n      revert\n        /* \"#utility.yul\":750:802   */\n    tag_376:\n      pop\n        /* \"#utility.yul\":821:844   */\n      calldataload\n      swap2\n        /* \"#utility.yul\":670:850   */\n      swap1\n      pop\n      jump\t// out\n        /* \"#utility.yul\":1063:1236   */\n    tag_360:\n        /* \"#utility.yul\":1131:1151   */\n      dup1\n      calldataload\n      sub(shl(0xa0, 0x01), 0x01)\n        /* \"#utility.yul\":1180:1211   */\n      dup2\n      and\n        /* \"#utility.yul\":1170:1212   */\n      dup2\n      eq\n        /* \"#utility.yul\":1160:1230   */\n      tag_213\n      jumpi\n        /* \"#utility.yul\":1226:1227   */\n      0x00\n        /* \"#utility.yul\":1223:1224   */\n      dup1\n        /* \"#utility.yul\":1216:1228   */\n      revert\n        /* \"#utility.yul\":1241:1495   */\n    tag_48:\n        /* \"#utility.yul\":1309:1315   */\n      0x00\n        /* \"#utility.yul\":1317:1323   */\n      dup1\n        /* \"#utility.yul\":1370:1372   */\n      0x40\n        /* \"#utility.yul\":1358:1367   */\n      dup4\n        /* \"#utility.yul\":1349:1356   */\n      dup6\n        /* \"#utility.yul\":1345:1368   */\n      sub\n        /* \"#utility.yul\":1341:1373   */\n      slt\n        /* \"#utility.yul\":1338:1390   */\n      iszero\n      tag_381\n      jumpi\n        /* \"#utility.yul\":1386:1387   */\n      0x00\n        /* \"#utility.yul\":1383:1384   */\n      dup1\n        /* \"#utility.yul\":1376:1388   */\n      revert\n        /* \"#utility.yul\":1338:1390   */\n    tag_381:\n        /* \"#utility.yul\":1409:1438   */\n      tag_382\n        /* \"#utility.yul\":1428:1437   */\n      dup4\n        /* \"#utility.yul\":1409:1438   */\n      tag_360\n      jump\t// in\n    tag_382:\n        /* \"#utility.yul\":1399:1438   */\n      swap5\n        /* \"#utility.yul\":1485:1487   */\n      0x20\n        /* \"#utility.yul\":1470:1488   */\n      swap4\n      swap1\n      swap4\n      add\n        /* \"#utility.yul\":1457:1489   */\n      calldataload\n      swap4\n      pop\n      pop\n      pop\n        /* \"#utility.yul\":1241:1495   */\n      jump\t// out\n        /* \"#utility.yul\":1874:2001   */\n    tag_317:\n        /* \"#utility.yul\":1935:1945   */\n      0x4e487b71\n        /* \"#utility.yul\":1930:1933   */\n      0xe0\n        /* \"#utility.yul\":1926:1946   */\n      shl\n        /* \"#utility.yul\":1923:1924   */\n      0x00\n        /* \"#utility.yul\":1916:1947   */\n      mstore\n        /* \"#utility.yul\":1966:1970   */\n      0x41\n        /* \"#utility.yul\":1963:1964   */\n      0x04\n        /* \"#utility.yul\":1956:1971   */\n      mstore\n        /* \"#utility.yul\":1990:1994   */\n      0x24\n        /* \"#utility.yul\":1987:1988   */\n      0x00\n        /* \"#utility.yul\":1980:1995   */\n      revert\n        /* \"#utility.yul\":2006:2725   */\n    tag_361:\n        /* \"#utility.yul\":2049:2054   */\n      0x00\n        /* \"#utility.yul\":2102:2105   */\n      dup3\n        /* \"#utility.yul\":2095:2099   */\n      0x1f\n        /* \"#utility.yul\":2087:2093   */\n      dup4\n        /* \"#utility.yul\":2083:2100   */\n      add\n        /* \"#utility.yul\":2079:2106   */\n      slt\n        /* \"#utility.yul\":2069:2124   */\n      tag_387\n      jumpi\n        /* \"#utility.yul\":2120:2121   */\n      0x00\n        /* \"#utility.yul\":2117:2118   */\n      dup1\n        /* \"#utility.yul\":2110:2122   */\n      revert\n        /* \"#utility.yul\":2069:2124   */\n    tag_387:\n        /* \"#utility.yul\":2156:2162   */\n      dup2\n        /* \"#utility.yul\":2143:2163   */\n      calldataload\n        /* \"#utility.yul\":2182:2200   */\n      0xffffffffffffffff\n        /* \"#utility.yul\":2219:2221   */\n      dup1\n        /* \"#utility.yul\":2215:2217   */\n      dup3\n        /* \"#utility.yul\":2212:2222   */\n      gt\n        /* \"#utility.yul\":2209:2245   */\n      iszero\n      tag_389\n      jumpi\n        /* \"#utility.yul\":2225:2243   */\n      tag_389\n      tag_317\n      jump\t// in\n    tag_389:\n        /* \"#utility.yul\":2300:2302   */\n      0x40\n        /* \"#utility.yul\":2294:2303   */\n      mload\n        /* \"#utility.yul\":2268:2270   */\n      0x1f\n        /* \"#utility.yul\":2354:2367   */\n      dup4\n      add\n      not(0x1f)\n        /* \"#utility.yul\":2350:2372   */\n      swap1\n      dup2\n      and\n        /* \"#utility.yul\":2374:2376   */\n      0x3f\n        /* \"#utility.yul\":2346:2377   */\n      add\n        /* \"#utility.yul\":2342:2382   */\n      and\n        /* \"#utility.yul\":2330:2383   */\n      dup2\n      add\n      swap1\n        /* \"#utility.yul\":2398:2416   */\n      dup3\n      dup3\n      gt\n        /* \"#utility.yul\":2418:2440   */\n      dup2\n      dup4\n      lt\n        /* \"#utility.yul\":2395:2441   */\n      or\n        /* \"#utility.yul\":2392:2464   */\n      iszero\n      tag_391\n      jumpi\n        /* \"#utility.yul\":2444:2462   */\n      tag_391\n      tag_317\n      jump\t// in\n    tag_391:\n        /* \"#utility.yul\":2484:2494   */\n      dup2\n        /* \"#utility.yul\":2480:2482   */\n      0x40\n        /* \"#utility.yul\":2473:2495   */\n      mstore\n        /* \"#utility.yul\":2519:2521   */\n      dup4\n        /* \"#utility.yul\":2511:2517   */\n      dup2\n        /* \"#utility.yul\":2504:2522   */\n      mstore\n        /* \"#utility.yul\":2565:2568   */\n      dup7\n        /* \"#utility.yul\":2558:2562   */\n      0x20\n        /* \"#utility.yul\":2553:2555   */\n      dup6\n        /* \"#utility.yul\":2545:2551   */\n      dup9\n        /* \"#utility.yul\":2541:2556   */\n      add\n        /* \"#utility.yul\":2537:2563   */\n      add\n        /* \"#utility.yul\":2534:2569   */\n      gt\n        /* \"#utility.yul\":2531:2586   */\n      iszero\n      tag_392\n      jumpi\n        /* \"#utility.yul\":2582:2583   */\n      0x00\n        /* \"#utility.yul\":2579:2580   */\n      dup1\n        /* \"#utility.yul\":2572:2584   */\n      revert\n        /* \"#utility.yul\":2531:2586   */\n    tag_392:\n        /* \"#utility.yul\":2646:2648   */\n      dup4\n        /* \"#utility.yul\":2639:2643   */\n      0x20\n        /* \"#utility.yul\":2631:2637   */\n      dup8\n        /* \"#utility.yul\":2627:2644   */\n      add\n        /* \"#utility.yul\":2620:2624   */\n      0x20\n        /* \"#utility.yul\":2612:2618   */\n      dup4\n        /* \"#utility.yul\":2608:2625   */\n      add\n        /* \"#utility.yul\":2595:2649   */\n      calldatacopy\n        /* \"#utility.yul\":2693:2694   */\n      0x00\n        /* \"#utility.yul\":2686:2690   */\n      0x20\n        /* \"#utility.yul\":2681:2683   */\n      dup6\n        /* \"#utility.yul\":2673:2679   */\n      dup4\n        /* \"#utility.yul\":2669:2684   */\n      add\n        /* \"#utility.yul\":2665:2691   */\n      add\n        /* \"#utility.yul\":2658:2695   */\n      mstore\n        /* \"#utility.yul\":2713:2719   */\n      dup1\n        /* \"#utility.yul\":2704:2719   */\n      swap5\n      pop\n      pop\n      pop\n      pop\n      pop\n        /* \"#utility.yul\":2006:2725   */\n      swap3\n      swap2\n      pop\n      pop\n      jump\t// out\n        /* \"#utility.yul\":2730:3052   */\n    tag_58:\n        /* \"#utility.yul\":2799:2805   */\n      0x00\n        /* \"#utility.yul\":2852:2854   */\n      0x20\n        /* \"#utility.yul\":2840:2849   */\n      dup3\n        /* \"#utility.yul\":2831:2838   */\n      dup5\n        /* \"#utility.yul\":2827:2850   */\n      sub\n        /* \"#utility.yul\":2823:2855   */\n      slt\n        /* \"#utility.yul\":2820:2872   */\n      iszero\n      tag_394\n      jumpi\n        /* \"#utility.yul\":2868:2869   */\n      0x00\n        /* \"#utility.yul\":2865:2866   */\n      dup1\n        /* \"#utility.yul\":2858:2870   */\n      revert\n        /* \"#utility.yul\":2820:2872   */\n    tag_394:\n        /* \"#utility.yul\":2908:2917   */\n      dup2\n        /* \"#utility.yul\":2895:2918   */\n      calldataload\n        /* \"#utility.yul\":2941:2959   */\n      0xffffffffffffffff\n        /* \"#utility.yul\":2933:2939   */\n      dup2\n        /* \"#utility.yul\":2930:2960   */\n      gt\n        /* \"#utility.yul\":2927:2977   */\n      iszero\n      tag_395\n      jumpi\n        /* \"#utility.yul\":2973:2974   */\n      0x00\n        /* \"#utility.yul\":2970:2971   */\n      dup1\n        /* \"#utility.yul\":2963:2975   */\n      revert\n        /* \"#utility.yul\":2927:2977   */\n    tag_395:\n        /* \"#utility.yul\":2996:3046   */\n      tag_396\n        /* \"#utility.yul\":3038:3045   */\n      dup5\n        /* \"#utility.yul\":3029:3035   */\n      dup3\n        /* \"#utility.yul\":3018:3027   */\n      dup6\n        /* \"#utility.yul\":3014:3036   */\n      add\n        /* \"#utility.yul\":2996:3046   */\n      tag_361\n      jump\t// in\n    tag_396:\n        /* \"#utility.yul\":2986:3046   */\n      swap5\n        /* \"#utility.yul\":2730:3052   */\n      swap4\n      pop\n      pop\n      pop\n      pop\n      jump\t// out\n        /* \"#utility.yul\":3057:3385   */\n    tag_62:\n        /* \"#utility.yul\":3134:3140   */\n      0x00\n        /* \"#utility.yul\":3142:3148   */\n      dup1\n        /* \"#utility.yul\":3150:3156   */\n      0x00\n        /* \"#utility.yul\":3203:3205   */\n      0x60\n        /* \"#utility.yul\":3191:3200   */\n      dup5\n        /* \"#utility.yul\":3182:3189   */\n      dup7\n        /* \"#utility.yul\":3178:3201   */\n      sub\n        /* \"#utility.yul\":3174:3206   */\n      slt\n        /* \"#utility.yul\":3171:3223   */\n      iszero\n      tag_398\n      jumpi\n        /* \"#utility.yul\":3219:3220   */\n      0x00\n        /* \"#utility.yul\":3216:3217   */\n      dup1\n        /* \"#utility.yul\":3209:3221   */\n      revert\n        /* \"#utility.yul\":3171:3223   */\n    tag_398:\n        /* \"#utility.yul\":3242:3271   */\n      tag_399\n        /* \"#utility.yul\":3261:3270   */\n      dup5\n        /* \"#utility.yul\":3242:3271   */\n      tag_360\n      jump\t// in\n    tag_399:\n        /* \"#utility.yul\":3232:3271   */\n      swap3\n      pop\n        /* \"#utility.yul\":3290:3328   */\n      tag_400\n        /* \"#utility.yul\":3324:3326   */\n      0x20\n        /* \"#utility.yul\":3313:3322   */\n      dup6\n        /* \"#utility.yul\":3309:3327   */\n      add\n        /* \"#utility.yul\":3290:3328   */\n      tag_360\n      jump\t// in\n    tag_400:\n        /* \"#utility.yul\":3280:3328   */\n      swap2\n      pop\n        /* \"#utility.yul\":3375:3377   */\n      0x40\n        /* \"#utility.yul\":3364:3373   */\n      dup5\n        /* \"#utility.yul\":3360:3378   */\n      add\n        /* \"#utility.yul\":3347:3379   */\n      calldataload\n        /* \"#utility.yul\":3337:3379   */\n      swap1\n      pop\n        /* \"#utility.yul\":3057:3385   */\n      swap3\n      pop\n      swap3\n      pop\n      swap3\n      jump\t// out\n        /* \"#utility.yul\":3579:4122   */\n    tag_78:\n        /* \"#utility.yul\":3667:3673   */\n      0x00\n        /* \"#utility.yul\":3675:3681   */\n      dup1\n        /* \"#utility.yul\":3728:3730   */\n      0x40\n        /* \"#utility.yul\":3716:3725   */\n      dup4\n        /* \"#utility.yul\":3707:3714   */\n      dup6\n        /* \"#utility.yul\":3703:3726   */\n      sub\n        /* \"#utility.yul\":3699:3731   */\n      slt\n        /* \"#utility.yul\":3696:3748   */\n      iszero\n      tag_403\n      jumpi\n        /* \"#utility.yul\":3744:3745   */\n      0x00\n        /* \"#utility.yul\":3741:3742   */\n      dup1\n        /* \"#utility.yul\":3734:3746   */\n      revert\n        /* \"#utility.yul\":3696:3748   */\n    tag_403:\n        /* \"#utility.yul\":3784:3793   */\n      dup3\n        /* \"#utility.yul\":3771:3794   */\n      calldataload\n        /* \"#utility.yul\":3813:3831   */\n      0xffffffffffffffff\n        /* \"#utility.yul\":3854:3856   */\n      dup1\n        /* \"#utility.yul\":3846:3852   */\n      dup3\n        /* \"#utility.yul\":3843:3857   */\n      gt\n        /* \"#utility.yul\":3840:3874   */\n      iszero\n      tag_404\n      jumpi\n        /* \"#utility.yul\":3870:3871   */\n      0x00\n        /* \"#utility.yul\":3867:3868   */\n      dup1\n        /* \"#utility.yul\":3860:3872   */\n      revert\n        /* \"#utility.yul\":3840:3874   */\n    tag_404:\n        /* \"#utility.yul\":3893:3943   */\n      tag_405\n        /* \"#utility.yul\":3935:3942   */\n      dup7\n        /* \"#utility.yul\":3926:3932   */\n      dup4\n        /* \"#utility.yul\":3915:3924   */\n      dup8\n        /* \"#utility.yul\":3911:3933   */\n      add\n        /* \"#utility.yul\":3893:3943   */\n      tag_361\n      jump\t// in\n    tag_405:\n        /* \"#utility.yul\":3883:3943   */\n      swap4\n      pop\n        /* \"#utility.yul\":3996:3998   */\n      0x20\n        /* \"#utility.yul\":3985:3994   */\n      dup6\n        /* \"#utility.yul\":3981:3999   */\n      add\n        /* \"#utility.yul\":3968:4000   */\n      calldataload\n        /* \"#utility.yul\":3952:4000   */\n      swap2\n      pop\n        /* \"#utility.yul\":4025:4027   */\n      dup1\n        /* \"#utility.yul\":4015:4023   */\n      dup3\n        /* \"#utility.yul\":4012:4028   */\n      gt\n        /* \"#utility.yul\":4009:4045   */\n      iszero\n      tag_406\n      jumpi\n        /* \"#utility.yul\":4041:4042   */\n      0x00\n        /* \"#utility.yul\":4038:4039   */\n      dup1\n        /* \"#utility.yul\":4031:4043   */\n      revert\n        /* \"#utility.yul\":4009:4045   */\n    tag_406:\n      pop\n        /* \"#utility.yul\":4064:4116   */\n      tag_407\n        /* \"#utility.yul\":4108:4115   */\n      dup6\n        /* \"#utility.yul\":4097:4105   */\n      dup3\n        /* \"#utility.yul\":4086:4095   */\n      dup7\n        /* \"#utility.yul\":4082:4106   */\n      add\n        /* \"#utility.yul\":4064:4116   */\n      tag_361\n      jump\t// in\n    tag_407:\n        /* \"#utility.yul\":4054:4116   */\n      swap2\n      pop\n      pop\n        /* \"#utility.yul\":3579:4122   */\n      swap3\n      pop\n      swap3\n      swap1\n      pop\n      jump\t// out\n        /* \"#utility.yul\":4127:4474   */\n    tag_82:\n        /* \"#utility.yul\":4192:4198   */\n      0x00\n        /* \"#utility.yul\":4200:4206   */\n      dup1\n        /* \"#utility.yul\":4253:4255   */\n      0x40\n        /* \"#utility.yul\":4241:4250   */\n      dup4\n        /* \"#utility.yul\":4232:4239   */\n      dup6\n        /* \"#utility.yul\":4228:4251   */\n      sub\n        /* \"#utility.yul\":4224:4256   */\n      slt\n        /* \"#utility.yul\":4221:4273   */\n      iszero\n      tag_409\n      jumpi\n        /* \"#utility.yul\":4269:4270   */\n      0x00\n        /* \"#utility.yul\":4266:4267   */\n      dup1\n        /* \"#utility.yul\":4259:4271   */\n      revert\n        /* \"#utility.yul\":4221:4273   */\n    tag_409:\n        /* \"#utility.yul\":4292:4321   */\n      tag_410\n        /* \"#utility.yul\":4311:4320   */\n      dup4\n        /* \"#utility.yul\":4292:4321   */\n      tag_360\n      jump\t// in\n    tag_410:\n        /* \"#utility.yul\":4282:4321   */\n      swap2\n      pop\n        /* \"#utility.yul\":4371:4373   */\n      0x20\n        /* \"#utility.yul\":4360:4369   */\n      dup4\n        /* \"#utility.yul\":4356:4374   */\n      add\n        /* \"#utility.yul\":4343:4375   */\n      calldataload\n        /* \"#utility.yul\":4418:4423   */\n      dup1\n        /* \"#utility.yul\":4411:4424   */\n      iszero\n        /* \"#utility.yul\":4404:4425   */\n      iszero\n        /* \"#utility.yul\":4397:4402   */\n      dup2\n        /* \"#utility.yul\":4394:4426   */\n      eq\n        /* \"#utility.yul\":4384:4444   */\n      tag_411\n      jumpi\n        /* \"#utility.yul\":4440:4441   */\n      0x00\n        /* \"#utility.yul\":4437:4438   */\n      dup1\n        /* \"#utility.yul\":4430:4442   */\n      revert\n        /* \"#utility.yul\":4384:4444   */\n    tag_411:\n        /* \"#utility.yul\":4463:4468   */\n      dup1\n        /* \"#utility.yul\":4453:4468   */\n      swap2\n      pop\n      pop\n        /* \"#utility.yul\":4127:4474   */\n      swap3\n      pop\n      swap3\n      swap1\n      pop\n      jump\t// out\n        /* \"#utility.yul\":4479:4665   */\n    tag_90:\n        /* \"#utility.yul\":4538:4544   */\n      0x00\n        /* \"#utility.yul\":4591:4593   */\n      0x20\n        /* \"#utility.yul\":4579:4588   */\n      dup3\n        /* \"#utility.yul\":4570:4577   */\n      dup5\n        /* \"#utility.yul\":4566:4589   */\n      sub\n        /* \"#utility.yul\":4562:4594   */\n      slt\n        /* \"#utility.yul\":4559:4611   */\n      iszero\n      tag_413\n      jumpi\n        /* \"#utility.yul\":4607:4608   */\n      0x00\n        /* \"#utility.yul\":4604:4605   */\n      dup1\n        /* \"#utility.yul\":4597:4609   */\n      revert\n        /* \"#utility.yul\":4559:4611   */\n    tag_413:\n        /* \"#utility.yul\":4630:4659   */\n      tag_222\n        /* \"#utility.yul\":4649:4658   */\n      dup3\n        /* \"#utility.yul\":4630:4659   */\n      tag_360\n      jump\t// in\n        /* \"#utility.yul\":4670:5478   */\n    tag_112:\n        /* \"#utility.yul\":4767:4773   */\n      0x00\n        /* \"#utility.yul\":4775:4781   */\n      dup1\n        /* \"#utility.yul\":4783:4789   */\n      0x00\n        /* \"#utility.yul\":4791:4797   */\n      dup1\n        /* \"#utility.yul\":4799:4805   */\n      0x00\n        /* \"#utility.yul\":4852:4855   */\n      0x80\n        /* \"#utility.yul\":4840:4849   */\n      dup7\n        /* \"#utility.yul\":4831:4838   */\n      dup9\n        /* \"#utility.yul\":4827:4850   */\n      sub\n        /* \"#utility.yul\":4823:4856   */\n      slt\n        /* \"#utility.yul\":4820:4873   */\n      iszero\n      tag_416\n      jumpi\n        /* \"#utility.yul\":4869:4870   */\n      0x00\n        /* \"#utility.yul\":4866:4867   */\n      dup1\n        /* \"#utility.yul\":4859:4871   */\n      revert\n        /* \"#utility.yul\":4820:4873   */\n    tag_416:\n        /* \"#utility.yul\":4892:4921   */\n      tag_417\n        /* \"#utility.yul\":4911:4920   */\n      dup7\n        /* \"#utility.yul\":4892:4921   */\n      tag_360\n      jump\t// in\n    tag_417:\n        /* \"#utility.yul\":4882:4921   */\n      swap5\n      pop\n        /* \"#utility.yul\":4940:4978   */\n      tag_418\n        /* \"#utility.yul\":4974:4976   */\n      0x20\n        /* \"#utility.yul\":4963:4972   */\n      dup8\n        /* \"#utility.yul\":4959:4977   */\n      add\n        /* \"#utility.yul\":4940:4978   */\n      tag_360\n      jump\t// in\n    tag_418:\n        /* \"#utility.yul\":4930:4978   */\n      swap4\n      pop\n        /* \"#utility.yul\":5025:5027   */\n      0x40\n        /* \"#utility.yul\":5014:5023   */\n      dup7\n        /* \"#utility.yul\":5010:5028   */\n      add\n        /* \"#utility.yul\":4997:5029   */\n      calldataload\n        /* \"#utility.yul\":4987:5029   */\n      swap3\n      pop\n        /* \"#utility.yul\":5080:5082   */\n      0x60\n        /* \"#utility.yul\":5069:5078   */\n      dup7\n        /* \"#utility.yul\":5065:5083   */\n      add\n        /* \"#utility.yul\":5052:5084   */\n      calldataload\n        /* \"#utility.yul\":5103:5121   */\n      0xffffffffffffffff\n        /* \"#utility.yul\":5144:5146   */\n      dup1\n        /* \"#utility.yul\":5136:5142   */\n      dup3\n        /* \"#utility.yul\":5133:5147   */\n      gt\n        /* \"#utility.yul\":5130:5164   */\n      iszero\n      tag_419\n      jumpi\n        /* \"#utility.yul\":5160:5161   */\n      0x00\n        /* \"#utility.yul\":5157:5158   */\n      dup1\n        /* \"#utility.yul\":5150:5162   */\n      revert\n        /* \"#utility.yul\":5130:5164   */\n    tag_419:\n        /* \"#utility.yul\":5198:5204   */\n      dup2\n        /* \"#utility.yul\":5187:5196   */\n      dup9\n        /* \"#utility.yul\":5183:5205   */\n      add\n        /* \"#utility.yul\":5173:5205   */\n      swap2\n      pop\n        /* \"#utility.yul\":5243:5250   */\n      dup9\n        /* \"#utility.yul\":5236:5240   */\n      0x1f\n        /* \"#utility.yul\":5232:5234   */\n      dup4\n        /* \"#utility.yul\":5228:5241   */\n      add\n        /* \"#utility.yul\":5224:5251   */\n      slt\n        /* \"#utility.yul\":5214:5269   */\n      tag_420\n      jumpi\n        /* \"#utility.yul\":5265:5266   */\n      0x00\n        /* \"#utility.yul\":5262:5263   */\n      dup1\n        /* \"#utility.yul\":5255:5267   */\n      revert\n        /* \"#utility.yul\":5214:5269   */\n    tag_420:\n        /* \"#utility.yul\":5305:5307   */\n      dup2\n        /* \"#utility.yul\":5292:5308   */\n      calldataload\n        /* \"#utility.yul\":5331:5333   */\n      dup2\n        /* \"#utility.yul\":5323:5329   */\n      dup2\n        /* \"#utility.yul\":5320:5334   */\n      gt\n        /* \"#utility.yul\":5317:5351   */\n      iszero\n      tag_421\n      jumpi\n        /* \"#utility.yul\":5347:5348   */\n      0x00\n        /* \"#utility.yul\":5344:5345   */\n      dup1\n        /* \"#utility.yul\":5337:5349   */\n      revert\n        /* \"#utility.yul\":5317:5351   */\n    tag_421:\n        /* \"#utility.yul\":5392:5399   */\n      dup10\n        /* \"#utility.yul\":5387:5389   */\n      0x20\n        /* \"#utility.yul\":5378:5384   */\n      dup3\n        /* \"#utility.yul\":5374:5376   */\n      dup6\n        /* \"#utility.yul\":5370:5385   */\n      add\n        /* \"#utility.yul\":5366:5390   */\n      add\n        /* \"#utility.yul\":5363:5400   */\n      gt\n        /* \"#utility.yul\":5360:5417   */\n      iszero\n      tag_422\n      jumpi\n        /* \"#utility.yul\":5413:5414   */\n      0x00\n        /* \"#utility.yul\":5410:5411   */\n      dup1\n        /* \"#utility.yul\":5403:5415   */\n      revert\n        /* \"#utility.yul\":5360:5417   */\n    tag_422:\n        /* \"#utility.yul\":4670:5478   */\n      swap7\n      swap10\n      swap6\n      swap9\n      pop\n      swap4\n      swap7\n      pop\n        /* \"#utility.yul\":5444:5446   */\n      0x20\n        /* \"#utility.yul\":5436:5447   */\n      add\n      swap5\n        /* \"#utility.yul\":5466:5472   */\n      swap4\n        /* \"#utility.yul\":4670:5478   */\n      swap3\n      pop\n      pop\n      pop\n      jump\t// out\n        /* \"#utility.yul\":5483:5743   */\n    tag_123:\n        /* \"#utility.yul\":5551:5557   */\n      0x00\n        /* \"#utility.yul\":5559:5565   */\n      dup1\n        /* \"#utility.yul\":5612:5614   */\n      0x40\n        /* \"#utility.yul\":5600:5609   */\n      dup4\n        /* \"#utility.yul\":5591:5598   */\n      dup6\n        /* \"#utility.yul\":5587:5610   */\n      sub\n        /* \"#utility.yul\":5583:5615   */\n      slt\n        /* \"#utility.yul\":5580:5632   */\n      iszero\n      tag_424\n      jumpi\n        /* \"#utility.yul\":5628:5629   */\n      0x00\n        /* \"#utility.yul\":5625:5626   */\n      dup1\n        /* \"#utility.yul\":5618:5630   */\n      revert\n        /* \"#utility.yul\":5580:5632   */\n    tag_424:\n        /* \"#utility.yul\":5651:5680   */\n      tag_425\n        /* \"#utility.yul\":5670:5679   */\n      dup4\n        /* \"#utility.yul\":5651:5680   */\n      tag_360\n      jump\t// in\n    tag_425:\n        /* \"#utility.yul\":5641:5680   */\n      swap2\n      pop\n        /* \"#utility.yul\":5699:5737   */\n      tag_426\n        /* \"#utility.yul\":5733:5735   */\n      0x20\n        /* \"#utility.yul\":5722:5731   */\n      dup5\n        /* \"#utility.yul\":5718:5736   */\n      add\n        /* \"#utility.yul\":5699:5737   */\n      tag_360\n      jump\t// in\n    tag_426:\n        /* \"#utility.yul\":5689:5737   */\n      swap1\n      pop\n        /* \"#utility.yul\":5483:5743   */\n      swap3\n      pop\n      swap3\n      swap1\n      pop\n      jump\t// out\n        /* \"#utility.yul\":5748:6128   */\n    tag_140:\n        /* \"#utility.yul\":5827:5828   */\n      0x01\n        /* \"#utility.yul\":5823:5835   */\n      dup2\n      dup2\n      shr\n      swap1\n        /* \"#utility.yul\":5870:5882   */\n      dup3\n      and\n      dup1\n        /* \"#utility.yul\":5891:5952   */\n      tag_428\n      jumpi\n        /* \"#utility.yul\":5945:5949   */\n      0x7f\n        /* \"#utility.yul\":5937:5943   */\n      dup3\n        /* \"#utility.yul\":5933:5950   */\n      and\n        /* \"#utility.yul\":5923:5950   */\n      swap2\n      pop\n        /* \"#utility.yul\":5891:5952   */\n    tag_428:\n        /* \"#utility.yul\":5998:6000   */\n      0x20\n        /* \"#utility.yul\":5990:5996   */\n      dup3\n        /* \"#utility.yul\":5987:6001   */\n      lt\n        /* \"#utility.yul\":5967:5985   */\n      dup2\n        /* \"#utility.yul\":5964:6002   */\n      sub\n        /* \"#utility.yul\":5961:6122   */\n      tag_429\n      jumpi\n        /* \"#utility.yul\":6044:6054   */\n      0x4e487b71\n        /* \"#utility.yul\":6039:6042   */\n      0xe0\n        /* \"#utility.yul\":6035:6055   */\n      shl\n        /* \"#utility.yul\":6032:6033   */\n      0x00\n        /* \"#utility.yul\":6025:6056   */\n      mstore\n        /* \"#utility.yul\":6079:6083   */\n      0x22\n        /* \"#utility.yul\":6076:6077   */\n      0x04\n        /* \"#utility.yul\":6069:6084   */\n      mstore\n        /* \"#utility.yul\":6107:6111   */\n      0x24\n        /* \"#utility.yul\":6104:6105   */\n      0x00\n        /* \"#utility.yul\":6097:6112   */\n      revert\n        /* \"#utility.yul\":5961:6122   */\n    tag_429:\n      pop\n        /* \"#utility.yul\":5748:6128   */\n      swap2\n      swap1\n      pop\n      jump\t// out\n        /* \"#utility.yul\":6259:6777   */\n    tag_363:\n        /* \"#utility.yul\":6361:6363   */\n      0x1f\n        /* \"#utility.yul\":6356:6359   */\n      dup3\n        /* \"#utility.yul\":6353:6364   */\n      gt\n        /* \"#utility.yul\":6350:6771   */\n      iszero\n      tag_186\n      jumpi\n        /* \"#utility.yul\":6397:6402   */\n      dup1\n        /* \"#utility.yul\":6394:6395   */\n      0x00\n        /* \"#utility.yul\":6387:6403   */\n      mstore\n        /* \"#utility.yul\":6441:6445   */\n      0x20\n        /* \"#utility.yul\":6438:6439   */\n      0x00\n        /* \"#utility.yul\":6428:6446   */\n      keccak256\n        /* \"#utility.yul\":6511:6513   */\n      0x1f\n        /* \"#utility.yul\":6499:6509   */\n      dup5\n        /* \"#utility.yul\":6495:6514   */\n      add\n        /* \"#utility.yul\":6492:6493   */\n      0x05\n        /* \"#utility.yul\":6488:6515   */\n      shr\n        /* \"#utility.yul\":6482:6486   */\n      dup2\n        /* \"#utility.yul\":6478:6516   */\n      add\n        /* \"#utility.yul\":6547:6551   */\n      0x20\n        /* \"#utility.yul\":6535:6545   */\n      dup6\n        /* \"#utility.yul\":6532:6552   */\n      lt\n        /* \"#utility.yul\":6529:6576   */\n      iszero\n      tag_433\n      jumpi\n      pop\n        /* \"#utility.yul\":6570:6574   */\n      dup1\n        /* \"#utility.yul\":6529:6576   */\n    tag_433:\n        /* \"#utility.yul\":6625:6627   */\n      0x1f\n        /* \"#utility.yul\":6620:6623   */\n      dup5\n        /* \"#utility.yul\":6616:6628   */\n      add\n        /* \"#utility.yul\":6613:6614   */\n      0x05\n        /* \"#utility.yul\":6609:6629   */\n      shr\n        /* \"#utility.yul\":6603:6607   */\n      dup3\n        /* \"#utility.yul\":6599:6630   */\n      add\n        /* \"#utility.yul\":6589:6630   */\n      swap2\n      pop\n        /* \"#utility.yul\":6680:6761   */\n    tag_434:\n        /* \"#utility.yul\":6698:6700   */\n      dup2\n        /* \"#utility.yul\":6691:6696   */\n      dup2\n        /* \"#utility.yul\":6688:6701   */\n      lt\n        /* \"#utility.yul\":6680:6761   */\n      iszero\n      tag_189\n      jumpi\n        /* \"#utility.yul\":6757:6758   */\n      0x00\n        /* \"#utility.yul\":6743:6759   */\n      dup2\n      sstore\n        /* \"#utility.yul\":6724:6725   */\n      0x01\n        /* \"#utility.yul\":6713:6726   */\n      add\n        /* \"#utility.yul\":6680:6761   */\n      jump(tag_434)\n        /* \"#utility.yul\":6953:8298   */\n    tag_157:\n        /* \"#utility.yul\":7079:7082   */\n      dup2\n        /* \"#utility.yul\":7073:7083   */\n      mload\n        /* \"#utility.yul\":7106:7124   */\n      0xffffffffffffffff\n        /* \"#utility.yul\":7098:7104   */\n      dup2\n        /* \"#utility.yul\":7095:7125   */\n      gt\n        /* \"#utility.yul\":7092:7148   */\n      iszero\n      tag_440\n      jumpi\n        /* \"#utility.yul\":7128:7146   */\n      tag_440\n      tag_317\n      jump\t// in\n    tag_440:\n        /* \"#utility.yul\":7157:7254   */\n      tag_441\n        /* \"#utility.yul\":7247:7253   */\n      dup2\n        /* \"#utility.yul\":7207:7245   */\n      tag_442\n        /* \"#utility.yul\":7239:7243   */\n      dup5\n        /* \"#utility.yul\":7233:7244   */\n      sload\n        /* \"#utility.yul\":7207:7245   */\n      tag_140\n      jump\t// in\n    tag_442:\n        /* \"#utility.yul\":7201:7205   */\n      dup5\n        /* \"#utility.yul\":7157:7254   */\n      tag_363\n      jump\t// in\n    tag_441:\n        /* \"#utility.yul\":7309:7313   */\n      0x20\n      dup1\n        /* \"#utility.yul\":7366:7368   */\n      0x1f\n        /* \"#utility.yul\":7355:7369   */\n      dup4\n      gt\n        /* \"#utility.yul\":7383:7384   */\n      0x01\n        /* \"#utility.yul\":7378:8041   */\n      dup2\n      eq\n      tag_444\n      jumpi\n        /* \"#utility.yul\":8085:8086   */\n      0x00\n        /* \"#utility.yul\":8102:8108   */\n      dup5\n        /* \"#utility.yul\":8099:8188   */\n      iszero\n      tag_445\n      jumpi\n      pop\n        /* \"#utility.yul\":8154:8173   */\n      dup6\n      dup4\n      add\n        /* \"#utility.yul\":8148:8174   */\n      mload\n        /* \"#utility.yul\":8099:8188   */\n    tag_445:\n      not(0x00)\n        /* \"#utility.yul\":6910:6911   */\n      0x03\n        /* \"#utility.yul\":6906:6917   */\n      dup7\n      swap1\n      shl\n        /* \"#utility.yul\":6902:6926   */\n      shr\n        /* \"#utility.yul\":6898:6927   */\n      not\n        /* \"#utility.yul\":6888:6928   */\n      and\n        /* \"#utility.yul\":6934:6935   */\n      0x01\n        /* \"#utility.yul\":6930:6941   */\n      dup6\n      swap1\n      shl\n        /* \"#utility.yul\":6885:6942   */\n      or\n        /* \"#utility.yul\":8201:8282   */\n      dup6\n      sstore\n        /* \"#utility.yul\":7348:8292   */\n      jump(tag_443)\n        /* \"#utility.yul\":7378:8041   */\n    tag_444:\n        /* \"#utility.yul\":6206:6207   */\n      0x00\n        /* \"#utility.yul\":6199:6213   */\n      dup6\n      dup2\n      mstore\n        /* \"#utility.yul\":6243:6247   */\n      0x20\n        /* \"#utility.yul\":6230:6248   */\n      dup2\n      keccak256\n      not(0x1f)\n        /* \"#utility.yul\":7414:7434   */\n      dup7\n      and\n      swap2\n        /* \"#utility.yul\":7532:7768   */\n    tag_448:\n        /* \"#utility.yul\":7546:7553   */\n      dup3\n        /* \"#utility.yul\":7543:7544   */\n      dup2\n        /* \"#utility.yul\":7540:7554   */\n      lt\n        /* \"#utility.yul\":7532:7768   */\n      iszero\n      tag_450\n      jumpi\n        /* \"#utility.yul\":7635:7654   */\n      dup9\n      dup7\n      add\n        /* \"#utility.yul\":7629:7655   */\n      mload\n        /* \"#utility.yul\":7614:7656   */\n      dup3\n      sstore\n        /* \"#utility.yul\":7727:7754   */\n      swap5\n      dup5\n      add\n      swap5\n        /* \"#utility.yul\":7695:7696   */\n      0x01\n        /* \"#utility.yul\":7683:7697   */\n      swap1\n      swap2\n      add\n      swap1\n        /* \"#utility.yul\":7562:7581   */\n      dup5\n      add\n        /* \"#utility.yul\":7532:7768   */\n      jump(tag_448)\n    tag_450:\n        /* \"#utility.yul\":7536:7539   */\n      pop\n        /* \"#utility.yul\":7796:7802   */\n      dup6\n        /* \"#utility.yul\":7787:7794   */\n      dup3\n        /* \"#utility.yul\":7784:7803   */\n      lt\n        /* \"#utility.yul\":7781:7982   */\n      iszero\n      tag_451\n      jumpi\n        /* \"#utility.yul\":7857:7876   */\n      dup8\n      dup6\n      add\n        /* \"#utility.yul\":7851:7877   */\n      mload\n      not(0x00)\n        /* \"#utility.yul\":7940:7941   */\n      0x03\n        /* \"#utility.yul\":7936:7950   */\n      dup9\n      swap1\n      shl\n        /* \"#utility.yul\":7952:7955   */\n      0xf8\n        /* \"#utility.yul\":7932:7956   */\n      and\n        /* \"#utility.yul\":7928:7965   */\n      shr\n        /* \"#utility.yul\":7924:7966   */\n      not\n        /* \"#utility.yul\":7909:7967   */\n      and\n        /* \"#utility.yul\":7894:7968   */\n      dup2\n      sstore\n        /* \"#utility.yul\":7781:7982   */\n    tag_451:\n      pop\n      pop\n        /* \"#utility.yul\":8028:8029   */\n      0x01\n        /* \"#utility.yul\":8019:8025   */\n      dup5\n        /* \"#utility.yul\":8016:8017   */\n      0x01\n        /* \"#utility.yul\":8012:8026   */\n      shl\n        /* \"#utility.yul\":8008:8030   */\n      add\n        /* \"#utility.yul\":8002:8006   */\n      dup6\n        /* \"#utility.yul\":7995:8031   */\n      sstore\n        /* \"#utility.yul\":7348:8292   */\n    tag_443:\n      pop\n      pop\n      pop\n      pop\n        /* \"#utility.yul\":6953:8298   */\n      pop\n      pop\n      jump\t// out\n        /* \"#utility.yul\":8303:8430   */\n    tag_365:\n        /* \"#utility.yul\":8364:8374   */\n      0x4e487b71\n        /* \"#utility.yul\":8359:8362   */\n      0xe0\n        /* \"#utility.yul\":8355:8375   */\n      shl\n        /* \"#utility.yul\":8352:8353   */\n      0x00\n        /* \"#utility.yul\":8345:8376   */\n      mstore\n        /* \"#utility.yul\":8395:8399   */\n      0x11\n        /* \"#utility.yul\":8392:8393   */\n      0x04\n        /* \"#utility.yul\":8385:8400   */\n      mstore\n        /* \"#utility.yul\":8419:8423   */\n      0x24\n        /* \"#utility.yul\":8416:8417   */\n      0x00\n        /* \"#utility.yul\":8409:8424   */\n      revert\n        /* \"#utility.yul\":8435:8563   */\n    tag_168:\n        /* \"#utility.yul\":8502:8511   */\n      dup2\n      dup2\n      sub\n        /* \"#utility.yul\":8523:8534   */\n      dup2\n      dup2\n      gt\n        /* \"#utility.yul\":8520:8557   */\n      iszero\n      tag_145\n      jumpi\n        /* \"#utility.yul\":8537:8555   */\n      tag_145\n      tag_365\n      jump\t// in\n        /* \"#utility.yul\":8568:8695   */\n    tag_173:\n        /* \"#utility.yul\":8629:8639   */\n      0x4e487b71\n        /* \"#utility.yul\":8624:8627   */\n      0xe0\n        /* \"#utility.yul\":8620:8640   */\n      shl\n        /* \"#utility.yul\":8617:8618   */\n      0x00\n        /* \"#utility.yul\":8610:8641   */\n      mstore\n        /* \"#utility.yul\":8660:8664   */\n      0x32\n        /* \"#utility.yul\":8657:8658   */\n      0x04\n        /* \"#utility.yul\":8650:8665   */\n      mstore\n        /* \"#utility.yul\":8684:8688   */\n      0x24\n        /* \"#utility.yul\":8681:8682   */\n      0x00\n        /* \"#utility.yul\":8674:8689   */\n      revert\n        /* \"#utility.yul\":8700:8827   */\n    tag_180:\n        /* \"#utility.yul\":8761:8771   */\n      0x4e487b71\n        /* \"#utility.yul\":8756:8759   */\n      0xe0\n        /* \"#utility.yul\":8752:8772   */\n      shl\n        /* \"#utility.yul\":8749:8750   */\n      0x00\n        /* \"#utility.yul\":8742:8773   */\n      mstore\n        /* \"#utility.yul\":8792:8796   */\n      0x31\n        /* \"#utility.yul\":8789:8790   */\n      0x04\n        /* \"#utility.yul\":8782:8797   */\n      mstore\n        /* \"#utility.yul\":8816:8820   */\n      0x24\n        /* \"#utility.yul\":8813:8814   */\n      0x00\n        /* \"#utility.yul\":8806:8821   */\n      revert\n        /* \"#utility.yul\":9392:9682   */\n    tag_202:\n        /* \"#utility.yul\":9461:9467   */\n      0x00\n        /* \"#utility.yul\":9514:9516   */\n      0x20\n        /* \"#utility.yul\":9502:9511   */\n      dup3\n        /* \"#utility.yul\":9493:9500   */\n      dup5\n        /* \"#utility.yul\":9489:9512   */\n      sub\n        /* \"#utility.yul\":9485:9517   */\n      slt\n        /* \"#utility.yul\":9482:9534   */\n      iszero\n      tag_460\n      jumpi\n        /* \"#utility.yul\":9530:9531   */\n      0x00\n        /* \"#utility.yul\":9527:9528   */\n      dup1\n        /* \"#utility.yul\":9520:9532   */\n      revert\n        /* \"#utility.yul\":9482:9534   */\n    tag_460:\n        /* \"#utility.yul\":9556:9572   */\n      dup2\n      mload\n      not(sub(shl(0xe0, 0x01), 0x01))\n        /* \"#utility.yul\":9601:9633   */\n      dup2\n      and\n        /* \"#utility.yul\":9591:9634   */\n      dup2\n      eq\n        /* \"#utility.yul\":9581:9652   */\n      tag_222\n      jumpi\n        /* \"#utility.yul\":9648:9649   */\n      0x00\n        /* \"#utility.yul\":9645:9646   */\n      dup1\n        /* \"#utility.yul\":9638:9650   */\n      revert\n        /* \"#utility.yul\":9687:10349   */\n    tag_227:\n      sub(shl(0xa0, 0x01), 0x01)\n        /* \"#utility.yul\":9966:9981   */\n      dup7\n      dup2\n      and\n        /* \"#utility.yul\":9948:9982   */\n      dup3\n      mstore\n        /* \"#utility.yul\":10018:10033   */\n      dup6\n      and\n        /* \"#utility.yul\":10013:10015   */\n      0x20\n        /* \"#utility.yul\":9998:10016   */\n      dup3\n      add\n        /* \"#utility.yul\":9991:10034   */\n      mstore\n        /* \"#utility.yul\":10065:10067   */\n      0x40\n        /* \"#utility.yul\":10050:10068   */\n      dup2\n      add\n        /* \"#utility.yul\":10043:10077   */\n      dup5\n      swap1\n      mstore\n        /* \"#utility.yul\":10113:10116   */\n      0x80\n        /* \"#utility.yul\":10108:10110   */\n      0x60\n        /* \"#utility.yul\":10093:10111   */\n      dup3\n      add\n        /* \"#utility.yul\":10086:10117   */\n      dup2\n      swap1\n      mstore\n        /* \"#utility.yul\":10133:10152   */\n      dup2\n      add\n        /* \"#utility.yul\":10126:10161   */\n      dup3\n      swap1\n      mstore\n        /* \"#utility.yul\":9891:9895   */\n      0x00\n        /* \"#utility.yul\":10154:10160   */\n      dup3\n        /* \"#utility.yul\":10204:10210   */\n      dup5\n        /* \"#utility.yul\":9928:9931   */\n      0xa0\n        /* \"#utility.yul\":10183:10202   */\n      dup5\n      add\n        /* \"#utility.yul\":10170:10219   */\n      calldatacopy\n        /* \"#utility.yul\":10269:10270   */\n      0x00\n        /* \"#utility.yul\":10263:10266   */\n      0xa0\n        /* \"#utility.yul\":10254:10260   */\n      dup5\n        /* \"#utility.yul\":10243:10252   */\n      dup5\n        /* \"#utility.yul\":10239:10261   */\n      add\n        /* \"#utility.yul\":10235:10267   */\n      add\n        /* \"#utility.yul\":10228:10271   */\n      mstore\n        /* \"#utility.yul\":10339:10342   */\n      0xa0\n        /* \"#utility.yul\":10332:10334   */\n      0x1f\n        /* \"#utility.yul\":10328:10335   */\n      not\n        /* \"#utility.yul\":10323:10325   */\n      0x1f\n        /* \"#utility.yul\":10315:10321   */\n      dup6\n        /* \"#utility.yul\":10311:10326   */\n      add\n        /* \"#utility.yul\":10307:10336   */\n      and\n        /* \"#utility.yul\":10296:10305   */\n      dup4\n        /* \"#utility.yul\":10292:10337   */\n      add\n        /* \"#utility.yul\":10288:10343   */\n      add\n        /* \"#utility.yul\":10280:10343   */\n      swap1\n      pop\n        /* \"#utility.yul\":9687:10349   */\n      swap7\n      swap6\n      pop\n      pop\n      pop\n      pop\n      pop\n      pop\n      jump\t// out\n        /* \"#utility.yul\":10354:11375   */\n    tag_238:\n        /* \"#utility.yul\":10530:10533   */\n      0x00\n        /* \"#utility.yul\":10559:10560   */\n      dup1\n        /* \"#utility.yul\":10592:10598   */\n      dup5\n        /* \"#utility.yul\":10586:10599   */\n      sload\n        /* \"#utility.yul\":10622:10658   */\n      tag_464\n        /* \"#utility.yul\":10648:10657   */\n      dup2\n        /* \"#utility.yul\":10622:10658   */\n      tag_140\n      jump\t// in\n    tag_464:\n        /* \"#utility.yul\":10677:10678   */\n      0x01\n        /* \"#utility.yul\":10694:10711   */\n      dup3\n      dup2\n      and\n        /* \"#utility.yul\":10720:10853   */\n      dup1\n      iszero\n      tag_466\n      jumpi\n        /* \"#utility.yul\":10867:10868   */\n      0x01\n        /* \"#utility.yul\":10862:11220   */\n      dup2\n      eq\n      tag_467\n      jumpi\n        /* \"#utility.yul\":10687:11220   */\n      jump(tag_465)\n        /* \"#utility.yul\":10720:10853   */\n    tag_466:\n      not(0xff)\n        /* \"#utility.yul\":10753:10777   */\n      dup5\n      and\n        /* \"#utility.yul\":10741:10778   */\n      dup8\n      mstore\n        /* \"#utility.yul\":10826:10840   */\n      dup3\n      iszero\n        /* \"#utility.yul\":10819:10841   */\n      iszero\n        /* \"#utility.yul\":10807:10842   */\n      dup4\n      mul\n        /* \"#utility.yul\":10798:10843   */\n      dup8\n      add\n      swap5\n      pop\n        /* \"#utility.yul\":10720:10853   */\n      jump(tag_465)\n        /* \"#utility.yul\":10862:11220   */\n    tag_467:\n        /* \"#utility.yul\":10893:10899   */\n      dup9\n        /* \"#utility.yul\":10890:10891   */\n      0x00\n        /* \"#utility.yul\":10883:10900   */\n      mstore\n        /* \"#utility.yul\":10923:10927   */\n      0x20\n        /* \"#utility.yul\":10968:10972   */\n      dup1\n        /* \"#utility.yul\":10965:10966   */\n      0x00\n        /* \"#utility.yul\":10955:10973   */\n      keccak256\n        /* \"#utility.yul\":10995:10996   */\n      0x00\n        /* \"#utility.yul\":11009:11174   */\n    tag_468:\n        /* \"#utility.yul\":11023:11029   */\n      dup6\n        /* \"#utility.yul\":11020:11021   */\n      dup2\n        /* \"#utility.yul\":11017:11030   */\n      lt\n        /* \"#utility.yul\":11009:11174   */\n      iszero\n      tag_470\n      jumpi\n        /* \"#utility.yul\":11101:11115   */\n      dup2\n      sload\n        /* \"#utility.yul\":11088:11099   */\n      dup11\n      dup3\n      add\n        /* \"#utility.yul\":11081:11116   */\n      mstore\n        /* \"#utility.yul\":11144:11160   */\n      swap1\n      dup5\n      add\n      swap1\n        /* \"#utility.yul\":11038:11048   */\n      dup3\n      add\n        /* \"#utility.yul\":11009:11174   */\n      jump(tag_468)\n    tag_470:\n        /* \"#utility.yul\":11013:11016   */\n      pop\n      pop\n      pop\n        /* \"#utility.yul\":11203:11209   */\n      dup3\n        /* \"#utility.yul\":11198:11201   */\n      dup8\n        /* \"#utility.yul\":11194:11210   */\n      add\n        /* \"#utility.yul\":11187:11210   */\n      swap5\n      pop\n        /* \"#utility.yul\":10687:11220   */\n    tag_465:\n      pop\n      pop\n      pop\n      pop\n        /* \"#utility.yul\":11251:11257   */\n      dup4\n        /* \"#utility.yul\":11245:11258   */\n      mload\n        /* \"#utility.yul\":11267:11335   */\n      tag_471\n        /* \"#utility.yul\":11326:11334   */\n      dup2\n        /* \"#utility.yul\":11321:11324   */\n      dup4\n        /* \"#utility.yul\":11314:11318   */\n      0x20\n        /* \"#utility.yul\":11306:11312   */\n      dup9\n        /* \"#utility.yul\":11302:11319   */\n      add\n        /* \"#utility.yul\":11267:11335   */\n      tag_359\n      jump\t// in\n    tag_471:\n        /* \"#utility.yul\":11351:11369   */\n      add\n      swap5\n        /* \"#utility.yul\":10354:11375   */\n      swap4\n      pop\n      pop\n      pop\n      pop\n      jump\t// out\n        /* \"#utility.yul\":11567:12037   */\n    tag_253:\n      shl(0x68, 0x7b226e616d65223a202250616e646f72612023)\n        /* \"#utility.yul\":11807:11870   */\n      dup2\n      mstore\n        /* \"#utility.yul\":11893:11906   */\n      dup2\n      mload\n        /* \"#utility.yul\":11789:11792   */\n      0x00\n      swap1\n        /* \"#utility.yul\":11915:11990   */\n      tag_474\n        /* \"#utility.yul\":11893:11906   */\n      dup2\n        /* \"#utility.yul\":11978:11980   */\n      0x13\n        /* \"#utility.yul\":11969:11981   */\n      dup6\n      add\n        /* \"#utility.yul\":11962:11966   */\n      0x20\n        /* \"#utility.yul\":11950:11967   */\n      dup8\n      add\n        /* \"#utility.yul\":11915:11990   */\n      tag_359\n      jump\t// in\n    tag_474:\n        /* \"#utility.yul\":12010:12026   */\n      swap2\n      swap1\n      swap2\n      add\n        /* \"#utility.yul\":12028:12030   */\n      0x13\n        /* \"#utility.yul\":12006:12031   */\n      add\n      swap3\n        /* \"#utility.yul\":11567:12037   */\n      swap2\n      pop\n      pop\n      jump\t// out\n        /* \"#utility.yul\":12042:12894   */\n    tag_255:\n        /* \"#utility.yul\":12274:12277   */\n      0x00\n        /* \"#utility.yul\":12312:12318   */\n      dup3\n        /* \"#utility.yul\":12306:12319   */\n      mload\n        /* \"#utility.yul\":12328:12394   */\n      tag_476\n        /* \"#utility.yul\":12387:12393   */\n      dup2\n        /* \"#utility.yul\":12382:12385   */\n      dup5\n        /* \"#utility.yul\":12375:12379   */\n      0x20\n        /* \"#utility.yul\":12367:12373   */\n      dup8\n        /* \"#utility.yul\":12363:12380   */\n      add\n        /* \"#utility.yul\":12328:12394   */\n      tag_359\n      jump\t// in\n    tag_476:\n        /* \"#utility.yul\":12455:12521   */\n      0x222c226465736372697074696f6e223a224120636f6c6c656374696f6e206f66\n        /* \"#utility.yul\":12416:12432   */\n      swap3\n      add\n        /* \"#utility.yul\":12441:12522   */\n      swap2\n      dup3\n      mstore\n      pop\n        /* \"#utility.yul\":12556:12590   */\n      0x2031302c303030205265706c6963616e747320656e61626c6564206279204552\n        /* \"#utility.yul\":12549:12553   */\n      0x20\n        /* \"#utility.yul\":12538:12554   */\n      dup3\n      add\n        /* \"#utility.yul\":12531:12591   */\n      mstore\n        /* \"#utility.yul\":12623:12657   */\n      0x433430342c20616e206578706572696d656e74616c20746f6b656e207374616e\n        /* \"#utility.yul\":12618:12620   */\n      0x40\n        /* \"#utility.yul\":12607:12621   */\n      dup3\n      add\n        /* \"#utility.yul\":12600:12658   */\n      mstore\n        /* \"#utility.yul\":12690:12756   */\n      0x646172642e222c2265787465726e616c5f75726c223a2268747470733a2f2f70\n        /* \"#utility.yul\":12685:12687   */\n      0x60\n        /* \"#utility.yul\":12674:12688   */\n      dup3\n      add\n        /* \"#utility.yul\":12667:12757   */\n      mstore\n        /* \"#utility.yul\":12790:12856   */\n      0x616e646f72612e6275696c64222c22696d616765223a22000000000000000000\n        /* \"#utility.yul\":12784:12787   */\n      0x80\n        /* \"#utility.yul\":12773:12788   */\n      dup3\n      add\n        /* \"#utility.yul\":12766:12857   */\n      mstore\n        /* \"#utility.yul\":12884:12887   */\n      0x97\n        /* \"#utility.yul\":12873:12888   */\n      add\n      swap2\n        /* \"#utility.yul\":12042:12894   */\n      swap1\n      pop\n      jump\t// out\n        /* \"#utility.yul\":12899:13395   */\n    tag_258:\n        /* \"#utility.yul\":13078:13081   */\n      0x00\n        /* \"#utility.yul\":13116:13122   */\n      dup4\n        /* \"#utility.yul\":13110:13123   */\n      mload\n        /* \"#utility.yul\":13132:13198   */\n      tag_478\n        /* \"#utility.yul\":13191:13197   */\n      dup2\n        /* \"#utility.yul\":13186:13189   */\n      dup5\n        /* \"#utility.yul\":13179:13183   */\n      0x20\n        /* \"#utility.yul\":13171:13177   */\n      dup9\n        /* \"#utility.yul\":13167:13184   */\n      add\n        /* \"#utility.yul\":13132:13198   */\n      tag_359\n      jump\t// in\n    tag_478:\n        /* \"#utility.yul\":13261:13274   */\n      dup4\n      mload\n        /* \"#utility.yul\":13220:13236   */\n      swap1\n      dup4\n      add\n      swap1\n        /* \"#utility.yul\":13283:13353   */\n      tag_471\n        /* \"#utility.yul\":13261:13274   */\n      dup2\n        /* \"#utility.yul\":13220:13236   */\n      dup4\n        /* \"#utility.yul\":13330:13334   */\n      0x20\n        /* \"#utility.yul\":13318:13335   */\n      dup9\n      add\n        /* \"#utility.yul\":13283:13353   */\n      tag_359\n      jump\t// in\n        /* \"#utility.yul\":13400:13967   */\n    tag_260:\n        /* \"#utility.yul\":13662:13728   */\n      0x222c2261747472696275746573223a5b7b2274726169745f74797065223a2243\n        /* \"#utility.yul\":13657:13660   */\n      dup2\n        /* \"#utility.yul\":13650:13729   */\n      mstore\n        /* \"#utility.yul\":13768:13800   */\n      0x37b637b91116113b30b63ab2911d11\n        /* \"#utility.yul\":13763:13766   */\n      0x89\n        /* \"#utility.yul\":13759:13801   */\n      shl\n        /* \"#utility.yul\":13754:13756   */\n      0x20\n        /* \"#utility.yul\":13749:13752   */\n      dup3\n        /* \"#utility.yul\":13745:13757   */\n      add\n        /* \"#utility.yul\":13738:13802   */\n      mstore\n        /* \"#utility.yul\":13632:13635   */\n      0x00\n        /* \"#utility.yul\":13831:13837   */\n      dup3\n        /* \"#utility.yul\":13825:13838   */\n      mload\n        /* \"#utility.yul\":13847:13920   */\n      tag_481\n        /* \"#utility.yul\":13913:13919   */\n      dup2\n        /* \"#utility.yul\":13908:13910   */\n      0x2f\n        /* \"#utility.yul\":13903:13906   */\n      dup6\n        /* \"#utility.yul\":13899:13911   */\n      add\n        /* \"#utility.yul\":13894:13896   */\n      0x20\n        /* \"#utility.yul\":13886:13892   */\n      dup8\n        /* \"#utility.yul\":13882:13897   */\n      add\n        /* \"#utility.yul\":13847:13920   */\n      tag_359\n      jump\t// in\n    tag_481:\n        /* \"#utility.yul\":13940:13956   */\n      swap2\n      swap1\n      swap2\n      add\n        /* \"#utility.yul\":13958:13960   */\n      0x2f\n        /* \"#utility.yul\":13936:13961   */\n      add\n      swap3\n        /* \"#utility.yul\":13400:13967   */\n      swap2\n      pop\n      pop\n      jump\t// out\n        /* \"#utility.yul\":13972:14421   */\n    tag_264:\n        /* \"#utility.yul\":14224:14253   */\n      0x646174613a6170706c69636174696f6e2f6a736f6e3b757466382c0000000000\n        /* \"#utility.yul\":14219:14222   */\n      dup2\n        /* \"#utility.yul\":14212:14254   */\n      mstore\n        /* \"#utility.yul\":14194:14197   */\n      0x00\n        /* \"#utility.yul\":14283:14289   */\n      dup3\n        /* \"#utility.yul\":14277:14290   */\n      mload\n        /* \"#utility.yul\":14299:14374   */\n      tag_483\n        /* \"#utility.yul\":14367:14373   */\n      dup2\n        /* \"#utility.yul\":14362:14364   */\n      0x1b\n        /* \"#utility.yul\":14357:14360   */\n      dup6\n        /* \"#utility.yul\":14353:14365   */\n      add\n        /* \"#utility.yul\":14346:14350   */\n      0x20\n        /* \"#utility.yul\":14338:14344   */\n      dup8\n        /* \"#utility.yul\":14334:14351   */\n      add\n        /* \"#utility.yul\":14299:14374   */\n      tag_359\n      jump\t// in\n    tag_483:\n        /* \"#utility.yul\":14394:14410   */\n      swap2\n      swap1\n      swap2\n      add\n        /* \"#utility.yul\":14412:14414   */\n      0x1b\n        /* \"#utility.yul\":14390:14415   */\n      add\n      swap3\n        /* \"#utility.yul\":13972:14421   */\n      swap2\n      pop\n      pop\n      jump\t// out\n        /* \"#utility.yul\":14426:14842   */\n    tag_366:\n        /* \"#utility.yul\":14515:14516   */\n      0x01\n        /* \"#utility.yul\":14552:14557   */\n      dup2\n        /* \"#utility.yul\":14515:14516   */\n      dup2\n        /* \"#utility.yul\":14566:14836   */\n    tag_485:\n        /* \"#utility.yul\":14587:14594   */\n      dup1\n        /* \"#utility.yul\":14577:14585   */\n      dup6\n        /* \"#utility.yul\":14574:14595   */\n      gt\n        /* \"#utility.yul\":14566:14836   */\n      iszero\n      tag_487\n      jumpi\n        /* \"#utility.yul\":14646:14650   */\n      dup2\n        /* \"#utility.yul\":14642:14643   */\n      0x00\n        /* \"#utility.yul\":14638:14644   */\n      not\n        /* \"#utility.yul\":14634:14651   */\n      div\n        /* \"#utility.yul\":14628:14632   */\n      dup3\n        /* \"#utility.yul\":14625:14652   */\n      gt\n        /* \"#utility.yul\":14622:14675   */\n      iszero\n      tag_489\n      jumpi\n        /* \"#utility.yul\":14655:14673   */\n      tag_489\n      tag_365\n      jump\t// in\n    tag_489:\n        /* \"#utility.yul\":14705:14712   */\n      dup1\n        /* \"#utility.yul\":14695:14703   */\n      dup6\n        /* \"#utility.yul\":14691:14713   */\n      and\n        /* \"#utility.yul\":14688:14743   */\n      iszero\n      tag_490\n      jumpi\n        /* \"#utility.yul\":14725:14741   */\n      swap2\n      dup2\n      mul\n      swap2\n        /* \"#utility.yul\":14688:14743   */\n    tag_490:\n        /* \"#utility.yul\":14804:14826   */\n      swap4\n      dup5\n      shr\n      swap4\n        /* \"#utility.yul\":14764:14779   */\n      swap1\n      dup1\n      mul\n      swap1\n        /* \"#utility.yul\":14566:14836   */\n      jump(tag_485)\n    tag_487:\n        /* \"#utility.yul\":14570:14573   */\n      pop\n        /* \"#utility.yul\":14426:14842   */\n      swap3\n      pop\n      swap3\n      swap1\n      pop\n      jump\t// out\n        /* \"#utility.yul\":14847:15653   */\n    tag_367:\n        /* \"#utility.yul\":14896:14901   */\n      0x00\n        /* \"#utility.yul\":14926:14934   */\n      dup3\n        /* \"#utility.yul\":14916:14996   */\n      tag_492\n      jumpi\n      pop\n        /* \"#utility.yul\":14967:14968   */\n      0x01\n        /* \"#utility.yul\":14981:14986   */\n      jump(tag_145)\n        /* \"#utility.yul\":14916:14996   */\n    tag_492:\n        /* \"#utility.yul\":15015:15019   */\n      dup2\n        /* \"#utility.yul\":15005:15081   */\n      tag_493\n      jumpi\n      pop\n        /* \"#utility.yul\":15052:15053   */\n      0x00\n        /* \"#utility.yul\":15066:15071   */\n      jump(tag_145)\n        /* \"#utility.yul\":15005:15081   */\n    tag_493:\n        /* \"#utility.yul\":15097:15101   */\n      dup2\n        /* \"#utility.yul\":15115:15116   */\n      0x01\n        /* \"#utility.yul\":15110:15169   */\n      dup2\n      eq\n      tag_495\n      jumpi\n        /* \"#utility.yul\":15183:15184   */\n      0x02\n        /* \"#utility.yul\":15178:15308   */\n      dup2\n      eq\n      tag_496\n      jumpi\n        /* \"#utility.yul\":15090:15308   */\n      jump(tag_494)\n        /* \"#utility.yul\":15110:15169   */\n    tag_495:\n        /* \"#utility.yul\":15140:15141   */\n      0x01\n        /* \"#utility.yul\":15131:15141   */\n      swap2\n      pop\n        /* \"#utility.yul\":15154:15159   */\n      pop\n      jump(tag_145)\n        /* \"#utility.yul\":15178:15308   */\n    tag_496:\n        /* \"#utility.yul\":15215:15218   */\n      0xff\n        /* \"#utility.yul\":15205:15213   */\n      dup5\n        /* \"#utility.yul\":15202:15219   */\n      gt\n        /* \"#utility.yul\":15199:15242   */\n      iszero\n      tag_498\n      jumpi\n        /* \"#utility.yul\":15222:15240   */\n      tag_498\n      tag_365\n      jump\t// in\n    tag_498:\n      pop\n      pop\n        /* \"#utility.yul\":15278:15279   */\n      0x01\n        /* \"#utility.yul\":15264:15280   */\n      dup3\n      shl\n        /* \"#utility.yul\":15293:15298   */\n      jump(tag_145)\n        /* \"#utility.yul\":15090:15308   */\n    tag_494:\n      pop\n        /* \"#utility.yul\":15392:15394   */\n      0x20\n        /* \"#utility.yul\":15382:15390   */\n      dup4\n        /* \"#utility.yul\":15379:15395   */\n      lt\n        /* \"#utility.yul\":15373:15376   */\n      0x0133\n        /* \"#utility.yul\":15367:15371   */\n      dup4\n        /* \"#utility.yul\":15364:15377   */\n      lt\n        /* \"#utility.yul\":15360:15396   */\n      and\n        /* \"#utility.yul\":15354:15356   */\n      0x4e\n        /* \"#utility.yul\":15344:15352   */\n      dup5\n        /* \"#utility.yul\":15341:15357   */\n      lt\n        /* \"#utility.yul\":15336:15338   */\n      0x0b\n        /* \"#utility.yul\":15330:15334   */\n      dup5\n        /* \"#utility.yul\":15327:15339   */\n      lt\n        /* \"#utility.yul\":15323:15358   */\n      and\n        /* \"#utility.yul\":15320:15397   */\n      or\n        /* \"#utility.yul\":15317:15476   */\n      iszero\n      tag_499\n      jumpi\n      pop\n        /* \"#utility.yul\":15429:15448   */\n      dup2\n      dup2\n      exp\n        /* \"#utility.yul\":15461:15466   */\n      jump(tag_145)\n        /* \"#utility.yul\":15317:15476   */\n    tag_499:\n        /* \"#utility.yul\":15508:15542   */\n      tag_500\n        /* \"#utility.yul\":15533:15541   */\n      dup4\n        /* \"#utility.yul\":15527:15531   */\n      dup4\n        /* \"#utility.yul\":15508:15542   */\n      tag_366\n      jump\t// in\n    tag_500:\n        /* \"#utility.yul\":15578:15584   */\n      dup1\n        /* \"#utility.yul\":15574:15575   */\n      0x00\n        /* \"#utility.yul\":15570:15576   */\n      not\n        /* \"#utility.yul\":15566:15585   */\n      div\n        /* \"#utility.yul\":15557:15564   */\n      dup3\n        /* \"#utility.yul\":15554:15586   */\n      gt\n        /* \"#utility.yul\":15551:15609   */\n      iszero\n      tag_502\n      jumpi\n        /* \"#utility.yul\":15589:15607   */\n      tag_502\n      tag_365\n      jump\t// in\n    tag_502:\n        /* \"#utility.yul\":15627:15647   */\n      mul\n      swap4\n        /* \"#utility.yul\":14847:15653   */\n      swap3\n      pop\n      pop\n      pop\n      jump\t// out\n        /* \"#utility.yul\":15658:15798   */\n    tag_285:\n        /* \"#utility.yul\":15716:15721   */\n      0x00\n        /* \"#utility.yul\":15745:15792   */\n      tag_222\n        /* \"#utility.yul\":15786:15790   */\n      0xff\n        /* \"#utility.yul\":15776:15784   */\n      dup5\n        /* \"#utility.yul\":15772:15791   */\n      and\n        /* \"#utility.yul\":15766:15770   */\n      dup4\n        /* \"#utility.yul\":15745:15792   */\n      tag_367\n      jump\t// in\n        /* \"#utility.yul\":15935:16152   */\n    tag_291:\n        /* \"#utility.yul\":15975:15976   */\n      0x00\n        /* \"#utility.yul\":16001:16002   */\n      dup3\n        /* \"#utility.yul\":15991:16123   */\n      tag_507\n      jumpi\n        /* \"#utility.yul\":16045:16055   */\n      0x4e487b71\n        /* \"#utility.yul\":16040:16043   */\n      0xe0\n        /* \"#utility.yul\":16036:16056   */\n      shl\n        /* \"#utility.yul\":16033:16034   */\n      0x00\n        /* \"#utility.yul\":16026:16057   */\n      mstore\n        /* \"#utility.yul\":16080:16084   */\n      0x12\n        /* \"#utility.yul\":16077:16078   */\n      0x04\n        /* \"#utility.yul\":16070:16085   */\n      mstore\n        /* \"#utility.yul\":16108:16112   */\n      0x24\n        /* \"#utility.yul\":16105:16106   */\n      0x00\n        /* \"#utility.yul\":16098:16113   */\n      revert\n        /* \"#utility.yul\":15991:16123   */\n    tag_507:\n      pop\n        /* \"#utility.yul\":16137:16146   */\n      div\n      swap1\n        /* \"#utility.yul\":15935:16152   */\n      jump\t// out\n\n    auxdata: 0xa2646970667358221220058c564dd9a8a99e0f3647322a64e4f68bc7f1c06bb30d75c3985215fb0322a264736f6c63430008180033\n}\n",
				"bytecode": {
					"linkReferences": {},
					"object": "60c060405234801562000010575f80fd5b50604051620023da380380620023da833981016040819052620000339162000159565b6040805180820182526008815267115c9c9bdc8d0c0d60c21b6020808301919091528251808401909352600583526422b93937b960d91b908301529060126103e884806001600160a01b0381166200009e576040516349e27cff60e01b815260040160405180910390fd5b5f80546001600160a01b0319166001600160a01b03831690811782556040519091907f8be0079c531659141344cd1fd0a4f28419497f9722a3daafe3b4186f6b6457e0908290a3506001620000f4868262000226565b50600262000103858262000226565b5060ff831660808190526200011a90600a62000401565b62000126908362000411565b60a0525050506001600160a01b039092165f908152600460205260409020683635c9adc5dea000009055506200042b9050565b5f602082840312156200016a575f80fd5b81516001600160a01b038116811462000181575f80fd5b9392505050565b634e487b7160e01b5f52604160045260245ffd5b600181811c90821680620001b157607f821691505b602082108103620001d057634e487b7160e01b5f52602260045260245ffd5b50919050565b601f8211156200022157805f5260205f20601f840160051c81016020851015620001fd5750805b601f840160051c820191505b818110156200021e575f815560010162000209565b50505b505050565b81516001600160401b0381111562000242576200024262000188565b6200025a816200025384546200019c565b84620001d6565b602080601f83116001811462000290575f8415620002785750858301515b5f19600386901b1c1916600185901b178555620002ea565b5f85815260208120601f198616915b82811015620002c0578886015182559484019460019091019084016200029f565b5085821015620002de57878501515f19600388901b60f8161c191681555b505060018460011b0185555b505050505050565b634e487b7160e01b5f52601160045260245ffd5b600181815b808511156200034657815f19048211156200032a576200032a620002f2565b808516156200033857918102915b93841c93908002906200030b565b509250929050565b5f826200035e57506001620003fb565b816200036c57505f620003fb565b81600181146200038557600281146200039057620003b0565b6001915050620003fb565b60ff841115620003a457620003a4620002f2565b50506001821b620003fb565b5060208310610133831016604e8410600b8410161715620003d5575081810a620003fb565b620003e1838362000306565b805f1904821115620003f757620003f7620002f2565b0290505b92915050565b5f6200018160ff8416836200034e565b8082028115828204841417620003fb57620003fb620002f2565b60805160a051611f86620004545f395f61022b01525f8181610290015261113c0152611f865ff3fe608060405234801561000f575f80fd5b50600436106101a1575f3560e01c806370a08231116100f3578063c87b56dd11610093578063e0df5b6f1161006e578063e0df5b6f146103f2578063e985e9c514610405578063f28ca1dd14610432578063f2fde38b1461043a575f80fd5b8063c87b56dd146103ad578063d547cfb7146103c0578063dd62ed3e146103c8575f80fd5b80639b19251a116100ce5780639b19251a14610352578063a22cb46514610374578063a9059cbb14610387578063b88d4fde1461039a575f80fd5b806370a08231146103195780638da5cb5b1461033857806395d89b411461034a575f80fd5b80632b9689581161015e5780634f02c420116101395780634f02c420146102d7578063504334c2146102e057806353d6fd59146102f35780636352211e14610306575f80fd5b80632b96895814610283578063313ce5671461028b57806342842e0e146102c4575f80fd5b806306fdde03146101a5578063081812fc146101c3578063095ea7b31461020357806318160ddd1461022657806318d217c31461025b57806323b872dd14610270575b5f80fd5b6101ad61044d565b6040516101ba91906116d7565b60405180910390f35b6101eb6101d1366004611709565b60066020525f90815260409020546001600160a01b031681565b6040516001600160a01b0390911681526020016101ba565b610216610211366004611736565b6104d9565b60405190151581526020016101ba565b61024d7f000000000000000000000000000000000000000000000000000000000000000081565b6040519081526020016101ba565b61026e6102693660046117fb565b610624565b005b61026e61027e366004611835565b61065d565b61026e6109d9565b6102b27f000000000000000000000000000000000000000000000000000000000000000081565b60405160ff90911681526020016101ba565b61026e6102d2366004611835565b610a3d565b61024d60035481565b61026e6102ee36600461186e565b610b0e565b61026e6103013660046118ce565b610b41565b6101eb610314366004611709565b610b94565b61024d610327366004611907565b60046020525f908152604090205481565b5f546101eb906001600160a01b031681565b6101ad610bce565b610216610360366004611907565b600b6020525f908152604090205460ff1681565b61026e6103823660046118ce565b610bdb565b610216610395366004611736565b610c46565b61026e6103a8366004611920565b610c59565b6101ad6103bb366004611709565b610d19565b6101ad61104d565b61024d6103d63660046119b3565b600560209081525f928352604080842090915290825290205481565b61026e6104003660046117fb565b61105a565b6102166104133660046119b3565b600760209081525f928352604080842090915290825290205460ff1681565b6101ad61108f565b61026e610448366004611907565b61109c565b6001805461045a906119e4565b80601f0160208091040260200160405190810160405280929190818152602001828054610486906119e4565b80156104d15780601f106104a8576101008083540402835291602001916104d1565b820191905f5260205f20905b8154815290600101906020018083116104b457829003601f168201915b505050505081565b5f60035482111580156104eb57505f82115b156105bf575f828152600860205260409020546001600160a01b031633811480159061053a57506001600160a01b0381165f90815260076020908152604080832033845290915290205460ff16155b15610557576040516282b42960e81b815260040160405180910390fd5b5f8381526006602090815260409182902080546001600160a01b0319166001600160a01b038881169182179092559251868152908416917f8c5be1e5ebec7d5bd14f71427d1e84f3dd0314c0f7b2291e5b200ac8c7c3b925910160405180910390a35061061a565b335f8181526005602090815260408083206001600160a01b03881680855290835292819020869055518581529192917f8c5be1e5ebec7d5bd14f71427d1e84f3dd0314c0f7b2291e5b200ac8c7c3b925910160405180910390a35b5060015b92915050565b5f546001600160a01b0316331461064d576040516282b42960e81b815260040160405180910390fd5b600c6106598282611a60565b5050565b600354811161096d575f818152600860205260409020546001600160a01b0384811691161461069f57604051636edaef2f60e11b815260040160405180910390fd5b6001600160a01b0382166106c657604051634e46966960e11b815260040160405180910390fd5b336001600160a01b0384161480159061070257506001600160a01b0383165f90815260076020908152604080832033845290915290205460ff16155b801561072457505f818152600660205260409020546001600160a01b03163314155b15610741576040516282b42960e81b815260040160405180910390fd5b610749611136565b6001600160a01b0384165f9081526004602052604081208054909190610770908490611b34565b9091555061077e9050611136565b6001600160a01b038084165f81815260046020908152604080832080549096019095558582526008815284822080546001600160a01b0319908116909417905560068152848220805490931690925591861682526009905290812080546107e790600190611b34565b815481106107f7576107f7611b47565b5f9182526020808320909101546001600160a01b0387168352600982526040808420868552600a9093529092205481549293508392811061083a5761083a611b47565b5f9182526020808320909101929092556001600160a01b038616815260099091526040902080548061086e5761086e611b5b565b5f828152602080822083015f19908101839055909201909255838252600a8152604080832054848452818420556001600160a01b0386168084526009835290832080546001818101835582865293852001869055925290546108d09190611b34565b5f838152600a602052604080822092909255905183916001600160a01b0380871692908816917fddf252ad1be2c89b69c2b068fc378daa952ba7f163c4a11628f55a4df523b3ef91a4826001600160a01b0316846001600160a01b03167fe59fdd36d0d223c0c7d996db7ad796880f45e1936cb0bb7ac102e7082e031487610956611136565b60405190815260200160405180910390a350505050565b6001600160a01b0383165f9081526005602090815260408083203384529091529020545f1981146109c6576109a28282611b34565b6001600160a01b0385165f9081526005602090815260408083203384529091529020555b6109d1848484611167565b50505b505050565b5f546001600160a01b03163314610a02576040516282b42960e81b815260040160405180910390fd5b5f80546001600160a01b031916815560405133907f8be0079c531659141344cd1fd0a4f28419497f9722a3daafe3b4186f6b6457e0908390a3565b610a4883838361065d565b6001600160a01b0382163b15801590610af05750604051630a85bd0160e11b8082523360048301526001600160a01b03858116602484015260448301849052608060648401525f608484015290919084169063150b7a029060a4016020604051808303815f875af1158015610abf573d5f803e3d5ffd5b505050506040513d601f19601f82011682018060405250810190610ae39190611b6f565b6001600160e01b03191614155b156109d457604051633da6393160e01b815260040160405180910390fd5b5f546001600160a01b03163314610b37576040516282b42960e81b815260040160405180910390fd5b610659828261130c565b5f546001600160a01b03163314610b6a576040516282b42960e81b815260040160405180910390fd5b6001600160a01b03919091165f908152600b60205260409020805460ff1916911515919091179055565b5f818152600860205260409020546001600160a01b031680610bc95760405163c5723b5160e01b815260040160405180910390fd5b919050565b6002805461045a906119e4565b335f8181526007602090815260408083206001600160a01b03871680855290835292819020805460ff191686151590811790915590519081529192917f17307eab39ab6107e8899845ad3d59bd9653f200f220920489ca2b5937696c31910160405180910390a35050565b5f610c52338484611167565b9392505050565b610c6485858561065d565b6001600160a01b0384163b15801590610cfb5750604051630a85bd0160e11b808252906001600160a01b0386169063150b7a0290610cae9033908a90899089908990600401611b96565b6020604051808303815f875af1158015610cca573d5f803e3d5ffd5b505050506040513d601f19601f82011682018060405250810190610cee9190611b6f565b6001600160e01b03191614155b156109d157604051633da6393160e01b815260040160405180910390fd5b60605f600d8054610d29906119e4565b90501115610d6357600d610d3c83611325565b604051602001610d4d929190611be8565b6040516020818303038152906040529050919050565b5f82604051602001610d7791815260200190565b6040516020818303038152906040528051906020012060f81c905060608060648360ff1611610de55760405180604001604052806005815260200164189733b4b360d91b81525091506040518060400160405280600581526020016423b932b2b760d91b8152509050610f20565b60a08360ff1611610e345760405180604001604052806005815260200164191733b4b360d91b815250915060405180604001604052806004815260200163426c756560e01b8152509050610f20565b60d28360ff1611610e855760405180604001604052806005815260200164199733b4b360d91b815250915060405180604001604052806006815260200165507572706c6560d01b8152509050610f20565b60f08360ff1611610ed657604051806040016040528060058152602001641a1733b4b360d91b8152509150604051806040016040528060068152602001654f72616e676560d01b8152509050610f20565b60ff8360ff1611610f2057604051806040016040528060058152602001641a9733b4b360d91b81525091506040518060400160405280600381526020016214995960ea1b81525090505b5f610f2a86611325565b604051602001610f3a9190611c6b565b60408051601f1981840301815290829052610f5791602001611ca6565b604051602081830303815290604052600c84604051602001610f7a929190611be8565b60408051601f1981840301815290829052610f989291602001611d7e565b60405160208183030381529060405290505f82604051602001610fbb9190611da3565b60408051601f1981840301815282820182526004835263227d5d7d60e01b6020848101919091529151909350610ff5918591859101611d7e565b60408051601f1981840301815290829052611014918390602001611d7e565b60408051601f198184030181529082905261103191602001611dff565b6040516020818303038152906040529650505050505050919050565b600d805461045a906119e4565b5f546001600160a01b03163314611083576040516282b42960e81b815260040160405180910390fd5b600d6106598282611a60565b600c805461045a906119e4565b5f546001600160a01b031633146110c5576040516282b42960e81b815260040160405180910390fd5b6001600160a01b0381166110ec576040516349e27cff60e01b815260040160405180910390fd5b5f80546001600160a01b0319166001600160a01b0383169081178255604051909133917f8be0079c531659141344cd1fd0a4f28419497f9722a3daafe3b4186f6b6457e09190a350565b5f6111627f0000000000000000000000000000000000000000000000000000000000000000600a611f23565b905090565b5f80611171611136565b6001600160a01b038087165f818152600460205260408082208054948a16835290822054928252939450919290918691906111ac8386611b34565b90915550506001600160a01b038087165f90815260046020908152604080832080548a019055928a168252600b9052205460ff1661123b576001600160a01b0387165f90815260046020526040812054611207908590611f31565b6112118585611f31565b61121b9190611b34565b90505f5b8181101561123857611230896113b5565b60010161121f565b50505b6001600160a01b0386165f908152600b602052604090205460ff166112b2575f6112658483611f31565b6001600160a01b0388165f90815260046020526040902054611288908690611f31565b6112929190611b34565b90505f5b818110156112af576112a7886114d6565b600101611296565b50505b856001600160a01b0316876001600160a01b03167fe59fdd36d0d223c0c7d996db7ad796880f45e1936cb0bb7ac102e7082e031487876040516112f791815260200190565b60405180910390a35060019695505050505050565b60016113188382611a60565b5060026109d48282611a60565b60605f611331836115de565b60010190505f8167ffffffffffffffff8111156113505761135061175e565b6040519080825280601f01601f19166020018201604052801561137a576020820181803683370190505b5090508181016020015b5f19016f181899199a1a9b1b9c1cb0b131b232b360811b600a86061a8153600a850494508461138457509392505050565b6001600160a01b0381166113dc57604051636edaef2f60e11b815260040160405180910390fd5b6001600160a01b0381165f908152600960205260408120805461140190600190611b34565b8154811061141157611411611b47565b905f5260205f200154905060095f836001600160a01b03166001600160a01b031681526020019081526020015f2080548061144e5761144e611b5b565b5f828152602080822083015f19908101839055909201909255828252600a815260408083208390556008825280832080546001600160a01b031990811690915560069092528083208054909216909155518291906001600160a01b038516907fddf252ad1be2c89b69c2b068fc378daa952ba7f163c4a11628f55a4df523b3ef908390a45050565b6001600160a01b0381166114fd57604051634e46966960e11b815260040160405180910390fd5b60038054600101908190555f818152600860205260409020546001600160a01b03161561153d5760405163119b4fd360e11b815260040160405180910390fd5b5f81815260086020908152604080832080546001600160a01b0319166001600160a01b0387169081179091558084526009835290832080546001818101835582865293852001859055925290546115949190611b34565b5f828152600a602052604080822092909255905182916001600160a01b038516917fddf252ad1be2c89b69c2b068fc378daa952ba7f163c4a11628f55a4df523b3ef908290a45050565b5f8072184f03e93ff9f4daa797ed6e38ed64bf6a1f0160401b831061161c5772184f03e93ff9f4daa797ed6e38ed64bf6a1f0160401b830492506040015b6d04ee2d6d415b85acef81000000008310611648576d04ee2d6d415b85acef8100000000830492506020015b662386f26fc10000831061166657662386f26fc10000830492506010015b6305f5e100831061167e576305f5e100830492506008015b612710831061169257612710830492506004015b606483106116a4576064830492506002015b600a831061061e5760010192915050565b5f5b838110156116cf5781810151838201526020016116b7565b50505f910152565b602081525f82518060208401526116f58160408501602087016116b5565b601f01601f19169190910160400192915050565b5f60208284031215611719575f80fd5b5035919050565b80356001600160a01b0381168114610bc9575f80fd5b5f8060408385031215611747575f80fd5b61175083611720565b946020939093013593505050565b634e487b7160e01b5f52604160045260245ffd5b5f82601f830112611781575f80fd5b813567ffffffffffffffff8082111561179c5761179c61175e565b604051601f8301601f19908116603f011681019082821181831017156117c4576117c461175e565b816040528381528660208588010111156117dc575f80fd5b836020870160208301375f602085830101528094505050505092915050565b5f6020828403121561180b575f80fd5b813567ffffffffffffffff811115611821575f80fd5b61182d84828501611772565b949350505050565b5f805f60608486031215611847575f80fd5b61185084611720565b925061185e60208501611720565b9150604084013590509250925092565b5f806040838503121561187f575f80fd5b823567ffffffffffffffff80821115611896575f80fd5b6118a286838701611772565b935060208501359150808211156118b7575f80fd5b506118c485828601611772565b9150509250929050565b5f80604083850312156118df575f80fd5b6118e883611720565b9150602083013580151581146118fc575f80fd5b809150509250929050565b5f60208284031215611917575f80fd5b610c5282611720565b5f805f805f60808688031215611934575f80fd5b61193d86611720565b945061194b60208701611720565b935060408601359250606086013567ffffffffffffffff8082111561196e575f80fd5b818801915088601f830112611981575f80fd5b81358181111561198f575f80fd5b8960208285010111156119a0575f80fd5b9699959850939650602001949392505050565b5f80604083850312156119c4575f80fd5b6119cd83611720565b91506119db60208401611720565b90509250929050565b600181811c908216806119f857607f821691505b602082108103611a1657634e487b7160e01b5f52602260045260245ffd5b50919050565b601f8211156109d457805f5260205f20601f840160051c81016020851015611a415750805b601f840160051c820191505b818110156109d1575f8155600101611a4d565b815167ffffffffffffffff811115611a7a57611a7a61175e565b611a8e81611a8884546119e4565b84611a1c565b602080601f831160018114611ac1575f8415611aaa5750858301515b5f19600386901b1c1916600185901b178555611b18565b5f85815260208120601f198616915b82811015611aef57888601518255948401946001909101908401611ad0565b5085821015611b0c57878501515f19600388901b60f8161c191681555b505060018460011b0185555b505050505050565b634e487b7160e01b5f52601160045260245ffd5b8181038181111561061e5761061e611b20565b634e487b7160e01b5f52603260045260245ffd5b634e487b7160e01b5f52603160045260245ffd5b5f60208284031215611b7f575f80fd5b81516001600160e01b031981168114610c52575f80fd5b6001600160a01b038681168252851660208201526040810184905260806060820181905281018290525f828460a08401375f60a0848401015260a0601f19601f85011683010190509695505050505050565b5f808454611bf5816119e4565b60018281168015611c0d5760018114611c2257611c4e565b60ff1984168752821515830287019450611c4e565b885f526020805f205f5b85811015611c455781548a820152908401908201611c2c565b50505082870194505b505050508351611c628183602088016116b5565b01949350505050565b727b226e616d65223a202250616e646f7261202360681b815281515f90611c998160138501602087016116b5565b9190910160130192915050565b5f8251611cb78184602087016116b5565b7f222c226465736372697074696f6e223a224120636f6c6c656374696f6e206f669201918252507f2031302c303030205265706c6963616e747320656e61626c656420627920455260208201527f433430342c20616e206578706572696d656e74616c20746f6b656e207374616e60408201527f646172642e222c2265787465726e616c5f75726c223a2268747470733a2f2f7060608201527f616e646f72612e6275696c64222c22696d616765223a220000000000000000006080820152609701919050565b5f8351611d8f8184602088016116b5565b835190830190611c628183602088016116b5565b7f222c2261747472696275746573223a5b7b2274726169745f74797065223a224381526e37b637b91116113b30b63ab2911d1160891b60208201525f8251611df281602f8501602087016116b5565b91909101602f0192915050565b7f646174613a6170706c69636174696f6e2f6a736f6e3b757466382c000000000081525f8251611e3681601b8501602087016116b5565b91909101601b0192915050565b600181815b80851115611e7d57815f1904821115611e6357611e63611b20565b80851615611e7057918102915b93841c9390800290611e48565b509250929050565b5f82611e935750600161061e565b81611e9f57505f61061e565b8160018114611eb55760028114611ebf57611edb565b600191505061061e565b60ff841115611ed057611ed0611b20565b50506001821b61061e565b5060208310610133831016604e8410600b8410161715611efe575081810a61061e565b611f088383611e43565b805f1904821115611f1b57611f1b611b20565b029392505050565b5f610c5260ff841683611e85565b5f82611f4b57634e487b7160e01b5f52601260045260245ffd5b50049056fea2646970667358221220058c564dd9a8a99e0f3647322a64e4f68bc7f1c06bb30d75c3985215fb0322a264736f6c63430008180033",
					"opcodes": "PUSH1 0xC0 PUSH1 0x40 MSTORE CALLVALUE DUP1 ISZERO PUSH3 0x10 JUMPI PUSH0 DUP1 REVERT JUMPDEST POP PUSH1 0x40 MLOAD PUSH3 0x23DA CODESIZE SUB DUP1 PUSH3 0x23DA DUP4 CODECOPY DUP2 ADD PUSH1 0x40 DUP2 SWAP1 MSTORE PUSH3 0x33 SWAP2 PUSH3 0x159 JUMP JUMPDEST PUSH1 0x40 DUP1 MLOAD DUP1 DUP3 ADD DUP3 MSTORE PUSH1 0x8 DUP2 MSTORE PUSH8 0x115C9C9BDC8D0C0D PUSH1 0xC2 SHL PUSH1 0x20 DUP1 DUP4 ADD SWAP2 SWAP1 SWAP2 MSTORE DUP3 MLOAD DUP1 DUP5 ADD SWAP1 SWAP4 MSTORE PUSH1 0x5 DUP4 MSTORE PUSH5 0x22B93937B9 PUSH1 0xD9 SHL SWAP1 DUP4 ADD MSTORE SWAP1 PUSH1 0x12 PUSH2 0x3E8 DUP5 DUP1 PUSH1 0x1 PUSH1 0x1 PUSH1 0xA0 SHL SUB DUP2 AND PUSH3 0x9E JUMPI PUSH1 0x40 MLOAD PUSH4 0x49E27CFF PUSH1 0xE0 SHL DUP2 MSTORE PUSH1 0x4 ADD PUSH1 0x40 MLOAD DUP1 SWAP2 SUB SWAP1 REVERT JUMPDEST PUSH0 DUP1 SLOAD PUSH1 0x1 PUSH1 0x1 PUSH1 0xA0 SHL SUB NOT AND PUSH1 0x1 PUSH1 0x1 PUSH1 0xA0 SHL SUB DUP4 AND SWAP1 DUP2 OR DUP3 SSTORE PUSH1 0x40 MLOAD SWAP1 SWAP2 SWAP1 PUSH32 0x8BE0079C531659141344CD1FD0A4F28419497F9722A3DAAFE3B4186F6B6457E0 SWAP1 DUP3 SWAP1 LOG3 POP PUSH1 0x1 PUSH3 0xF4 DUP7 DUP3 PUSH3 0x226 JUMP JUMPDEST POP PUSH1 0x2 PUSH3 0x103 DUP6 DUP3 PUSH3 0x226 JUMP JUMPDEST POP PUSH1 0xFF DUP4 AND PUSH1 0x80 DUP2 SWAP1 MSTORE PUSH3 0x11A SWAP1 PUSH1 0xA PUSH3 0x401 JUMP JUMPDEST PUSH3 0x126 SWAP1 DUP4 PUSH3 0x411 JUMP JUMPDEST PUSH1 0xA0 MSTORE POP POP POP PUSH1 0x1 PUSH1 0x1 PUSH1 0xA0 SHL SUB SWAP1 SWAP3 AND PUSH0 SWAP1 DUP2 MSTORE PUSH1 0x4 PUSH1 0x20 MSTORE PUSH1 0x40 SWAP1 KECCAK256 PUSH9 0x3635C9ADC5DEA00000 SWAP1 SSTORE POP PUSH3 0x42B SWAP1 POP JUMP JUMPDEST PUSH0 PUSH1 0x20 DUP3 DUP5 SUB SLT ISZERO PUSH3 0x16A JUMPI PUSH0 DUP1 REVERT JUMPDEST DUP2 MLOAD PUSH1 0x1 PUSH1 0x1 PUSH1 0xA0 SHL SUB DUP2 AND DUP2 EQ PUSH3 0x181 JUMPI PUSH0 DUP1 REVERT JUMPDEST SWAP4 SWAP3 POP POP POP JUMP JUMPDEST PUSH4 0x4E487B71 PUSH1 0xE0 SHL PUSH0 MSTORE PUSH1 0x41 PUSH1 0x4 MSTORE PUSH1 0x24 PUSH0 REVERT JUMPDEST PUSH1 0x1 DUP2 DUP2 SHR SWAP1 DUP3 AND DUP1 PUSH3 0x1B1 JUMPI PUSH1 0x7F DUP3 AND SWAP2 POP JUMPDEST PUSH1 0x20 DUP3 LT DUP2 SUB PUSH3 0x1D0 JUMPI PUSH4 0x4E487B71 PUSH1 0xE0 SHL PUSH0 MSTORE PUSH1 0x22 PUSH1 0x4 MSTORE PUSH1 0x24 PUSH0 REVERT JUMPDEST POP SWAP2 SWAP1 POP JUMP JUMPDEST PUSH1 0x1F DUP3 GT ISZERO PUSH3 0x221 JUMPI DUP1 PUSH0 MSTORE PUSH1 0x20 PUSH0 KECCAK256 PUSH1 0x1F DUP5 ADD PUSH1 0x5 SHR DUP2 ADD PUSH1 0x20 DUP6 LT ISZERO PUSH3 0x1FD JUMPI POP DUP1 JUMPDEST PUSH1 0x1F DUP5 ADD PUSH1 0x5 SHR DUP3 ADD SWAP2 POP JUMPDEST DUP2 DUP2 LT ISZERO PUSH3 0x21E JUMPI PUSH0 DUP2 SSTORE PUSH1 0x1 ADD PUSH3 0x209 JUMP JUMPDEST POP POP JUMPDEST POP POP POP JUMP JUMPDEST DUP2 MLOAD PUSH1 0x1 PUSH1 0x1 PUSH1 0x40 SHL SUB DUP2 GT ISZERO PUSH3 0x242 JUMPI PUSH3 0x242 PUSH3 0x188 JUMP JUMPDEST PUSH3 0x25A DUP2 PUSH3 0x253 DUP5 SLOAD PUSH3 0x19C JUMP JUMPDEST DUP5 PUSH3 0x1D6 JUMP JUMPDEST PUSH1 0x20 DUP1 PUSH1 0x1F DUP4 GT PUSH1 0x1 DUP2 EQ PUSH3 0x290 JUMPI PUSH0 DUP5 ISZERO PUSH3 0x278 JUMPI POP DUP6 DUP4 ADD MLOAD JUMPDEST PUSH0 NOT PUSH1 0x3 DUP7 SWAP1 SHL SHR NOT AND PUSH1 0x1 DUP6 SWAP1 SHL OR DUP6 SSTORE PUSH3 0x2EA JUMP JUMPDEST PUSH0 DUP6 DUP2 MSTORE PUSH1 0x20 DUP2 KECCAK256 PUSH1 0x1F NOT DUP7 AND SWAP2 JUMPDEST DUP3 DUP2 LT ISZERO PUSH3 0x2C0 JUMPI DUP9 DUP7 ADD MLOAD DUP3 SSTORE SWAP5 DUP5 ADD SWAP5 PUSH1 0x1 SWAP1 SWAP2 ADD SWAP1 DUP5 ADD PUSH3 0x29F JUMP JUMPDEST POP DUP6 DUP3 LT ISZERO PUSH3 0x2DE JUMPI DUP8 DUP6 ADD MLOAD PUSH0 NOT PUSH1 0x3 DUP9 SWAP1 SHL PUSH1 0xF8 AND SHR NOT AND DUP2 SSTORE JUMPDEST POP POP PUSH1 0x1 DUP5 PUSH1 0x1 SHL ADD DUP6 SSTORE JUMPDEST POP POP POP POP POP POP JUMP JUMPDEST PUSH4 0x4E487B71 PUSH1 0xE0 SHL PUSH0 MSTORE PUSH1 0x11 PUSH1 0x4 MSTORE PUSH1 0x24 PUSH0 REVERT JUMPDEST PUSH1 0x1 DUP2 DUP2 JUMPDEST DUP1 DUP6 GT ISZERO PUSH3 0x346 JUMPI DUP2 PUSH0 NOT DIV DUP3 GT ISZERO PUSH3 0x32A JUMPI PUSH3 0x32A PUSH3 0x2F2 JUMP JUMPDEST DUP1 DUP6 AND ISZERO PUSH3 0x338 JUMPI SWAP2 DUP2 MUL SWAP2 JUMPDEST SWAP4 DUP5 SHR SWAP4 SWAP1 DUP1 MUL SWAP1 PUSH3 0x30B JUMP JUMPDEST POP SWAP3 POP SWAP3 SWAP1 POP JUMP JUMPDEST PUSH0 DUP3 PUSH3 0x35E JUMPI POP PUSH1 0x1 PUSH3 0x3FB JUMP JUMPDEST DUP2 PUSH3 0x36C JUMPI POP PUSH0 PUSH3 0x3FB JUMP JUMPDEST DUP2 PUSH1 0x1 DUP2 EQ PUSH3 0x385 JUMPI PUSH1 0x2 DUP2 EQ PUSH3 0x390 JUMPI PUSH3 0x3B0 JUMP JUMPDEST PUSH1 0x1 SWAP2 POP POP PUSH3 0x3FB JUMP JUMPDEST PUSH1 0xFF DUP5 GT ISZERO PUSH3 0x3A4 JUMPI PUSH3 0x3A4 PUSH3 0x2F2 JUMP JUMPDEST POP POP PUSH1 0x1 DUP3 SHL PUSH3 0x3FB JUMP JUMPDEST POP PUSH1 0x20 DUP4 LT PUSH2 0x133 DUP4 LT AND PUSH1 0x4E DUP5 LT PUSH1 0xB DUP5 LT AND OR ISZERO PUSH3 0x3D5 JUMPI POP DUP2 DUP2 EXP PUSH3 0x3FB JUMP JUMPDEST PUSH3 0x3E1 DUP4 DUP4 PUSH3 0x306 JUMP JUMPDEST DUP1 PUSH0 NOT DIV DUP3 GT ISZERO PUSH3 0x3F7 JUMPI PUSH3 0x3F7 PUSH3 0x2F2 JUMP JUMPDEST MUL SWAP1 POP JUMPDEST SWAP3 SWAP2 POP POP JUMP JUMPDEST PUSH0 PUSH3 0x181 PUSH1 0xFF DUP5 AND DUP4 PUSH3 0x34E JUMP JUMPDEST DUP1 DUP3 MUL DUP2 ISZERO DUP3 DUP3 DIV DUP5 EQ OR PUSH3 0x3FB JUMPI PUSH3 0x3FB PUSH3 0x2F2 JUMP JUMPDEST PUSH1 0x80 MLOAD PUSH1 0xA0 MLOAD PUSH2 0x1F86 PUSH3 0x454 PUSH0 CODECOPY PUSH0 PUSH2 0x22B ADD MSTORE PUSH0 DUP2 DUP2 PUSH2 0x290 ADD MSTORE PUSH2 0x113C ADD MSTORE PUSH2 0x1F86 PUSH0 RETURN INVALID PUSH1 0x80 PUSH1 0x40 MSTORE CALLVALUE DUP1 ISZERO PUSH2 0xF JUMPI PUSH0 DUP1 REVERT JUMPDEST POP PUSH1 0x4 CALLDATASIZE LT PUSH2 0x1A1 JUMPI PUSH0 CALLDATALOAD PUSH1 0xE0 SHR DUP1 PUSH4 0x70A08231 GT PUSH2 0xF3 JUMPI DUP1 PUSH4 0xC87B56DD GT PUSH2 0x93 JUMPI DUP1 PUSH4 0xE0DF5B6F GT PUSH2 0x6E JUMPI DUP1 PUSH4 0xE0DF5B6F EQ PUSH2 0x3F2 JUMPI DUP1 PUSH4 0xE985E9C5 EQ PUSH2 0x405 JUMPI DUP1 PUSH4 0xF28CA1DD EQ PUSH2 0x432 JUMPI DUP1 PUSH4 0xF2FDE38B EQ PUSH2 0x43A JUMPI PUSH0 DUP1 REVERT JUMPDEST DUP1 PUSH4 0xC87B56DD EQ PUSH2 0x3AD JUMPI DUP1 PUSH4 0xD547CFB7 EQ PUSH2 0x3C0 JUMPI DUP1 PUSH4 0xDD62ED3E EQ PUSH2 0x3C8 JUMPI PUSH0 DUP1 REVERT JUMPDEST DUP1 PUSH4 0x9B19251A GT PUSH2 0xCE JUMPI DUP1 PUSH4 0x9B19251A EQ PUSH2 0x352 JUMPI DUP1 PUSH4 0xA22CB465 EQ PUSH2 0x374 JUMPI DUP1 PUSH4 0xA9059CBB EQ PUSH2 0x387 JUMPI DUP1 PUSH4 0xB88D4FDE EQ PUSH2 0x39A JUMPI PUSH0 DUP1 REVERT JUMPDEST DUP1 PUSH4 0x70A08231 EQ PUSH2 0x319 JUMPI DUP1 PUSH4 0x8DA5CB5B EQ PUSH2 0x338 JUMPI DUP1 PUSH4 0x95D89B41 EQ PUSH2 0x34A JUMPI PUSH0 DUP1 REVERT JUMPDEST DUP1 PUSH4 0x2B968958 GT PUSH2 0x15E JUMPI DUP1 PUSH4 0x4F02C420 GT PUSH2 0x139 JUMPI DUP1 PUSH4 0x4F02C420 EQ PUSH2 0x2D7 JUMPI DUP1 PUSH4 0x504334C2 EQ PUSH2 0x2E0 JUMPI DUP1 PUSH4 0x53D6FD59 EQ PUSH2 0x2F3 JUMPI DUP1 PUSH4 0x6352211E EQ PUSH2 0x306 JUMPI PUSH0 DUP1 REVERT JUMPDEST DUP1 PUSH4 0x2B968958 EQ PUSH2 0x283 JUMPI DUP1 PUSH4 0x313CE567 EQ PUSH2 0x28B JUMPI DUP1 PUSH4 0x42842E0E EQ PUSH2 0x2C4 JUMPI PUSH0 DUP1 REVERT JUMPDEST DUP1 PUSH4 0x6FDDE03 EQ PUSH2 0x1A5 JUMPI DUP1 PUSH4 0x81812FC EQ PUSH2 0x1C3 JUMPI DUP1 PUSH4 0x95EA7B3 EQ PUSH2 0x203 JUMPI DUP1 PUSH4 0x18160DDD EQ PUSH2 0x226 JUMPI DUP1 PUSH4 0x18D217C3 EQ PUSH2 0x25B JUMPI DUP1 PUSH4 0x23B872DD EQ PUSH2 0x270 JUMPI JUMPDEST PUSH0 DUP1 REVERT JUMPDEST PUSH2 0x1AD PUSH2 0x44D JUMP JUMPDEST PUSH1 0x40 MLOAD PUSH2 0x1BA SWAP2 SWAP1 PUSH2 0x16D7 JUMP JUMPDEST PUSH1 0x40 MLOAD DUP1 SWAP2 SUB SWAP1 RETURN JUMPDEST PUSH2 0x1EB PUSH2 0x1D1 CALLDATASIZE PUSH1 0x4 PUSH2 0x1709 JUMP JUMPDEST PUSH1 0x6 PUSH1 0x20 MSTORE PUSH0 SWAP1 DUP2 MSTORE PUSH1 0x40 SWAP1 KECCAK256 SLOAD PUSH1 0x1 PUSH1 0x1 PUSH1 0xA0 SHL SUB AND DUP2 JUMP JUMPDEST PUSH1 0x40 MLOAD PUSH1 0x1 PUSH1 0x1 PUSH1 0xA0 SHL SUB SWAP1 SWAP2 AND DUP2 MSTORE PUSH1 0x20 ADD PUSH2 0x1BA JUMP JUMPDEST PUSH2 0x216 PUSH2 0x211 CALLDATASIZE PUSH1 0x4 PUSH2 0x1736 JUMP JUMPDEST PUSH2 0x4D9 JUMP JUMPDEST PUSH1 0x40 MLOAD SWAP1 ISZERO ISZERO DUP2 MSTORE PUSH1 0x20 ADD PUSH2 0x1BA JUMP JUMPDEST PUSH2 0x24D PUSH32 0x0 DUP2 JUMP JUMPDEST PUSH1 0x40 MLOAD SWAP1 DUP2 MSTORE PUSH1 0x20 ADD PUSH2 0x1BA JUMP JUMPDEST PUSH2 0x26E PUSH2 0x269 CALLDATASIZE PUSH1 0x4 PUSH2 0x17FB JUMP JUMPDEST PUSH2 0x624 JUMP JUMPDEST STOP JUMPDEST PUSH2 0x26E PUSH2 0x27E CALLDATASIZE PUSH1 0x4 PUSH2 0x1835 JUMP JUMPDEST PUSH2 0x65D JUMP JUMPDEST PUSH2 0x26E PUSH2 0x9D9 JUMP JUMPDEST PUSH2 0x2B2 PUSH32 0x0 DUP2 JUMP JUMPDEST PUSH1 0x40 MLOAD PUSH1 0xFF SWAP1 SWAP2 AND DUP2 MSTORE PUSH1 0x20 ADD PUSH2 0x1BA JUMP JUMPDEST PUSH2 0x26E PUSH2 0x2D2 CALLDATASIZE PUSH1 0x4 PUSH2 0x1835 JUMP JUMPDEST PUSH2 0xA3D JUMP JUMPDEST PUSH2 0x24D PUSH1 0x3 SLOAD DUP2 JUMP JUMPDEST PUSH2 0x26E PUSH2 0x2EE CALLDATASIZE PUSH1 0x4 PUSH2 0x186E JUMP JUMPDEST PUSH2 0xB0E JUMP JUMPDEST PUSH2 0x26E PUSH2 0x301 CALLDATASIZE PUSH1 0x4 PUSH2 0x18CE JUMP JUMPDEST PUSH2 0xB41 JUMP JUMPDEST PUSH2 0x1EB PUSH2 0x314 CALLDATASIZE PUSH1 0x4 PUSH2 0x1709 JUMP JUMPDEST PUSH2 0xB94 JUMP JUMPDEST PUSH2 0x24D PUSH2 0x327 CALLDATASIZE PUSH1 0x4 PUSH2 0x1907 JUMP JUMPDEST PUSH1 0x4 PUSH1 0x20 MSTORE PUSH0 SWAP1 DUP2 MSTORE PUSH1 0x40 SWAP1 KECCAK256 SLOAD DUP2 JUMP JUMPDEST PUSH0 SLOAD PUSH2 0x1EB SWAP1 PUSH1 0x1 PUSH1 0x1 PUSH1 0xA0 SHL SUB AND DUP2 JUMP JUMPDEST PUSH2 0x1AD PUSH2 0xBCE JUMP JUMPDEST PUSH2 0x216 PUSH2 0x360 CALLDATASIZE PUSH1 0x4 PUSH2 0x1907 JUMP JUMPDEST PUSH1 0xB PUSH1 0x20 MSTORE PUSH0 SWAP1 DUP2 MSTORE PUSH1 0x40 SWAP1 KECCAK256 SLOAD PUSH1 0xFF AND DUP2 JUMP JUMPDEST PUSH2 0x26E PUSH2 0x382 CALLDATASIZE PUSH1 0x4 PUSH2 0x18CE JUMP JUMPDEST PUSH2 0xBDB JUMP JUMPDEST PUSH2 0x216 PUSH2 0x395 CALLDATASIZE PUSH1 0x4 PUSH2 0x1736 JUMP JUMPDEST PUSH2 0xC46 JUMP JUMPDEST PUSH2 0x26E PUSH2 0x3A8 CALLDATASIZE PUSH1 0x4 PUSH2 0x1920 JUMP JUMPDEST PUSH2 0xC59 JUMP JUMPDEST PUSH2 0x1AD PUSH2 0x3BB CALLDATASIZE PUSH1 0x4 PUSH2 0x1709 JUMP JUMPDEST PUSH2 0xD19 JUMP JUMPDEST PUSH2 0x1AD PUSH2 0x104D JUMP JUMPDEST PUSH2 0x24D PUSH2 0x3D6 CALLDATASIZE PUSH1 0x4 PUSH2 0x19B3 JUMP JUMPDEST PUSH1 0x5 PUSH1 0x20 SWAP1 DUP2 MSTORE PUSH0 SWAP3 DUP4 MSTORE PUSH1 0x40 DUP1 DUP5 KECCAK256 SWAP1 SWAP2 MSTORE SWAP1 DUP3 MSTORE SWAP1 KECCAK256 SLOAD DUP2 JUMP JUMPDEST PUSH2 0x26E PUSH2 0x400 CALLDATASIZE PUSH1 0x4 PUSH2 0x17FB JUMP JUMPDEST PUSH2 0x105A JUMP JUMPDEST PUSH2 0x216 PUSH2 0x413 CALLDATASIZE PUSH1 0x4 PUSH2 0x19B3 JUMP JUMPDEST PUSH1 0x7 PUSH1 0x20 SWAP1 DUP2 MSTORE PUSH0 SWAP3 DUP4 MSTORE PUSH1 0x40 DUP1 DUP5 KECCAK256 SWAP1 SWAP2 MSTORE SWAP1 DUP3 MSTORE SWAP1 KECCAK256 SLOAD PUSH1 0xFF AND DUP2 JUMP JUMPDEST PUSH2 0x1AD PUSH2 0x108F JUMP JUMPDEST PUSH2 0x26E PUSH2 0x448 CALLDATASIZE PUSH1 0x4 PUSH2 0x1907 JUMP JUMPDEST PUSH2 0x109C JUMP JUMPDEST PUSH1 0x1 DUP1 SLOAD PUSH2 0x45A SWAP1 PUSH2 0x19E4 JUMP JUMPDEST DUP1 PUSH1 0x1F ADD PUSH1 0x20 DUP1 SWAP2 DIV MUL PUSH1 0x20 ADD PUSH1 0x40 MLOAD SWAP1 DUP2 ADD PUSH1 0x40 MSTORE DUP1 SWAP3 SWAP2 SWAP1 DUP2 DUP2 MSTORE PUSH1 0x20 ADD DUP3 DUP1 SLOAD PUSH2 0x486 SWAP1 PUSH2 0x19E4 JUMP JUMPDEST DUP1 ISZERO PUSH2 0x4D1 JUMPI DUP1 PUSH1 0x1F LT PUSH2 0x4A8 JUMPI PUSH2 0x100 DUP1 DUP4 SLOAD DIV MUL DUP4 MSTORE SWAP2 PUSH1 0x20 ADD SWAP2 PUSH2 0x4D1 JUMP JUMPDEST DUP3 ADD SWAP2 SWAP1 PUSH0 MSTORE PUSH1 0x20 PUSH0 KECCAK256 SWAP1 JUMPDEST DUP2 SLOAD DUP2 MSTORE SWAP1 PUSH1 0x1 ADD SWAP1 PUSH1 0x20 ADD DUP1 DUP4 GT PUSH2 0x4B4 JUMPI DUP3 SWAP1 SUB PUSH1 0x1F AND DUP3 ADD SWAP2 JUMPDEST POP POP POP POP POP DUP2 JUMP JUMPDEST PUSH0 PUSH1 0x3 SLOAD DUP3 GT ISZERO DUP1 ISZERO PUSH2 0x4EB JUMPI POP PUSH0 DUP3 GT JUMPDEST ISZERO PUSH2 0x5BF JUMPI PUSH0 DUP3 DUP2 MSTORE PUSH1 0x8 PUSH1 0x20 MSTORE PUSH1 0x40 SWAP1 KECCAK256 SLOAD PUSH1 0x1 PUSH1 0x1 PUSH1 0xA0 SHL SUB AND CALLER DUP2 EQ DUP1 ISZERO SWAP1 PUSH2 0x53A JUMPI POP PUSH1 0x1 PUSH1 0x1 PUSH1 0xA0 SHL SUB DUP2 AND PUSH0 SWAP1 DUP2 MSTORE PUSH1 0x7 PUSH1 0x20 SWAP1 DUP2 MSTORE PUSH1 0x40 DUP1 DUP4 KECCAK256 CALLER DUP5 MSTORE SWAP1 SWAP2 MSTORE SWAP1 KECCAK256 SLOAD PUSH1 0xFF AND ISZERO JUMPDEST ISZERO PUSH2 0x557 JUMPI PUSH1 0x40 MLOAD PUSH3 0x82B429 PUSH1 0xE8 SHL DUP2 MSTORE PUSH1 0x4 ADD PUSH1 0x40 MLOAD DUP1 SWAP2 SUB SWAP1 REVERT JUMPDEST PUSH0 DUP4 DUP2 MSTORE PUSH1 0x6 PUSH1 0x20 SWAP1 DUP2 MSTORE PUSH1 0x40 SWAP2 DUP3 SWAP1 KECCAK256 DUP1 SLOAD PUSH1 0x1 PUSH1 0x1 PUSH1 0xA0 SHL SUB NOT AND PUSH1 0x1 PUSH1 0x1 PUSH1 0xA0 SHL SUB DUP9 DUP2 AND SWAP2 DUP3 OR SWAP1 SWAP3 SSTORE SWAP3 MLOAD DUP7 DUP2 MSTORE SWAP1 DUP5 AND SWAP2 PUSH32 0x8C5BE1E5EBEC7D5BD14F71427D1E84F3DD0314C0F7B2291E5B200AC8C7C3B925 SWAP2 ADD PUSH1 0x40 MLOAD DUP1 SWAP2 SUB SWAP1 LOG3 POP PUSH2 0x61A JUMP JUMPDEST CALLER PUSH0 DUP2 DUP2 MSTORE PUSH1 0x5 PUSH1 0x20 SWAP1 DUP2 MSTORE PUSH1 0x40 DUP1 DUP4 KECCAK256 PUSH1 0x1 PUSH1 0x1 PUSH1 0xA0 SHL SUB DUP9 AND DUP1 DUP6 MSTORE SWAP1 DUP4 MSTORE SWAP3 DUP2 SWAP1 KECCAK256 DUP7 SWAP1 SSTORE MLOAD DUP6 DUP2 MSTORE SWAP2 SWAP3 SWAP2 PUSH32 0x8C5BE1E5EBEC7D5BD14F71427D1E84F3DD0314C0F7B2291E5B200AC8C7C3B925 SWAP2 ADD PUSH1 0x40 MLOAD DUP1 SWAP2 SUB SWAP1 LOG3 JUMPDEST POP PUSH1 0x1 JUMPDEST SWAP3 SWAP2 POP POP JUMP JUMPDEST PUSH0 SLOAD PUSH1 0x1 PUSH1 0x1 PUSH1 0xA0 SHL SUB AND CALLER EQ PUSH2 0x64D JUMPI PUSH1 0x40 MLOAD PUSH3 0x82B429 PUSH1 0xE8 SHL DUP2 MSTORE PUSH1 0x4 ADD PUSH1 0x40 MLOAD DUP1 SWAP2 SUB SWAP1 REVERT JUMPDEST PUSH1 0xC PUSH2 0x659 DUP3 DUP3 PUSH2 0x1A60 JUMP JUMPDEST POP POP JUMP JUMPDEST PUSH1 0x3 SLOAD DUP2 GT PUSH2 0x96D JUMPI PUSH0 DUP2 DUP2 MSTORE PUSH1 0x8 PUSH1 0x20 MSTORE PUSH1 0x40 SWAP1 KECCAK256 SLOAD PUSH1 0x1 PUSH1 0x1 PUSH1 0xA0 SHL SUB DUP5 DUP2 AND SWAP2 AND EQ PUSH2 0x69F JUMPI PUSH1 0x40 MLOAD PUSH4 0x6EDAEF2F PUSH1 0xE1 SHL DUP2 MSTORE PUSH1 0x4 ADD PUSH1 0x40 MLOAD DUP1 SWAP2 SUB SWAP1 REVERT JUMPDEST PUSH1 0x1 PUSH1 0x1 PUSH1 0xA0 SHL SUB DUP3 AND PUSH2 0x6C6 JUMPI PUSH1 0x40 MLOAD PUSH4 0x4E469669 PUSH1 0xE1 SHL DUP2 MSTORE PUSH1 0x4 ADD PUSH1 0x40 MLOAD DUP1 SWAP2 SUB SWAP1 REVERT JUMPDEST CALLER PUSH1 0x1 PUSH1 0x1 PUSH1 0xA0 SHL SUB DUP5 AND EQ DUP1 ISZERO SWAP1 PUSH2 0x702 JUMPI POP PUSH1 0x1 PUSH1 0x1 PUSH1 0xA0 SHL SUB DUP4 AND PUSH0 SWAP1 DUP2 MSTORE PUSH1 0x7 PUSH1 0x20 SWAP1 DUP2 MSTORE PUSH1 0x40 DUP1 DUP4 KECCAK256 CALLER DUP5 MSTORE SWAP1 SWAP2 MSTORE SWAP1 KECCAK256 SLOAD PUSH1 0xFF AND ISZERO JUMPDEST DUP1 ISZERO PUSH2 0x724 JUMPI POP PUSH0 DUP2 DUP2 MSTORE PUSH1 0x6 PUSH1 0x20 MSTORE PUSH1 0x40 SWAP1 KECCAK256 SLOAD PUSH1 0x1 PUSH1 0x1 PUSH1 0xA0 SHL SUB AND CALLER EQ ISZERO JUMPDEST ISZERO PUSH2 0x741 JUMPI PUSH1 0x40 MLOAD PUSH3 0x82B429 PUSH1 0xE8 SHL DUP2 MSTORE PUSH1 0x4 ADD PUSH1 0x40 MLOAD DUP1 SWAP2 SUB SWAP1 REVERT JUMPDEST PUSH2 0x749 PUSH2 0x1136 JUMP JUMPDEST PUSH1 0x1 PUSH1 0x1 PUSH1 0xA0 SHL SUB DUP5 AND PUSH0 SWAP1 DUP2 MSTORE PUSH1 0x4 PUSH1 0x20 MSTORE PUSH1 0x40 DUP2 KECCAK256 DUP1 SLOAD SWAP1 SWAP2 SWAP1 PUSH2 0x770 SWAP1 DUP5 SWAP1 PUSH2 0x1B34 JUMP JUMPDEST SWAP1 SWAP2 SSTORE POP PUSH2 0x77E SWAP1 POP PUSH2 0x1136 JUMP JUMPDEST PUSH1 0x1 PUSH1 0x1 PUSH1 0xA0 SHL SUB DUP1 DUP5 AND PUSH0 DUP2 DUP2 MSTORE PUSH1 0x4 PUSH1 0x20 SWAP1 DUP2 MSTORE PUSH1 0x40 DUP1 DUP4 KECCAK256 DUP1 SLOAD SWAP1 SWAP7 ADD SWAP1 SWAP6 SSTORE DUP6 DUP3 MSTORE PUSH1 0x8 DUP2 MSTORE DUP5 DUP3 KECCAK256 DUP1 SLOAD PUSH1 0x1 PUSH1 0x1 PUSH1 0xA0 SHL SUB NOT SWAP1 DUP2 AND SWAP1 SWAP5 OR SWAP1 SSTORE PUSH1 0x6 DUP2 MSTORE DUP5 DUP3 KECCAK256 DUP1 SLOAD SWAP1 SWAP4 AND SWAP1 SWAP3 SSTORE SWAP2 DUP7 AND DUP3 MSTORE PUSH1 0x9 SWAP1 MSTORE SWAP1 DUP2 KECCAK256 DUP1 SLOAD PUSH2 0x7E7 SWAP1 PUSH1 0x1 SWAP1 PUSH2 0x1B34 JUMP JUMPDEST DUP2 SLOAD DUP2 LT PUSH2 0x7F7 JUMPI PUSH2 0x7F7 PUSH2 0x1B47 JUMP JUMPDEST PUSH0 SWAP2 DUP3 MSTORE PUSH1 0x20 DUP1 DUP4 KECCAK256 SWAP1 SWAP2 ADD SLOAD PUSH1 0x1 PUSH1 0x1 PUSH1 0xA0 SHL SUB DUP8 AND DUP4 MSTORE PUSH1 0x9 DUP3 MSTORE PUSH1 0x40 DUP1 DUP5 KECCAK256 DUP7 DUP6 MSTORE PUSH1 0xA SWAP1 SWAP4 MSTORE SWAP1 SWAP3 KECCAK256 SLOAD DUP2 SLOAD SWAP3 SWAP4 POP DUP4 SWAP3 DUP2 LT PUSH2 0x83A JUMPI PUSH2 0x83A PUSH2 0x1B47 JUMP JUMPDEST PUSH0 SWAP2 DUP3 MSTORE PUSH1 0x20 DUP1 DUP4 KECCAK256 SWAP1 SWAP2 ADD SWAP3 SWAP1 SWAP3 SSTORE PUSH1 0x1 PUSH1 0x1 PUSH1 0xA0 SHL SUB DUP7 AND DUP2 MSTORE PUSH1 0x9 SWAP1 SWAP2 MSTORE PUSH1 0x40 SWAP1 KECCAK256 DUP1 SLOAD DUP1 PUSH2 0x86E JUMPI PUSH2 0x86E PUSH2 0x1B5B JUMP JUMPDEST PUSH0 DUP3 DUP2 MSTORE PUSH1 0x20 DUP1 DUP3 KECCAK256 DUP4 ADD PUSH0 NOT SWAP1 DUP2 ADD DUP4 SWAP1 SSTORE SWAP1 SWAP3 ADD SWAP1 SWAP3 SSTORE DUP4 DUP3 MSTORE PUSH1 0xA DUP2 MSTORE PUSH1 0x40 DUP1 DUP4 KECCAK256 SLOAD DUP5 DUP5 MSTORE DUP2 DUP5 KECCAK256 SSTORE PUSH1 0x1 PUSH1 0x1 PUSH1 0xA0 SHL SUB DUP7 AND DUP1 DUP5 MSTORE PUSH1 0x9 DUP4 MSTORE SWAP1 DUP4 KECCAK256 DUP1 SLOAD PUSH1 0x1 DUP2 DUP2 ADD DUP4 SSTORE DUP3 DUP7 MSTORE SWAP4 DUP6 KECCAK256 ADD DUP7 SWAP1 SSTORE SWAP3 MSTORE SWAP1 SLOAD PUSH2 0x8D0 SWAP2 SWAP1 PUSH2 0x1B34 JUMP JUMPDEST PUSH0 DUP4 DUP2 MSTORE PUSH1 0xA PUSH1 0x20 MSTORE PUSH1 0x40 DUP1 DUP3 KECCAK256 SWAP3 SWAP1 SWAP3 SSTORE SWAP1 MLOAD DUP4 SWAP2 PUSH1 0x1 PUSH1 0x1 PUSH1 0xA0 SHL SUB DUP1 DUP8 AND SWAP3 SWAP1 DUP9 AND SWAP2 PUSH32 0xDDF252AD1BE2C89B69C2B068FC378DAA952BA7F163C4A11628F55A4DF523B3EF SWAP2 LOG4 DUP3 PUSH1 0x1 PUSH1 0x1 PUSH1 0xA0 SHL SUB AND DUP5 PUSH1 0x1 PUSH1 0x1 PUSH1 0xA0 SHL SUB AND PUSH32 0xE59FDD36D0D223C0C7D996DB7AD796880F45E1936CB0BB7AC102E7082E031487 PUSH2 0x956 PUSH2 0x1136 JUMP JUMPDEST PUSH1 0x40 MLOAD SWAP1 DUP2 MSTORE PUSH1 0x20 ADD PUSH1 0x40 MLOAD DUP1 SWAP2 SUB SWAP1 LOG3 POP POP POP POP JUMP JUMPDEST PUSH1 0x1 PUSH1 0x1 PUSH1 0xA0 SHL SUB DUP4 AND PUSH0 SWAP1 DUP2 MSTORE PUSH1 0x5 PUSH1 0x20 SWAP1 DUP2 MSTORE PUSH1 0x40 DUP1 DUP4 KECCAK256 CALLER DUP5 MSTORE SWAP1 SWAP2 MSTORE SWAP1 KECCAK256 SLOAD PUSH0 NOT DUP2 EQ PUSH2 0x9C6 JUMPI PUSH2 0x9A2 DUP3 DUP3 PUSH2 0x1B34 JUMP JUMPDEST PUSH1 0x1 PUSH1 0x1 PUSH1 0xA0 SHL SUB DUP6 AND PUSH0 SWAP1 DUP2 MSTORE PUSH1 0x5 PUSH1 0x20 SWAP1 DUP2 MSTORE PUSH1 0x40 DUP1 DUP4 KECCAK256 CALLER DUP5 MSTORE SWAP1 SWAP2 MSTORE SWAP1 KECCAK256 SSTORE JUMPDEST PUSH2 0x9D1 DUP5 DUP5 DUP5 PUSH2 0x1167 JUMP JUMPDEST POP POP JUMPDEST POP POP POP JUMP JUMPDEST PUSH0 SLOAD PUSH1 0x1 PUSH1 0x1 PUSH1 0xA0 SHL SUB AND CALLER EQ PUSH2 0xA02 JUMPI PUSH1 0x40 MLOAD PUSH3 0x82B429 PUSH1 0xE8 SHL DUP2 MSTORE PUSH1 0x4 ADD PUSH1 0x40 MLOAD DUP1 SWAP2 SUB SWAP1 REVERT JUMPDEST PUSH0 DUP1 SLOAD PUSH1 0x1 PUSH1 0x1 PUSH1 0xA0 SHL SUB NOT AND DUP2 SSTORE PUSH1 0x40 MLOAD CALLER SWAP1 PUSH32 0x8BE0079C531659141344CD1FD0A4F28419497F9722A3DAAFE3B4186F6B6457E0 SWAP1 DUP4 SWAP1 LOG3 JUMP JUMPDEST PUSH2 0xA48 DUP4 DUP4 DUP4 PUSH2 0x65D JUMP JUMPDEST PUSH1 0x1 PUSH1 0x1 PUSH1 0xA0 SHL SUB DUP3 AND EXTCODESIZE ISZERO DUP1 ISZERO SWAP1 PUSH2 0xAF0 JUMPI POP PUSH1 0x40 MLOAD PUSH4 0xA85BD01 PUSH1 0xE1 SHL DUP1 DUP3 MSTORE CALLER PUSH1 0x4 DUP4 ADD MSTORE PUSH1 0x1 PUSH1 0x1 PUSH1 0xA0 SHL SUB DUP6 DUP2 AND PUSH1 0x24 DUP5 ADD MSTORE PUSH1 0x44 DUP4 ADD DUP5 SWAP1 MSTORE PUSH1 0x80 PUSH1 0x64 DUP5 ADD MSTORE PUSH0 PUSH1 0x84 DUP5 ADD MSTORE SWAP1 SWAP2 SWAP1 DUP5 AND SWAP1 PUSH4 0x150B7A02 SWAP1 PUSH1 0xA4 ADD PUSH1 0x20 PUSH1 0x40 MLOAD DUP1 DUP4 SUB DUP2 PUSH0 DUP8 GAS CALL ISZERO DUP1 ISZERO PUSH2 0xABF JUMPI RETURNDATASIZE PUSH0 DUP1 RETURNDATACOPY RETURNDATASIZE PUSH0 REVERT JUMPDEST POP POP POP POP PUSH1 0x40 MLOAD RETURNDATASIZE PUSH1 0x1F NOT PUSH1 0x1F DUP3 ADD AND DUP3 ADD DUP1 PUSH1 0x40 MSTORE POP DUP2 ADD SWAP1 PUSH2 0xAE3 SWAP2 SWAP1 PUSH2 0x1B6F JUMP JUMPDEST PUSH1 0x1 PUSH1 0x1 PUSH1 0xE0 SHL SUB NOT AND EQ ISZERO JUMPDEST ISZERO PUSH2 0x9D4 JUMPI PUSH1 0x40 MLOAD PUSH4 0x3DA63931 PUSH1 0xE0 SHL DUP2 MSTORE PUSH1 0x4 ADD PUSH1 0x40 MLOAD DUP1 SWAP2 SUB SWAP1 REVERT JUMPDEST PUSH0 SLOAD PUSH1 0x1 PUSH1 0x1 PUSH1 0xA0 SHL SUB AND CALLER EQ PUSH2 0xB37 JUMPI PUSH1 0x40 MLOAD PUSH3 0x82B429 PUSH1 0xE8 SHL DUP2 MSTORE PUSH1 0x4 ADD PUSH1 0x40 MLOAD DUP1 SWAP2 SUB SWAP1 REVERT JUMPDEST PUSH2 0x659 DUP3 DUP3 PUSH2 0x130C JUMP JUMPDEST PUSH0 SLOAD PUSH1 0x1 PUSH1 0x1 PUSH1 0xA0 SHL SUB AND CALLER EQ PUSH2 0xB6A JUMPI PUSH1 0x40 MLOAD PUSH3 0x82B429 PUSH1 0xE8 SHL DUP2 MSTORE PUSH1 0x4 ADD PUSH1 0x40 MLOAD DUP1 SWAP2 SUB SWAP1 REVERT JUMPDEST PUSH1 0x1 PUSH1 0x1 PUSH1 0xA0 SHL SUB SWAP2 SWAP1 SWAP2 AND PUSH0 SWAP1 DUP2 MSTORE PUSH1 0xB PUSH1 0x20 MSTORE PUSH1 0x40 SWAP1 KECCAK256 DUP1 SLOAD PUSH1 0xFF NOT AND SWAP2 ISZERO ISZERO SWAP2 SWAP1 SWAP2 OR SWAP1 SSTORE JUMP JUMPDEST PUSH0 DUP2 DUP2 MSTORE PUSH1 0x8 PUSH1 0x20 MSTORE PUSH1 0x40 SWAP1 KECCAK256 SLOAD PUSH1 0x1 PUSH1 0x1 PUSH1 0xA0 SHL SUB AND DUP1 PUSH2 0xBC9 JUMPI PUSH1 0x40 MLOAD PUSH4 0xC5723B51 PUSH1 0xE0 SHL DUP2 MSTORE PUSH1 0x4 ADD PUSH1 0x40 MLOAD DUP1 SWAP2 SUB SWAP1 REVERT JUMPDEST SWAP2 SWAP1 POP JUMP JUMPDEST PUSH1 0x2 DUP1 SLOAD PUSH2 0x45A SWAP1 PUSH2 0x19E4 JUMP JUMPDEST CALLER PUSH0 DUP2 DUP2 MSTORE PUSH1 0x7 PUSH1 0x20 SWAP1 DUP2 MSTORE PUSH1 0x40 DUP1 DUP4 KECCAK256 PUSH1 0x1 PUSH1 0x1 PUSH1 0xA0 SHL SUB DUP8 AND DUP1 DUP6 MSTORE SWAP1 DUP4 MSTORE SWAP3 DUP2 SWAP1 KECCAK256 DUP1 SLOAD PUSH1 0xFF NOT AND DUP7 ISZERO ISZERO SWAP1 DUP2 OR SWAP1 SWAP2 SSTORE SWAP1 MLOAD SWAP1 DUP2 MSTORE SWAP2 SWAP3 SWAP2 PUSH32 0x17307EAB39AB6107E8899845AD3D59BD9653F200F220920489CA2B5937696C31 SWAP2 ADD PUSH1 0x40 MLOAD DUP1 SWAP2 SUB SWAP1 LOG3 POP POP JUMP JUMPDEST PUSH0 PUSH2 0xC52 CALLER DUP5 DUP5 PUSH2 0x1167 JUMP JUMPDEST SWAP4 SWAP3 POP POP POP JUMP JUMPDEST PUSH2 0xC64 DUP6 DUP6 DUP6 PUSH2 0x65D JUMP JUMPDEST PUSH1 0x1 PUSH1 0x1 PUSH1 0xA0 SHL SUB DUP5 AND EXTCODESIZE ISZERO DUP1 ISZERO SWAP1 PUSH2 0xCFB JUMPI POP PUSH1 0x40 MLOAD PUSH4 0xA85BD01 PUSH1 0xE1 SHL DUP1 DUP3 MSTORE SWAP1 PUSH1 0x1 PUSH1 0x1 PUSH1 0xA0 SHL SUB DUP7 AND SWAP1 PUSH4 0x150B7A02 SWAP1 PUSH2 0xCAE SWAP1 CALLER SWAP1 DUP11 SWAP1 DUP10 SWAP1 DUP10 SWAP1 DUP10 SWAP1 PUSH1 0x4 ADD PUSH2 0x1B96 JUMP JUMPDEST PUSH1 0x20 PUSH1 0x40 MLOAD DUP1 DUP4 SUB DUP2 PUSH0 DUP8 GAS CALL ISZERO DUP1 ISZERO PUSH2 0xCCA JUMPI RETURNDATASIZE PUSH0 DUP1 RETURNDATACOPY RETURNDATASIZE PUSH0 REVERT JUMPDEST POP POP POP POP PUSH1 0x40 MLOAD RETURNDATASIZE PUSH1 0x1F NOT PUSH1 0x1F DUP3 ADD AND DUP3 ADD DUP1 PUSH1 0x40 MSTORE POP DUP2 ADD SWAP1 PUSH2 0xCEE SWAP2 SWAP1 PUSH2 0x1B6F JUMP JUMPDEST PUSH1 0x1 PUSH1 0x1 PUSH1 0xE0 SHL SUB NOT AND EQ ISZERO JUMPDEST ISZERO PUSH2 0x9D1 JUMPI PUSH1 0x40 MLOAD PUSH4 0x3DA63931 PUSH1 0xE0 SHL DUP2 MSTORE PUSH1 0x4 ADD PUSH1 0x40 MLOAD DUP1 SWAP2 SUB SWAP1 REVERT JUMPDEST PUSH1 0x60 PUSH0 PUSH1 0xD DUP1 SLOAD PUSH2 0xD29 SWAP1 PUSH2 0x19E4 JUMP JUMPDEST SWAP1 POP GT ISZERO PUSH2 0xD63 JUMPI PUSH1 0xD PUSH2 0xD3C DUP4 PUSH2 0x1325 JUMP JUMPDEST PUSH1 0x40 MLOAD PUSH1 0x20 ADD PUSH2 0xD4D SWAP3 SWAP2 SWAP1 PUSH2 0x1BE8 JUMP JUMPDEST PUSH1 0x40 MLOAD PUSH1 0x20 DUP2 DUP4 SUB SUB DUP2 MSTORE SWAP1 PUSH1 0x40 MSTORE SWAP1 POP SWAP2 SWAP1 POP JUMP JUMPDEST PUSH0 DUP3 PUSH1 0x40 MLOAD PUSH1 0x20 ADD PUSH2 0xD77 SWAP2 DUP2 MSTORE PUSH1 0x20 ADD SWAP1 JUMP JUMPDEST PUSH1 0x40 MLOAD PUSH1 0x20 DUP2 DUP4 SUB SUB DUP2 MSTORE SWAP1 PUSH1 0x40 MSTORE DUP1 MLOAD SWAP1 PUSH1 0x20 ADD KECCAK256 PUSH1 0xF8 SHR SWAP1 POP PUSH1 0x60 DUP1 PUSH1 0x64 DUP4 PUSH1 0xFF AND GT PUSH2 0xDE5 JUMPI PUSH1 0x40 MLOAD DUP1 PUSH1 0x40 ADD PUSH1 0x40 MSTORE DUP1 PUSH1 0x5 DUP2 MSTORE PUSH1 0x20 ADD PUSH5 0x189733B4B3 PUSH1 0xD9 SHL DUP2 MSTORE POP SWAP2 POP PUSH1 0x40 MLOAD DUP1 PUSH1 0x40 ADD PUSH1 0x40 MSTORE DUP1 PUSH1 0x5 DUP2 MSTORE PUSH1 0x20 ADD PUSH5 0x23B932B2B7 PUSH1 0xD9 SHL DUP2 MSTORE POP SWAP1 POP PUSH2 0xF20 JUMP JUMPDEST PUSH1 0xA0 DUP4 PUSH1 0xFF AND GT PUSH2 0xE34 JUMPI PUSH1 0x40 MLOAD DUP1 PUSH1 0x40 ADD PUSH1 0x40 MSTORE DUP1 PUSH1 0x5 DUP2 MSTORE PUSH1 0x20 ADD PUSH5 0x191733B4B3 PUSH1 0xD9 SHL DUP2 MSTORE POP SWAP2 POP PUSH1 0x40 MLOAD DUP1 PUSH1 0x40 ADD PUSH1 0x40 MSTORE DUP1 PUSH1 0x4 DUP2 MSTORE PUSH1 0x20 ADD PUSH4 0x426C7565 PUSH1 0xE0 SHL DUP2 MSTORE POP SWAP1 POP PUSH2 0xF20 JUMP JUMPDEST PUSH1 0xD2 DUP4 PUSH1 0xFF AND GT PUSH2 0xE85 JUMPI PUSH1 0x40 MLOAD DUP1 PUSH1 0x40 ADD PUSH1 0x40 MSTORE DUP1 PUSH1 0x5 DUP2 MSTORE PUSH1 0x20 ADD PUSH5 0x199733B4B3 PUSH1 0xD9 SHL DUP2 MSTORE POP SWAP2 POP PUSH1 0x40 MLOAD DUP1 PUSH1 0x40 ADD PUSH1 0x40 MSTORE DUP1 PUSH1 0x6 DUP2 MSTORE PUSH1 0x20 ADD PUSH6 0x507572706C65 PUSH1 0xD0 SHL DUP2 MSTORE POP SWAP1 POP PUSH2 0xF20 JUMP JUMPDEST PUSH1 0xF0 DUP4 PUSH1 0xFF AND GT PUSH2 0xED6 JUMPI PUSH1 0x40 MLOAD DUP1 PUSH1 0x40 ADD PUSH1 0x40 MSTORE DUP1 PUSH1 0x5 DUP2 MSTORE PUSH1 0x20 ADD PUSH5 0x1A1733B4B3 PUSH1 0xD9 SHL DUP2 MSTORE POP SWAP2 POP PUSH1 0x40 MLOAD DUP1 PUSH1 0x40 ADD PUSH1 0x40 MSTORE DUP1 PUSH1 0x6 DUP2 MSTORE PUSH1 0x20 ADD PUSH6 0x4F72616E6765 PUSH1 0xD0 SHL DUP2 MSTORE POP SWAP1 POP PUSH2 0xF20 JUMP JUMPDEST PUSH1 0xFF DUP4 PUSH1 0xFF AND GT PUSH2 0xF20 JUMPI PUSH1 0x40 MLOAD DUP1 PUSH1 0x40 ADD PUSH1 0x40 MSTORE DUP1 PUSH1 0x5 DUP2 MSTORE PUSH1 0x20 ADD PUSH5 0x1A9733B4B3 PUSH1 0xD9 SHL DUP2 MSTORE POP SWAP2 POP PUSH1 0x40 MLOAD DUP1 PUSH1 0x40 ADD PUSH1 0x40 MSTORE DUP1 PUSH1 0x3 DUP2 MSTORE PUSH1 0x20 ADD PUSH3 0x149959 PUSH1 0xEA SHL DUP2 MSTORE POP SWAP1 POP JUMPDEST PUSH0 PUSH2 0xF2A DUP7 PUSH2 0x1325 JUMP JUMPDEST PUSH1 0x40 MLOAD PUSH1 0x20 ADD PUSH2 0xF3A SWAP2 SWAP1 PUSH2 0x1C6B JUMP JUMPDEST PUSH1 0x40 DUP1 MLOAD PUSH1 0x1F NOT DUP2 DUP5 SUB ADD DUP2 MSTORE SWAP1 DUP3 SWAP1 MSTORE PUSH2 0xF57 SWAP2 PUSH1 0x20 ADD PUSH2 0x1CA6 JUMP JUMPDEST PUSH1 0x40 MLOAD PUSH1 0x20 DUP2 DUP4 SUB SUB DUP2 MSTORE SWAP1 PUSH1 0x40 MSTORE PUSH1 0xC DUP5 PUSH1 0x40 MLOAD PUSH1 0x20 ADD PUSH2 0xF7A SWAP3 SWAP2 SWAP1 PUSH2 0x1BE8 JUMP JUMPDEST PUSH1 0x40 DUP1 MLOAD PUSH1 0x1F NOT DUP2 DUP5 SUB ADD DUP2 MSTORE SWAP1 DUP3 SWAP1 MSTORE PUSH2 0xF98 SWAP3 SWAP2 PUSH1 0x20 ADD PUSH2 0x1D7E JUMP JUMPDEST PUSH1 0x40 MLOAD PUSH1 0x20 DUP2 DUP4 SUB SUB DUP2 MSTORE SWAP1 PUSH1 0x40 MSTORE SWAP1 POP PUSH0 DUP3 PUSH1 0x40 MLOAD PUSH1 0x20 ADD PUSH2 0xFBB SWAP2 SWAP1 PUSH2 0x1DA3 JUMP JUMPDEST PUSH1 0x40 DUP1 MLOAD PUSH1 0x1F NOT DUP2 DUP5 SUB ADD DUP2 MSTORE DUP3 DUP3 ADD DUP3 MSTORE PUSH1 0x4 DUP4 MSTORE PUSH4 0x227D5D7D PUSH1 0xE0 SHL PUSH1 0x20 DUP5 DUP2 ADD SWAP2 SWAP1 SWAP2 MSTORE SWAP2 MLOAD SWAP1 SWAP4 POP PUSH2 0xFF5 SWAP2 DUP6 SWAP2 DUP6 SWAP2 ADD PUSH2 0x1D7E JUMP JUMPDEST PUSH1 0x40 DUP1 MLOAD PUSH1 0x1F NOT DUP2 DUP5 SUB ADD DUP2 MSTORE SWAP1 DUP3 SWAP1 MSTORE PUSH2 0x1014 SWAP2 DUP4 SWAP1 PUSH1 0x20 ADD PUSH2 0x1D7E JUMP JUMPDEST PUSH1 0x40 DUP1 MLOAD PUSH1 0x1F NOT DUP2 DUP5 SUB ADD DUP2 MSTORE SWAP1 DUP3 SWAP1 MSTORE PUSH2 0x1031 SWAP2 PUSH1 0x20 ADD PUSH2 0x1DFF JUMP JUMPDEST PUSH1 0x40 MLOAD PUSH1 0x20 DUP2 DUP4 SUB SUB DUP2 MSTORE SWAP1 PUSH1 0x40 MSTORE SWAP7 POP POP POP POP POP POP POP SWAP2 SWAP1 POP JUMP JUMPDEST PUSH1 0xD DUP1 SLOAD PUSH2 0x45A SWAP1 PUSH2 0x19E4 JUMP JUMPDEST PUSH0 SLOAD PUSH1 0x1 PUSH1 0x1 PUSH1 0xA0 SHL SUB AND CALLER EQ PUSH2 0x1083 JUMPI PUSH1 0x40 MLOAD PUSH3 0x82B429 PUSH1 0xE8 SHL DUP2 MSTORE PUSH1 0x4 ADD PUSH1 0x40 MLOAD DUP1 SWAP2 SUB SWAP1 REVERT JUMPDEST PUSH1 0xD PUSH2 0x659 DUP3 DUP3 PUSH2 0x1A60 JUMP JUMPDEST PUSH1 0xC DUP1 SLOAD PUSH2 0x45A SWAP1 PUSH2 0x19E4 JUMP JUMPDEST PUSH0 SLOAD PUSH1 0x1 PUSH1 0x1 PUSH1 0xA0 SHL SUB AND CALLER EQ PUSH2 0x10C5 JUMPI PUSH1 0x40 MLOAD PUSH3 0x82B429 PUSH1 0xE8 SHL DUP2 MSTORE PUSH1 0x4 ADD PUSH1 0x40 MLOAD DUP1 SWAP2 SUB SWAP1 REVERT JUMPDEST PUSH1 0x1 PUSH1 0x1 PUSH1 0xA0 SHL SUB DUP2 AND PUSH2 0x10EC JUMPI PUSH1 0x40 MLOAD PUSH4 0x49E27CFF PUSH1 0xE0 SHL DUP2 MSTORE PUSH1 0x4 ADD PUSH1 0x40 MLOAD DUP1 SWAP2 SUB SWAP1 REVERT JUMPDEST PUSH0 DUP1 SLOAD PUSH1 0x1 PUSH1 0x1 PUSH1 0xA0 SHL SUB NOT AND PUSH1 0x1 PUSH1 0x1 PUSH1 0xA0 SHL SUB DUP4 AND SWAP1 DUP2 OR DUP3 SSTORE PUSH1 0x40 MLOAD SWAP1 SWAP2 CALLER SWAP2 PUSH32 0x8BE0079C531659141344CD1FD0A4F28419497F9722A3DAAFE3B4186F6B6457E0 SWAP2 SWAP1 LOG3 POP JUMP JUMPDEST PUSH0 PUSH2 0x1162 PUSH32 0x0 PUSH1 0xA PUSH2 0x1F23 JUMP JUMPDEST SWAP1 POP SWAP1 JUMP JUMPDEST PUSH0 DUP1 PUSH2 0x1171 PUSH2 0x1136 JUMP JUMPDEST PUSH1 0x1 PUSH1 0x1 PUSH1 0xA0 SHL SUB DUP1 DUP8 AND PUSH0 DUP2 DUP2 MSTORE PUSH1 0x4 PUSH1 0x20 MSTORE PUSH1 0x40 DUP1 DUP3 KECCAK256 DUP1 SLOAD SWAP5 DUP11 AND DUP4 MSTORE SWAP1 DUP3 KECCAK256 SLOAD SWAP3 DUP3 MSTORE SWAP4 SWAP5 POP SWAP2 SWAP3 SWAP1 SWAP2 DUP7 SWAP2 SWAP1 PUSH2 0x11AC DUP4 DUP7 PUSH2 0x1B34 JUMP JUMPDEST SWAP1 SWAP2 SSTORE POP POP PUSH1 0x1 PUSH1 0x1 PUSH1 0xA0 SHL SUB DUP1 DUP8 AND PUSH0 SWAP1 DUP2 MSTORE PUSH1 0x4 PUSH1 0x20 SWAP1 DUP2 MSTORE PUSH1 0x40 DUP1 DUP4 KECCAK256 DUP1 SLOAD DUP11 ADD SWAP1 SSTORE SWAP3 DUP11 AND DUP3 MSTORE PUSH1 0xB SWAP1 MSTORE KECCAK256 SLOAD PUSH1 0xFF AND PUSH2 0x123B JUMPI PUSH1 0x1 PUSH1 0x1 PUSH1 0xA0 SHL SUB DUP8 AND PUSH0 SWAP1 DUP2 MSTORE PUSH1 0x4 PUSH1 0x20 MSTORE PUSH1 0x40 DUP2 KECCAK256 SLOAD PUSH2 0x1207 SWAP1 DUP6 SWAP1 PUSH2 0x1F31 JUMP JUMPDEST PUSH2 0x1211 DUP6 DUP6 PUSH2 0x1F31 JUMP JUMPDEST PUSH2 0x121B SWAP2 SWAP1 PUSH2 0x1B34 JUMP JUMPDEST SWAP1 POP PUSH0 JUMPDEST DUP2 DUP2 LT ISZERO PUSH2 0x1238 JUMPI PUSH2 0x1230 DUP10 PUSH2 0x13B5 JUMP JUMPDEST PUSH1 0x1 ADD PUSH2 0x121F JUMP JUMPDEST POP POP JUMPDEST PUSH1 0x1 PUSH1 0x1 PUSH1 0xA0 SHL SUB DUP7 AND PUSH0 SWAP1 DUP2 MSTORE PUSH1 0xB PUSH1 0x20 MSTORE PUSH1 0x40 SWAP1 KECCAK256 SLOAD PUSH1 0xFF AND PUSH2 0x12B2 JUMPI PUSH0 PUSH2 0x1265 DUP5 DUP4 PUSH2 0x1F31 JUMP JUMPDEST PUSH1 0x1 PUSH1 0x1 PUSH1 0xA0 SHL SUB DUP9 AND PUSH0 SWAP1 DUP2 MSTORE PUSH1 0x4 PUSH1 0x20 MSTORE PUSH1 0x40 SWAP1 KECCAK256 SLOAD PUSH2 0x1288 SWAP1 DUP7 SWAP1 PUSH2 0x1F31 JUMP JUMPDEST PUSH2 0x1292 SWAP2 SWAP1 PUSH2 0x1B34 JUMP JUMPDEST SWAP1 POP PUSH0 JUMPDEST DUP2 DUP2 LT ISZERO PUSH2 0x12AF JUMPI PUSH2 0x12A7 DUP9 PUSH2 0x14D6 JUMP JUMPDEST PUSH1 0x1 ADD PUSH2 0x1296 JUMP JUMPDEST POP POP JUMPDEST DUP6 PUSH1 0x1 PUSH1 0x1 PUSH1 0xA0 SHL SUB AND DUP8 PUSH1 0x1 PUSH1 0x1 PUSH1 0xA0 SHL SUB AND PUSH32 0xE59FDD36D0D223C0C7D996DB7AD796880F45E1936CB0BB7AC102E7082E031487 DUP8 PUSH1 0x40 MLOAD PUSH2 0x12F7 SWAP2 DUP2 MSTORE PUSH1 0x20 ADD SWAP1 JUMP JUMPDEST PUSH1 0x40 MLOAD DUP1 SWAP2 SUB SWAP1 LOG3 POP PUSH1 0x1 SWAP7 SWAP6 POP POP POP POP POP POP JUMP JUMPDEST PUSH1 0x1 PUSH2 0x1318 DUP4 DUP3 PUSH2 0x1A60 JUMP JUMPDEST POP PUSH1 0x2 PUSH2 0x9D4 DUP3 DUP3 PUSH2 0x1A60 JUMP JUMPDEST PUSH1 0x60 PUSH0 PUSH2 0x1331 DUP4 PUSH2 0x15DE JUMP JUMPDEST PUSH1 0x1 ADD SWAP1 POP PUSH0 DUP2 PUSH8 0xFFFFFFFFFFFFFFFF DUP2 GT ISZERO PUSH2 0x1350 JUMPI PUSH2 0x1350 PUSH2 0x175E JUMP JUMPDEST PUSH1 0x40 MLOAD SWAP1 DUP1 DUP3 MSTORE DUP1 PUSH1 0x1F ADD PUSH1 0x1F NOT AND PUSH1 0x20 ADD DUP3 ADD PUSH1 0x40 MSTORE DUP1 ISZERO PUSH2 0x137A JUMPI PUSH1 0x20 DUP3 ADD DUP2 DUP1 CALLDATASIZE DUP4 CALLDATACOPY ADD SWAP1 POP JUMPDEST POP SWAP1 POP DUP2 DUP2 ADD PUSH1 0x20 ADD JUMPDEST PUSH0 NOT ADD PUSH16 0x181899199A1A9B1B9C1CB0B131B232B3 PUSH1 0x81 SHL PUSH1 0xA DUP7 MOD BYTE DUP2 MSTORE8 PUSH1 0xA DUP6 DIV SWAP5 POP DUP5 PUSH2 0x1384 JUMPI POP SWAP4 SWAP3 POP POP POP JUMP JUMPDEST PUSH1 0x1 PUSH1 0x1 PUSH1 0xA0 SHL SUB DUP2 AND PUSH2 0x13DC JUMPI PUSH1 0x40 MLOAD PUSH4 0x6EDAEF2F PUSH1 0xE1 SHL DUP2 MSTORE PUSH1 0x4 ADD PUSH1 0x40 MLOAD DUP1 SWAP2 SUB SWAP1 REVERT JUMPDEST PUSH1 0x1 PUSH1 0x1 PUSH1 0xA0 SHL SUB DUP2 AND PUSH0 SWAP1 DUP2 MSTORE PUSH1 0x9 PUSH1 0x20 MSTORE PUSH1 0x40 DUP2 KECCAK256 DUP1 SLOAD PUSH2 0x1401 SWAP1 PUSH1 0x1 SWAP1 PUSH2 0x1B34 JUMP JUMPDEST DUP2 SLOAD DUP2 LT PUSH2 0x1411 JUMPI PUSH2 0x1411 PUSH2 0x1B47 JUMP JUMPDEST SWAP1 PUSH0 MSTORE PUSH1 0x20 PUSH0 KECCAK256 ADD SLOAD SWAP1 POP PUSH1 0x9 PUSH0 DUP4 PUSH1 0x1 PUSH1 0x1 PUSH1 0xA0 SHL SUB AND PUSH1 0x1 PUSH1 0x1 PUSH1 0xA0 SHL SUB AND DUP2 MSTORE PUSH1 0x20 ADD SWAP1 DUP2 MSTORE PUSH1 0x20 ADD PUSH0 KECCAK256 DUP1 SLOAD DUP1 PUSH2 0x144E JUMPI PUSH2 0x144E PUSH2 0x1B5B JUMP JUMPDEST PUSH0 DUP3 DUP2 MSTORE PUSH1 0x20 DUP1 DUP3 KECCAK256 DUP4 ADD PUSH0 NOT SWAP1 DUP2 ADD DUP4 SWAP1 SSTORE SWAP1 SWAP3 ADD SWAP1 SWAP3 SSTORE DUP3 DUP3 MSTORE PUSH1 0xA DUP2 MSTORE PUSH1 0x40 DUP1 DUP4 KECCAK256 DUP4 SWAP1 SSTORE PUSH1 0x8 DUP3 MSTORE DUP1 DUP4 KECCAK256 DUP1 SLOAD PUSH1 0x1 PUSH1 0x1 PUSH1 0xA0 SHL SUB NOT SWAP1 DUP2 AND SWAP1 SWAP2 SSTORE PUSH1 0x6 SWAP1 SWAP3 MSTORE DUP1 DUP4 KECCAK256 DUP1 SLOAD SWAP1 SWAP3 AND SWAP1 SWAP2 SSTORE MLOAD DUP3 SWAP2 SWAP1 PUSH1 0x1 PUSH1 0x1 PUSH1 0xA0 SHL SUB DUP6 AND SWAP1 PUSH32 0xDDF252AD1BE2C89B69C2B068FC378DAA952BA7F163C4A11628F55A4DF523B3EF SWAP1 DUP4 SWAP1 LOG4 POP POP JUMP JUMPDEST PUSH1 0x1 PUSH1 0x1 PUSH1 0xA0 SHL SUB DUP2 AND PUSH2 0x14FD JUMPI PUSH1 0x40 MLOAD PUSH4 0x4E469669 PUSH1 0xE1 SHL DUP2 MSTORE PUSH1 0x4 ADD PUSH1 0x40 MLOAD DUP1 SWAP2 SUB SWAP1 REVERT JUMPDEST PUSH1 0x3 DUP1 SLOAD PUSH1 0x1 ADD SWAP1 DUP2 SWAP1 SSTORE PUSH0 DUP2 DUP2 MSTORE PUSH1 0x8 PUSH1 0x20 MSTORE PUSH1 0x40 SWAP1 KECCAK256 SLOAD PUSH1 0x1 PUSH1 0x1 PUSH1 0xA0 SHL SUB AND ISZERO PUSH2 0x153D JUMPI PUSH1 0x40 MLOAD PUSH4 0x119B4FD3 PUSH1 0xE1 SHL DUP2 MSTORE PUSH1 0x4 ADD PUSH1 0x40 MLOAD DUP1 SWAP2 SUB SWAP1 REVERT JUMPDEST PUSH0 DUP2 DUP2 MSTORE PUSH1 0x8 PUSH1 0x20 SWAP1 DUP2 MSTORE PUSH1 0x40 DUP1 DUP4 KECCAK256 DUP1 SLOAD PUSH1 0x1 PUSH1 0x1 PUSH1 0xA0 SHL SUB NOT AND PUSH1 0x1 PUSH1 0x1 PUSH1 0xA0 SHL SUB DUP8 AND SWAP1 DUP2 OR SWAP1 SWAP2 SSTORE DUP1 DUP5 MSTORE PUSH1 0x9 DUP4 MSTORE SWAP1 DUP4 KECCAK256 DUP1 SLOAD PUSH1 0x1 DUP2 DUP2 ADD DUP4 SSTORE DUP3 DUP7 MSTORE SWAP4 DUP6 KECCAK256 ADD DUP6 SWAP1 SSTORE SWAP3 MSTORE SWAP1 SLOAD PUSH2 0x1594 SWAP2 SWAP1 PUSH2 0x1B34 JUMP JUMPDEST PUSH0 DUP3 DUP2 MSTORE PUSH1 0xA PUSH1 0x20 MSTORE PUSH1 0x40 DUP1 DUP3 KECCAK256 SWAP3 SWAP1 SWAP3 SSTORE SWAP1 MLOAD DUP3 SWAP2 PUSH1 0x1 PUSH1 0x1 PUSH1 0xA0 SHL SUB DUP6 AND SWAP2 PUSH32 0xDDF252AD1BE2C89B69C2B068FC378DAA952BA7F163C4A11628F55A4DF523B3EF SWAP1 DUP3 SWAP1 LOG4 POP POP JUMP JUMPDEST PUSH0 DUP1 PUSH19 0x184F03E93FF9F4DAA797ED6E38ED64BF6A1F01 PUSH1 0x40 SHL DUP4 LT PUSH2 0x161C JUMPI PUSH19 0x184F03E93FF9F4DAA797ED6E38ED64BF6A1F01 PUSH1 0x40 SHL DUP4 DIV SWAP3 POP PUSH1 0x40 ADD JUMPDEST PUSH14 0x4EE2D6D415B85ACEF8100000000 DUP4 LT PUSH2 0x1648 JUMPI PUSH14 0x4EE2D6D415B85ACEF8100000000 DUP4 DIV SWAP3 POP PUSH1 0x20 ADD JUMPDEST PUSH7 0x2386F26FC10000 DUP4 LT PUSH2 0x1666 JUMPI PUSH7 0x2386F26FC10000 DUP4 DIV SWAP3 POP PUSH1 0x10 ADD JUMPDEST PUSH4 0x5F5E100 DUP4 LT PUSH2 0x167E JUMPI PUSH4 0x5F5E100 DUP4 DIV SWAP3 POP PUSH1 0x8 ADD JUMPDEST PUSH2 0x2710 DUP4 LT PUSH2 0x1692 JUMPI PUSH2 0x2710 DUP4 DIV SWAP3 POP PUSH1 0x4 ADD JUMPDEST PUSH1 0x64 DUP4 LT PUSH2 0x16A4 JUMPI PUSH1 0x64 DUP4 DIV SWAP3 POP PUSH1 0x2 ADD JUMPDEST PUSH1 0xA DUP4 LT PUSH2 0x61E JUMPI PUSH1 0x1 ADD SWAP3 SWAP2 POP POP JUMP JUMPDEST PUSH0 JUMPDEST DUP4 DUP2 LT ISZERO PUSH2 0x16CF JUMPI DUP2 DUP2 ADD MLOAD DUP4 DUP3 ADD MSTORE PUSH1 0x20 ADD PUSH2 0x16B7 JUMP JUMPDEST POP POP PUSH0 SWAP2 ADD MSTORE JUMP JUMPDEST PUSH1 0x20 DUP2 MSTORE PUSH0 DUP3 MLOAD DUP1 PUSH1 0x20 DUP5 ADD MSTORE PUSH2 0x16F5 DUP2 PUSH1 0x40 DUP6 ADD PUSH1 0x20 DUP8 ADD PUSH2 0x16B5 JUMP JUMPDEST PUSH1 0x1F ADD PUSH1 0x1F NOT AND SWAP2 SWAP1 SWAP2 ADD PUSH1 0x40 ADD SWAP3 SWAP2 POP POP JUMP JUMPDEST PUSH0 PUSH1 0x20 DUP3 DUP5 SUB SLT ISZERO PUSH2 0x1719 JUMPI PUSH0 DUP1 REVERT JUMPDEST POP CALLDATALOAD SWAP2 SWAP1 POP JUMP JUMPDEST DUP1 CALLDATALOAD PUSH1 0x1 PUSH1 0x1 PUSH1 0xA0 SHL SUB DUP2 AND DUP2 EQ PUSH2 0xBC9 JUMPI PUSH0 DUP1 REVERT JUMPDEST PUSH0 DUP1 PUSH1 0x40 DUP4 DUP6 SUB SLT ISZERO PUSH2 0x1747 JUMPI PUSH0 DUP1 REVERT JUMPDEST PUSH2 0x1750 DUP4 PUSH2 0x1720 JUMP JUMPDEST SWAP5 PUSH1 0x20 SWAP4 SWAP1 SWAP4 ADD CALLDATALOAD SWAP4 POP POP POP JUMP JUMPDEST PUSH4 0x4E487B71 PUSH1 0xE0 SHL PUSH0 MSTORE PUSH1 0x41 PUSH1 0x4 MSTORE PUSH1 0x24 PUSH0 REVERT JUMPDEST PUSH0 DUP3 PUSH1 0x1F DUP4 ADD SLT PUSH2 0x1781 JUMPI PUSH0 DUP1 REVERT JUMPDEST DUP2 CALLDATALOAD PUSH8 0xFFFFFFFFFFFFFFFF DUP1 DUP3 GT ISZERO PUSH2 0x179C JUMPI PUSH2 0x179C PUSH2 0x175E JUMP JUMPDEST PUSH1 0x40 MLOAD PUSH1 0x1F DUP4 ADD PUSH1 0x1F NOT SWAP1 DUP2 AND PUSH1 0x3F ADD AND DUP2 ADD SWAP1 DUP3 DUP3 GT DUP2 DUP4 LT OR ISZERO PUSH2 0x17C4 JUMPI PUSH2 0x17C4 PUSH2 0x175E JUMP JUMPDEST DUP2 PUSH1 0x40 MSTORE DUP4 DUP2 MSTORE DUP7 PUSH1 0x20 DUP6 DUP9 ADD ADD GT ISZERO PUSH2 0x17DC JUMPI PUSH0 DUP1 REVERT JUMPDEST DUP4 PUSH1 0x20 DUP8 ADD PUSH1 0x20 DUP4 ADD CALLDATACOPY PUSH0 PUSH1 0x20 DUP6 DUP4 ADD ADD MSTORE DUP1 SWAP5 POP POP POP POP POP SWAP3 SWAP2 POP POP JUMP JUMPDEST PUSH0 PUSH1 0x20 DUP3 DUP5 SUB SLT ISZERO PUSH2 0x180B JUMPI PUSH0 DUP1 REVERT JUMPDEST DUP2 CALLDATALOAD PUSH8 0xFFFFFFFFFFFFFFFF DUP2 GT ISZERO PUSH2 0x1821 JUMPI PUSH0 DUP1 REVERT JUMPDEST PUSH2 0x182D DUP5 DUP3 DUP6 ADD PUSH2 0x1772 JUMP JUMPDEST SWAP5 SWAP4 POP POP POP POP JUMP JUMPDEST PUSH0 DUP1 PUSH0 PUSH1 0x60 DUP5 DUP7 SUB SLT ISZERO PUSH2 0x1847 JUMPI PUSH0 DUP1 REVERT JUMPDEST PUSH2 0x1850 DUP5 PUSH2 0x1720 JUMP JUMPDEST SWAP3 POP PUSH2 0x185E PUSH1 0x20 DUP6 ADD PUSH2 0x1720 JUMP JUMPDEST SWAP2 POP PUSH1 0x40 DUP5 ADD CALLDATALOAD SWAP1 POP SWAP3 POP SWAP3 POP SWAP3 JUMP JUMPDEST PUSH0 DUP1 PUSH1 0x40 DUP4 DUP6 SUB SLT ISZERO PUSH2 0x187F JUMPI PUSH0 DUP1 REVERT JUMPDEST DUP3 CALLDATALOAD PUSH8 0xFFFFFFFFFFFFFFFF DUP1 DUP3 GT ISZERO PUSH2 0x1896 JUMPI PUSH0 DUP1 REVERT JUMPDEST PUSH2 0x18A2 DUP7 DUP4 DUP8 ADD PUSH2 0x1772 JUMP JUMPDEST SWAP4 POP PUSH1 0x20 DUP6 ADD CALLDATALOAD SWAP2 POP DUP1 DUP3 GT ISZERO PUSH2 0x18B7 JUMPI PUSH0 DUP1 REVERT JUMPDEST POP PUSH2 0x18C4 DUP6 DUP3 DUP7 ADD PUSH2 0x1772 JUMP JUMPDEST SWAP2 POP POP SWAP3 POP SWAP3 SWAP1 POP JUMP JUMPDEST PUSH0 DUP1 PUSH1 0x40 DUP4 DUP6 SUB SLT ISZERO PUSH2 0x18DF JUMPI PUSH0 DUP1 REVERT JUMPDEST PUSH2 0x18E8 DUP4 PUSH2 0x1720 JUMP JUMPDEST SWAP2 POP PUSH1 0x20 DUP4 ADD CALLDATALOAD DUP1 ISZERO ISZERO DUP2 EQ PUSH2 0x18FC JUMPI PUSH0 DUP1 REVERT JUMPDEST DUP1 SWAP2 POP POP SWAP3 POP SWAP3 SWAP1 POP JUMP JUMPDEST PUSH0 PUSH1 0x20 DUP3 DUP5 SUB SLT ISZERO PUSH2 0x1917 JUMPI PUSH0 DUP1 REVERT JUMPDEST PUSH2 0xC52 DUP3 PUSH2 0x1720 JUMP JUMPDEST PUSH0 DUP1 PUSH0 DUP1 PUSH0 PUSH1 0x80 DUP7 DUP9 SUB SLT ISZERO PUSH2 0x1934 JUMPI PUSH0 DUP1 REVERT JUMPDEST PUSH2 0x193D DUP7 PUSH2 0x1720 JUMP JUMPDEST SWAP5 POP PUSH2 0x194B PUSH1 0x20 DUP8 ADD PUSH2 0x1720 JUMP JUMPDEST SWAP4 POP PUSH1 0x40 DUP7 ADD CALLDATALOAD SWAP3 POP PUSH1 0x60 DUP7 ADD CALLDATALOAD PUSH8 0xFFFFFFFFFFFFFFFF DUP1 DUP3 GT ISZERO PUSH2 0x196E JUMPI PUSH0 DUP1 REVERT JUMPDEST DUP2 DUP9 ADD SWAP2 POP DUP9 PUSH1 0x1F DUP4 ADD SLT PUSH2 0x1981 JUMPI PUSH0 DUP1 REVERT JUMPDEST DUP2 CALLDATALOAD DUP2 DUP2 GT ISZERO PUSH2 0x198F JUMPI PUSH0 DUP1 REVERT JUMPDEST DUP10 PUSH1 0x20 DUP3 DUP6 ADD ADD GT ISZERO PUSH2 0x19A0 JUMPI PUSH0 DUP1 REVERT JUMPDEST SWAP7 SWAP10 SWAP6 SWAP9 POP SWAP4 SWAP7 POP PUSH1 0x20 ADD SWAP5 SWAP4 SWAP3 POP POP POP JUMP JUMPDEST PUSH0 DUP1 PUSH1 0x40 DUP4 DUP6 SUB SLT ISZERO PUSH2 0x19C4 JUMPI PUSH0 DUP1 REVERT JUMPDEST PUSH2 0x19CD DUP4 PUSH2 0x1720 JUMP JUMPDEST SWAP2 POP PUSH2 0x19DB PUSH1 0x20 DUP5 ADD PUSH2 0x1720 JUMP JUMPDEST SWAP1 POP SWAP3 POP SWAP3 SWAP1 POP JUMP JUMPDEST PUSH1 0x1 DUP2 DUP2 SHR SWAP1 DUP3 AND DUP1 PUSH2 0x19F8 JUMPI PUSH1 0x7F DUP3 AND SWAP2 POP JUMPDEST PUSH1 0x20 DUP3 LT DUP2 SUB PUSH2 0x1A16 JUMPI PUSH4 0x4E487B71 PUSH1 0xE0 SHL PUSH0 MSTORE PUSH1 0x22 PUSH1 0x4 MSTORE PUSH1 0x24 PUSH0 REVERT JUMPDEST POP SWAP2 SWAP1 POP JUMP JUMPDEST PUSH1 0x1F DUP3 GT ISZERO PUSH2 0x9D4 JUMPI DUP1 PUSH0 MSTORE PUSH1 0x20 PUSH0 KECCAK256 PUSH1 0x1F DUP5 ADD PUSH1 0x5 SHR DUP2 ADD PUSH1 0x20 DUP6 LT ISZERO PUSH2 0x1A41 JUMPI POP DUP1 JUMPDEST PUSH1 0x1F DUP5 ADD PUSH1 0x5 SHR DUP3 ADD SWAP2 POP JUMPDEST DUP2 DUP2 LT ISZERO PUSH2 0x9D1 JUMPI PUSH0 DUP2 SSTORE PUSH1 0x1 ADD PUSH2 0x1A4D JUMP JUMPDEST DUP2 MLOAD PUSH8 0xFFFFFFFFFFFFFFFF DUP2 GT ISZERO PUSH2 0x1A7A JUMPI PUSH2 0x1A7A PUSH2 0x175E JUMP JUMPDEST PUSH2 0x1A8E DUP2 PUSH2 0x1A88 DUP5 SLOAD PUSH2 0x19E4 JUMP JUMPDEST DUP5 PUSH2 0x1A1C JUMP JUMPDEST PUSH1 0x20 DUP1 PUSH1 0x1F DUP4 GT PUSH1 0x1 DUP2 EQ PUSH2 0x1AC1 JUMPI PUSH0 DUP5 ISZERO PUSH2 0x1AAA JUMPI POP DUP6 DUP4 ADD MLOAD JUMPDEST PUSH0 NOT PUSH1 0x3 DUP7 SWAP1 SHL SHR NOT AND PUSH1 0x1 DUP6 SWAP1 SHL OR DUP6 SSTORE PUSH2 0x1B18 JUMP JUMPDEST PUSH0 DUP6 DUP2 MSTORE PUSH1 0x20 DUP2 KECCAK256 PUSH1 0x1F NOT DUP7 AND SWAP2 JUMPDEST DUP3 DUP2 LT ISZERO PUSH2 0x1AEF JUMPI DUP9 DUP7 ADD MLOAD DUP3 SSTORE SWAP5 DUP5 ADD SWAP5 PUSH1 0x1 SWAP1 SWAP2 ADD SWAP1 DUP5 ADD PUSH2 0x1AD0 JUMP JUMPDEST POP DUP6 DUP3 LT ISZERO PUSH2 0x1B0C JUMPI DUP8 DUP6 ADD MLOAD PUSH0 NOT PUSH1 0x3 DUP9 SWAP1 SHL PUSH1 0xF8 AND SHR NOT AND DUP2 SSTORE JUMPDEST POP POP PUSH1 0x1 DUP5 PUSH1 0x1 SHL ADD DUP6 SSTORE JUMPDEST POP POP POP POP POP POP JUMP JUMPDEST PUSH4 0x4E487B71 PUSH1 0xE0 SHL PUSH0 MSTORE PUSH1 0x11 PUSH1 0x4 MSTORE PUSH1 0x24 PUSH0 REVERT JUMPDEST DUP2 DUP2 SUB DUP2 DUP2 GT ISZERO PUSH2 0x61E JUMPI PUSH2 0x61E PUSH2 0x1B20 JUMP JUMPDEST PUSH4 0x4E487B71 PUSH1 0xE0 SHL PUSH0 MSTORE PUSH1 0x32 PUSH1 0x4 MSTORE PUSH1 0x24 PUSH0 REVERT JUMPDEST PUSH4 0x4E487B71 PUSH1 0xE0 SHL PUSH0 MSTORE PUSH1 0x31 PUSH1 0x4 MSTORE PUSH1 0x24 PUSH0 REVERT JUMPDEST PUSH0 PUSH1 0x20 DUP3 DUP5 SUB SLT ISZERO PUSH2 0x1B7F JUMPI PUSH0 DUP1 REVERT JUMPDEST DUP2 MLOAD PUSH1 0x1 PUSH1 0x1 PUSH1 0xE0 SHL SUB NOT DUP2 AND DUP2 EQ PUSH2 0xC52 JUMPI PUSH0 DUP1 REVERT JUMPDEST PUSH1 0x1 PUSH1 0x1 PUSH1 0xA0 SHL SUB DUP7 DUP2 AND DUP3 MSTORE DUP6 AND PUSH1 0x20 DUP3 ADD MSTORE PUSH1 0x40 DUP2 ADD DUP5 SWAP1 MSTORE PUSH1 0x80 PUSH1 0x60 DUP3 ADD DUP2 SWAP1 MSTORE DUP2 ADD DUP3 SWAP1 MSTORE PUSH0 DUP3 DUP5 PUSH1 0xA0 DUP5 ADD CALLDATACOPY PUSH0 PUSH1 0xA0 DUP5 DUP5 ADD ADD MSTORE PUSH1 0xA0 PUSH1 0x1F NOT PUSH1 0x1F DUP6 ADD AND DUP4 ADD ADD SWAP1 POP SWAP7 SWAP6 POP POP POP POP POP POP JUMP JUMPDEST PUSH0 DUP1 DUP5 SLOAD PUSH2 0x1BF5 DUP2 PUSH2 0x19E4 JUMP JUMPDEST PUSH1 0x1 DUP3 DUP2 AND DUP1 ISZERO PUSH2 0x1C0D JUMPI PUSH1 0x1 DUP2 EQ PUSH2 0x1C22 JUMPI PUSH2 0x1C4E JUMP JUMPDEST PUSH1 0xFF NOT DUP5 AND DUP8 MSTORE DUP3 ISZERO ISZERO DUP4 MUL DUP8 ADD SWAP5 POP PUSH2 0x1C4E JUMP JUMPDEST DUP9 PUSH0 MSTORE PUSH1 0x20 DUP1 PUSH0 KECCAK256 PUSH0 JUMPDEST DUP6 DUP2 LT ISZERO PUSH2 0x1C45 JUMPI DUP2 SLOAD DUP11 DUP3 ADD MSTORE SWAP1 DUP5 ADD SWAP1 DUP3 ADD PUSH2 0x1C2C JUMP JUMPDEST POP POP POP DUP3 DUP8 ADD SWAP5 POP JUMPDEST POP POP POP POP DUP4 MLOAD PUSH2 0x1C62 DUP2 DUP4 PUSH1 0x20 DUP9 ADD PUSH2 0x16B5 JUMP JUMPDEST ADD SWAP5 SWAP4 POP POP POP POP JUMP JUMPDEST PUSH19 0x7B226E616D65223A202250616E646F72612023 PUSH1 0x68 SHL DUP2 MSTORE DUP2 MLOAD PUSH0 SWAP1 PUSH2 0x1C99 DUP2 PUSH1 0x13 DUP6 ADD PUSH1 0x20 DUP8 ADD PUSH2 0x16B5 JUMP JUMPDEST SWAP2 SWAP1 SWAP2 ADD PUSH1 0x13 ADD SWAP3 SWAP2 POP POP JUMP JUMPDEST PUSH0 DUP3 MLOAD PUSH2 0x1CB7 DUP2 DUP5 PUSH1 0x20 DUP8 ADD PUSH2 0x16B5 JUMP JUMPDEST PUSH32 0x222C226465736372697074696F6E223A224120636F6C6C656374696F6E206F66 SWAP3 ADD SWAP2 DUP3 MSTORE POP PUSH32 0x2031302C303030205265706C6963616E747320656E61626C6564206279204552 PUSH1 0x20 DUP3 ADD MSTORE PUSH32 0x433430342C20616E206578706572696D656E74616C20746F6B656E207374616E PUSH1 0x40 DUP3 ADD MSTORE PUSH32 0x646172642E222C2265787465726E616C5F75726C223A2268747470733A2F2F70 PUSH1 0x60 DUP3 ADD MSTORE PUSH32 0x616E646F72612E6275696C64222C22696D616765223A22000000000000000000 PUSH1 0x80 DUP3 ADD MSTORE PUSH1 0x97 ADD SWAP2 SWAP1 POP JUMP JUMPDEST PUSH0 DUP4 MLOAD PUSH2 0x1D8F DUP2 DUP5 PUSH1 0x20 DUP9 ADD PUSH2 0x16B5 JUMP JUMPDEST DUP4 MLOAD SWAP1 DUP4 ADD SWAP1 PUSH2 0x1C62 DUP2 DUP4 PUSH1 0x20 DUP9 ADD PUSH2 0x16B5 JUMP JUMPDEST PUSH32 0x222C2261747472696275746573223A5B7B2274726169745F74797065223A2243 DUP2 MSTORE PUSH15 0x37B637B91116113B30B63AB2911D11 PUSH1 0x89 SHL PUSH1 0x20 DUP3 ADD MSTORE PUSH0 DUP3 MLOAD PUSH2 0x1DF2 DUP2 PUSH1 0x2F DUP6 ADD PUSH1 0x20 DUP8 ADD PUSH2 0x16B5 JUMP JUMPDEST SWAP2 SWAP1 SWAP2 ADD PUSH1 0x2F ADD SWAP3 SWAP2 POP POP JUMP JUMPDEST PUSH32 0x646174613A6170706C69636174696F6E2F6A736F6E3B757466382C0000000000 DUP2 MSTORE PUSH0 DUP3 MLOAD PUSH2 0x1E36 DUP2 PUSH1 0x1B DUP6 ADD PUSH1 0x20 DUP8 ADD PUSH2 0x16B5 JUMP JUMPDEST SWAP2 SWAP1 SWAP2 ADD PUSH1 0x1B ADD SWAP3 SWAP2 POP POP JUMP JUMPDEST PUSH1 0x1 DUP2 DUP2 JUMPDEST DUP1 DUP6 GT ISZERO PUSH2 0x1E7D JUMPI DUP2 PUSH0 NOT DIV DUP3 GT ISZERO PUSH2 0x1E63 JUMPI PUSH2 0x1E63 PUSH2 0x1B20 JUMP JUMPDEST DUP1 DUP6 AND ISZERO PUSH2 0x1E70 JUMPI SWAP2 DUP2 MUL SWAP2 JUMPDEST SWAP4 DUP5 SHR SWAP4 SWAP1 DUP1 MUL SWAP1 PUSH2 0x1E48 JUMP JUMPDEST POP SWAP3 POP SWAP3 SWAP1 POP JUMP JUMPDEST PUSH0 DUP3 PUSH2 0x1E93 JUMPI POP PUSH1 0x1 PUSH2 0x61E JUMP JUMPDEST DUP2 PUSH2 0x1E9F JUMPI POP PUSH0 PUSH2 0x61E JUMP JUMPDEST DUP2 PUSH1 0x1 DUP2 EQ PUSH2 0x1EB5 JUMPI PUSH1 0x2 DUP2 EQ PUSH2 0x1EBF JUMPI PUSH2 0x1EDB JUMP JUMPDEST PUSH1 0x1 SWAP2 POP POP PUSH2 0x61E JUMP JUMPDEST PUSH1 0xFF DUP5 GT ISZERO PUSH2 0x1ED0 JUMPI PUSH2 0x1ED0 PUSH2 0x1B20 JUMP JUMPDEST POP POP PUSH1 0x1 DUP3 SHL PUSH2 0x61E JUMP JUMPDEST POP PUSH1 0x20 DUP4 LT PUSH2 0x133 DUP4 LT AND PUSH1 0x4E DUP5 LT PUSH1 0xB DUP5 LT AND OR ISZERO PUSH2 0x1EFE JUMPI POP DUP2 DUP2 EXP PUSH2 0x61E JUMP JUMPDEST PUSH2 0x1F08 DUP4 DUP4 PUSH2 0x1E43 JUMP JUMPDEST DUP1 PUSH0 NOT DIV DUP3 GT ISZERO PUSH2 0x1F1B JUMPI PUSH2 0x1F1B PUSH2 0x1B20 JUMP JUMPDEST MUL SWAP4 SWAP3 POP POP POP JUMP JUMPDEST PUSH0 PUSH2 0xC52 PUSH1 0xFF DUP5 AND DUP4 PUSH2 0x1E85 JUMP JUMPDEST PUSH0 DUP3 PUSH2 0x1F4B JUMPI PUSH4 0x4E487B71 PUSH1 0xE0 SHL PUSH0 MSTORE PUSH1 0x12 PUSH1 0x4 MSTORE PUSH1 0x24 PUSH0 REVERT JUMPDEST POP DIV SWAP1 JUMP INVALID LOG2 PUSH5 0x6970667358 0x22 SLT KECCAK256 SDIV DUP13 JUMP 0x4D 0xD9 0xA8 0xA9 SWAP15 0xF CALLDATASIZE SELFBALANCE ORIGIN 0x2A PUSH5 0xE4F68BC7F1 0xC0 PUSH12 0xB30D75C3985215FB0322A264 PUSH20 0x6F6C634300081800330000000000000000000000 "
				},
				"gasEstimates": {
					"creation": {
						"codeDepositCost": "1614000",
						"executionCost": "infinite",
						"totalCost": "infinite"
					},
					"external": {
						"allowance(address,address)": "infinite",
						"approve(address,uint256)": "33300",
						"balanceOf(address)": "2562",
						"baseTokenURI()": "infinite",
						"dataURI()": "infinite",
						"decimals()": "infinite",
						"getApproved(uint256)": "2520",
						"isApprovedForAll(address,address)": "infinite",
						"minted()": "2339",
						"name()": "infinite",
						"owner()": "2403",
						"ownerOf(uint256)": "2619",
						"revokeOwnership()": "28080",
						"safeTransferFrom(address,address,uint256)": "infinite",
						"safeTransferFrom(address,address,uint256,bytes)": "infinite",
						"setApprovalForAll(address,bool)": "26649",
						"setDataURI(string)": "infinite",
						"setNameSymbol(string,string)": "infinite",
						"setTokenURI(string)": "infinite",
						"setWhitelist(address,bool)": "26919",
						"symbol()": "infinite",
						"tokenURI(uint256)": "infinite",
						"totalSupply()": "infinite",
						"transfer(address,uint256)": "infinite",
						"transferFrom(address,address,uint256)": "infinite",
						"transferOwnership(address)": "28371",
						"whitelist(address)": "2573"
					}
				},
				"methodIdentifiers": {
					"allowance(address,address)": "dd62ed3e",
					"approve(address,uint256)": "095ea7b3",
					"balanceOf(address)": "70a08231",
					"baseTokenURI()": "d547cfb7",
					"dataURI()": "f28ca1dd",
					"decimals()": "313ce567",
					"getApproved(uint256)": "081812fc",
					"isApprovedForAll(address,address)": "e985e9c5",
					"minted()": "4f02c420",
					"name()": "06fdde03",
					"owner()": "8da5cb5b",
					"ownerOf(uint256)": "6352211e",
					"revokeOwnership()": "2b968958",
					"safeTransferFrom(address,address,uint256)": "42842e0e",
					"safeTransferFrom(address,address,uint256,bytes)": "b88d4fde",
					"setApprovalForAll(address,bool)": "a22cb465",
					"setDataURI(string)": "18d217c3",
					"setNameSymbol(string,string)": "504334c2",
					"setTokenURI(string)": "e0df5b6f",
					"setWhitelist(address,bool)": "53d6fd59",
					"symbol()": "95d89b41",
					"tokenURI(uint256)": "c87b56dd",
					"totalSupply()": "18160ddd",
					"transfer(address,uint256)": "a9059cbb",
					"transferFrom(address,address,uint256)": "23b872dd",
					"transferOwnership(address)": "f2fde38b",
					"whitelist(address)": "9b19251a"
				}
			},
			"storageLayout": {
				"storage": [
					{
						"astId": 1672,
						"contract": "contracts/404.sol:Error404",
						"label": "owner",
						"offset": 0,
						"slot": "0",
						"type": "t_address"
					},
					{
						"astId": 1838,
						"contract": "contracts/404.sol:Error404",
						"label": "name",
						"offset": 0,
						"slot": "1",
						"type": "t_string_storage"
					},
					{
						"astId": 1841,
						"contract": "contracts/404.sol:Error404",
						"label": "symbol",
						"offset": 0,
						"slot": "2",
						"type": "t_string_storage"
					},
					{
						"astId": 1850,
						"contract": "contracts/404.sol:Error404",
						"label": "minted",
						"offset": 0,
						"slot": "3",
						"type": "t_uint256"
					},
					{
						"astId": 1855,
						"contract": "contracts/404.sol:Error404",
						"label": "balanceOf",
						"offset": 0,
						"slot": "4",
						"type": "t_mapping(t_address,t_uint256)"
					},
					{
						"astId": 1862,
						"contract": "contracts/404.sol:Error404",
						"label": "allowance",
						"offset": 0,
						"slot": "5",
						"type": "t_mapping(t_address,t_mapping(t_address,t_uint256))"
					},
					{
						"astId": 1867,
						"contract": "contracts/404.sol:Error404",
						"label": "getApproved",
						"offset": 0,
						"slot": "6",
						"type": "t_mapping(t_uint256,t_address)"
					},
					{
						"astId": 1874,
						"contract": "contracts/404.sol:Error404",
						"label": "isApprovedForAll",
						"offset": 0,
						"slot": "7",
						"type": "t_mapping(t_address,t_mapping(t_address,t_bool))"
					},
					{
						"astId": 1879,
						"contract": "contracts/404.sol:Error404",
						"label": "_ownerOf",
						"offset": 0,
						"slot": "8",
						"type": "t_mapping(t_uint256,t_address)"
					},
					{
						"astId": 1885,
						"contract": "contracts/404.sol:Error404",
						"label": "_owned",
						"offset": 0,
						"slot": "9",
						"type": "t_mapping(t_address,t_array(t_uint256)dyn_storage)"
					},
					{
						"astId": 1890,
						"contract": "contracts/404.sol:Error404",
						"label": "_ownedIndex",
						"offset": 0,
						"slot": "10",
						"type": "t_mapping(t_uint256,t_uint256)"
					},
					{
						"astId": 1895,
						"contract": "contracts/404.sol:Error404",
						"label": "whitelist",
						"offset": 0,
						"slot": "11",
						"type": "t_mapping(t_address,t_bool)"
					},
					{
						"astId": 1421,
						"contract": "contracts/404.sol:Error404",
						"label": "dataURI",
						"offset": 0,
						"slot": "12",
						"type": "t_string_storage"
					},
					{
						"astId": 1423,
						"contract": "contracts/404.sol:Error404",
						"label": "baseTokenURI",
						"offset": 0,
						"slot": "13",
						"type": "t_string_storage"
					}
				],
				"types": {
					"t_address": {
						"encoding": "inplace",
						"label": "address",
						"numberOfBytes": "20"
					},
					"t_array(t_uint256)dyn_storage": {
						"base": "t_uint256",
						"encoding": "dynamic_array",
						"label": "uint256[]",
						"numberOfBytes": "32"
					},
					"t_bool": {
						"encoding": "inplace",
						"label": "bool",
						"numberOfBytes": "1"
					},
					"t_mapping(t_address,t_array(t_uint256)dyn_storage)": {
						"encoding": "mapping",
						"key": "t_address",
						"label": "mapping(address => uint256[])",
						"numberOfBytes": "32",
						"value": "t_array(t_uint256)dyn_storage"
					},
					"t_mapping(t_address,t_bool)": {
						"encoding": "mapping",
						"key": "t_address",
						"label": "mapping(address => bool)",
						"numberOfBytes": "32",
						"value": "t_bool"
					},
					"t_mapping(t_address,t_mapping(t_address,t_bool))": {
						"encoding": "mapping",
						"key": "t_address",
						"label": "mapping(address => mapping(address => bool))",
						"numberOfBytes": "32",
						"value": "t_mapping(t_address,t_bool)"
					},
					"t_mapping(t_address,t_mapping(t_address,t_uint256))": {
						"encoding": "mapping",
						"key": "t_address",
						"label": "mapping(address => mapping(address => uint256))",
						"numberOfBytes": "32",
						"value": "t_mapping(t_address,t_uint256)"
					},
					"t_mapping(t_address,t_uint256)": {
						"encoding": "mapping",
						"key": "t_address",
						"label": "mapping(address => uint256)",
						"numberOfBytes": "32",
						"value": "t_uint256"
					},
					"t_mapping(t_uint256,t_address)": {
						"encoding": "mapping",
						"key": "t_uint256",
						"label": "mapping(uint256 => address)",
						"numberOfBytes": "32",
						"value": "t_address"
					},
					"t_mapping(t_uint256,t_uint256)": {
						"encoding": "mapping",
						"key": "t_uint256",
						"label": "mapping(uint256 => uint256)",
						"numberOfBytes": "32",
						"value": "t_uint256"
					},
					"t_string_storage": {
						"encoding": "bytes",
						"label": "string",
						"numberOfBytes": "32"
					},
					"t_uint256": {
						"encoding": "inplace",
						"label": "uint256",
						"numberOfBytes": "32"
					}
				}
			},
			"userdoc": {
				"kind": "user",
				"methods": {
					"approve(address,uint256)": {
						"notice": "Function for token approvals"
					},
					"ownerOf(uint256)": {
						"notice": "Function to find owner of a given native token"
					},
					"safeTransferFrom(address,address,uint256)": {
						"notice": "Function for native transfers with contract support"
					},
					"safeTransferFrom(address,address,uint256,bytes)": {
						"notice": "Function for native transfers with contract support and callback data"
					},
					"setApprovalForAll(address,bool)": {
						"notice": "Function native approvals"
					},
					"setWhitelist(address,bool)": {
						"notice": "Initialization function to set pairs / etc         saving gas by avoiding mint / burn on unnecessary targets"
					},
					"tokenURI(uint256)": {
						"notice": "tokenURI must be implemented by child contract"
					},
					"transfer(address,uint256)": {
						"notice": "Function for fractional transfers"
					},
					"transferFrom(address,address,uint256)": {
						"notice": "Function for mixed transfers"
					}
				},
				"version": 1
			}
		}
	}
}